:100000005CC0000082C0000080C000007EC0000014
:100010007CC000007AC0000078C0000076C00000FC
:1000200074C0000072C0000070C000006EC000000C
:100030006CC000000C94062468C0000066C000007C
:100040000C94CD2662C000000C94DF290C94112A78
:100050005CC000005AC0000058C0000056C000003C
:1000600054C0000052C0000000000008000201005F
:100070000003040700000000000000000102040863
:100080001020408001020408102001020408102002
:10009000040404040404040402020202020203032E
:1000A0000303030300000000250028002B000000CC
:1000B0000000240027002A00362A11241FBECFEF9B
:1000C000D8E0DEBFCDBF11E0A0E0B1E0E8ECF5E59F
:1000D00002C005900D92AE3EB107D9F725E0AEEE15
:1000E000B1E001C01D92A439B207E1F710E0CDE5FF
:1000F000D0E004C02197FE010E94B32ACC35D1077D
:10010000C9F70E94EE240C94E22A7ACFCF93DF93B2
:10011000882349F0EB0181500E94AD2799838883A1
:10012000DF91CF910895FB0111821082F9CF0F93D7
:100130001F938B019C0183E03695279517950795B2
:100140008A95D1F709501E4F462F477021E030E0C5
:10015000F90102C0EE0FFF1F4A95E2F7AF01F80167
:1001600020812423CB010196211102C090E080E080
:100170001F910F9108950F931F938B019C0183E0B2
:1001800036952795179507958A95D1F7677081E081
:1001900090E001C0880F6A95EAF7F801E950FE4F38
:1001A0002081452B31F48095822380831F910F910C
:1001B0000895822BFACFCF92DF92EF92FF92CF93E6
:1001C000DF936B017C0160E08EE0C816D104E1048E
:1001D000F10490F48EE08C0D0E944C28E6012196EB
:1001E000AE01C701B601C7DFCE01DF91CF91FF900D
:1001F000EF90DF90CF9008958C2DEECF882341F0C3
:100200008150682F70E090E080E050E040E0B3CF94
:100210000895CF92DF92EF92FF92CF93882351F10E
:100220006A017B01CFEFC80F20E030E0A901CB01CC
:10023000B6010E947F2587FF11C0C701B601905803
:100240000E9488259B01AC016C2F70E090E080E05B
:10025000CF91FF90EF90DF90CF90B2C0C701B60171
:100260000E9483258C2FCF91FF90EF90DF90CF904D
:100270000C94C827CF91FF90EF90DF90CF90089516
:100280000F931F938B019C0183E03695279517955B
:1002900007958A95D1F702511E4F462F477021E0EE
:1002A00030E0F90102C0EE0FFF1F4A95E2F7AF01FF
:1002B000F80120812423CB010196211102C090E096
:1002C00080E01F910F9108950F931F938B019C0164
:1002D00083E036952795179507958A95D1F767702E
:1002E00081E090E001C0880F6A95EAF7F801E251D9
:1002F000FE4F2081452B31F48095822380831F910E
:100300000F910895822BFACF2F923F924F925F92D6
:100310006F927F928F929F92AF92BF92CF92DF9215
:10032000EF92FF920F931F93CF93DF93D62EC72E9A
:10033000782E692E49015A01280161E08D2D0E9415
:100340004C28CD2DDC2D8E010F5F1F4FA8016D2D88
:100350007C2D872D962DB8DF20E030E0A901C20169
:10036000B7010E943E26181664F4C201B7010E942C
:1003700088252B01C501B4010E948825A201CE0168
:1003800023D0C801DF91CF911F910F91FF90EF9083
:10039000DF90CF90BF90AF909F908F907F906F90A5
:1003A0005F904F903F902F900895882341F08150A7
:1003B000682F70E090E080E050E040E085CF089545
:1003C000862FB9010C94C8279C01FC01E859FF4F06
:1003D000E491E33061F140F4E13011F1E23021F1D8
:1003E00060E0822F0C948828E730C1F1E83009F4EE
:1003F00041C0E430A9F7809180008C7F82608093B7
:10040000800090918100907E9061692B60938100C3
:1004100050938700409386008091800080621BC0CB
:1004200084B5806884BDDCCF84B58062FBCF8091C9
:1004300080008C7F82608093800090918100907E0C
:100440009061692B609381005093870040938600F0
:1004500080918000806880938000C2CF8091B0003E
:1004600080688093B0008091B100887F682B609392
:10047000B100B6CF8091B0008062F3CF90E080E011
:1004800008950F931F93009709F487C061157105B4
:1004900009F483C000911F011091200120912101D6
:1004A000309122010E3F1F4F2F4F3F4F09F066C082
:1004B0004FEF5FEFBA0140931F015093200160930B
:1004C00021017093220140911F0150912001609100
:1004D000210170912201DC011296ED91FC91808145
:1004E0009181A281B3818093F8029093F902A09345
:1004F000FA02B093FB0284819581A681B781809333
:10050000F4029093F502A093F602B093F70280856F
:100510009185A285B3858093F0029093F102A09318
:10052000F202B093F30284859585A685B785809302
:10053000EC029093ED02A093EE02B093EF021092C2
:10054000E8021092E9021092EA021092EB026DD5D5
:100550008AE398E090930102809300029093030253
:100560008093020251D4009731F421E030E03093BF
:10057000FD022093FC021F910F91089500911F012D
:10058000109120012091210130912201DB010D9376
:100590001D932D933C93139796CF8FEF9FEFEBCF47
:1005A0008F929F92AF92BF92CF92DF92EF92FF9283
:1005B0001F93CF93DF934B015C011091FF0282E008
:1005C00090E09093FD028093FC0281149104A104B9
:1005D000B10441F48091FF02811104C08091FE02B8
:1005E000C1E08111C0E0C12CD12C76018091FF02C5
:1005F000811106C08091FE02811102C0CC23D9F086
:1006000083E090E09093FD028093FC02CC2379F18B
:10061000CCE9DFEF111102C00E949F0BCE01DF91E8
:10062000CF911F91FF90EF90DF90CF90BF90AF9050
:100630009F908F9008956AE070E080E090E00E94C3
:100640003C2780E1C80E87E2D81EE11CF11C8FEF29
:1006500088169806A806B80631F0C1E08C149D04EF
:10066000AE04BF0408F0C0E080E002D4BFCFD0E009
:10067000C0E0D0CFCF92DF92EF92FF920F931F9303
:10068000CF93DF938F3F910511F008F050C0209178
:10069000FC023091FD022330310539F02091FC023B
:1006A0003091FD022130310531F424E030E0309307
:1006B000FD022093FC026A017B01EC01823091056E
:1006C000A0F011E0AE01C701B6019DD3AB01BC01A2
:1006D000CE011123F9F0DF91CF911F910F91FF907F
:1006E000EF90DF90CF900C94C80D8C01000F111F7C
:1006F00000501E4FD8018D919C91892B11F30E94BF
:10070000D20D0297F1F6D801ED91FC91CE01099539
:10071000182FD8CF0E94EA0D90E080E0DF91CF91B2
:100720001F910F91FF90EF90DF90CF9008958FEF82
:100730009FEFF4CF80E09CC3CF93DF9386E090E0FF
:100740009093FD028093FC02ECD3EC01E0E0F2E038
:1007500084E0DF011D928A95E9F789D71092FD02A6
:100760001092FC02CE01DF91CF9108958091FE029C
:1007700008958091E702089560931F01709320010E
:10078000809321019093220190E080E00895CF9220
:10079000DF92EF92FF920F931F93CF93DF9300D0DE
:1007A000CDB7DEB7C0900001D0900101E09002010A
:1007B000F0900301A701960160918605709187056D
:1007C00080918805909189050E947F25882341F0BA
:1007D000C0928605D0928705E0928805F09289053F
:1007E0006EE070E080E090E0A2DC9093850580935D
:1007F000840543E050E0BE016F5F7F4F87DC2091AE
:100800001C0130911D01A981BA810E94B92A60930F
:100810007A0570937B0580937C0590937D0565E058
:1008200070E080E090E02CDD8C0190939105809346
:10083000900580911E01813009F0B3C0E091C102A2
:10084000F091C2022091040130910501409106010E
:100850005091070160817181828193810E947F257F
:1008600087FF96C0609108017091090180910A018B
:1008700090910B01209114013091150140911601C6
:10088000509117010E9442262091180130911901C0
:1008900040911A0150911B010E9442266B017C017C
:1008A00020E030E04FE753E40E947F2518160CF457
:1008B00081C020E030E0A901C701B6010E943E26B8
:1008C00087FF03C0C12CD12C7601B701A601C80156
:1008D000A0DC4091AE025091AF026091B0027091E5
:1008E000B10290E080E0C6DE4091B6025091B702BE
:1008F0006091B8027091B90281E090E0BBDE609136
:10090000AE027091AF028091B0029091B1026F5F20
:100910007F4F8F4F9F4F6093AE027093AF028093D3
:10092000B0029093B1020091C1021091C2020E94E4
:10093000B4259B01AC016091B2027091B302809129
:10094000B4029091B5020E944226F801608371833F
:10095000828393838091B6029091B702A091B802EE
:10096000B091B9020196A11DB11D8093B60290937A
:10097000B702A093B802B093B9020F900F90DF9125
:10098000CF911F910F91FF90EF90DF90CF9008953E
:1009900060910C0170910D0180910E0190910F01F9
:1009A00069CF6091100170911101809112019091B5
:1009B000130160CFC12CD12C8FE7E82E83E4F82EF1
:1009C00084CF8F929F92AF92BF92DF92EF92FF926D
:1009D0000F931F93CF93DF93E6E1F2E08EEB92E06B
:1009E00097838683C1ECD2E0D0935702C09356021E
:1009F00002EB12E0158B048BF0938102E0938002EE
:100A0000F583E48321E030E0DC012D933C9389E41D
:100A100091E09387828723EC32E03983288340E09A
:100A200050E060EA71E44093BA025093BB026093D5
:100A3000BC027093BD024FE652E163E87AE3D8014D
:100A40004D935D936D937C931397CCE9D2E083EB48
:100A50009FE7A7EBBCE288839983AA83BB838FE0DF
:100A600096EAA9E9B9ED8093A0029093A102A09320
:100A7000A202B093A3028EE19BE3AAE0B8EB8093BD
:100A8000A4029093A502A093A602B093A70282ECC1
:100A90009AE6A9E0BAEE8093A8029093A902A093E7
:100AA000AA02B093AB02AAE0B2E0B383A283E4E06F
:100AB000F2E01196FC93EE938BE591E091838083B5
:100AC00093838283958384838CEA92E015969C932A
:100AD0008E9314971396DC93CE93129717963C93AC
:100AE0002E931697CEE7D5E0188280910001909161
:100AF0000101A0910201B091030188879987AA871B
:100B0000BB87812C912C5401839489829A82AB8279
:100B1000BC826EE070E080E090E04DDB9F838E83CE
:100B2000DD24D394DD821C868D869E86AF86B88AAE
:100B3000E12CF12C8701A801970165E070E080E0CD
:100B400090E0E2DB9B8B8A8BD98ADF91CF911F915A
:100B50000F91FF90EF90DF90BF90AF909F908F909C
:100B6000089580917E0581111DC081E080937E05EE
:100B700080917F0590918005A0918105B0918205BB
:100B80000197A105B10571F480918305882351F087
:100B90006EE070E080E090E0CADA90938505809383
:100BA00084052CDB80918A0581112AC081E0809325
:100BB0008A0580918B0590918C05A0918D05B0914F
:100BC0008E050197A105B105D9F480918F05882381
:100BD000B9F065E070E080E090E052DB9093910521
:100BE0008093900540E050E0BA0113DB65E070E0CF
:100BF00080E090E045DB9093910580939005D5CB04
:100C000008954F925F926F927F928F929F92AF92D0
:100C1000BF92CF92DF92EF92FF920F931F93F894BF
:100C20004090D7025090D8026090D9027090DA02BA
:100C3000C090CB02D090CC02E090CD02F090CE02DA
:100C40004130510509F0A4C09B01AC0124193509BC
:100C50004609570929013A010091D3021091D402A3
:100C60002091D5023091D60248015901840C951C7F
:100C7000A61CB71C80169106A206B306A0F400912C
:100C8000CF021091D0022091D1023091D2020F5F99
:100C90001F4F2F4F3F4F0093CF021093D00220934E
:100CA000D1023093D2028092D3029092D402A092C9
:100CB000D502B092D6020091CF021091D0022091BD
:100CC000D1023091D2028092DB029092DC02A0929B
:100CD000DD02B092DE020093DF021093E002209367
:100CE000E1023093E2026093D7027093D8028093BE
:100CF000D9029093DA02A8EEB3E0A30192010E9418
:100D0000C82A6C0D7D1D8E1D9F1D6093CB027093B4
:100D1000CC028093CD029093CE0200911F011091DE
:100D2000200120912101309122010F3F1F4F2F4FB1
:100D30003F4FF1F000911F011091200120912101FE
:100D4000309122010E3F1F4F2F4F3F4F89F0C0902F
:100D50001F01D0902001E0902101F090220121E0BC
:100D60008C149D04AE04BF0408F420E02093E70235
:100D700078941F910F91FF90EF90DF90CF90BF90EC
:100D8000AF909F908F907F906F905F904F9008955D
:100D90004B015C0184189508A608B708A3019201CD
:100DA000261B370B480B590B6415750586059705EF
:100DB000D0F082169306A406B50640F420E030E099
:100DC000A90181149104A104B10491F4A8EEB3E047
:100DD0000E94C82AA7019601261B370B480B590B06
:100DE000CA01B901C5CF82169306A406B50670F7ED
:100DF000A8EEB3E0A50194010E94C82A6C0D7D1DE8
:100E00008E1D9F1DB5CFFDCECF93DF9300D000D0B8
:100E1000CDB7DEB71C821B821A8219821092E302C0
:100E20001092E4021092E5021092E602BE016F5F9A
:100E30007F4FCE0103960E94EA2369817A818B81DC
:100E40009C810E94E21C009761F4BE016F5F7F4F9E
:100E5000CE0103960E94F62369817A818B819C8161
:100E60002DD50F900F900F900F90DF91CF91089597
:100E7000FF920F931F93CF93DF93082F60E070E0F2
:100E8000CB010E943C27FF24F3940E94CD1BEC0170
:100E9000892B89F010E0CE3F8FEFD80769F000234F
:100EA00061F160E070E0CB010E943C2781E090E0BE
:100EB000892B59F322C011E024D5EC01892B21F0B4
:100EC000CE3F8FEFD80759F711111EC011E02296BF
:100ED00009F410E00E947E1BEC01892B21F0CE3F2B
:100EE0008FEFD807E1F6111111C011E0CE3F8FEF5F
:100EF000D80709F410E001110BC0CE01DF91CF91AA
:100F00001F910F91FF90089511E0E4CF11E0F3CF0E
:100F100060E070E0CB010E943C271F25812F90E00C
:100F2000C7CFCF93DF938091E702882321F060E061
:100F300070E0CB014DD636D6D0E0C0E0892B71F001
:100F40006AE070E080E090E00E943C2781E090DF62
:100F500029D62196C03D27E0D20781F728D60E94E6
:100F6000361D1092FF021092FE021092F8021092AB
:100F7000F9021092FA021092FB021092F4021092FF
:100F8000F5021092F6021092F7021092F0021092FF
:100F9000F1021092F2021092F3021092EC021092FF
:100FA000ED021092EE021092EF021092E8021092FF
:100FB000E9021092EA021092EB024EEF5FEF6FEF40
:100FC0007FEF40931F0150932001609321017093A4
:100FD00022011092E702EBEDF2E028E0DF011D9222
:100FE0002A95E9F71092D7021092D8021092D902EE
:100FF0001092DA021092D3021092D4021092D5020B
:101000001092D6021092CF021092D0021092D1020A
:101010001092D2021092CB021092CC021092CD020A
:101020001092CE02DF91CF91089510920B0310928F
:101030000C0310920D0310920E0310920A0380917C
:101040001303909114039093090380930803109263
:1010500007031092060310920203109203031092EA
:101060000403109205031092100310920F0390E0F6
:1010700080E00895CF92DF92EF92FF920F931F933B
:10108000CF938C01019709F055C020911303309143
:101090001403809108039091090340911303509128
:1010A000140350930903409308032817390781F06C
:1010B000109207031092060310920203109203038A
:1010C00010920403109205031092100310920F0364
:1010D0008091130390911403019761F580910F03A0
:1010E00090911003892B21F480912301811112C06A
:1010F00080910F03909110030197E1F48091020316
:1011000090910303A0910403B09105030197A105F9
:10111000B10581F4109202031092030310920403AC
:10112000109205031092230182E090E09093100347
:1011300080930F038091130390911403019709F09A
:101140001CC18091290390912A038017910709F00F
:1011500014C18091250390912603A0912703B0919B
:101160002803009709F409C12091240321110DC01F
:101170004091250350912603609127037091280325
:10118000452B462B472B09F4F8C020910F033091D3
:1011900010032230310509F0F0C02091060321111F
:1011A000ECC0FC01C080D180E280F38080910A0312
:1011B000882309F4D3C08091160390911703892BDB
:1011C00009F4FEC0209116033091170381E022300C
:1011D000310509F080E02091160330911703C1E03A
:1011E0002130310549F02091160330911703C1E0F9
:1011F0002230310509F0C0E0882309F456C020915F
:101200002003309121034091220350912303C70111
:10121000B6010E943E2687FD14C020912003309124
:101220002103409122035091230360910B0370919D
:101230000C0380910D0390910E030E947F2587FD82
:1012400022C020912003309121034091220350912C
:101250002303C701B6010E943E26181634F52091DB
:101260002003309121034091220350912303609188
:101270000B0370910C0380910D0390910E030E945B
:101280007F25811112C08091180390911903A091BC
:101290001A03B0911B03892B8A2B8B2B19F481E045
:1012A0008093070381E080930603CC2309F456C0A2
:1012B0002091200330912103409122035091230378
:1012C000C701B6010E947F2587FF14C0209120032B
:1012D00030912103409122035091230360910B032D
:1012E00070910C0380910D0390910E030E943E2695
:1012F00087FF22C0209120033091210340912203D7
:1013000050912303C701B6010E947F25811126C099
:101310002091200330912103409122035091230317
:1013200060910B0370910C0380910D0390910E035B
:101330000E943E26181694F4809118039091190388
:10134000A0911A03B0911B03892B8A2B8B2B19F4C4
:1013500081E08093070381E08093060381E0909110
:101360000603911180E080930A03C0920B03D09290
:101370000C03E0920D03F0920E030130110509F009
:1013800067C180910F0390911003892BD9F41092BB
:1013900015031092060380912301882379F082E0DF
:1013A00090E09093100380930F03109223012091FB
:1013B00013033091140381E0232BE9F080E01BC07C
:1013C00081E009CF1092230180911503882349F011
:1013D000109207031092100310920F03109215033E
:1013E000EDCF8091130390911403892BE1F080914C
:1013F00006031092060320910F0330911003223050
:10140000310509F45EC088F42115310509F448C09E
:101410002130310509F4F3C010920703109206033E
:101420001092150338C081E0E6CF2330310509F46E
:10143000B1C02430310581F740910203509103037C
:101440006091040370910503411551056105710513
:1014500061F04150510961097109409302035093B1
:1014600003036093040370930503409102035091BA
:1014700003036091040370910503452B462B472B12
:10148000D9F420911103309112032130310509F074
:1014900046C0109207031092100310920F030CC065
:1014A00080912301882341F082E090E09093100323
:1014B00080930F0310922301109200038091070381
:1014C000CEC08823C9F38091180390911903A0918D
:1014D0001A03B0911B03181619061A061B060CF006
:1014E0007DC08091130390911403019709F076C099
:1014F0008091180390911903A0911A03B0911B03D6
:101500008093020390930303A0930403B093050315
:1015100083E090E09093100380930F03CDCF409130
:101520001C0350911D0360911E0370911F03452BF6
:10153000462B472BA9F01092070380911C03909132
:101540001D03A0911E03B0911F038093020390938B
:101550000303A0930403B093050381E090E0DACF86
:10156000882399F08091240190912501A091260172
:10157000B09127018093020390930303A093040387
:10158000B093050384E090E0C5CF1092070382E09A
:1015900090E0C0CF8091020390910303A0910403D7
:1015A000B09105030097A105B10559F00197A10974
:1015B000B1098093020390930303A0930403B093B3
:1015C00005038091020390910303A0910403B0915D
:1015D0000503892B8A2B8B2B09F06ECF8091240178
:1015E00090912501A0912601B0912701892B8A2B8A
:1015F0008B2B09F44ECF81E080930703B3CF40914A
:101600000203509103036091040370910503411597
:1016100051056105710561F0415051096109710978
:1016200040930203509303036093040370930503F4
:1016300040910203509103036091040370910503EC
:10164000452B462B472B09F037CF8111C7CF9FCFB2
:1016500080910003882309F431CF80910103CF9159
:101660001F910F91FF90EF90DF90CF90089510920F
:101670000B0310920C0310920D0310920E031092A4
:101680000A031092100310920F0310920903109294
:10169000080310922A031092290310920703109254
:1016A0000603109202031092030310920403109297
:1016B000050310920103109200031092250310926B
:1016C00026031092270310922803109224031092ED
:1016D000200310922103109222031092230388EE1C
:1016E00093E0A0E0B0E08093240190932501A093C3
:1016F0002601B093270110921C0310921D03109233
:101700001E0310921F0310921803109219031092D7
:101710001A0310921B03109217031092160381E014
:101720008093230110921503109214031092130357
:10173000109212031092110390E080E008958091BE
:10174000130390911403892B19F5809123018823A9
:1017500051F080911503811106C081E0809301034F
:10176000809300030895209115033091230181E0B7
:1017700090E0332311F090E080E030E08223932367
:10178000892B21F01092010381E0EACF109200032F
:10179000089582E090E0FA01918380838FEF9FEFBC
:1017A0000895CF93DF93EA01009711F00E94531E32
:1017B0001982188290E080E0DF91CF910895DB01DB
:1017C000009719F48FEF8C9308952EEF2C930F96BA
:1017D0008F30910508F033C0FC01EF50F44F0C94AA
:1017E000B32A1D0C1B0C190C170C150C110C130C27
:1017F0000F0C0D0C0B0C080C040C000C060C1F0C31
:1018000080E311968C93089589E2FBCF82E2F9CFB1
:1018100011961C92089583E2F4CF81E2F2CF81E128
:10182000F0CF87E2EECF8AE2ECCF80E1EACF84E22C
:10183000E8CF88E2E6CF86E2E4CF81E3E2CF80E240
:10184000E0CF809137039091380308959093380347
:10185000809337030895809136030895909136035D
:10186000892B809336030895982F909580913603A5
:1018700089238093360308958091350308958091DC
:1018800033039091340308956115710559F0FB01FC
:1018900030E020E070E060E02417350719F06115B2
:1018A000710511F0CB010895A081B181A817B90786
:1018B00009F4BF012F5F3F4F3696EECF8091390379
:1018C00081111CC062D268D290932C0380932B03A9
:1018D0000E9466160E9478169093300380932F031F
:1018E0000E94E81A0E94EF1A90932E0380932D0312
:1018F00081E08093390390E080E0089584EF9FEFCA
:1019000008958F929F92AF92BF92CF92DF92EF9203
:10191000FF920F931F93CF93DF93CDB7DEB72A9734
:101920000FB6F894DEBF0FBECDBF1A861986188693
:101930001F821E821D821C821B821A821982809144
:10194000390307EF1FEF882309F49CC08E010D5F58
:101950001F4F9E012B5F3F4FAE01495F5F4FBE019E
:10196000675F7F4F90E080E00E94681C8C010097C9
:1019700021F00596029708F0DBC029853A852115EC
:10198000310509F402C1ED80FE804B815C81B70115
:10199000640F751F8F8198858617970708F4F5C027
:1019A000E20EF31ED7019C91903C09F07FC04230BB
:1019B000510508F47BC011968C91409137035091EA
:1019C0003803452B09F49CC0913F08F071C02CE10D
:1019D000290F2D3008F48BC02DE2290F203108F497
:1019E00089C0903C21F48150823008F483C088E3A0
:1019F000890F8B3008F481C09FEDC92E9BE0D92E52
:101A0000E9ECFBE06D817E81AE014F5F5F4F898520
:101A10009A8509955C01C114D104A1F189809A804D
:101A20008114910479F18B819C818815990508F4C2
:101A300087C010E000E04B815C8170E060E0C7018E
:101A40000E94DB2A01151105E9F449815A81698553
:101A50007A858D819E81680F791FC501F6010995F0
:101A6000E980FA800D811E812F81388549855A854C
:101A70006FEF7FEF81E090E00E94041C8C01892BC6
:101A800009F056C0C8012A960FB6F894DEBF0FBE03
:101A9000CDBFDF91CF911F910F91FF90EF90DF901D
:101AA000CF90BF90AF909F908F90089580E085CFAA
:101AB00030E020E0220F331FF901E55DFC4F01907B
:101AC000F081E02D309709F497CF892F90E00995A8
:101AD000009709F491CFDC011296ED91FC911397D8
:101AE0001496CD90DC90309709F08CCF1FC021E088
:101AF00030E0E0CF22E030E0DDCF23E030E0DACFAD
:101B0000D12CC12CE1EDFBE09F3F09F07BCFE091B0
:101B10002B03F0912C03309721F4C90104EF1FEF40
:101B20000CC08FEF90E009950097A9F604EF1FEF26
:101B300089859A85009709F4A5CF0E94531EA2CFEC
:101B40000E94311D8C0189859A850E94531E70E088
:101B500060E0C4010E94CA1C98878F830E94011C08
:101B60009E838D836F8178856115710559F0C80159
:101B70000E94DF1F9A87898706EF1FEF892B09F0E4
:101B800058CF59CF08EF1FEF56CF08EF1FEFD0CF38
:101B900020913903222319F020E00C947D1687EF61
:101BA0009FEF0895809137039091380308950E9424
:101BB000F41A0E944E1AF5D0EBE2F3E088E0DF0160
:101BC0001D928A95E9F71092390390E080E008951C
:101BD0000C94AB1821E040E050E0BA010C947D1663
:101BE00086E090E0FA019183808390E080E00895A0
:101BF00047E050E06EE571E047CEDF92EF92FF9252
:101C00000F931F93CF93DF938A01EC01C60FD71F69
:101C1000E0903D03F0903E03D9800E94191DD81634
:101C2000190678F082E090E0F801918380838EEFCE
:101C30009FEFDF91CF911F910F91FF90EF90DF9079
:101C40000895EF2841F482E090E0F80191838083C9
:101C500084EF9FEFEECF898180933C0390E0019663
:101C6000F8019183808390E080E0E3CFCF93DF930E
:101C7000EA010E945C19882321F00E94261D0E941F
:101C80005D1982E090E0998388838BEF9FEFDF916D
:101C9000CF910895CF93DF93EB0186E0FB01119282
:101CA0008A95E9F78FEF8883D6DD8983E5DD8A831E
:101CB000E6DD9D838C83DF91CF910895CF93DF93F1
:101CC000EA010E945F19811109C082E090E09983C6
:101CD000888385EF9FEFDF91CF91089590E080E0BA
:101CE000B5DD81E090E09983888390E080E0F3CFD8
:101CF0000F931F93CF93DF93EA018C01060F171FF9
:101D00000E945F1981110BC082E090E09983888363
:101D100085EF9FEFDF91CF911F910F910895F8010B
:101D20008181823038F082E090E0998388838EEF61
:101D30009FEFF0CF81E090E089DD88E090E099832B
:101D4000888390E080E0E6CFCF93DF930097D1F4D3
:101D5000EB01FB01329686E0DF011D928A95E9F7DF
:101D60008FEF888385E089831A820E94191D8B83F7
:101D70000E94181D9D838C8381E08E838F83DF9169
:101D8000CF910895DF91CF911ACD88EF9DE0909388
:101D90003B0380933A03089580913A0390913B036B
:101DA000089510923B0310923A03089580913D03E9
:101DB00090913E030895411105C06115710581059B
:101DC000910561F060933D0370933E0380933F0360
:101DD000909340034093410381E0089580E008958B
:101DE000FF920F931F93CF93DF938A01EC01C60FED
:101DF000D71FF9800E94191DF816190668F082E0B5
:101E000090E0F801918380838EEF9FEFDF91CF9177
:101E10001F910F91FF9008956C817D818E819F812C
:101E20004B81C9DF811108C082E090E0F801918305
:101E3000808384EF9FEFEACF898180933C0390E019
:101E40000196F8019183808390E080E0DFCFCF930B
:101E5000DF93EA01FC01E60FF71F6481758186813B
:101E600097814381A8DF811109C082E090E09983C6
:101E7000888384EF9FEFDF91CF91089581E090E018
:101E80009983888390E080E0F6CFEDE3F3E0408132
:101E9000518162817381480F511D611D711D408305
:101EA0005183628373830895CF93C0913C034C2F79
:101EB00050E060913D0370913E0301960E94D22A4A
:101EC0008C2FE3DF10923C03CF910895009799F493
:101ED00080913D0390913E032FEFFB012083892BDE
:101EE00059F020913C0330E02F5F3F4F2417350716
:101EF00019F4CB01D9CF63CC0895009799F4809160
:101F00003D0390913E032FEFFB012083892B59F075
:101F100020913C0330E02F5F3F4F2417350719F421
:101F2000CB01C2CF4CCC089523E1AC01249FC0016A
:101F3000259F900D1124E0914603F0914703E80F8F
:101F4000F91F238134812250310981E0223031058B
:101F500008F080E008950F931F93CF93DF930091D3
:101F6000480310914903D0E0C0E080E00C171D0742
:101F700049F491E0811190E0892FDF91CF911F9179
:101F80000F9108958111F5CFCE01CEDF2196EECFCE
:101F9000A0914603B0914703109729F1209148037F
:101FA0003091490382179307F0F453E1589F900151
:101FB000599F300D1124A20FB31FED91FC91119781
:101FC000309789F012968C91681768F48BE0689FBF
:101FD000E00DF11D112480819181892B21F081E098
:101FE0009281491708F080E008959C0143E1429FE7
:101FF000C001439F900D1124E0914603F0914703E7
:10200000E80FF91F8385823091F481E090E06581CB
:10201000768140912801509129016417750711F4C8
:1020200090E080E0892B19F081E0232B09F080E01B
:102030000895EF92FF920F931F93CF93DF93EA01DE
:10204000FC01E60FF71F02811381E480F5804F2D1C
:102050006E2DC8019DDF81110DC082E090E0998353
:1020600088838EEF9FEFDF91CF911F910F91FF90AB
:10207000EF900895C80158DF882339F082E090E09E
:102080009983888388EF9FEFEECF10932F01009301
:102090002E01E0923001F092310181E090E09983CD
:1020A000888390E080E0DFCFCF92DF92EF92FF92C3
:1020B0000F931F93CF93DF937A01EC01C60FD71FC5
:1020C000C0902E01D0902F0100913001109131016C
:1020D000412F602FC6015CDF811110C082E090E0CB
:1020E000F701918380838AEF9FEFDF91CF911F915A
:1020F0000F91FF90EF90DF90CF900895C60114DF0D
:10210000882341F082E090E0F7019183808388EF9B
:102110009FEFEBCF4C815D816E817F819A818981B8
:102120008F3F41F082E090E0F701918380838EEF52
:102130009FEFDBCFE3E1EC9D9001ED9D300D11248D
:10214000E0914603F0914703E20FF31F0190F08105
:10215000E02D2BE0029FE00DF11D11240190F08194
:10216000E02D27E0129FE00DF11D11248083918363
:102170008B81828343835483658376831F5F1093AF
:10218000310181E090E0F7019183808390E080E06D
:10219000ACCFEF92FF920F931F93CF93DF937A010F
:1021A0008C01060F171FC0914603D091470320975B
:1021B00081F021E030E0F801828193814091480371
:1021C000509149038417950710F030E020E0232B4D
:1021D00071F482E090E0F701918380838EEF9FEFAE
:1021E000DF91CF911F910F91FF90EF90089543E100
:1021F000489F9001499F300D1124C20FD31F94DED8
:10220000882341F082E090E0F7019183808388EF9A
:102210009FEFE6CFF8012481358120383105C8F6DB
:1022200087818111D6CF4181842F90E08F7E0097E6
:1022300041F082E090E0F7019183808386EF9FEF89
:10224000CFCF4F833E832D83268128871986223066
:1022500010F421E0288721E030E0F701318320836A
:10226000BFCF88E090E0FA019183808390E080E026
:102270000895FB018FEF808381E181838FEF9FEFD2
:102280009383828380E890E095838483168217820B
:102290000895FB018FEF808391E091838283938384
:1022A000848384E3858381E090E097838683089527
:1022B000DF92EF92FF920F931F93CF93DF93EA0188
:1022C000FC01E60FF71F8181813071F082E090E020
:1022D000998388838FEF9FEFDF91CF911F910F91AB
:1022E000FF90EF90DF90089582819381D4802581C3
:1022F000E680F78000914603109147030115110510
:1023000039F482E090E0998388838CEF9FEFE4CFEB
:1023100040914803509149038417950738F082E0B3
:1023200090E0998388838EEF9FEFD6CF892B39F089
:1023300082E090E09983888386EF9FEFCDCF8D2D4B
:102340008D7FB1F72130A1F781E0D11006C091E077
:10235000E916F10431F080E004C0E2E0EE16F10489
:10236000D0F3882329F390E080E0DEDD882339F084
:1023700082E090E09983888388EF9FEFADCFF801EA
:10238000D38681E08487F686E586108A178681E009
:1023900090E09983888390E080E09ECF4CE050E00D
:1023A00068E871E071CA8F929F92BF92CF92DF92DC
:1023B000EF92FF920F931F93CF93DF93EA01FC01FB
:1023C000E60FF71F828193810481B580E091460377
:1023D000F0914703309791F482E090E099838883ED
:1023E0008CEF9FEFDF91CF911F910F91FF90EF90B6
:1023F000DF90CF90BF909F908F90089520914803D9
:10240000309149038217930738F082E090E0998376
:1024100088838EEF9FEFE6CF23E1289F6001299FFD
:10242000D00C1124EC0DFD1DE080F180E114F104CD
:1024300099F28281081748F78BE0089F80011124E8
:10244000E00EF11EF70180819181892B29F6BB20D6
:10245000E1F2F7E0BF9E40011124C4010E941A1E60
:10246000F70191838083E0914603F0914703EC0DDF
:10247000FD1D0190F081E02DE00FF11F8081918121
:10248000009739F482E090E0998388838DEF9FEF85
:10249000A9CFA40170E060E00E94DB2A809146038E
:1024A00090914703C80ED91EF60180819181080FD3
:1024B000191FF801B28281E090E09983888390E04F
:1024C00080E090CFAF92BF92CF92DF92FF920F93B6
:1024D0001F93CF93DF93EA01FC01E60FF71F828180
:1024E0009381F48000914603109147030115110573
:1024F00081F482E090E0998388838CEF9FEFDF91F5
:10250000CF911F910F91FF90DF90CF90BF90AF9030
:10251000089520914803309149038217930738F0BA
:1025200082E090E0998388838EEF9FEFE8CF2FEFD2
:102530002F0D2C3FA8F723E1289F6001299FD00C85
:1025400011240C0D1D1DF80180819181892B89F6C4
:10255000FBE0FF9E50011124C5010E941A1EF801E4
:1025600091838083E0914603F0914703EC0DFD1DBC
:1025700080819181009739F482E090E0998388838B
:102580008DEF9FEFBCCFA50170E060E00E94DB2AD9
:10259000E0914603F0914703EC0DFD1DF28281E0CE
:1025A00090E09983888390E080E0A9CFCF92DF927A
:1025B000EF92FF920F931F93CF93DF93860F971F96
:1025C000FC01028113818091460390914703892B7E
:1025D00081F082E090E0FA01918380838CEF9FEF9D
:1025E000DF91CF911F910F91FF90EF90DF90CF90EF
:1025F0000895C801B0E0A0E00197A109B1098F3F9B
:102600009F4FA105B10540F082E090E0FA0191836F
:1026100080838EEF9FEFE4CF7A0183E1809F60019A
:10262000819FD00C1124C6010E941A1EEC01009754
:1026300041F482E090E0F701918380838DEF9FEF7A
:10264000CFCFA60170E060E00E94DB2AD093470361
:10265000C0934603109349030093480390E080E041
:102660002FEF3FEF41E061E070E08017910741F408
:1026700081E090E0F7019183808390E080E0B0CF2B
:102680003A8B298B1B864C877E876D87188A1F861D
:1026900001966396EACFCF92DF92EF92FF920F936B
:1026A0001F93CF93DF93EC01D12CC12C10E000E0FD
:1026B000F12CE12C6A8170E006171707BCF0660F59
:1026C000771FAE014F5E5F4FC7010E947F1E0097CC
:1026D00021F02FEF3FEF3A8B298BDF91CF911F91A4
:1026E0000F91FF90EF90DF90CF900895E881F981EE
:1026F000EC0DFD1D438154818D859E85489F900181
:10270000499F300D589F300D1124C90101960115C4
:10271000110519F44F8144FD049661E070E00E94B8
:10272000CA1CE816F90608F47C010F5F1F4F8BE006
:10273000C80ED11CBFCFF8942091440330914503BB
:1027400081E02115310509F080E0232B09F0789410
:1027500008952F923F924F925F926F927F928F9245
:102760009F92AF92BF92CF92DF92EF92FF920F9320
:102770001F93CF93DF933C01660E771EF301828196
:1027800093814C01B12CA12CC0914603D0914703F9
:10279000209769F021E030E060914803709149038F
:1027A0008617970710F030E020E0232BD1F482E069
:1027B00090E0FA01918380838EEF9FEFDF91CF91BC
:1027C0001F910F91FF90EF90DF90CF90BF90AF904F
:1027D0009F908F907F906F905F904F903F902F9041
:1027E00008958092320190923301A0923401B09208
:1027F000350163E1689F9001699F300D1124C20F7C
:10280000D31FF3018181833040F082E090E0FA0130
:102810009183808386EF9FEFD1CF2A012B813C816A
:10282000232BF1F4288139819F8191FF2EC0232B26
:1028300009F46FC020914B039A81422F490F55270D
:10284000551FBA0141E050E06138710514F050E0C5
:1028500040E0452B09F45DC02A87920F90934B030B
:102860008150823008F481C066DF882309F4D8C023
:10287000F3018181813009F48DC008F47BC082307E
:1028800009F4C6C090E080E0ADC0232B09F441C03C
:1028900020914A039A81E22FE90FFF27FF1F41E0B1
:1028A00050E0ED3FF10514F050E040E0452B89F198
:1028B0002A87920F90934A03D3CFA081B181A20FB0
:1028C000B31F11966C91060F111D0196295F3F4FA2
:1028D0008417950794F38D859E85089F1001099FA5
:1028E000300C189F300C1124C114D104D1F48F8105
:1028F00084FF17C00E94181DF5E02F0E311C21E047
:102900008215930508F420E0A701455F5F4F211170
:102910000EC082E090E0F2019183808387EF9FEF09
:102920004DCF0E94181D2FEF221A320AE8CF88815E
:102930009981E80EF91EF70114830383FFEFCF1A84
:10294000DF0A7A018A818C151D0409F00CF48CCF02
:10295000E881F981EE0DFF1D428150E030E020E07A
:1029600010E000E090E080E0B3CFF12CE12CD12C1E
:10297000C12CE8CF81E090E09C838B83ECDA882344
:1029800009F480CF81E090E00E94260C80E40E9450
:10299000340C78CF89899A89019661F083E090E0C0
:1029A0009C838B8382E090E00E94260C80E40E944E
:1029B0002E0C68CF8D819E812091280130912901B4
:1029C00082179307D1F460912C0170912D01AE0113
:1029D0004F5E5F4F80912A0190912B010E949E1FB4
:1029E0000097E1F2789422E030E0F2013183208315
:1029F000892B99F08DEF9FEFE1CE89288A288B28CB
:102A000069F6029758F6CE0146DE188A1F86E8CF8F
:102A100082E090E09C838B8335CF90E080E0CECE47
:102A200082E090E0F2019183808385EF9FEFC6CE34
:102A30008F929F92AF92BF92CF92DF92EF92FF92CE
:102A40000F931F93CF93DF93EA018C01060F171F9B
:102A5000F8018181833098F082E090E09983888347
:102A600086EF9FEFDF91CF911F910F91FF90EF9035
:102A7000DF90CF90BF90AF909F908F9008958091FE
:102A8000460390914703892B61F081E090E020910B
:102A9000480330914903232B11F490E080E0892B07
:102AA00039F482E090E0998388838EEF9FEFDACF4C
:102AB00042DE882309F4E0C0F8018181813009F405
:102AC00096C0E8F0823099F4209148033091490390
:102AD000E0914603F091470390E080E041E050E050
:102AE0002817390709F0BEC036DA811117C078946B
:102AF00081E090E09983888390E080E0B3CF2091DB
:102B0000480330914903E0914603F091470390E078
:102B100080E041E050E02817390741F481E090E07F
:102B20000E94260C80E40E94340CE1CF6381748102
:102B3000672B11F05483438301967396ECCFE09199
:102B40004603F0914703E00FF11F238134812230C7
:102B50003105D9F4218932892F3F3F4FB1F42581C6
:102B6000368140912801509129012417350761F5DC
:102B7000AF014F5E5F4F60912C0170912D018091EC
:102B80002A0190912B010E949E1FEFEFCE1ADE0AC0
:102B9000EE0AFE0A0D5E1F4F409148035091490313
:102BA00070E060E0C416D506E606F70644F5009727
:102BB00031F27894892B09F49BCF82E090E09983DD
:102BC00088838DEF9FEF4ECFC114D104E104F1044F
:102BD000E1F622303105C8F6CF015DDDE091460314
:102BE000F0914703E00FF11F108A1786CECF10E057
:102BF00000E090E080E0C12CD12C7601CDCF009791
:102C0000C1F610E000E0812C912C540183E0E82E05
:102C1000F12C1AC0E0914603F0914703E00FF11F39
:102C200083819481029749F4F482E38282E090E008
:102C30000E94260C80E40E942E0CFFEF8F1A9F0A40
:102C4000AF0ABF0A0D5E1F4F809148039091490360
:102C5000B0E0A0E088169906AA06BB06DCF290E078
:102C600080E0A7CF638174816230710511F45483D1
:102C700043830196739634CF82E090E099838883F2
:102C800085EF9FEFEFCE0097B9F48FEFFB018083C4
:102C9000209132013091330143E1429FC001439FB3
:102CA000900D1124E0914603F0914703E80FF91FBE
:102CB0008285FB01818308950C94DF0B88E090E00E
:102CC000FA019183808390E080E00895109245039B
:102CD00010924403E6E4F3E086E0DF011D928A955A
:102CE000E9F78EEC91E190934303809342030895BA
:102CF000809142039091430308952F923F924F9207
:102D00005F926F927F928F929F92AF92BF92CF927B
:102D1000DF92EF92FF920F931F93CF93DF93CDB784
:102D2000DEB760970FB6F894DEBF0FBECDBFF89444
:102D3000E0914403F09145033196F0934503E0930D
:102D400044037894A0914603B0914703BA83A983C2
:102D5000109709F4FAC1E0914803F0914903EF2B71
:102D600009F4F3C128874B875C876D877E879A8734
:102D70008987B88BAF87312C212CF12C512C412C19
:102D800080914803909149032816390610F4FF20DA
:102D900029F1F89480914403909145030197909311
:102DA0004503809344037894C20160960FB6F8946B
:102DB000DEBF0FBECDBFDF91CF911F910F91FF906E
:102DC000EF90DF90CF90BF90AF909F908F907F90CB
:102DD0006F905F904F903F902F900895B10190E0D9
:102DE00080E087D4682EEF85F889878181FD3DC01A
:102DF000838194810397C9F5258136813C832B8398
:102E000089859A852817390781F5C101EED8782E72
:102E10008823A9F1AF85B8891F968D919C91509711
:102E2000019621E01D964D915C918417950709F05C
:102E300020E02F83B12CA12CEF85F88982818A159F
:102E40001B0419F014F0FF20E9F0F885FF2309F4C2
:102E50006CC1AF85B88950961C921E921F97662050
:102E600021F0B10190E080E046D4FFEF2F1A3F0A35
:102E70002F8538892D5E3F4F388B2F8781CFB1E06A
:102E8000BF83D8CFBED49E838D83E885EE23E9F03F
:102E9000772009F43CC1AF85B8891F968D919C912C
:102EA000892B79F0BBE0BA9DC001BB9D900D112428
:102EB000AF85B889ED91FC91E80FF91F8581968166
:102EC000F2D6BFEFAB1ABB0AB7CF81E0772039F05B
:102ED000EF85F88927853089232B09F080E0F82ECB
:102EE000E12CA114B10439F4AF85B8891796EC90A0
:102EF000E4FAEE24E0F8BBE0BA9D6001BB9DD00C83
:102F00001124882309F424C1AF85B889ED91FC917F
:102F10001197EC0DFD1D438154811D962D913C911F
:102F2000429FC001439F900D529F900D1124E110CC
:102F30005DC001969087878361E070E0878190850E
:102F400029D5EF85F88921893289008111810C0DFD
:102F50001D1D2F3F320709F44BC0BC01C9010E945F
:102F6000DF1FD80116969C938E931597AF85B8896D
:102F7000ED91FC911197EC0DFD1D05811681011558
:102F8000110509F4CDC0ED81FE810E0F1F1F1A96A9
:102F90008C918A0DD8018C93E1102FC00F5F1F4FC9
:102FA000AF85B889ED91FC91EC0DFD1D128701876D
:102FB000AF85B889ED91FC91EC0DFD1D8581968161
:102FC000892B09F4A4C080912801909129012B81BB
:102FD0003C812817390709F465C0772011F0018575
:102FE0001285912C812C1A8219824AC00596A2CF93
:102FF00021D6F80196838583B9CF8B859C85AD85D5
:10300000BE85F80181839283A383B4830B5F1F4F36
:10301000C7CFE080F180E80CF91CD70113966D91C1
:103020007C9114978C918F3F09F473C0E1E0F0E03C
:1030300002C0EE0FFF1F8A95E2F7CF01092E000CA8
:10304000AA0BBB0BFB0140815181628173818423F8
:103050009523A623B72321E0892B8A2B8B2B09F4F8
:1030600020E0D8012C93D70111968C91080F111DE7
:10307000E981FA813196FA83E983F7E08F0E911C9A
:10308000AF85B889ED91FC91EC0DFD1D8281298100
:103090003A818217130611F00CF0BBCF772011F0A4
:1030A000128701873F81332391F1AF85B889ED9174
:1030B000FC91EC0DFD1D61E070E0878190856AD484
:1030C000AF85B889ED91FC91EC0DFD1DE780F08492
:1030D00045815681E1E0F0E0662011F0F0E0E0E0AB
:1030E0000D811E819C01B101882799278E1B9F0BA2
:1030F0008BD32C01892B59F0EF85F8898081918140
:10310000C80ED91ED60115968D919C91CCD5F12C67
:10311000D8CEF701418150E0C8010E94D22AA3CF46
:1031200086EF482E55245A94CCCEEF85F8898785B2
:1031300090890196908B878725853685821793071E
:1031400009F08DCE108A17868ACE512C412C21CEC3
:1031500010E000E02DCF2F923F924F925F926F923E
:103160007F928F929F92AF92BF92CF92DF92EF9217
:10317000FF920F931F93CF93DF938091460390911B
:10318000470310E000E0892BA9F0D5DA0AEF1FEF22
:10319000882381F02090480330904903C091460372
:1031A000D0914703D12CC12C10E000E02C143D0439
:1031B000A9F47894C801DF91CF911F910F91FF90EE
:1031C000EF90DF90CF90BF90AF909F908F907F90C7
:1031D0006F905F904F903F902F900895C6010E948E
:1031E000F50F882309F18B819C810397E9F48F8582
:1031F0009889892BC9F0B60190E080E07AD221E06D
:1032000030E0882311F030E020E044245524421AB5
:10321000530AB12CA12C912C812C8A818815190478
:1032200009F038F4188A1F864FEFC41AD40A63963F
:10323000BDCFE881F981EA0DFB1D85819681892B3F
:10324000A1F161E070E087819085A4D33C01D9D2DF
:103250008C01E881F981EA0DFB1D8185928525812C
:103260003681200F311FAC01421B530B9A0147815D
:103270005085421B530B70E060E00E94DB2AE8811E
:10328000F981EA0DFB1DE780F084458156819301A9
:10329000B601C201B9D28C01892B39F0E881F981DC
:1032A000EA0DFB1D85819681FED45FEF851A950A94
:1032B0008BE0A80EB11CB1CF3ECA789408952F922E
:1032C0003F924F925F926F927F929F92AF92BF9286
:1032D000CF92DF92EF92FF920F931F93CF93DF93E2
:1032E00000D000D000D0CDB7DEB7009146031091DA
:1032F0004703992493940115110509F43EC0A09049
:103300004803B090490317DA982E8823B1F1109240
:1033100047031092460310924903109248031092FB
:103320004A0310924B038FEF9FEFDC018093320131
:1033300090933301A0933401B093350178947AD3FC
:103340001E830D83C12CD12C7601C501B0E0A0E015
:1033500089839A83AB83BC8322242A94322C89816B
:103360009A81AB81BC81C816D906EA06FB06F4F047
:10337000C80199D480E40E94340C892D26960FB69A
:10338000F894DEBF0FBECDBFDF91CF911F910F919B
:10339000FF90EF90DF90CF90BF90AF909F907F9085
:1033A0006F905F904F903F902F900895AD81BE81B8
:1033B00015968D919C9116972091280130912901A5
:1033C00082179307D1F451968D919C91E6D5ED81AA
:1033D000FE8180819181B12CA12C412C512C320194
:1033E000892B89F5BFEFCB1ADB0AEB0AFB0AED81CB
:1033F000FE817396FE83ED83B2CFC114D104E10444
:10340000F10429F7029718F7ED81FE8181899289ED
:103410008F3F980709F021D5AD81BE8152963C922D
:103420002E925197D4CF8A0D9B1DDC018D919C91DA
:10343000009709F038D4BFEF4B1A5B0A6B0A7B0A7E
:10344000EBE0AE0EB11CAD81BE818D919C911197C8
:1034500012964C9150E070E060E044165506660606
:1034600077060CF320D4BECFCF93DF93EA0127DF9A
:10347000811109C082E090E09983888385EF9FEFF6
:10348000DF91CF91089581E090E00E94260C81E0C9
:1034900090E09983888390E080E0F2CF10DF109273
:1034A000430310924203089542E050E060ED71E062
:1034B0000C94440CFF920F931F93CF93DF938A01D8
:1034C000EC01C60FD71FF980B4D20897F816190679
:1034D00071F068F082E090E0F801918380838EEFD4
:1034E0009FEFDF91CF911F910F91FF9008956C8115
:1034F0007D818E819F814B810E94DB0E811108C0EE
:1035000082E090E0F8019183808384EF9FEFE9CF20
:10351000F9800E94D60E4F2D50E0BE01685F7F4FAC
:103520000E94D22A89810E94450F81E090E0F80133
:103530009183808390E080E0D4CFDF92EF92FF927E
:103540000F931F93CF93DF938A01EC01C60FD71F10
:103550000E94D60E7C01D9806CD2DD2059F00297F2
:1035600021E030E0D816190619F010F030E020E024
:10357000232B79F482E090E0F801918380838EEF31
:103580009FEFDF91CF911F910F91FF90EF90DF9010
:103590000895EF2841F482E090E0F8019183808360
:1035A00084EF9FEFEECFF9800E94D60E4F2D50E0B2
:1035B000BE016E5F7F4F0E94D22A89810E94450F13
:1035C00081E090E0F8019183808390E080E0D9CFA2
:1035D00084E59AE190934D0380934C030895809184
:1035E0004C0390914D0308950895FC0111821082BF
:1035F000938382830895DB011D921C92DC01129655
:10360000ED91FC9113977183608313967C936E9375
:1036100012970895FC0180819181DB018D939C9329
:10362000A081B181109741F08D919C91918380830D
:10363000892B11F4F383E2830895FC018081918149
:10364000DB018D939C93892B11F4738362837183C7
:1036500060830895FC011182108293838283089510
:10366000CF93DF9300D0CDB7DEB71A821982F894DA
:10367000BE016F5F7F4F83E593E0CCDF89819A8144
:10368000009709F010D389819A81892B89F7BE01AF
:103690006F5F7F4F87E593E0BDDF89819A81009757
:1036A00009F001D389819A81892B89F778940F9049
:1036B0000F90DF91CF910895CF93DF9300D0CDB7D6
:1036C000DEB71A821982F894BE016F5F7F4F8FE4D4
:1036D00093E0A0DF89819A81009709F0E4D2898183
:1036E0009A81892B89F778940F900F90DF91CF9171
:1036F000089581E0089590E080E00895EF92FF92B0
:103700000F931F93CF93DF9300D0CDB7DEB71A820C
:10371000198280914E0307EF1FEF8823A1F1F894DF
:10372000BE016F5F7F4F87E593E074DF78948981F6
:103730009A81EE24E394F12C892B51F4F894BE0184
:103740006F5F7F4F83E593E065DF7894F12CE12C88
:1037500089819A810EEF1FEF0097A9F0FC01428149
:10376000538164E070E06AD68C01892B61F0F89493
:1037700069817A81C701880F991F880F991F8D5A17
:103780009C4F5BDF7894C8010F900F90DF91CF9131
:103790001F910F91FF90EF9008950F931F93CF9378
:1037A000DF9300D000D0CDB7DEB71C821B821A8217
:1037B000198280914E0307EF1FEF8823C1F0AE01FD
:1037C0004D5F5F4F64E070E0CE010196AAD68C0198
:1037D000892B69F4E981FA818B819C8193838283AF
:1037E000F89469817A818FE493E005DF7894C801C9
:1037F0000F900F900F900F90DF91CF911F910F912D
:103800000895AFD7049608958F929F92AF92BF927A
:10381000CF92DF92EF92FF920F931F93CF93DF939C
:1038200000D0CDB7DEB71A821982BC016F5F7F4F1F
:103830006330710598F0AA24AA94BA2CC5010F90A0
:103840000F90DF91CF911F910F91FF90EF90DF903C
:10385000CF90BF90AF909F908F90089541155105E4
:1038600051F3480159018A016C01CBDF8815990594
:1038700011F7E114F104F9F28E0D9F1DA816B90697
:10388000D0F280914E038823F1F0F894B501645092
:1038900071099701AE014F5F5F4FC8010496D6D6FC
:1038A0005C01892B71F489819A81F8019383828369
:1038B000C601880F991F880F991FB8018D5A9C4F18
:1038C0009ADE7894BBCF87EFA82EBB24BA94B6CFEC
:1038D000AF92BF92CF92DF92EF92FF920F931F931E
:1038E000CF93DF9300D0CDB7DEB71A821982892B30
:1038F00009F047C06115710509F443C04115510530
:1039000009F43FC02115310509F43BC0011511052B
:10391000C1F180914E038823B9F179016A015B01FD
:10392000F894BE016F5F7F4F8FE493E073DE78946D
:1039300089819A81009759F1DC0112966D917C91F1
:10394000A80104969CD68C01E981FA81D501ED93FA
:10395000FC93828193810496F6019183808351DFE9
:10396000D7018D939C93C8010F900F90DF91CF9159
:103970001F910F91FF90EF90DF90CF90BF90AF908D
:1039800008950FEF1FEFEFCF07EF1FEFECCF0EEF14
:103990001FEFE9CFCF93DF93EC01672B71F4EAD6E9
:1039A0008C179D0760F0DDD62496C80FD91FDCD692
:1039B0008C0F9D1FDF91CF910895D9D6F1CF90E064
:1039C00080E0F8CF0F931F93CF93DF9320914E03A6
:1039D00021112BC08B01EC0183E593E006DE87E526
:1039E00093E003DE8FE493E000DE97D00097C1F40C
:1039F000C1D670E060E0CEDF46E351E062E070E007
:103A00007ED1009769F48091360190913701C4D638
:103A1000B801CE01F9D4009719F421E020934E03A8
:103A2000DF91CF911F910F91089584EF9FEFF8CF11
:103A30009EC6A0C6CF93DF93A0D6EC01892B11F4CC
:103A40000FDE3ADECE01DF91CF910895CF93DF9361
:103A500094D6EC01892B09F403DECE01DF91CF91DE
:103A6000089580913601909137010895CF93DF93A7
:103A700080914E03D0E0C0E08823D1F092D6EC01D3
:103A8000892BB1F4EDDD18DE80913601909137017C
:103A9000E4D1E5D2EC01892B59F483E593E0DADD3A
:103AA00087E593E0D7DD8FE493E0D4DD10924E03F9
:103AB000CE01DF91CF910895EF92FF920F931F9364
:103AC000CF93DF93EC017A018B010F5F1F4F0E9DA7
:103AD000A0010F9D500D1E9D500D112470E060E05F
:103AE0000E94DB2A90E080E0F0E0E0E02FEFE816B3
:103AF000F90639F4DF91CF911F910F91FF90EF906C
:103B000008951A8219822883309711F0D283C183D5
:103B10000196FE01C00FD11FEACFCF92DF92EF9244
:103B2000FF920F931F93CF93DF9307E314E00C7F73
:103B300043E050E068E371E08EE391E012D488E363
:103B4000E82E81E0F82E9EE3C92E91E0D92EC6E939
:103B5000D4E0D7014D915D917D01F60161917191A4
:103B60006F01198308835D834C835B834A837F8362
:103B70006E839B012F5F3F4F249FC001259F900DB7
:103B8000349F900D1124998788870115110511F034
:103B9000C80192DF88859985080F191F2A96FEE3D0
:103BA000EF16F1E0FF06A9F6EDE5F3E087EDDF01A2
:103BB0001D928A95E9F710925C0310925B031092B4
:103BC000B5041092B4041092B9041092B804109283
:103BD000B7041092B6041092BB041092BA0410926B
:103BE000BD041092BC041092BF041092BE04109247
:103BF000C3041092C2041092C1041092C004109227
:103C0000C5041092C4041092C7041092C604109206
:103C1000930410929204109295041092940490E0F0
:103C200080E0DF91CF911F910F91FF90EF90DF9097
:103C3000CF9008950097F1F0F894AEE3B1E0E6E993
:103C4000F4E030E020E04D915D9148175907A8F06D
:103C5000428153814115510581F08AE0829FF00134
:103C6000839FF00D1124EA56FB4F808191810097CC
:103C700059F4789490E080E008952F5F3F4F3A9692
:103C80002330310501F7F5CFDC0111966D917C9160
:103C9000718360834150510953834283FC01219316
:103CA000CF0178940895009749F1DC018E91853019
:103CB00041F4E0919404F09195043097F9F0CD012E
:103CC00009948530D8F4282F30E0F8948FEF8C9346
:103CD0008AE0829FF001839FF00D1124EA56FB4F8A
:103CE0008081918112969C938E931197B183A083CA
:103CF0008281938101969383828378940895CF92F1
:103D0000DF92EF92FF920F931F93CF93DF939C016B
:103D100080E693E08C7F4115510509F49BC0211585
:103D2000310509F497C06115710509F493C07A0152
:103D3000AB01B9016D5F7F4F6C7F9B012F5F3F4FE0
:103D4000249F8001259F100D349F100D1124F8949D
:103D50002091B4043091B504232B59F42091BC0474
:103D60003091BD042115310569F12017310708F0A4
:103D700058C02091BE043091BF04232B91F42091B0
:103D8000BC043091BD04820F931F2091C604309172
:103D9000C7042115310509F441C02017310708F087
:103DA00056C07894CFEFDFEF86EF9FEFF701D18316
:103DB000C083DF91CF911F910F91FF90EF90DF9023
:103DC000CF900895C3E0D0E0C0905B03D0905C0337
:103DD00024ED30E02C193D092017310710F32AE0BB
:103DE0002C9FF0012D9FF00D1124EA56FB4F91837B
:103DF000808355834483538342837783668311870B
:103E00000087009709F058DE0C0D1D1D10935C0310
:103E100000935B03789490E080E0C8CFC4E0D0E0EA
:103E2000D3CFC3E0D0E02AE02C9FF0012D9FF00D0E
:103E30001124EA56FB4F9183808355834483538337
:103E4000428377836683009729F336DEE3CFC4E0AD
:103E5000D0E0E9CF8FEF9FEFACCF9C0103970297A3
:103E600008F069C0F89484E09AE0482F50E02417E5
:103E700035070CF44DC091E08AE0829FF001839FEA
:103E8000F00D1124EA56FB4F118210821582148224
:103E900013821282178216829923B1F18091B404A1
:103EA0009091B504892BA9F42091BC043091BD04F4
:103EB0002115310571F080915B0390915C03821BA9
:103EC000930B90935C0380935B031092BD0410925C
:103ED000BC048091BE049091BF04892BA9F4209169
:103EE000C6043091C7042115310571F080915B0340
:103EF00090915C03821B930B90935C0380935B0314
:103F00001092C7041092C604789490E080E008955F
:103F1000949FF001959FF00D1124EA56FB4F4081CC
:103F20005181452B31F440855185452B11F4815049
:103F30009CCF90E0A1CF8FEF9FEF089541155105E1
:103F400049F1009739F16115710521F1F89420913B
:103F5000920430919304232BB9F42091940430916E
:103F60009504232B89F49093930480939204709387
:103F7000950460939404789425E030E090E080E02C
:103F8000FA0131832083089578942FEF3FEF86EF75
:103F90009FEFF6CF8FEF9FEF0895059769F4F894A0
:103FA000109293041092920410929504109294042B
:103FB000789490E080E008958FEF9FEF0895611569
:103FC000710519F4F0E0E0E011C08530910581F44D
:103FD000E0919204F09193043097A1F3CB01019604
:103FE0000995009779F3FC0185E08193CF0108954D
:103FF0009C01235031092230310520F72AE0289F07
:10400000D001299FB00D1124AA56BB4F2D913C9190
:104010001197232BB9F216962D913C9117972617DD
:10402000370780F2F89412962D913C911397211541
:10403000310529F0ED91FC911197309711F47894A6
:10404000C1CF4181528111965C934E932150310929
:1040500013963C932E93129781937894C7CFE4E301
:10406000F4E08EE5DF011D928A95E9F7EDE5F3E0D6
:1040700087EDDF011D928A95E9F710925C0310929B
:104080005B03E6E9F4E082E3DF011D928A95E9F73C
:10409000E2E9F4E084E0DF011D928A95E9F790E01F
:1040A00080E00895CF93DF93C0914401D091450102
:1040B000CF3FDC0759F407D4909345018093440126
:1040C00097FF09C0D0934501C093440184EF9FEF4F
:1040D000DF91CF91089590E080E0FACF8230910592
:1040E00028F48093C80490E080E008958FEF9FEF5C
:1040F00008954F925F926F927F92AF92BF92CF924C
:10410000DF92EF92FF920F931F93CF93DF9300D034
:10411000CDB7DEB71A821982009709F478C061150D
:10412000710509F474C0209144013091450107EFF5
:104130001FEF2F3F3F4F09F444C06B015C01412C3E
:10414000512C3201F12CE12C10E000E09E012F5F98
:104150003F4FA6014E195F09B5016E0D7F1D80917D
:104160004401909145010ED4892B09F04AC0898100
:104170009A81009741F4E114F10429F42091C804D4
:10418000222309F441C0E80EF91EEC14FD04C8F422
:1041900080E8481684E858068EE16806710418F530
:1041A00060E070E0CB0168D62AE0420E511C611C31
:1041B000711C0A3F4FEF140721F0043F8FEF1807DF
:1041C000A1F4C8010F900F90DF91CF911F910F9133
:1041D000FF90EF90DF90CF90BF90AF907F906F9067
:1041E0005F904F90089501EF1FEF81E090E0013F55
:1041F0002FEF120711F090E080E0892B09F4A6CF91
:10420000E0CF04EF1FEFDDCF0AEF1FEFDACF0FEFA4
:104210001FEFD7CF4F925F926F927F92AF92BF9274
:10422000CF92DF92EF92FF920F931F93CF93DF9382
:1042300000D0CDB7DEB71A821982009709F478C092
:104240006115710509F474C0209144013091450154
:1042500007EF1FEF2F3F3F4F09F444C06B015C0194
:10426000412C512C3201F12CE12C10E000E09E0198
:104270002F5F3F4FA6014E195F09B5016E0D7F1DDF
:10428000809144019091450133D3892B09F04AC0B4
:1042900089819A81009741F4E114F10429F4209175
:1042A000C804222309F441C0E80EF91EEC14FD04F1
:1042B000C8F480E8481686E9580688E9680671045B
:1042C00018F560E070E0CB01D7D52AE0420E511C12
:1042D000611C711C0E3F4FEF140721F0043F8FEF5C
:1042E0001807A1F4C8010F900F90DF91CF911F9193
:1042F0000F91FF90EF90DF90CF90BF90AF907F90A5
:104300006F905F904F90089502EF1FEF81E090E073
:10431000023F2FEF120711F090E080E0892B09F4A3
:10432000A6CFE0CF04EF1FEFDDCF0EEF1FEFDACF08
:104330000FEF1FEFD7CF80914401909145018F3F40
:10434000980749F0B8D2892B49F48FEF9FEF9093EB
:1043500045018093440190E080E0089584EF9FEF51
:104360000895CF92DF92EF92FF920F931F93CF9316
:10437000DF9321E04115510509F020E0415051093A
:1043800021112CC0DC01FB01D12CC12C21E022C069
:104390003FEFC31AD30A7D010D911D91E701EA8019
:1043A000FB80E016F106A8F420813181E280F380E1
:1043B000F182E08233832283ED90FC9011979D017E
:1043C00022503109E901F982E88211961C930E937B
:1043D00020E03296C416D506D8F2D2CFDF91CF9125
:1043E0001F910F91FF90EF90DF90CF900895FC0107
:1043F000680F791F90E080E0E617F70709F4089549
:104400002191820F911DF8CF2091C904211113C071
:1044100049DE009791F41092CF041092CE041092CE
:10442000CD041092CC041092CB041092CA0421E067
:104430002093C904089584EF9FEF0895AF92BF922F
:10444000CF92DF92EF92FF920F931F93CF93DF9360
:10445000009709F460C04630510508F45CC0209113
:10446000C904C7EFDFEF222309F449C08C01060F0E
:10447000171FF801C080D180C114D10409F44EC0C7
:1044800096012A5F3F4F4217530708F447C07C014B
:104490008091CE049091CF0493838283B6016C5FA8
:1044A0007F4F5801A60EB71EC801A1DFF501918309
:1044B000808364E070E0C8011CDEEC01892BF9F414
:1044C00081E090E00BDEB601C801049612DEEC013B
:1044D000892B91F462E070E0C5010BDEEC01892BC1
:1044E00059F4C701E0DB8091CE049091CF0401968E
:1044F0009093CF048093CE0490E080E0EFDDCE0176
:10450000DF91CF911F910F91FF90EF90DF90CF90AF
:10451000BF90AF900895CFEFDFEFF1CFC9EFDFEF9E
:10452000EECF6F927F928F929F92AF92BF92CF9277
:10453000DF92EF92FF920F931F93CF93DF9300D000
:1045400000D0CDB7DEB7009709F47AC04115510508
:1045500009F476C02091C90407EF1FEF222309F464
:104560004DC03A017B015C0164E070E0CE01019630
:1045700051DE8C01892B09F041C009811A81011596
:10458000110509F45AC0480186E0880E911CB70154
:10459000680D791D809146019091470110DD6C01F5
:1045A000009709F450C0A70170E060E00E94DB2A88
:1045B00089819A81AB81BC81EC0CFD1CF701819350
:1045C0009193A193B1937F0181E090E087DDB801E1
:1045D000C70120DE892B31F562E070E0C701800F52
:1045E000911F18DE8C01892BE9F490E080E076DDE4
:1045F000F501D182C082F30191828082C8010F90BF
:104600000F900F900F90DF91CF911F910F91FF901E
:10461000EF90DF90CF90BF90AF909F908F907F9062
:104620006F90089590E080E059DDF50111821082CD
:10463000F30111821082C60136DB09EF1FEFDECFD6
:104640000FEF1FEFDBCF06EF1FEFD8CF0097A1F0E2
:104650004115510589F02115310571F0F9013696A2
:104660006E177F0748F0DC012D933C93DA01ED9340
:10467000FC9390E080E008958FEF9FEF0895AF9254
:10468000BF92CF92DF92EF92FF920F931F93CF933F
:10469000DF93009709F45FC04115510509F45BC031
:1046A0006530710508F457C02091C904C7EFDFEFEA
:1046B000222391F1DC01CD90DC9011971296ED91BF
:1046C000FC9196012A5F3F4FC9EFDFEF26173707AE
:1046D00019F5C091CA04D091CB04209749F521E087
:1046E00030E03093CB042093CA047A018C01F0931C
:1046F000CD04E093CC045601B4E0AB0EB11CB5017F
:1047000076DE0A0D1B1DF801208131818217930787
:1047100029F5D701CD92DC92CE01DF91CF911F9187
:104720000F91FF90EF90DF90CF90BF90AF900895E2
:104730002091CC043091CD042F5F3F4FCCEFDFEFC1
:10474000E217F30790F2CBEFDFEF2E173F0768F287
:10475000D0E0C0E0CACFCFEFDFEFDECFC3EFDFEFB7
:10476000DBCF84E090E0089582E090E008958CEF44
:104770009FEF089580E290E008951092CF04109288
:10478000CE041092CD041092CC041092CB0410925F
:10479000CA0490E080E00895909347018093460119
:1047A00008958091C904882391F0C5DD009789F4AC
:1047B0001092CF041092CE041092CD041092CC042B
:1047C0001092CB041092CA041092C904089590E08C
:1047D00080E00895009749F06115710531F0FC0102
:1047E00011821082FB01118210820895F3CF26E01E
:1047F00030E040E855E260E070E090E080E000C02A
:10480000892B19F48DED94E07AC508951F920F92CB
:104810000FB60F9211242F933F934F935F936F9393
:104820007F938F939F93AF93BF93EF93FF9386E014
:104830009FEF9093850080938400B7D0FF91EF9114
:10484000BF91AF919F918F917F916F915F914F91A8
:104850003F912F910F900FBE0F901F90189586E0FB
:104860009FEF9093850080938400AFE6B0E08C9139
:104870008E7F8C93E0E8F0E080818C7F8083E1E89C
:10488000F0E08081877E8083808183608083808167
:104890008B7F80838C9181608C930895EFE6F0E0AC
:1048A000808190819E7F90838170089581E008953A
:1048B0001092D004089568EE73E080E090E0DCD2BE
:1048C00090E080E0089526E030E040E052EC61E0C6
:1048D00070E090E080E094DF8DED94E046D4892B89
:1048E00021F08DED94E05BD4F7CF90E080E0089567
:1048F000CF92DF92EF92FF920F931F93CF93DF93AC
:104900006B017A01E901198218828DED94E02DD4B2
:10491000892B69F18601CC24C39482E0D82E809142
:10492000D004811110C08DED94E039D40297B9F70D
:10493000C092D004F801D1928F01888199810196AB
:1049400099838883ECCF888199818E159F0578F4AF
:104950008DED94E024D48F3F9807A9F3F80181935B
:104960008F0188819981019699838883ECCF90E0AB
:1049700080E0DF91CF911F910F91FF90EF90DF903A
:10498000CF9008950F931F93CF93DF93EA0189018E
:104990008DED94E098D5F801D183C08390E080E05C
:1049A000DF91CF911F910F9108958091D10491E0F3
:1049B000980F9093D104882349F021E030E03093A0
:1049C000D3042093D2048093D104089578940E9454
:1049D000C703F8948091D1048150F5CF0F931F93B2
:1049E000CF93DF9310929305109292057BD2FFDE56
:1049F000C0915C01D0915D011982188260E27EE471
:104A000080E090E00E94BC0370E060E090E080E015
:104A10000E943E02009709F042C00E94E104F8940F
:104A20007894BE016C557F4F8A819B810E94410220
:104A3000892B71F46FEF7FEFCB010E94D0020E94AF
:104A4000B603882329F081E0FE01E655FF4F8083FD
:104A5000F89405DF0E94B903882311F080E00BC0B1
:104A60000E94B6038111FACF81E0FE01E655FF4FA7
:104A700090819111F3CF8093920578940E94210C3C
:104A80008C017894C655DF4F8091920581110CC03E
:104A90000E94B1050E949C03F89490E080E0DF91B1
:104AA000CF911F910F9108950E949A030E94B9031C
:104AB0008823D9F081E0809393059091930581E05C
:104AC000911180E080939205809193058111E6DE3B
:104AD0000130110529F40E94210C892B09F4E8DE2C
:104AE0000E94210C8C01E2DECFCF0E94B60381111F
:104AF000E1CF81E098819111DECF80E0DCCF71D0F1
:104B000008F481E0089504D06894B111B1C008950B
:104B100094D088F09F5790F0B92F9927B751A0F003
:104B2000D1F0660F771F881F991F1AF0BA95C9F741
:104B300012C0B13081F09BD0B1E0089598C0672FCA
:104B4000782F8827B85F39F0B93FCCF386957795F1
:104B50006795B395D9F73EF49095809570956195DA
:104B60007F4F8F4F9F4F0895E89409C097FB3EF405
:104B700090958095709561957F4F8F4F9F4F9923AA
:104B8000A9F0F92F96E9BB279395F6958795779528
:104B90006795B795F111F8CFFAF4BB0F11F460FFE8
:104BA0001BC06F5F7F4F8F4F9F4F16C0882311F040
:104BB00096E911C0772321F09EE8872F762F05C054
:104BC000662371F096E8862F70E060E02AF09A95EF
:104BD000660F771F881FDAF7880F9695879597F9E4
:104BE0000895990F0008550FAA0BE0E8FEEF16167E
:104BF0001706E807F907C0F012161306E407F507D1
:104C000098F0621B730B840B950B39F40A2661F044
:104C1000232B242B252B21F408950A2609F4A140E7
:104C2000A6958FEF811D811D089557FD9058440F63
:104C3000551F59F05F3F71F04795880F97FB991FFB
:104C400061F09F3F79F087950895121613061406B8
:104C5000551FF2CF4695F1DF08C016161706180645
:104C6000991FF1CF86957105610508940895E89420
:104C7000BB2766277727CB0197F90895B2DF08F4A1
:104C80008FEF08950BD078C069D028F06ED018F05F
:104C9000952309F05AC05FC01124EACFC6DFA0F304
:104CA000959FD1F3950F50E0551F629FF001729FC1
:104CB000BB27F00DB11D639FAA27F00DB11DAA1FE0
:104CC000649F6627B00DA11D661F829F2227B00D2D
:104CD000A11D621F739FB00DA11D621F839FA00DB8
:104CE000611D221F749F3327A00D611D231F849F08
:104CF000600D211D822F762F6A2F11249F5750405F
:104D00008AF0E1F088234AF0EE0FFF1FBB1F661FF9
:104D1000771F881F91505040A9F79E3F510570F0B2
:104D200014C0A6CF5F3FECF3983EDCF386957795F1
:104D30006795B795F795E7959F5FC1F7FE2B880FAD
:104D4000911D9695879597F9089597F99F6780E843
:104D500070E060E008959FEF80EC089500240A94CD
:104D60001616170618060906089500240A94121646
:104D70001306140605060895092E0394000C11F479
:104D8000882352F0BB0F40F4BF2B11F460FF04C026
:104D90006F5F7F4F8F4F9F4F08951F920F920FB6F7
:104DA0000F9211242F933F938F939F93AF93BF93B1
:104DB0008091D5049091D604A091D704B091D804E5
:104DC0003091D40423E0230F2D3758F50196A11D0F
:104DD000B11D2093D4048093D5049093D604A0935E
:104DE000D704B093D8048091D9049091DA04A091AB
:104DF000DB04B091DC040196A11DB11D8093D904A0
:104E00009093DA04A093DB04B093DC04BF91AF91DC
:104E10009F918F913F912F910F900FBE0F901F90F8
:104E2000189526E8230F0296A11DB11DD2CF3FB7DA
:104E3000F8948091D9049091DA04A091DB04B091A8
:104E4000DC0426B5A89B05C02F3F19F00196A11DD3
:104E5000B11D3FBFBA2FA92F982F8827BC01CD01C4
:104E6000620F711D811D911D42E0660F771F881F23
:104E7000991F4A95D1F708958F929F92AF92BF9252
:104E8000CF92DF92EF92FF926B017C01D0DF4B015A
:104E90005C01C114D104E104F104D9F041D3C7DFAE
:104EA000681979098A099B09683E73408105910553
:104EB00080F321E0C21AD108E108F10888EE880EDB
:104EC00083E0981EA11CB11CC114D104E104F104BB
:104ED00031F7FF90EF90DF90CF90BF90AF909F9011
:104EE0008F900895789484B5826084BD84B5816084
:104EF00084BD85B5826085BD85B5816085BDEEE6E2
:104F0000F0E0808181608083E1E8F0E010828081C0
:104F100082608083808181608083E0E8F0E080812E
:104F200081608083E1EBF0E0808184608083E0EB4E
:104F3000F0E0808181608083EAE7F0E08081846036
:104F40008083808182608083808181608083808192
:104F5000806880831092C10008958E3008F08E50D2
:104F60002091480190E4299F900111248770822BA1
:104F700080937C0080917A00806480937A00809195
:104F80007A0086FDFCCF8091780090917900089599
:104F90001F93CF93DF93182FEB0161E07DD0209713
:104FA00031F460E0812FDF91CF911F91B1C0CF3FED
:104FB000D10511F461E0F6CFE12FF0E0E859FF4FA1
:104FC000E491E33031F140F4E130B1F0E230E1F06E
:104FD000C038D1057CF7E5CFE73029F1E83059F149
:104FE000E430B1F780918000806280938000D0939C
:104FF0008B00C0938A0004C084B5806884BDC7BD9F
:10500000DF91CF911F91089584B5806284BDC8BDA2
:10501000F7CF80918000806880938000D0938900D2
:10502000C0938800EDCF8091B00080688093B0007D
:10503000C093B300E5CF8091B00080628093B00050
:10504000C093B400DDCF833081F028F4813099F033
:105050008230A9F008958730A9F08830C9F08430F3
:10506000B1F4809180008F7D03C0809180008F77A4
:1050700080938000089584B58F7784BD089584B5AA
:105080008F7DFBCF8091B0008F778093B000089523
:105090008091B0008F7DF9CFCF93DF9390E0FC013A
:1050A000E458FF4F249180579F4FFC01849188233F
:1050B000C9F090E0880F991FFC01E255FF4FA591C0
:1050C000B491FC01EC55FF4FC591D49161110DC015
:1050D0009FB7F8948C91209582238C938881282304
:1050E00028839FBFDF91CF910895623051F49FB71D
:1050F000F8943C91822F809583238C93E8812E2B0A
:10510000EFCF8FB7F894EC912E2B2C938FBFEACF73
:105110001F93CF93DF93282F30E0F901E859FF4F19
:105120008491F901E458FF4FD491F901E057FF4F02
:10513000C491CC23A1F0162F811185DFEC2FF0E074
:10514000EE0FFF1FEC55FF4FA591B4918FB7F89468
:10515000EC91111108C0D095DE23DC938FBFDF9155
:10516000CF911F910895DE2BF8CFFC01918D228DF8
:10517000892F90E0805C9F4F821B91098F73992744
:105180000895FC01918D828D981731F0828DE80F82
:10519000F11D858D90E008958FEF9FEF0895FC013C
:1051A000918D828D981761F0A28DAE0FBF2FB11D2A
:1051B0005D968C91928D9F5F9F73928F90E0089582
:1051C0008FEF9FEF0895FC01538D448D252F30E024
:1051D000842F90E0821B930B541710F0CF96089504
:1051E00001970895FC01A48DA80FB92FB11DA35AF2
:1051F000BF4F2C91848D90E001968F739927848FF7
:10520000A689B7892C93A089B1898C918370806419
:105210008C93938D848D981306C00288F389E02DBA
:1052200080818F7D80830895CF93DF93EC01888DFB
:105230008823B1F0AA89BB89E889F9898C9185FD19
:1052400003C0808186FD0CC00FB607FCF7CF8C91A0
:1052500085FFF2CF808185FFEDCFCE01C3DFEACF9E
:10526000DF91CF910895EF92FF920F931F93CF9309
:10527000DF93EC0181E0888F9B8D8C8D98131AC091
:10528000E889F989808185FF15C09FB7F894EE8978
:10529000FF896083E889F9898081837080648083D5
:1052A0009FBF81E090E0DF91CF911F910F91FF9020
:1052B000EF900895F62E0B8D10E00F5F1F4F0F73C8
:1052C0001127E02E8C8D8E110BC00FB607FCFACF84
:1052D000E889F989808185FFF5CFCE0183DFF2CFA0
:1052E000EB8DEC0FFD2FF11DE35AFF4FF0829FB7BE
:1052F000F8940B8FEA89FB8980818062D0CFCF92AE
:10530000DF92EF92FF921F93CF93DF93EC016A013C
:105310007B01122FE889F98982E08083C11481EE34
:10532000D806E104F10499F060E079E08DE390E0C3
:10533000A7019601F6D0215031094109510956952E
:10534000479537952795211580E1380790F0E88932
:10535000F989108260E874E88EE190E0A701960177
:10536000E0D02150310941095109569547953795AB
:105370002795EC85FD853083EE85FF852083188E8B
:10538000EC89FD891083EA89FB89808180618083B3
:10539000EA89FB89808188608083EA89FB89808132
:1053A00080688083EA89FB8980818F7D8083DF919B
:1053B000CF911F91FF90EF90DF90CF9008951F92B3
:1053C0000F920FB60F9211242F938F939F93EF9309
:1053D000FF93E091ED04F091EE048081E091F304FD
:1053E000F091F40482FD1BC090818091F6048F5FE0
:1053F0008F732091F704821741F0E091F604F0E0FA
:10540000E352FB4F958F8093F604FF91EF919F91AC
:105410008F912F910F900FBE0F901F901895808144
:10542000F4CF1F920F920FB60F9211242F933F9338
:105430004F935F936F937F938F939F93AF93BF939C
:10544000EF93FF938DED94E0CDDEFF91EF91BF914F
:10545000AF919F918F917F916F915F914F913F910C
:105460002F910F900FBE0F901F901895EDEDF4E067
:105470001382128288EE93E0A0E0B0E084839583EB
:10548000A683B78380EE91E09183808385EC90E0E2
:105490009587848784EC90E09787868780EC90E0FE
:1054A000918B808B81EC90E0938B828B82EC90E0EF
:1054B000958B848B86EC90E0978B868B118E128E69
:1054C000138E148E0895AF92BF92CF92DF92EF9217
:1054D000FF920F931F93CF93DF936C017B018B019E
:1054E000040F151FEB015E01AE18BF08C017D107EE
:1054F00059F06991D601ED91FC910190F081E02D78
:10550000C6010995892B79F7C501DF91CF911F91CC
:105510000F91FF90EF90DF90CF90BF90AF900895E4
:105520000895A1E21A2EAA1BBB1BFD010DC0AA1FE4
:10553000BB1FEE1FFF1FA217B307E407F50720F0FC
:10554000A21BB30BE40BF50B661F771F881F991F77
:105550001A9469F760957095809590959B01AC01C0
:10556000BD01CF010895EE0FFF1F0590F491E02DCE
:105570000994A29FB001B39FC001A39F700D811D2C
:105580001124911DB29F700D811D1124911D08954C
:10559000F0DFA59F900DB49F900DA49F800D911DED
:1055A00011240895FB01DC0102C001900D924150CD
:1055B0005040D8F70895DC0101C06D934150504030
:0855C000E0F70895F894FFCF15
:1055C800000080BF0000803F000000000000803F16
:1055D800000000000000803F00004C42A1A001FE36
:1055E800FFFFFF01E8030000FFFF00000000FFFFCE
:1055F800FFFFFFFFFFFFFFFF010001000100200088
:1056080030000800FFFFFFFF0146697865645374A6
:105618006570446973637265746500011602FF0062
:10562800780EA40EFE005E0EDF0BFD00F00D4A0E94
:10563800FC00360EDF0BF600270FDF0BF500FD0D23
:10564800660FF400F00E7D0FDE00A9134316DD008F
:105658001815DF0BDA0031113911D9005E1649111E
:10566800E2001910DF0BE1005410DF0BE000C91055
:10567800DF0BD600341ADF0BD500D612DF0BD400AF
:105688006212DF0BD300D311DF0BC0005811DF0B00
:10569800F0009D1ADF0BED005A1ADF0B0000000026
:0E56A8003329632AE3281429B528CF28C12806
:00000001FF
