:1000000061C0000086C0000084C0000082C0000003
:1000100080C000007EC000007CC000007AC00000EC
:1000200078C0000076C0000074C0000072C00000FC
:1000300070C00000BFC200006CC000006AC00000B9
:10004000A0C5000066C000000C944E080C94800807
:1000500060C000005EC000005CC000005AC000002C
:1000600058C0000056C00000000000080002010057
:100070000003040700000000000000000102040863
:100080001020408001020408102001020408102002
:10009000040404040404040402020202020203032E
:1000A00003030303000000002300260029000000D2
:1000B0000000250028002B0000000000240027007D
:1000C0002A00A50811241FBECFEFD8E0DEBFCDBFA8
:1000D00011E0A0E0B1E0E2E5F2E102C005900D928E
:1000E000A432B107D9F721E0A4E2B1E001C01D922A
:1000F000AB3FB207E1F710E0C2E6D0E004C02197C1
:10010000FE010E942109C136D107C9F7EFD20C9434
:10011000270976CFCF92DF92EF92FF920F931F9332
:10012000E82FF92F05C0015011092109310961F1AA
:10013000908196239417B9F305C001501109210944
:10014000310911F1908196239413F7CFC12CD12C52
:10015000E12CF12C0AC08FEFC81AD80AE80AF80A75
:100160000C151D052E053F0579F080818623841727
:1001700091F36C2D7D2D8E2D9F2D1F910F91FF9052
:10018000EF90DF90CF90089560E070E080E090E025
:100190001F910F91FF90EF90DF90CF900895611124
:1001A00001C0C2C56130E9F362E0FBCF662311F004
:1001B00061E0F6C560E0FDCF4F925F926F927F9253
:1001C000AF92BF92CF92DF92EF92FF920F931F9365
:1001D000CF93DF935C01162FC42FD22F611103C080
:1001E00061E0842FA1D560E08C2FDAD514D52B01E6
:1001F0003C0111D5641975098609970966307105A6
:1002000081059105B0F361E08C2FCAD504D52B018F
:100210003C01C02ED12CF12CE12CFDD464197509C0
:1002200086099709C616D706E806F906B0F760E012
:100230008C2FB6D5111103C060E08D2F75D520E449
:1002400032E44FE050E061E08D2FD7D5F5016083B7
:10025000718382839383DF91CF911F910F91FF90E0
:10026000EF90DF90CF90BF90AF907F906F905F90B6
:100270004F900895FC0191E080912701811190E059
:1002800091830895CF92DF92EF92FF926B017C01F0
:100290009F7720E030E040E859E5D7D287FF26C0BD
:1002A00020E030E040E05FE3C701B60103D487FD02
:1002B0000CC020E030E040E05FE3C701B6014ED261
:1002C000FF90EF90DF90CF902DC320E030E040E032
:1002D0005FEBC701B601EED318167CF420E030E0E6
:1002E000A901C701B601EAD36B017C01C701B601C0
:1002F000FF90EF90DF90CF90089520E030E040E055
:100300005FE3C701B60129D2FF90EF90DF90CF9055
:1003100089C2809127018F5F843618F4809327016A
:100320000895109227010895CF92DF92EF92FF92E5
:100330000F93CF93DF9300D000D0CDB7DEB780917D
:10034000F80181111092F80105E023E043E060E03C
:10035000CE01019631DF69817A818B819C81A5D2A2
:100360002EEA34ED43EB59E3A9D320E030E040E03E
:100370005FE3A4D36B017C0120E030E040EA51E46C
:1003800064D218166CF160910001709101018091A6
:1003900002019091030176DF6B017C0120E030E0E7
:1003A00040E853E452D26FEF87FF0CC020E030E00A
:1003B000A901C701B6017ED360E087FD03C0C70174
:1003C000B60147D289E0F2DE0F900F900F900F90A8
:1003D000DF91CF910F91FF90EF90DF90CF90089534
:1003E00020E030E040E252E4C701B6012ED21816F8
:1003F0000CF16091040170910501809106019091CA
:10040000070140DF6B017C0120E030E040E853E46D
:100410001CD26FEF87FF0CC020E030E0A901C701BC
:10042000B60148D360E087FD03C0C701B60111D211
:100430008AE0C9CF20E030E040E752E4C701B601CE
:1004400004D218160CF16091080170910901809195
:100450000A0190910B0116DF6B017C0120E030E076
:1004600040E853E4F2D16FEF87FF0CC020E030E0AA
:10047000A901C701B6011ED360E087FD03C0C70113
:10048000B601E7D18BE09FCF20E030E040EA52E4B4
:10049000C701B601DAD118160CF496CF60910C01A1
:1004A00070910D0180910E0190910F01EBDE6B01B7
:1004B0007C0120E030E040E853E4C7D16FEF87FFD4
:1004C0000CC020E030E0A901C701B601F3D260E022
:1004D00087FD03C0C701B601BCD18CE074CFCF92B9
:1004E000DF92EF92FF921F93CF93DF93C4EDD1E0A1
:1004F000188EC12CD12C7601C394C98EDA8EEB8E66
:10050000FC8E61E089E04BDE11E01D8F188AC98AFC
:10051000DA8AEB8AFC8A61E08AE041DE1D8B18866C
:10052000C986DA86EB86FC8661E08BE038DE1D87C3
:100530001882C982DA82EB82FC8261E08CE02FDED5
:100540001D83C8A2D9A2EAA2FBA21CA2DF91CF916F
:100550001F91FF90EF90DF90CF9008958091EC0174
:10056000811103C081E08093EC018091E40181114D
:1005700003C081E08093E4018091DC01811103C01C
:1005800081E08093DC018091D401811103C081E07E
:100590008093D401089526E030E040E855E260E021
:1005A00070E090E080E000C0892B19F487E391E0CF
:1005B00015C508951F920F920FB60F9211242F9315
:1005C0003F934F935F936F937F938F939F93AF93DB
:1005D000BF93EF93FF9386E09FEF90938500809306
:1005E000840032D0FF91EF91BF91AF919F918F9195
:1005F0007F916F915F914F913F912F910F900FBE1F
:100600000F901F90189586E09FEF90938500809340
:100610008400AFE6B0E08C918E7F8C93E0E8F0E050
:1006200080818C7F8083E1E8F0E08081877E808319
:1006300080818360808380818B7F80838C918160C7
:100640008C93089581E00895CF93DF9300D0CDB7C8
:10065000DEB780912A0191E0980F90932A018823B8
:1006600069F021E030E030932D0120932C0180933C
:100670002A010F900F90DF91CF910895CE0101963E
:10068000F9DD789446DEF89480912A0181508093B8
:100690002A018A81882389F08091290191E0980FAD
:1006A00090932901882349F021E030E030932D0117
:1006B00020932C0180932901DCCF8091290188238C
:1006C000C1F280912B018111D4CF81E080932B0165
:1006D00078942ADEF8948091290181508093290131
:1006E00080912B01815080932B01C3CFCF93DF9357
:1006F0001092FA011092F901B3D24DDFC0911001AE
:10070000D091110119821882EADEF8947CDF2881E9
:10071000398181E0232B09F080E08093F9017894FE
:1007200078948091F901811107C018DFF89490E066
:1007300080E0DF91CF9108952881398181E0232BDA
:1007400009F480E08093FA019091FA0181E091111F
:1007500080E08093F90176DFE4CF5058BB27AA27C9
:100760000ED057C148D130F04DD120F031F49F3F29
:1007700011F41EF43DC10EF4E095E7FB0AC1E92F28
:1007800059D180F3BA17620773078407950718F0E9
:1007900071F49EF588C10EF4E0950B2EBA2FA02DB2
:1007A0000B01B90190010C01CA01A0011124FF271E
:1007B000591B99F0593F50F4503E68F11A16F04019
:1007C000A22F232F342F4427585FF3CF4695379518
:1007D0002795A795F0405395C9F77EF41F16BA0BDD
:1007E000620B730B840BBAF09150A1F0FF0FBB1F8B
:1007F000661F771F881FC2F70EC0BA0F621F731FD4
:10080000841F48F4879577956795B795F7959E3F30
:1008100008F0B3CF9395880F08F09927EE0F9795BE
:100820008795089529D180F09F3740F491110EF4F7
:100830003BC160E070E080E89FE3089526F01B165E
:10084000611D711D811DABC0C5C07FD008F481E062
:100850000895F8D088F09F5790F0B92F9927B75195
:10086000A0F0D1F0660F771F881F991F1AF0BA9574
:10087000C9F712C0B13081F016D1B1E0089513C1AB
:10088000672F782F8827B85F39F0B93FCCF386956A
:1008900077956795B395D9F73EF4909580957095C7
:1008A00061957F4F8F4F9F4F0895E89409C097FB44
:1008B0003EF490958095709561957F4F8F4F9F4F37
:1008C0009923A9F0F92F96E9BB279395F69587957B
:1008D00077956795B795F111F8CFFAF4BB0F11F43E
:1008E00060FF1BC06F5F7F4F8F4F9F4F16C08823E5
:1008F00011F096E911C0772321F09EE8872F762F1B
:1009000005C0662371F096E8862F70E060E02AF05B
:100910009A95660F771F881FDAF7880F9695879547
:1009200097F90895A9D080F09F3740F491110EF007
:10093000BBC060E070E080E89FEB089526F41B16D2
:10094000611D711D811D2BC045C0990F0008550FF9
:10095000AA0BE0E8FEEF16161706E807F907C0F045
:1009600012161306E407F50798F0621B730B840B4D
:10097000950B39F40A2661F0232B242B252B21F427
:1009800008950A2609F4A140A6958FEF811D811DC7
:10099000089597F99F6780E870E060E008958823E4
:1009A00071F4772321F09850872B762F07C06623A8
:1009B00011F499270DC09051862B70E060E02AF069
:1009C0009A95660F771F881FDAF7880F9695879597
:1009D00097F908959F3F31F0915020F487957795CE
:1009E0006795B795880F911D9695879597F9089506
:1009F0009FEF80EC089500240A9416161706180637
:100A00000906089500240A94121613061406050612
:100A10000895092E0394000C11F4882352F0BB0FA3
:100A200040F4BF2B11F460FF04C06F5F7F4F8F4F06
:100A30009F4F089557FD9058440F551F59F05F3F41
:100A400071F04795880F97FB991F61F09F3F79F0F0
:100A500087950895121613061406551FF2CF469572
:100A6000F1DF08C0161617061806991FF1CF8695F4
:100A70007105610508940895E5DFA0F0BEE7B91798
:100A800088F4BB279F3860F41616B11D672F782FA6
:100A90008827985FF7CF869577956795B11D9395D1
:100AA0009639C8F30895E894BB2766277727CB01CA
:100AB00097F908954ADF08F48FEF08950BD0A9CF76
:100AC0009ADF28F09FDF18F0952309F062CF90CFCE
:100AD0001124EACFAFDFA0F3959FD1F3950F50E03B
:100AE000551F629FF001729FBB27F00DB11D639FE0
:100AF000AA27F00DB11DAA1F649F6627B00DA11D86
:100B0000661F829F2227B00DA11D621F739FB00D2B
:100B1000A11D621F839FA00D611D221F749F33279B
:100B2000A00D611D231F849F600D211D822F762F34
:100B30006A2F11249F5750408AF0E1F088234AF031
:100B4000EE0FFF1FBB1F661F771F881F915050407D
:100B5000A9F79E3F510570F01CCFA6CF5F3FECF385
:100B6000983EDCF3869577956795B795F795E79569
:100B70009F5FC1F7FE2B880F911D9695879597F97A
:100B800008951F920F920FB60F9211242F933F9347
:100B90008F939F93AF93BF9380912F0190913001DA
:100BA000A0913101B091320130912E0123E0230F49
:100BB0002D3758F50196A11DB11D20932E0180936C
:100BC0002F0190933001A0933101B09332018091B5
:100BD000330190913401A0913501B0913601019615
:100BE000A11DB11D8093330190933401A093350171
:100BF000B0933601BF91AF919F918F913F912F910B
:100C00000F900FBE0F901F90189526E8230F0296A5
:100C1000A11DB11DD2CF3FB7F894809133019091BF
:100C20003401A0913501B091360126B5A89B05C0CD
:100C30002F3F19F00196A11DB11D3FBFBA2FA92F5B
:100C4000982F8827BC01CD01620F711D811D911D58
:100C500042E0660F771F881F991F4A95D1F70895C4
:100C6000789484B5826084BD84B5816084BD85B587
:100C7000826085BD85B5816085BDEEE6F0E080814E
:100C800081608083E1E8F0E010828081826080836F
:100C9000808181608083E0E8F0E0808181608083F2
:100CA000E1EBF0E0808184608083E0EBF0E0808124
:100CB00081608083EAE7F0E08081846080838081C6
:100CC000826080838081816080838081806880836E
:100CD0001092C1000895833081F028F4813099F09A
:100CE0008230A9F008958730A9F08830C9F08430A7
:100CF000B1F4809180008F7D03C0809180008F7758
:100D000080938000089584B58F7784BD089584B55D
:100D10008F7DFBCF8091B0008F778093B0000895D6
:100D20008091B0008F7DF9CFCF93DF9390E0FC01ED
:100D3000E458FF4F249180579F4FFC0184918823F2
:100D4000C9F090E0880F991FFC01E854FF4FA5916E
:100D5000B491FC01E255FF4FC591D49161110DC0D2
:100D60009FB7F8948C91209582238C9388812823B7
:100D700028839FBFDF91CF910895623051F49FB7D0
:100D8000F8943C91822F809583238C93E8812E2BBD
:100D9000EFCF8FB7F894EC912E2B2C938FBFEACF27
:100DA0001F93CF93DF93282F30E0F901E859FF4FCD
:100DB0008491F901E458FF4FD491F901E057FF4FB6
:100DC000C491CC23A1F0162F811185DFEC2FF0E028
:100DD000EE0FFF1FE255FF4FA591B4918FB7F89426
:100DE000EC91111108C0D095DE23DC938FBFDF9109
:100DF000CF911F910895DE2BF8CF0F931F9390E0B2
:100E0000FC01E458FF4F7491FC01E057FF4FE4915F
:100E10006111672FF0E0EE0FFF1FEC55FF4F85913A
:100E2000949189019A013F70462F672F73D96115FC
:100E300071058105910529F06F5F7F4F8F4F9F4F9F
:100E40009F701F910F910895FC01918D228D892F24
:100E500090E0805C9F4F821B91098F7399270895C2
:100E6000FC01918D828D981731F0828DE80FF11D74
:100E7000858D90E008958FEF9FEF0895FC01918D8F
:100E8000828D981761F0A28DAE0FBF2FB11D5D96B8
:100E90008C91928D9F5F9F73928F90E008958FEF5A
:100EA0009FEF0895FC01538D448D252F30E0842F52
:100EB00090E0821B930B541710F0CF960895019782
:100EC0000895FC01A48DA80FB92FB11DA35ABF4FDF
:100ED0002C91848D90E001968F739927848FA68939
:100EE000B7892C93A089B1898C91837080648C938D
:100EF000938D848D981306C00288F389E02D80813C
:100F00008F7D80830895CF93DF93EC01888D8823B4
:100F1000B1F0AA89BB89E889F9898C9185FD03C064
:100F2000808186FD0CC00FB607FCF7CF8C9185FF42
:100F3000F2CF808185FFEDCFCE01C3DFEACFDF9115
:100F4000CF910895EF92FF920F931F93CF93DF936A
:100F5000EC0181E0888F9B8D8C8D98131AC0E889F5
:100F6000F989808185FF15C09FB7F894EE89FF89C4
:100F70006083E889F98980818370806480839FBF62
:100F800081E090E0DF91CF911F910F91FF90EF9062
:100F90000895F62E0B8D10E00F5F1F4F0F73112772
:100FA000E02E8C8D8E110BC00FB607FCFACFE889AE
:100FB000F989808185FFF5CFCE0183DFF2CFEB8DFC
:100FC000EC0FFD2FF11DE35AFF4FF0829FB7F8940D
:100FD0000B8FEA89FB8980818062D0CFCF92DF922C
:100FE000EF92FF921F93CF93DF93EC016A017B0195
:100FF000122FE889F98982E08083C11481EED80636
:10100000E104F10499F060E079E08DE390E0A7015C
:101010009601F5D02150310941095109569547955E
:1010200037952795211580E1380790F0E889F989EF
:10103000108260E874E88EE190E0A7019601DFD0AD
:101040002150310941095109569547953795279502
:10105000EC85FD853083EE85FF852083188EEC8935
:10106000FD891083EA89FB89808180618083EA8918
:10107000FB89808188608083EA89FB898081806820
:101080008083EA89FB8980818F7D8083DF91CF9186
:101090001F91FF90EF90DF90CF9008951F920F92D5
:1010A0000FB60F9211242F938F939F93EF93FF937B
:1010B000E0914701F09148018081E0914D01F0916C
:1010C0004E0182FD1BC09081809150018F5F8F7314
:1010D00020915101821741F0E0915001F0E0E95C6C
:1010E000FE4F958F80935001FF91EF919F918F91CB
:1010F0002F910F900FBE0F901F9018958081F4CF05
:101100001F920F920FB60F9211242F933F934F937C
:101110005F936F937F938F939F93AF93BF93EF935F
:10112000FF9387E391E0CDDEFF91EF91BF91AF9107
:101130009F918F917F916F915F914F913F912F91EF
:101140000F900FBE0F901F901895E7E3F1E0138208
:10115000128288EE93E0A0E0B0E084839583A683BA
:10116000B78386E191E09183808385EC90E0958759
:10117000848784EC90E09787868780EC90E0918B61
:10118000808B81EC90E0938B828B82EC90E0958B4E
:10119000848B86EC90E0978B868B118E128E138E4B
:1011A000148E0895AF92BF92CF92DF92EF92FF928A
:1011B0000F931F93CF93DF936C017B018B01040F7F
:1011C000151FEB015E01AE18BF08C017D10759F01B
:1011D0006991D601ED91FC910190F081E02DC6015D
:1011E0000995892B79F7C501DF91CF911F910F9157
:1011F000FF90EF90DF90CF90BF90AF900895A1E265
:101200001A2EAA1BBB1BFD010DC0AA1FBB1FEE1F80
:10121000FF1FA217B307E407F50720F0A21BB30BCB
:10122000E40BF50B661F771F881F991F1A9469F747
:1012300060957095809590959B01AC01BD01CF01A3
:101240000895EE0FFF1F0590F491E02D0994F89496
:02125000FFCFCE
:101252000000803F0000803F0000803F0000803F90
:10126200240100000000A207D208520783072407C6
:041272003E073007FC
:00000001FF
