:1000000061C0000087C0000085C0000083C0000000
:1000100081C000007FC000007DC000007BC00000E8
:1000200079C0000077C0000075C0000073C00000F8
:1000300071C000000C9443236DC000006BC0000031
:100040000C942F2767C000000C94F3290C94252AE8
:1000500061C000005FC000005DC000005BC0000028
:1000600059C0000057C00000000000080002010055
:100070000003040700000000000000000102040863
:100080001020408001020408102001020408102002
:10009000040404040404040402020202020203032E
:1000A00003030303000000002300260029000000D2
:1000B0000000250028002B0000000000240027007D
:1000C0002A004A2A11241FBECFEFD8E0DEBFCDBFE1
:1000D00011E0A0E0B1E0E0EFF5E502C005900D927F
:1000E000A63EB107D9F725E0A6EEB1E001C01D920A
:1000F000AB30B207E1F710E0C2E6D0E004C02197D0
:10010000FE010E94C72AC136D107C9F70E94932475
:100110000C94F62A75CF611102C00C943828613016
:10012000E1F362E0FACF662319F061E00C947428E1
:1001300060E0FCCF0E94A12821E0019709F020E0B7
:10014000822F089590E080E008950F931F93009709
:1001500009F487C06115710509F483C00091290174
:1001600010912A0120912B0130912C010E3F1F4F3D
:100170002F4F3F4F09F066C04FEF5FEFBA0140933A
:10018000290150932A0160932B0170932C01409117
:10019000290150912A0160912B0170912C01DC0101
:1001A0001296ED91FC9180819181A281B38180931F
:1001B0005F0290936002A0936102B0936202848117
:1001C0009581A681B78180935B0290935C02A09396
:1001D0005D02B0935E0280859185A285B385809390
:1001E000570290935802A0935902B0935A02848503
:1001F0009585A685B7858093530290935402A0936A
:100200005502B093560210924F0210925002109273
:1002100051021092520247D688E797E09093E70187
:100220008093E6019093E9018093E8012BD5009734
:1002300031F421E030E030936402209363021F9197
:100240000F9108950091290110912A0120912B010D
:1002500030912C01DB010D931D932D933C9313974B
:1002600096CF8FEF9FEFEBCF8F929F92AF92BF927F
:10027000CF92DF92EF92FF921F93CF93DF934B01C8
:100280005C011091660282E090E09093640280939A
:10029000630281149104A104B10441F480916602C7
:1002A000811104C080916502C1E08111C0E0C12CC0
:1002B000D12C760180916602811106C08091650281
:1002C000811102C0CC23D9F083E090E090936402C6
:1002D00080936302CC2379F1CCE9DFEF111102C0E6
:1002E0000E94DC0ACE01DF91CF911F91FF90EF9029
:1002F000DF90CF90BF90AF909F908F9008956AE06D
:1003000070E080E090E00E949E2780E1C80E87E2C6
:10031000D81EE11CF11C8FEF88169806A806B806B7
:1003200031F0C1E08C149D04AE04BF0408F0C0E0BD
:1003300080E0DCD4BFCFD0E0C0E0D0CFCF92DF925E
:10034000EF92FF920F931F93CF93DF938F3F91050F
:1003500011F008F050C02091630230916402233004
:10036000310539F02091630230916402213031056A
:1003700031F424E030E030936402209363026A0198
:100380007B01EC0182309105A0F011E0AE01C701C4
:10039000B60177D4AB01BC01CE011123F9F0DF9196
:1003A000CF911F910F91FF90EF90DF90CF900C9421
:1003B000050D8C01000F111F0A511E4FD8018D91A0
:1003C0009C91892B11F30E940F0D0297F1F6D80131
:1003D000ED91FC91CE010995182FD8CF0E94270DE1
:1003E00090E080E0DF91CF911F910F91FF90EF900F
:1003F000DF90CF9008958FEF9FEFF4CF80E076C429
:10040000CF93DF9386E090E0909364028093630241
:10041000C6D4EC01E6EEF1E084E0DF011D928A959E
:10042000E9F70E94740A1092640210926302CE01EE
:10043000DF91CF91089580916502089580914E02D9
:1004400008956093290170932A0180932B01909362
:100450002C0190E080E00895FC0191E080912B0256
:10046000811190E091830895CF92DF92EF92FF92F5
:100470006B017C019F7720E030E040E859E50E9465
:10048000932587FF2BC020E030E040E05FE3C70109
:10049000B6010E94C82687FD0EC020E030E040E093
:1004A0005FE3C701B6010E941C25FF90EF90DF902B
:1004B000CF900C94002620E030E040E05FEBC701D5
:1004C000B6010E94C826181684F420E030E0A90185
:1004D000C701B6010E94CC266B017C01C701B601A1
:1004E000FF90EF90DF90CF90089520E030E040E063
:1004F0005FE3C701B6010E941B25FF90EF90DF90DC
:10050000CF900C9480254F925F926F927F928F9242
:100510009F92AF92BF92CF92DF92EF92FF920F9392
:100520001F93CF93DF93C0912B0281E0C11180E034
:1005300080932C0281E08C0F843608F0CBC080932E
:100540002B02809105058150823008F0C6C083E0FF
:1005500080930505809104058150823008F0BFC06A
:1005600083E080930405C090FC04D090FD04E090EB
:10057000FE04F090FF04C701B6010E94C5252B01BF
:100580003C0120910C0130910D0140910E015091E0
:100590000F010E94932587FFA4C0F7FCA2C08090A2
:1005A000040190900501A0900601B090070120E0A1
:1005B00030E040E85FE360910801709109018091AB
:1005C0000A0190910B010E941B259B01AC01C30104
:1005D000B2010E94C82687FD88C01092FC041092C8
:1005E000FD041092FE041092FF04C11104C080911A
:1005F00006058093070520E030E0A901C501B4019C
:100600000E949325882329F0C1E08091070581117C
:1006100001C0C0E06C2F83E086DD809000059090E3
:100620000105A0900205B0900305C501B4010E9428
:10063000C5252B013C0120912001309121014091E1
:100640002201509123010E94932587FF5CC0B7FCD3
:100650005AC0C0901801D0901901E0901A01F09092
:100660001B0120E030E040E85FE360911C017091E5
:100670001D0180911E0190911F010E941B259B016D
:10068000AC01C301B2010E94C82687FD41C010928F
:100690000005109201051092020510920305C11188
:1006A000C4C020E030E0A901B601C7010E94932533
:1006B00000E010E0D0E0811102C0D0E8CFE38091EB
:1006C0000505882399F1833009F4ACC0082E000C8D
:1006D000990B2EC010922B0234CF80E039CF80E0EE
:1006E00040CF812C912C540162CF8FEFC81AD80AC9
:1006F000E80AF80AC092FC04D092FD04E092FE04DD
:10070000F092FF0472CFC12CD12CE12CF12CA9CF97
:100710008FEF881A980AA80AB80A8092000590926A
:100720000105A0920205B0920305B9CF82E090E0E6
:1007300080930505B601C70197DE6B017C0120E0BF
:1007400030E040E853E40E9493256FEF87FF0EC02E
:1007500020E030E0A901C701B6010E94C82660E090
:1007600087FD04C0C701B6010E94972584E0DBDC49
:10077000B8018D2F9C2F78DE6B017C0120E030E0EA
:1007800040E853E40E9493256FEF87FF0EC020E0FE
:1007900030E0A901C701B6010E94C82660E087FDCC
:1007A00004C0C701B6010E94972585E0BCDC6091BA
:1007B0001E0270911F0280912002909121026F5FB2
:1007C0007F4F8F4F9F4F60931E0270931F02809345
:1007D0002002909321020E94C3259B01AC016091ED
:1007E00022027091230280912402909125020E949E
:1007F000CC2660931A0270931B0280931C02909384
:100800001D02DF91CF911F910F91FF90EF90DF902C
:10081000CF90BF90AF909F908F907F906F905F90A0
:100820004F90089581E090E083CF009114011091E2
:100830001501D0911601C0911701809104058823FC
:1008400031F0833061F0082E000C990B02C082E079
:1008500090E0809304056801ED2EFC2E6BCF81E0C3
:1008600090E0F7CFCF92DF92EF92FF92C09000011D
:10087000D0900101E0900201F0900301A7019601E0
:100880006091DE047091DF048091E0049091E104B6
:100890000E949325882341F0C092DE04D092DF04A9
:1008A000E092E004F092E10482E044DC80930805E9
:1008B000809306058091260290912702A09128023C
:1008C000B09129020196A11DB11D8093260290933B
:1008D0002702A0932802B0932902FF90EF90DF90A7
:1008E000CF900895AF92BF92CF92DF92EF92FF9296
:1008F0001F93CF93DF93E4E0F2E080E090E0A0E884
:10090000BFEB81A792A7A3A7B4A78FE692E1A3E8C4
:10091000BAE3868F978FA0A3B1A389EB9FEDA6EAD8
:10092000B7ED84839583A683B78388EC9EE7A8E21E
:10093000B2E380879187A287B38782EC9EE1AAEC1D
:10094000BBEA84879587A687B7878BEB94E7AAEBEA
:10095000BEE3808B918BA28BB38BA8EFB1E0B38306
:10096000A283EAEEF1E01196FC93EE9382E591E02A
:100970009183808393838283958384839783868303
:100980009187808785E095E09387828784E095E072
:100990009587848788E192E015969C938E931497AF
:1009A00088E092E013969C938E9312978AE192E0EE
:1009B00017969C938E93169780E0A82E81E0B82E10
:1009C000F50180A580930705C6EDD4E088AB1C8EA9
:1009D000C12CD12C7601C394CD8EDE8EEF8EF8A281
:1009E00061E083E098DB11E019A31C8ACD8ADE8ADE
:1009F000EF8AF88E61E084E08EDB198F1C86CD864D
:100A0000DE86EF86F88A61E085E085DB198B188247
:100A1000F50180819181A281B38188879987AA8716
:100A2000BB87C982DA82EB82FC8260E082E073DB02
:100A30001D83DF91CF911F91FF90EF90DF90CF90BA
:100A4000BF90AF9008958091F204811103C081E0BE
:100A50008093F2048091EA04811103C081E08093C5
:100A6000EA048091E204811103C081E08093E204F2
:100A70008091D604811103C081E08093D60408954B
:100A80004F925F926F927F928F929F92AF92BF929E
:100A9000CF92DF92EF92FF920F931F93F8944090C2
:100AA0003E0250903F026090400270904102C09020
:100AB0003202D0903302E0903402F0903502452BA0
:100AC00009F0A4C09B01AC01241935094609570956
:100AD00029013A0100913A0210913B0220913C0217
:100AE00030913D0248015901840C951CA61CB71C8D
:100AF00080169106A206B306A0F40091360210916A
:100B0000370220913802309139020F5F1F4F2F4F6B
:100B10003F4F0093360210933702209338023093F0
:100B2000390280923A0290923B02A0923C02B0922B
:100B30003D02009136021091370220913802309127
:100B400039028092420290924302A0924402B092F3
:100B500045020093460210934702209348023093C7
:100B6000490260933E0270933F028093400290934B
:100B70004102A8EEB3E0A30192010E94CD2A6C0DC0
:100B80007D1D8E1D9F1D60933202709333028093F2
:100B90003402909335020091290110912A0120918D
:100BA0002B0130912C010F3F1F4F2F4F3F4FF1F082
:100BB0000091290110912A0120912B0130912C01E3
:100BC0000E3F1F4F2F4F3F4F89F0C0902901D0900B
:100BD0002A01E0902B01F0902C0121E08C149D045F
:100BE000AE04BF0408F420E020934E0278941F91D5
:100BF0000F91FF90EF90DF90CF90BF90AF909F90BC
:100C00008F907F906F905F904F9008954B015C01A3
:100C100084189508A608B708A3019201261B370B74
:100C2000480B590B6415750586059705D0F082169B
:100C30009306A406B50640F420E030E0A901811433
:100C40009104A104B10491F4A8EEB3E00E94CD2A6E
:100C5000A7019601261B370B480B590BCA01B90196
:100C6000C5CF82169306A406B50670F7A8EEB3E0CA
:100C7000A50194010E94CD2A6C0D7D1D8E1D9F1D26
:100C8000B5CFFECECF93DF9300D000D0CDB7DEB787
:100C90001C821B821A82198210924A0210924B0205
:100CA00010924C0210924D02BE016F5F7F4FCE0139
:100CB00003960E94272369817A818B819C810E94FF
:100CC0001F1C009761F4BE016F5F7F4FCE0103963A
:100CD0000E94332369817A818B819C812CD50F906E
:100CE0000F900F900F90DF91CF910895FF920F9387
:100CF0001F93CF93DF93082F60E070E0CB010E9439
:100D00009E27FF24F3940E940A1BEC01892B89F093
:100D100010E0CE3F8FEFD80769F0002361F160E06B
:100D200070E0CB010E949E2781E090E0892B59F36F
:100D300022C011E023D5EC01892B21F0CE3F8FEFAB
:100D4000D80759F711111EC011E0229609F410E0DE
:100D50000E94BB1AEC01892B21F0CE3F8FEFD80700
:100D6000E1F6111111C011E0CE3F8FEFD80709F461
:100D700010E001110BC0CE01DF91CF911F910F91B7
:100D8000FF90089511E0E4CF11E0F3CF60E070E050
:100D9000CB010E949E271F25812F90E0C7CFCF93C4
:100DA000DF9380914E02882321F060E070E0CB0158
:100DB0004CD635D6D0E0C0E0892B71F06AE070E007
:100DC00080E090E00E949E2781E090DF28D6219667
:100DD000C03D27E0D20781F727D60E94731C1092EE
:100DE00066021092650210925F02109260021092E9
:100DF00061021092620210925B0210925C021092E9
:100E00005D0210925E0210925702109258021092E8
:100E1000590210925A0210925302109254021092E8
:100E200055021092560210924F02109250021092E8
:100E30005102109252024EEF5FEF6FEF7FEF40933F
:100E4000290150932A0160932B0170932C01109279
:100E50004E02E2E4F2E028E0DF011D922A95E9F774
:100E600010923E0210923F021092400210924102F4
:100E700010923A0210923B0210923C0210923D02F4
:100E800010923602109237021092380210923902F4
:100E900010923202109233021092340210923502F4
:100EA000DF91CF9108951092720210927302109206
:100EB0007402109275021092710280917A029091E0
:100EC0007B029093700280936F0210926E021092D8
:100ED0006D021092690210926A0210926B021092D7
:100EE0006C02109277021092760290E080E00895F2
:100EF000CF92DF92EF92FF920F931F93CF938C01CB
:100F0000892B09F055C020917A0230917B028091A3
:100F10006F029091700240917A0250917B0250933F
:100F2000700240936F022817390781F010926E0209
:100F300010926D021092690210926A0210926B0276
:100F400010926C02109277021092760280917A02CF
:100F500090917B02019761F58091760290917702E2
:100F6000892B21F480912D01811112C0809176028C
:100F7000909177020197E1F48091690290916A0261
:100F8000A0916B02B0916C020197A105B10581F4AB
:100F90001092690210926A0210926B0210926C0217
:100FA00010922D0182E090E0909377028093760278
:100FB00080917A0290917B02019709F01CC1809187
:100FC0009002909191028017910709F014C18091CD
:100FD0008C0290918D02A0918E02B0918F020097A9
:100FE00009F409C120918B0221110DC040918C029E
:100FF00050918D0260918E0270918F02452B462B8D
:10100000472B09F4F8C02091760230917702223004
:10101000310509F0F0C020916D022111ECC0FC01F6
:10102000C080D180E280F38080917102882309F42E
:10103000D3C080917D0290917E02892B09F4FDC07E
:1010400020917D0230917E0281E02230310509F04D
:1010500080E020917D0230917E02C1E02130310597
:1010600049F020917D0230917E02C1E022303105AD
:1010700009F0C0E0882309F456C02091870230911E
:1010800088024091890250918A02C701B6010E94EC
:10109000C82687FD14C020918702309188024091B4
:1010A000890250918A02609172027091730280915C
:1010B0007402909175020E94932587FD22C02091B1
:1010C0008702309188024091890250918A02C701BB
:1010D000B6010E94C826181634F520918702309177
:1010E00088024091890250918A0260917202709147
:1010F000730280917402909175020E949325811170
:1011000012C080917F0290918002A0918102B091E3
:101110008202892B8A2B8B2B19F481E080936E023B
:1011200081E080936D02CC2309F456C020918702A0
:10113000309188024091890250918A02C701B6011C
:101140000E94932587FF14C0209187023091880266
:101150004091890250918A026091720270917302EB
:1011600080917402909175020E94C82687FF22C068
:1011700020918702309188024091890250918A0221
:10118000C701B6010E949325811126C020918702D4
:10119000309188024091890250918A0260917202D6
:1011A0007091730280917402909175020E94C8261A
:1011B000181694F480917F0290918002A091810290
:1011C000B0918202892B8A2B8B2B19F481E08093BA
:1011D0006E0281E080936D0281E090916D02911129
:1011E00080E080937102C0927202D0927302E0920A
:1011F0007402F0927502012B09F067C180917602AA
:1012000090917702892BD9F410927C0210926D0292
:1012100080912D01882379F082E090E0909377020D
:101220008093760210922D0120917A0230917B02F8
:1012300081E0232BE9F080E01BC081E00ACF10920F
:101240002D0180917C02882349F010926E02109249
:1012500077021092760210927C02EDCF80917A0292
:1012600090917B02892BE1F080916D0210926D02CA
:1012700020917602309177022230310509F45EC068
:1012800088F42115310509F448C02130310509F4ED
:10129000F3C010926E0210926D0210927C0238C060
:1012A00081E0E6CF2330310509F4B1C024303105A7
:1012B00081F74091690250916A0260916B027091CE
:1012C0006C02411551056105710561F041505109EC
:1012D000610971094093690250936A0260936B023D
:1012E00070936C024091690250916A0260916B02A6
:1012F00070916C02452B462B472BD9F42091780234
:10130000309179022130310509F046C010926E0209
:1013100010927702109276020CC080912D018823E2
:1013200041F082E090E090937702809376021092F1
:101330002D011092670280916E02CEC08823C9F3FE
:1013400080917F0290918002A0918102B0918202EF
:10135000181619061A061B060CF07DC080917A0239
:1013600090917B02019709F076C080917F02909165
:101370008002A0918102B0918202809369029093D1
:101380006A02A0936B02B0936C0283E090E09093AA
:10139000770280937602CDCF4091830250918402F0
:1013A0006091850270918602452B462B472BA9F050
:1013B00010926E028091830290918402A091850226
:1013C000B09186028093690290936A02A0936B02A7
:1013D000B0936C0281E090E0DACF882399F080919D
:1013E0002E0190912F01A0913001B0913101809395
:1013F000690290936A02A0936B02B0936C0284E03E
:1014000090E0C5CF10926E0282E090E0C0CF809154
:10141000690290916A02A0916B02B0916C020097F0
:10142000A105B10559F00197A109B109809369029D
:1014300090936A02A0936B02B0936C028091690250
:1014400090916A02A0916B02B0916C02892B8A2B59
:101450008B2B09F06ECF80912E0190912F01A091DE
:101460003001B0913101892B8A2B8B2B09F44ECF9F
:1014700081E080936E02B3CF4091690250916A027D
:1014800060916B0270916C02411551056105710507
:1014900061F041505109610971094093690250930B
:1014A0006A0260936B0270936C02409169025091E2
:1014B0006A0260916B0270916C02452B462B472BA0
:1014C00009F037CF8111C7CF9FCF80916702882362
:1014D00009F431CF80916802CF911F910F91FF9055
:1014E000EF90DF90CF9008951092720210927302E5
:1014F000109274021092750210927102109277028B
:10150000109276021092700210926F021092910265
:101510001092900210926E0210926D021092690267
:1015200010926A0210926B0210926C021092680282
:101530001092670210928C0210928D0210928E020D
:1015400010928F0210928B021092870210928802E2
:101550001092890210928A0288EE93E0A0E0B0E037
:1015600080932E0190932F01A0933001B09331010D
:1015700010928302109284021092850210928602C9
:1015800010927F02109280021092810210928202C9
:1015900010927E0210927D0281E080932D011092C4
:1015A0007C0210927B0210927A02109279021092C1
:1015B000780290E080E0089580917A0290917B0219
:1015C000892B19F580912D01882351F080917C029F
:1015D000811106C081E080936802809367020895BC
:1015E00020917C0230912D0181E090E0332311F0B5
:1015F00090E080E030E082239323892B21F0109249
:10160000680281E0EACF10926702089582E090E0DC
:10161000FA01918380838FEF9FEF0895CF93DF933B
:10162000EA01009711F00E94901D1982188290E043
:1016300080E0DF91CF910895DB01009719F48FEFDF
:101640008C9308952EEF2C930F968F30910508F010
:1016500033C0FC01E25DF44F0C94C72A5A0B580BBF
:10166000560B540B520B4E0B500B4C0B4A0B480BAA
:10167000450B410B3D0B430B5C0B80E311968C93A8
:10168000089589E2FBCF82E2F9CF11961C9208956A
:1016900083E2F4CF81E2F2CF81E1F0CF87E2EECFB7
:1016A0008AE2ECCF80E1EACF84E2E8CF88E2E6CFBD
:1016B00086E2E4CF81E3E2CF80E2E0CF80919E0238
:1016C00090919F02089590939F0280939E020895A7
:1016D00080919D02089590919D02892B80939D0297
:1016E0000895982F909580919D02892380939D0263
:1016F000089580919C02089580919A0290919B0296
:1017000008956115710559F0FB0130E020E070E0AB
:1017100060E02417350719F06115710511F0CB0150
:101720000895A081B181A817B90709F4BF012F5FFF
:101730003F4F3696EECF8091A00281111CC062D23D
:1017400068D290939302809392020E94A3150E9404
:10175000B51590939702809396020E94251A0E94D5
:101760002C1A909395028093940281E08093A002BA
:1017700090E080E0089584EF9FEF08958F929F920C
:10178000AF92BF92CF92DF92EF92FF920F931F938F
:10179000CF93DF93CDB7DEB72A970FB6F894DEBFAD
:1017A0000FBECDBF1A86198618861F821E821D8223
:1017B0001C821B821A8219828091A00207EF1FEF00
:1017C000882309F49CC08E010D5F1F4F9E012B5F83
:1017D0003F4FAE01495F5F4FBE01675F7F4F90E0B3
:1017E00080E00E94A51B8C01009721F005960297CE
:1017F00008F0DBC029853A852115310509F402C1BD
:10180000ED80FE804B815C81B701640F751F8F8175
:1018100098858617970708F4F5C0E20EF31ED701E6
:101820009C91903C09F07FC04230510508F47BC088
:1018300011968C9140919E0250919F02452B09F484
:101840009CC0913F08F071C02CE1290F2D3008F4A5
:101850008BC02DE2290F203108F489C0903C21F47F
:101860008150823008F483C088E3890F8B3008F4FC
:1018700081C09CE1C92E9BE0D92EE6E0FBE06D81A2
:101880007E81AE014F5F5F4F89859A8509955C0126
:10189000C114D104A1F189809A808114910479F155
:1018A0008B819C818815990508F487C010E000E0C1
:1018B0004B815C8170E060E0C7010E94EF2A011556
:1018C0001105E9F449815A8169857A858D819E8166
:1018D000680F791FC501F6010995E980FA800D812D
:1018E0001E812F81388549855A856FEF7FEF81E012
:1018F00090E00E94411B8C01892B09F056C0C80161
:101900002A960FB6F894DEBF0FBECDBFDF91CF9100
:101910001F910F91FF90EF90DF90CF90BF90AF900D
:101920009F908F90089580E085CF30E020E0220FD7
:10193000331FF901EE56FD4F0190F081E02D3097F5
:1019400009F497CF892F90E00995009709F491CF7A
:10195000DC011296ED91FC9113971496CD90DC90DA
:10196000309709F08CCF1FC021E030E0E0CF22E0BB
:1019700030E0DDCF23E030E0DACFD12CC12CEEE037
:10198000FBE09F3F09F07BCFE0919202F091930240
:10199000309721F4C90104EF1FEF0CC08FEF90E0E6
:1019A00009950097A9F604EF1FEF89859A8500979E
:1019B00009F4A5CF0E94901DA2CF0E946E1C8C013D
:1019C00089859A850E94901D70E060E0C4010E94A4
:1019D000071C98878F830E943E1B9E838D836F8197
:1019E00078856115710559F0C8010E941C1F9A87FE
:1019F000898706EF1FEF892B09F058CF59CF08EFE1
:101A00001FEF56CF08EF1FEFD0CF2091A002222367
:101A100019F020E00C94BA1587EF9FEF089580919C
:101A20009E0290919F0208950E94311A0E948B1984
:101A3000F5D0E2E9F2E088E0DF011D928A95E9F74E
:101A40001092A00290E080E008950C94E81721E045
:101A500040E050E0BA010C94BA1586E090E0FA013B
:101A60009183808390E080E0089547E050E065E551
:101A700071E047CEDF92EF92FF920F931F93CF93C7
:101A8000DF938A01EC01C60FD71FE090A402F0900B
:101A9000A502D9800E94561CD816190678F082E05B
:101AA00090E0F801918380838EEF9FEFDF91CF91DB
:101AB0001F910F91FF90EF90DF900895EF2841F470
:101AC00082E090E0F8019183808384EF9FEFEECF76
:101AD00089818093A30290E00196F801918380832D
:101AE00090E080E0E3CFCF93DF93EA010E94991862
:101AF000882321F00E94631C0E949A1882E090E0E3
:101B0000998388838BEF9FEFDF91CF910895CF93D7
:101B1000DF93EB0186E0FB0111928A95E9F78FEFE5
:101B20008883D6DD8983E5DD8A83E6DD9D838C832A
:101B3000DF91CF910895CF93DF93EA010E949C1823
:101B4000811109C082E090E09983888385EF9FEF3F
:101B5000DF91CF91089590E080E0B5DD81E090E0E5
:101B60009983888390E080E0F3CF0F931F93CF9306
:101B7000DF93EA018C01060F171F0E949C18811148
:101B80000BC082E090E09983888385EF9FEFDF911F
:101B9000CF911F910F910895F8018181823038F023
:101BA00082E090E0998388838EEF9FEFF0CF81E011
:101BB00090E089DD88E090E09983888390E080E080
:101BC000E6CFCF93DF930097D1F4EB01FB01329680
:101BD00086E0DF011D928A95E9F78FEF888385E023
:101BE00089831A820E94561C8B830E94551C9D83F8
:101BF0008C8381E08E838F83DF91CF910895DF9175
:101C0000CF911ACD85E39DE09093A2028093A1022B
:101C100008958091A1029091A20208951092A202CB
:101C20001092A10208958091A4029091A5020895B6
:101C3000411105C0611571058105910561F0609341
:101C4000A4027093A5028093A6029093A7024093EA
:101C5000A80281E0089580E00895FF920F931F93FA
:101C6000CF93DF938A01EC01C60FD71FF9800E9442
:101C7000561CF816190668F082E090E0F80191838E
:101C800080838EEF9FEFDF91CF911F910F91FF9097
:101C900008956C817D818E819F814B81C9DF811187
:101CA00008C082E090E0F8019183808384EF9FEF89
:101CB000EACF89818093A30290E00196F801918395
:101CC000808390E080E0DFCFCF93DF93EA01FC01D7
:101CD000E60FF71F64817581868197814381A8DFB4
:101CE000811109C082E090E09983888384EF9FEF9F
:101CF000DF91CF91089581E090E09983888390E00F
:101D000080E0F6CFE4EAF2E04081518162817381A4
:101D1000480F511D611D711D408351836283738380
:101D20000895CF93C091A3024C2F50E06091A4027C
:101D30007091A50201960E94E62A8C2FE3DF109293
:101D4000A302CF910895009799F48091A4029091F5
:101D5000A5022FEFFB012083892B59F02091A302CC
:101D600030E02F5F3F4F2417350719F4CB01D9CF4F
:101D700063CC0895009799F48091A4029091A502F4
:101D80002FEFFB012083892B59F02091A30230E033
:101D90002F5F3F4F2417350719F4CB01C2CF4CCC2E
:101DA000089523E1AC01249FC001259F900D1124CB
:101DB000E091AD02F091AE02E80FF91F238134816A
:101DC0002250310981E02230310508F080E0089589
:101DD0000F931F93CF93DF930091AF021091B00246
:101DE000D0E0C0E080E00C171D0749F491E08111BC
:101DF00090E0892FDF91CF911F910F91089581116C
:101E0000F5CFCE01CEDF2196EECFA091AD02B091FD
:101E1000AE02109729F12091AF023091B0028217E3
:101E20009307F0F453E1589F9001599F300D11240E
:101E3000A20FB31FED91FC911197309789F0129684
:101E40008C91681768F48BE0689FE00DF11D1124F8
:101E500080819181892B21F081E09281491708F0DE
:101E600080E008959C0143E1429FC001439F900D93
:101E70001124E091AD02F091AE02E80FF91F8385C5
:101E8000823091F481E090E0658176814091320169
:101E9000509133016417750711F490E080E0892BAD
:101EA00019F081E0232B09F080E00895EF92FF9272
:101EB0000F931F93CF93DF93EA01FC01E60FF71F07
:101EC00002811381E480F5804F2D6E2DC8019DDFC6
:101ED00081110DC082E090E0998388838EEF9FEF9F
:101EE000DF91CF911F910F91FF90EF900895C8015E
:101EF00058DF882339F082E090E09983888388EF67
:101F00009FEFEECF1093390100933801E0923A0130
:101F1000F0923B0181E090E09983888390E080E03B
:101F2000DFCFCF92DF92EF92FF920F931F93CF9369
:101F3000DF937A01EC01C60FD71FC0903801D09013
:101F4000390100913A0110913B01412F602FC601E8
:101F50005CDF811110C082E090E0F7019183808303
:101F60008AEF9FEFDF91CF911F910F91FF90EF903C
:101F7000DF90CF900895C60114DF882341F082E0FE
:101F800090E0F7019183808388EF9FEFEBCF4C8146
:101F90005D816E817F819A8189818F3F41F082E0EE
:101FA00090E0F701918380838EEF9FEFDBCFE3E139
:101FB000EC9D9001ED9D300D1124E091AD02F0916A
:101FC000AE02E20FF31F0190F081E02D2BE0029FA3
:101FD000E00DF11D11240190F081E02D27E0129F0A
:101FE000E00DF11D1124808391838B8182834383D3
:101FF0005483658376831F5F10933B0181E090E0FB
:10200000F7019183808390E080E0ACCFEF92FF9264
:102010000F931F93CF93DF937A018C01060F171F45
:10202000C091AD02D091AE02209781F021E030E066
:10203000F801828193814091AF025091B0028417E0
:10204000950710F030E020E0232B71F482E090E05F
:10205000F701918380838EEF9FEFDF91CF911F91E6
:102060000F91FF90EF90089543E1489F9001499FA1
:10207000300D1124C20FD31F94DE882341F082E07B
:1020800090E0F7019183808388EF9FEFE6CFF8011E
:102090002481358120383105C8F687818111D6CF5A
:1020A0004181842F90E08F7E009741F082E090E0A4
:1020B000F7019183808386EF9FEFCFCF4F833E83DD
:1020C0002D83268128871986223010F421E0288765
:1020D00021E030E0F70131832083BFCF88E090E03A
:1020E000FA019183808390E080E00895FB018FEFF7
:1020F000808381E181838FEF9FEF9383828380E8E8
:1021000090E095838483168217820895FB018FEFF8
:10211000808391E0918382839383848384E38583A6
:1021200081E090E0978386830895DF92EF92FF929B
:102130000F931F93CF93DF93EA01FC01E60FF71F84
:102140008181813071F082E090E0998388838FEF04
:102150009FEFDF91CF911F910F91FF90EF90DF9054
:10216000089582819381D4802581E680F780009153
:10217000AD021091AE020115110539F482E090E034
:10218000998388838CEF9FEFE4CF4091AF02509109
:10219000B0028417950738F082E090E09983888335
:1021A0008EEF9FEFD6CF892B39F082E090E09983B4
:1021B000888386EF9FEFCDCF8D2D8D7FB1F72130B6
:1021C000A1F781E0D11006C091E0E916F10431F0E9
:1021D00080E004C0E2E0EE16F104D0F3882329F396
:1021E00090E080E0DEDD882339F082E090E09983A2
:1021F000888388EF9FEFADCFF801D38681E0848795
:10220000F686E586108A178681E090E099838883B8
:1022100090E080E09ECF4CE050E06FE771E071CA43
:102220008F929F92BF92CF92DF92EF92FF920F9385
:102230001F93CF93DF93EA01FC01E60FF71F828122
:1022400093810481B580E091AD02F091AE023097A8
:1022500091F482E090E0998388838CEF9FEFDF9187
:10226000CF911F910F91FF90EF90DF90CF90BF9093
:102270009F908F9008952091AF023091B002821705
:10228000930738F082E090E0998388838EEF9FEF88
:10229000E6CF23E1289F6001299FD00C1124EC0D8B
:1022A000FD1DE080F180E114F10499F282810817AC
:1022B00048F78BE0089F80011124E00EF11EF70122
:1022C00080819181892B29F6BB20E1F2F7E0BF9E46
:1022D00040011124C4010E94571DF701918380839E
:1022E000E091AD02F091AE02EC0DFD1D0190F08188
:1022F000E02DE00FF11F80819181009739F482E099
:1023000090E0998388838DEF9FEFA9CFA40170E0BF
:1023100060E00E94EF2A8091AD029091AE02C80E5B
:10232000D91EF60180819181080F191FF801B28230
:1023300081E090E09983888390E080E090CFAF9235
:10234000BF92CF92DF92FF920F931F93CF93DF93B1
:10235000EA01FC01E60FF71F82819381F48000916E
:10236000AD021091AE020115110581F482E090E0FA
:10237000998388838CEF9FEFDF91CF911F910F910D
:10238000FF90DF90CF90BF90AF9008952091AF0263
:102390003091B0028217930738F082E090E0998381
:1023A00088838EEF9FEFE8CF2FEF2F0D2C3FA8F7FC
:1023B00023E1289F6001299FD00C11240C0D1D1DC5
:1023C000F80180819181892B89F6FBE0FF9E500105
:1023D0001124C5010E94571DF80191838083E0916B
:1023E000AD02F091AE02EC0DFD1D80819181009750
:1023F00039F482E090E0998388838DEF9FEFBCCF22
:10240000A50170E060E00E94EF2AE091AD02F0913A
:10241000AE02EC0DFD1DF28281E090E0998388838D
:1024200090E080E0A9CFCF92DF92EF92FF920F93DE
:102430001F93CF93DF93860F971FFC0102811381B7
:102440008091AD029091AE02892B81F082E090E004
:10245000FA01918380838CEF9FEFDF91CF911F91E1
:102460000F91FF90EF90DF90CF900895C801B0E0FA
:10247000A0E00197A109B1098F3F9F4FA105B105C8
:1024800040F082E090E0FA01918380838EEF9FEF2D
:10249000E4CF7A0183E1809F6001819FD00C1124F9
:1024A000C6010E94571DEC01009741F482E090E0C4
:1024B000F701918380838DEF9FEFCFCFA60170E06E
:1024C00060E00E94EF2AD093AE02C093AD02109359
:1024D000B0020093AF0290E080E02FEF3FEF41E0C9
:1024E00061E070E08017910741F481E090E0F7012E
:1024F0009183808390E080E0B0CF3A8B298B1B865C
:102500004C877E876D87188A1F8601966396EACF6F
:10251000CF92DF92EF92FF920F931F93CF93DF93AF
:10252000EC01D12CC12C10E000E0F12CE12C6A81EF
:1025300070E006171707BCF0660F771FAE014F5EFD
:102540005F4FC7010E94BC1D009721F02FEF3FEFA6
:102550003A8B298BDF91CF911F910F91FF90EF90D4
:10256000DF90CF900895E881F981EC0DFD1D438146
:1025700054818D859E85489F9001499F300D589FBD
:10258000300D1124C90101960115110519F44F816F
:1025900044FD049661E070E00E94071CE816F9060D
:1025A00008F47C010F5F1F4F8BE0C80ED11CBFCF1A
:1025B000F8942091AB023091AC0281E021153105F5
:1025C00009F080E0232B09F0789408952F923F9230
:1025D0004F925F926F927F928F929F92AF92BF9233
:1025E000CF92DF92EF92FF920F931F93CF93DF93DF
:1025F0003C01660E771EF301828193814C01B12C60
:10260000A12CC091AD02D091AE02209769F021E0DB
:1026100030E06091AF027091B0028617970710F01A
:1026200030E020E0232BD1F482E090E0FA019183A6
:1026300080838EEF9FEFDF91CF911F910F91FF90DD
:10264000EF90DF90CF90BF90AF909F908F907F9052
:102650006F905F904F903F902F90089580923C0133
:1026600090923D01A0923E01B0923F0163E1689FCC
:102670009001699F300D1124C20FD31FF301818196
:10268000833040F082E090E0FA019183808386EF0E
:102690009FEFD1CF2A012B813C81232BF1F428819C
:1026A00039819F8191FF2EC0232B09F46FC02091A7
:1026B000B2029A81422F490F5527551FBA0141E0B6
:1026C00050E06138710514F050E040E0452B09F40A
:1026D0005DC02A87920F9093B2028150823008F435
:1026E00081C066DF882309F4D8C0F301818181307D
:1026F00009F48DC008F47BC0823009F4C6C090E0B4
:1027000080E0ADC0232B09F441C02091B1029A8131
:10271000E22FE90FFF27FF1F41E050E0ED3FF105F9
:1027200014F050E040E0452B89F12A87920F9093F6
:10273000B102D3CFA081B181A20FB31F11966C91CA
:10274000060F111D0196295F3F4F8417950794F3DB
:102750008D859E85089F1001099F300C189F300CB5
:102760001124C114D104D1F48F8184FF17C00E94B9
:10277000551CF5E02F0E311C21E08215930508F45D
:1027800020E0A701455F5F4F21110EC082E090E07D
:10279000F2019183808387EF9FEF4DCF0E94551CFC
:1027A0002FEF221A320AE8CF88819981E80EF91EAC
:1027B000F70114830383FFEFCF1ADF0A7A018A81BE
:1027C0008C151D0409F00CF48CCFE881F981EE0D15
:1027D000FF1D428150E030E020E010E000E090E09A
:1027E00080E0B3CFF12CE12CD12CC12CE8CF81E0DB
:1027F00090E09C838B83ECDA882309F480CF81E01E
:1028000090E00E94630B80E40E94710B78CF89896D
:102810009A89019661F083E090E09C838B8382E04B
:1028200090E00E94630B80E40E946B0B68CF8D8167
:102830009E81209132013091330182179307D1F4A8
:102840006091360170913701AE014F5E5F4F80910C
:102850003401909135010E94DB1E0097E1F27894DB
:1028600022E030E0F20131832083892B99F08DEF53
:102870009FEFE1CE89288A288B2869F6029758F6BF
:10288000CE0146DE188A1F86E8CF82E090E09C8366
:102890008B8335CF90E080E0CECE82E090E0F201F5
:1028A0009183808385EF9FEFC6CE8F929F92AF92E8
:1028B000BF92CF92DF92EF92FF920F931F93CF932D
:1028C000DF93EA018C01060F171FF8018181833025
:1028D00098F082E090E09983888386EF9FEFDF9104
:1028E000CF911F910F91FF90EF90DF90CF90BF900D
:1028F000AF909F908F9008958091AD029091AE021D
:10290000892B61F081E090E02091AF023091B0021C
:10291000232B11F490E080E0892B39F482E090E0E1
:10292000998388838EEF9FEFDACF42DE882309F404
:10293000E0C0F8018181813009F496C0E8F082306E
:1029400099F42091AF023091B002E091AD02F09184
:10295000AE0290E080E041E050E02817390709F02E
:10296000BEC036DA811117C0789481E090E0998377
:10297000888390E080E0B3CF2091AF023091B00225
:10298000E091AD02F091AE0290E080E041E050E0D5
:102990002817390741F481E090E00E94630B80E43E
:1029A0000E94710BE1CF63817481672B11F0548316
:1029B000438301967396ECCFE091AD02F091AE02A5
:1029C000E00FF11F2381348122303105D9F42189B0
:1029D00032892F3F3F4FB1F425813681409132013A
:1029E000509133012417350761F5AF014F5E5F4FFA
:1029F00060913601709137018091340190913501D9
:102A00000E94DB1EEFEFCE1ADE0AEE0AFE0A0D5E12
:102A10001F4F4091AF025091B00270E060E0C416C9
:102A2000D506E606F70644F5009731F27894892B2F
:102A300009F49BCF82E090E0998388838DEF9FEF2C
:102A40004ECFC114D104E104F104E1F62230310586
:102A5000C8F6CF015DDDE091AD02F091AE02E00F6E
:102A6000F11F108A1786CECF10E000E090E080E0E2
:102A7000C12CD12C7601CDCF0097C1F610E000E03B
:102A8000812C912C540183E0E82EF12C1AC0E091A6
:102A9000AD02F091AE02E00FF11F838194810297A5
:102AA00049F4F482E38282E090E00E94630B80E4C8
:102AB0000E946B0BFFEF8F1A9F0AAF0ABF0A0D5ED1
:102AC0001F4F8091AF029091B002B0E0A0E0881655
:102AD0009906AA06BB06DCF290E080E0A7CF6381EE
:102AE00074816230710511F45483438301967396A7
:102AF00034CF82E090E09983888385EF9FEFEFCE1B
:102B00000097B9F48FEFFB01808320913C01309155
:102B10003D0143E1429FC001439F900D1124E0918C
:102B2000AD02F091AE02E80FF91F8285FB018183AF
:102B300008950C941C0B88E090E0FA019183808347
:102B400090E080E008951092AC021092AB02EDEAA2
:102B5000F2E086E0DF011D928A95E9F78BE091E1D2
:102B60009093AA028093A90208958091A90290915E
:102B7000AA0208952F923F924F925F926F927F9296
:102B80008F929F92AF92BF92CF92DF92EF92FF927D
:102B90000F931F93CF93DF93CDB7DEB760970FB638
:102BA000F894DEBF0FBECDBFF894E091AB02F09178
:102BB000AC023196F093AC02E093AB027894A09112
:102BC000AD02B091AE02BA83A983109709F4FAC19D
:102BD000E091AF02F091B002EF2B09F4F3C1288726
:102BE0004B875C876D877E879A878987B88BAF878D
:102BF000312C212CF12C512C412C8091AF02909141
:102C0000B0022816390610F4FF2029F1F8948091BB
:102C1000AB029091AC0201979093AC028093AB020F
:102C20007894C20160960FB6F894DEBF0FBECDBF98
:102C3000DF91CF911F910F91FF90EF90DF90CF9098
:102C4000BF90AF909F908F907F906F905F904F90CC
:102C50003F902F900895B10190E080E087D4682ED6
:102C6000EF85F889878181FD3DC083819481039739
:102C7000C9F5258136813C832B8389859A85281760
:102C8000390781F5C101EED8782E8823A9F1AF85E7
:102C9000B8891F968D919C915097019621E01D96C1
:102CA0004D915C918417950709F020E02F83B12C9A
:102CB000A12CEF85F88982818A151B0419F014F084
:102CC000FF20E9F0F885FF2309F46CC1AF85B889CE
:102CD00050961C921E921F97662021F0B10190E041
:102CE00080E046D4FFEF2F1A3F0A2F8538892D5EEA
:102CF0003F4F388B2F8781CFB1E0BF83D8CFBED471
:102D00009E838D83E885EE23E9F0772009F43CC1AA
:102D1000AF85B8891F968D919C91892B79F0BBE086
:102D2000BA9DC001BB9D900D1124AF85B889ED916E
:102D3000FC91E80FF91F85819681F2D6BFEFAB1A9F
:102D4000BB0AB7CF81E0772039F0EF85F889278576
:102D50003089232B09F080E0F82EE12CA114B10476
:102D600039F4AF85B8891796EC90E4FAEE24E0F8D0
:102D7000BBE0BA9D6001BB9DD00C1124882309F4EF
:102D800024C1AF85B889ED91FC911197EC0DFD1D23
:102D9000438154811D962D913C91429FC001439FD8
:102DA000900D529F900D1124E1105DC00196908707
:102DB000878361E070E08781908529D5EF85F88968
:102DC00021893289008111810C0D1D1D2F3F320791
:102DD00009F44BC0BC01C9010E941C1FD801169602
:102DE0009C938E931597AF85B889ED91FC911197BF
:102DF000EC0DFD1D058116810115110509F4CDC0ED
:102E0000ED81FE810E0F1F1F1A968C918A0DD8013D
:102E10008C93E1102FC00F5F1F4FAF85B889ED91E4
:102E2000FC91EC0DFD1D12870187AF85B889ED91EE
:102E3000FC91EC0DFD1D85819681892B09F4A4C0C0
:102E400080913201909133012B813C812817390701
:102E500009F465C0772011F001851285912C812C31
:102E60001A8219824AC00596A2CF21D6F80196830C
:102E70008583B9CF8B859C85AD85BE85F80181831F
:102E80009283A383B4830B5F1F4FC7CFE080F18091
:102E9000E80CF91CD70113966D917C9114978C91D5
:102EA0008F3F09F473C0E1E0F0E002C0EE0FFF1FB6
:102EB0008A95E2F7CF01092E000CAA0BBB0BFB0190
:102EC000408151816281738184239523A623B72396
:102ED00021E0892B8A2B8B2B09F420E0D8012C933D
:102EE000D70111968C91080F111DE981FA81319655
:102EF000FA83E983F7E08F0E911CAF85B889ED91D5
:102F0000FC91EC0DFD1D828129813A818217130607
:102F100011F00CF0BBCF772011F0128701873F81B1
:102F2000332391F1AF85B889ED91FC91EC0DFD1D36
:102F300061E070E0878190856AD4AF85B889ED91B2
:102F4000FC91EC0DFD1DE780F08445815681E1E0A8
:102F5000F0E0662011F0F0E0E0E00D811E819C01C0
:102F6000B101882799278E1B9F0B8BD32C01892BAE
:102F700059F0EF85F88980819181C80ED91ED6015C
:102F800015968D919C91CCD5F12CD8CEF70141812D
:102F900050E0C8010E94E62AA3CF86EF482E5524B0
:102FA0005A94CCCEEF85F889878590890196908BCD
:102FB0008787258536858217930709F08DCE108A7D
:102FC00017868ACE512C412C21CE10E000E02DCF67
:102FD0002F923F924F925F926F927F928F929F9229
:102FE000AF92BF92CF92DF92EF92FF920F931F9317
:102FF000CF93DF938091AD029091AE0210E000E09C
:10300000892BA9F0D5DA0AEF1FEF882381F02090F1
:10301000AF023090B002C091AD02D091AE02D12C7F
:10302000C12C10E000E02C143D04A9F47894C801F0
:10303000DF91CF911F910F91FF90EF90DF90CF9094
:10304000BF90AF909F908F907F906F905F904F90C8
:103050003F902F900895C6010E94320F882309F1F6
:103060008B819C810397E9F48F859889892BC9F01E
:10307000B60190E080E07AD221E030E0882311F0C0
:1030800030E020E044245524421A530AB12CA12CEC
:10309000912C812C8A818815190409F038F4188A3A
:1030A0001F864FEFC41AD40A6396BDCFE881F98119
:1030B000EA0DFB1D85819681892BA1F161E070E00D
:1030C00087819085A4D33C01D9D28C01E881F98114
:1030D000EA0DFB1D8185928525813681200F311FE8
:1030E000AC01421B530B9A0147815085421B530B85
:1030F00070E060E00E94EF2AE881F981EA0DFB1D93
:10310000E780F084458156819301B601C201B9D2AE
:103110008C01892B39F0E881F981EA0DFB1D85814D
:103120009681FED45FEF851A950A8BE0A80EB11C3C
:10313000B1CF3ECA789408952F923F924F925F92FA
:103140006F927F929F92AF92BF92CF92DF92EF9257
:10315000FF920F931F93CF93DF9300D000D000D046
:10316000CDB7DEB70091AD021091AE0299249394D1
:103170000115110509F43EC0A090AF02B090B00255
:1031800017DA982E8823B1F11092AE021092AD0298
:103190001092B0021092AF021092B1021092B202DD
:1031A0008FEF9FEFDC0180933C0190933D01A09352
:1031B0003E01B0933F0178947AD31E830D83C12CD6
:1031C000D12C7601C501B0E0A0E089839A83AB835E
:1031D000BC8322242A94322C89819A81AB81BC81C0
:1031E000C816D906EA06FB06F4F0C80199D480E4B3
:1031F0000E94710B892D26960FB6F894DEBF0FBE84
:10320000CDBFDF91CF911F910F91FF90EF90DF9095
:10321000CF90BF90AF909F907F906F905F904F90B6
:103220003F902F900895AD81BE8115968D919C9110
:103230001697209132013091330182179307D1F410
:1032400051968D919C91E6D5ED81FE818081918191
:10325000B12CA12C412C512C3201892B89F5BFEFC7
:10326000CB1ADB0AEB0AFB0AED81FE817396FE8323
:10327000ED83B2CFC114D104E104F10429F7029720
:1032800018F7ED81FE81818992898F3F980709F0B7
:1032900021D5AD81BE8152963C922E925197D4CFCA
:1032A0008A0D9B1DDC018D919C91009709F038D40B
:1032B000BFEF4B1A5B0A6B0A7B0AEBE0AE0EB11C48
:1032C000AD81BE818D919C91119712964C9150E0E9
:1032D00070E060E044165506660677060CF320D4CD
:1032E000BECFCF93DF93EA0127DF811109C082E0CF
:1032F00090E09983888385EF9FEFDF91CF910895C8
:1033000081E090E00E94630B81E090E099838883E4
:1033100090E080E0F2CF10DF1092AA021092A90292
:10332000089542E050E067EC71E00C94810BFF924D
:103330000F931F93CF93DF938A01EC01C60FD71F22
:10334000F980B4D20897F816190671F068F082E097
:1033500090E0F801918380838EEF9FEFDF91CF9112
:103360001F910F91FF9008956C817D818E819F81C7
:103370004B810E94180E811108C082E090E0F80194
:103380009183808384EF9FEFE9CFF9800E94130E31
:103390004F2D50E0BE01685F7F4F0E94E62A898171
:1033A0000E94820E81E090E0F8019183808390E09A
:1033B00080E0D4CFDF92EF92FF920F931F93CF93D1
:1033C000DF938A01EC01C60FD71F0E94130E7C0108
:1033D000D9806CD2DD2059F0029721E030E0D81678
:1033E000190619F010F030E020E0232B79F482E088
:1033F00090E0F801918380838EEF9FEFDF91CF9172
:103400001F910F91FF90EF90DF900895EF2841F406
:1034100082E090E0F8019183808384EF9FEFEECF0C
:10342000F9800E94130E4F2D50E0BE016E5F7F4F5A
:103430000E94E62A89810E94820E81E090E0F801D4
:103440009183808390E080E0D9CF81E999E19093E6
:10345000B4028093B30208958091B3029091B402B4
:1034600008950895FC011182108293838283089548
:10347000DB011D921C92DC011296ED91FC911397D9
:103480007183608313967C936E9312970895FC0169
:1034900080819181DB018D939C93A081B1811097F4
:1034A00041F08D919C9191838083892B11F4F3835A
:1034B000E2830895FC0180819181DB018D939C93CF
:1034C000892B11F473836283718360830895FC01F7
:1034D00011821082938382830895CF93DF9300D06B
:1034E000CDB7DEB71A821982F894BE016F5F7F4FA5
:1034F0008AEB92E0CCDF89819A81009709F010D3A2
:1035000089819A81892B89F7BE016F5F7F4F8EEB8E
:1035100092E0BDDF89819A81009709F001D389810A
:103520009A81892B89F778940F900F90DF91CF9132
:103530000895CF93DF9300D0CDB7DEB71A821982FA
:10354000F894BE016F5F7F4F86EB92E0A0DF898128
:103550009A81009709F0E4D289819A81892B89F7B1
:1035600078940F900F90DF91CF91089581E00895A6
:1035700090E080E00895EF92FF920F931F93CF9316
:10358000DF9300D0CDB7DEB71A8219828091B502E1
:1035900007EF1FEF8823A1F1F894BE016F5F7F4F03
:1035A0008EEB92E074DF789489819A81EE24E39423
:1035B000F12C892B51F4F894BE016F5F7F4F8AEB99
:1035C00092E065DF7894F12CE12C89819A810EEFED
:1035D0001FEF0097A9F0FC014281538164E070E085
:1035E0006AD68C01892B61F0F89469817A81C701D0
:1035F000880F991F880F991F86549D4F5BDF789421
:10360000C8010F900F90DF91CF911F910F91FF9004
:10361000EF9008950F931F93CF93DF9300D000D0C6
:10362000CDB7DEB71C821B821A8219828091B50247
:1036300007EF1FEF8823C1F0AE014D5F5F4F64E0DD
:1036400070E0CE010196AAD68C01892B69F4E9813C
:10365000FA818B819C8193838283F89469817A813A
:1036600086EB92E005DF7894C8010F900F900F90E1
:103670000F90DF91CF911F910F910895AFD70496CE
:1036800008958F929F92AF92BF92CF92DF92EF9266
:10369000FF920F931F93CF93DF9300D0CDB7DEB788
:1036A0001A821982BC016F5F7F4F6330710598F0F9
:1036B000AA24AA94BA2CC5010F900F90DF91CF9144
:1036C0001F910F91FF90EF90DF90CF90BF90AF9040
:1036D0009F908F9008954115510551F3480159016C
:1036E0008A016C01CBDF8815990511F7E114F1040B
:1036F000F9F28E0D9F1DA816B906D0F28091B50281
:103700008823F1F0F894B501645071099701AE0176
:103710004F5F5F4FC8010496D6D65C01892B71F4C8
:1037200089819A81F80193838283C601880F991F4A
:10373000880F991FB80186549D4F9ADE7894BBCFAD
:1037400087EFA82EBB24BA94B6CFAF92BF92CF9288
:10375000DF92EF92FF920F931F93CF93DF9300D0EE
:10376000CDB7DEB71A821982892B09F047C06115DF
:10377000710509F443C04115510509F43FC02115F5
:10378000310509F43BC001151105C1F18091B50265
:103790008823B9F179016A015B01F894BE016F5F7A
:1037A0007F4F86EB92E073DE789489819A8100974F
:1037B00059F1DC0112966D917C91A80104969CD67A
:1037C0008C01E981FA81D501ED93FC93828193818B
:1037D0000496F6019183808351DFD7018D939C93EA
:1037E000C8010F900F90DF91CF911F910F91FF9023
:1037F000EF90DF90CF90BF90AF9008950FEF1FEF45
:10380000EFCF07EF1FEFECCF0EEF1FEFE9CFCF9316
:10381000DF93EC01672B71F4EAD68C179D0760F0FB
:10382000DDD62496C80FD91FDCD68C0F9D1FDF91E3
:10383000CF910895D9D6F1CF90E080E0F8CF0F93E3
:103840001F93CF93DF932091B50221112BC08B01E1
:10385000EC018AEB92E006DE8EEB92E003DE86EB73
:1038600092E000DE97D00097C1F4C1D670E060E02E
:10387000CEDF40E451E062E070E07ED1009769F471
:103880008091400190914101C4D6B801CE01F9D494
:10389000009719F421E02093B502DF91CF911F9199
:1038A0000F91089584EF9FEFF8CF9EC6A0C6CF93E7
:1038B000DF93A0D6EC01892B11F40FDE3ADECE01A6
:1038C000DF91CF910895CF93DF9394D6EC01892BAC
:1038D00009F403DECE01DF91CF910895809140017C
:1038E000909141010895CF93DF938091B502D0E08C
:1038F000C0E08823D1F092D6EC01892BB1F4EDDD44
:1039000018DE8091400190914101E4D1E5D2EC01B3
:10391000892B59F48AEB92E0DADD8EEB92E0D7DD69
:1039200086EB92E0D4DD1092B502CE01DF91CF910B
:103930000895EF92FF920F931F93CF93DF93EC01C3
:103940007A018B010F5F1F4F0E9DA0010F9D500D3F
:103950001E9D500D112470E060E00E94EF2A90E05F
:1039600080E0F0E0E0E02FEFE816F90639F4DF91AF
:10397000CF911F910F91FF90EF9008951A821982B5
:103980002883309711F0D283C1830196FE01C00FC6
:10399000D11FEACFCF92DF92EF92FF920F931F9346
:1039A000CF93DF9300E913E00C7F43E050E062E443
:1039B00071E088E491E012D482E4E82E81E0F82EF0
:1039C00098E4C92E91E0D92ECFEED3E0D7014D91E6
:1039D0005D917D01F601619171916F0119830883F9
:1039E0005D834C835B834A837F836E839B012F5F60
:1039F0003F4F249FC001259F900D349F900D1124AF
:103A0000998788870115110511F0C80192DF888513
:103A10009985080F191F2A96F8E4EF16F1E0FF06C2
:103A2000A9F6E4ECF2E089ECDF011D928A95E9F752
:103A30001092C3021092C20210920E0410920D0452
:103A400010921204109211041092100410920F049C
:103A5000109214041092130410921604109215047C
:103A6000109218041092170410921C0410921B0458
:103A700010921A041092190410921E0410921D0440
:103A80001092200410921F041092EC031092EB038A
:103A90001092EE031092ED0390E080E0DF91CF9161
:103AA0001F910F91FF90EF90DF90CF9008950097B6
:103AB000F1F0F894A8E4B1E0EFEEF3E030E020E0BC
:103AC0004D915D9148175907A8F0428153814115E6
:103AD000510581F08AE0829FF001839FF00D11244F
:103AE000E151FC4F80819181009759F4789490E0E6
:103AF00080E008952F5F3F4F3A962330310501F75C
:103B0000F5CFDC0111966D917C91718360834150FA
:103B1000510953834283FC012193CF017894089586
:103B2000009749F1DC018E91853041F4E091ED037D
:103B3000F091EE033097F9F0CD0109948530D8F477
:103B4000282F30E0F8948FEF8C938AE0829FF00169
:103B5000839FF00D1124E151FC4F808191811296D9
:103B60009C938E931197B183A08382819381019658
:103B70009383828378940895CF92DF92EF92FF929D
:103B80000F931F93CF93DF939C0187EC92E08C7F80
:103B90004115510509F49BC02115310509F497C061
:103BA0006115710509F493C07A01AB01B9016D5F2C
:103BB0007F4F6C7F9B012F5F3F4F249F8001259F8C
:103BC000100D349F100D1124F89420910D043091A4
:103BD0000E04232B59F4209115043091160421155D
:103BE000310569F12017310708F058C020911704FA
:103BF00030911804232B91F4209115043091160470
:103C0000820F931F20911F0430912004211531054C
:103C100009F441C02017310708F056C07894CFEF5F
:103C2000DFEF86EF9FEFF701D183C083DF91CF9164
:103C30001F910F91FF90EF90DF90CF900895C3E018
:103C4000D0E0C090C202D090C30226EC30E02C1924
:103C50003D092017310710F32AE02C9FF0012D9F1A
:103C6000F00D1124E151FC4F9183808355834483EF
:103C7000538342837783668311870087009709F017
:103C800058DE0C0D1D1D1093C3020093C2027894E0
:103C900090E080E0C8CFC4E0D0E0D3CFC3E0D0E074
:103CA0002AE02C9FF0012D9FF00D1124E151FC4FD3
:103CB00091838083558344835383428377836683D0
:103CC000009729F336DEE3CFC4E0D0E0E9CF8FEFF1
:103CD0009FEFACCF9C010397029708F069C0F8945E
:103CE00084E09AE0482F50E0241735070CF44DC0CB
:103CF00091E08AE0829FF001839FF00D1124E15151
:103D0000FC4F118210821582148213821282178254
:103D100016829923B1F180910D0490910E04892BA4
:103D2000A9F420911504309116042115310571F084
:103D30008091C2029091C302821B930B9093C302A5
:103D40008093C202109216041092150480911704F9
:103D500090911804892BA9F420911F04309120041C
:103D60002115310571F08091C2029091C302821B2E
:103D7000930B9093C3028093C2021092200410927E
:103D80001F04789490E080E00895949FF001959F3F
:103D9000F00D1124E151FC4F40815181452B31F44C
:103DA00040855185452B11F481509CCF90E0A1CFE7
:103DB0008FEF9FEF08954115510549F1009739F1B3
:103DC0006115710521F1F8942091EB033091EC031A
:103DD000232BB9F42091ED033091EE03232B89F4CA
:103DE0009093EC038093EB037093EE036093ED03E9
:103DF000789425E030E090E080E0FA013183208380
:103E0000089578942FEF3FEF86EF9FEFF6CF8FEF77
:103E10009FEF0895059769F4F8941092EC031092BF
:103E2000EB031092EE031092ED03789490E080E0A3
:103E300008958FEF9FEF08956115710519F4F0E073
:103E4000E0E011C08530910581F4E091EB03F09141
:103E5000EC033097A1F3CB0101960995009779F314
:103E6000FC0185E08193CF0108959C012350310925
:103E70002230310520F72AE0289FD001299FB00D7C
:103E80001124A151BC4F2D913C911197232BB9F2D4
:103E900016962D913C9117972617370780F2F894C4
:103EA00012962D913C9113972115310529F0ED9132
:103EB000FC911197309711F47894C1CF41815281D0
:103EC00011965C934E932150310913963C932E9397
:103ED000129781937894C7CFEDE8F3E08EE5DF0188
:103EE0001D928A95E9F7E4ECF2E089ECDF011D927E
:103EF0008A95E9F71092C3021092C202EFEEF3E046
:103F000082E3DF011D928A95E9F7EBEEF3E084E0AE
:103F1000DF011D928A95E9F790E080E00895CF9344
:103F2000DF93C0914E01D0914F01CF3FDC0759F490
:103F300007D490934F0180934E0197FF09C0D0930F
:103F40004F01C0934E0184EF9FEFDF91CF91089511
:103F500090E080E0FACF8230910528F4809321042C
:103F600090E080E008958FEF9FEF08954F925F9269
:103F70006F927F92AF92BF92CF92DF92EF92FF92B9
:103F80000F931F93CF93DF9300D0CDB7DEB71A8284
:103F90001982009709F478C06115710509F474C09D
:103FA00020914E0130914F0107EF1FEF2F3F3F4F00
:103FB00009F444C06B015C01412C512C3201F12CFD
:103FC000E12C10E000E09E012F5F3F4FA6014E194B
:103FD0005F09B5016E0D7F1D80914E0190914F01DB
:103FE0000ED4892B09F04AC089819A81009741F447
:103FF000E114F10429F420912104222309F441C0A1
:10400000E80EF91EEC14FD04C8F480E8481684E8B4
:1040100058068EE16806710418F560E070E0CB0187
:104020008DD72AE0420E511C611C711C0A3F4FEFD4
:10403000140721F0043F8FEF1807A1F4C8010F9077
:104040000F90DF91CF911F910F91FF90EF90DF9034
:10405000CF90BF90AF907F906F905F904F900895FA
:1040600001EF1FEF81E090E0013F2FEF120711F009
:1040700090E080E0892B09F4A6CFE0CF04EF1FEF9A
:10408000DDCF0AEF1FEFDACF0FEF1FEFD7CF4F9241
:104090005F926F927F92AF92BF92CF92DF92EF9238
:1040A000FF920F931F93CF93DF9300D0CDB7DEB76E
:1040B0001A821982009709F478C06115710509F414
:1040C00074C020914E0130914F0107EF1FEF2F3F39
:1040D0003F4F09F444C06B015C01412C512C32016B
:1040E000F12CE12C10E000E09E012F5F3F4FA60174
:1040F0004E195F09B5016E0D7F1D80914E019091A3
:104100004F0133D3892B09F04AC089819A810097E6
:1041100041F4E114F10429F420912104222309F44B
:1041200041C0E80EF91EEC14FD04C8F480E84816FE
:1041300086E9580688E96806710418F560E070E0C1
:10414000CB01FCD62AE0420E511C611C711C0E3FB3
:104150004FEF140721F0043F8FEF1807A1F4C801B7
:104160000F900F90DF91CF911F910F91FF90EF90E3
:10417000DF90CF90BF90AF907F906F905F904F9007
:10418000089502EF1FEF81E090E0023F2FEF12074A
:1041900011F090E080E0892B09F4A6CFE0CF04EF86
:1041A0001FEFDDCF0EEF1FEFDACF0FEF1FEFD7CFEF
:1041B00080914E0190914F018F3F980749F0B8D2FE
:1041C000892B49F48FEF9FEF90934F0180934E011D
:1041D00090E080E0089584EF9FEF0895CF92DF9202
:1041E000EF92FF920F931F93CF93DF9321E041153E
:1041F000510509F020E04150510921112CC0DC018A
:10420000FB01D12CC12C21E022C03FEFC31AD30AFD
:104210007D010D911D91E701EA80FB80E016F1061A
:10422000A8F420813181E280F380F182E08233833F
:104230002283ED90FC9011979D0122503109E901F4
:10424000F982E88211961C930E9320E03296C416F0
:10425000D506D8F2D2CFDF91CF911F910F91FF9069
:10426000EF90DF90CF900895FC01680F791F90E0E8
:1042700080E0E617F70709F408952191820F911D58
:10428000F8CF20912204211113C049DE009791F448
:1042900010922804109227041092260410922504EC
:1042A000109224041092230421E020932204089504
:1042B00084EF9FEF0895AF92BF92CF92DF92EF927B
:1042C000FF920F931F93CF93DF93009709F460C081
:1042D0004630510508F45CC020912204C7EFDFEF9F
:1042E000222309F449C08C01060F171FF801C08072
:1042F000D180C114D10409F44EC096012A5F3F4F0A
:104300004217530708F447C07C018091270490911D
:10431000280493838283B6016C5F7F4F5801A60EF9
:10432000B71EC801A1DFF5019183808364E070E0CE
:10433000C8011CDEEC01892BF9F481E090E00BDE72
:10434000B601C801049612DEEC01892B91F462E0FB
:1043500070E0C5010BDEEC01892B59F4C701E0DBED
:1043600080912704909128040196909328048093CB
:10437000270490E080E0EFDDCE01DF91CF911F9127
:104380000F91FF90EF90DF90CF90BF90AF90089586
:10439000CFEFDFEFF1CFC9EFDFEFEECF6F927F927C
:1043A0008F929F92AF92BF92CF92DF92EF92FF9245
:1043B0000F931F93CF93DF9300D000D0CDB7DEB71C
:1043C000009709F47AC04115510509F476C020918F
:1043D000220407EF1FEF222309F44DC03A017B01AD
:1043E0005C0164E070E0CE01019651DE8C01892B06
:1043F00009F041C009811A810115110509F45AC05B
:10440000480186E0880E911CB701680D791D8091E6
:1044100050019091510110DD6C01009709F450C0DA
:10442000A70170E060E00E94EF2A89819A81AB8148
:10443000BC81EC0CFD1CF70181939193A193B19386
:104440007F0181E090E087DDB801C70120DE892B84
:1044500031F562E070E0C701800F911F18DE8C011A
:10446000892BE9F490E080E076DDF501D182C0820D
:10447000F30191828082C8010F900F900F900F90EE
:10448000DF91CF911F910F91FF90EF90DF90CF9030
:10449000BF90AF909F908F907F906F90089590E025
:1044A00080E059DDF50111821082F3011182108242
:1044B000C60136DB09EF1FEFDECF0FEF1FEFDBCFBB
:1044C00006EF1FEFD8CF0097A1F04115510589F0F5
:1044D0002115310571F0F90136966E177F0748F006
:1044E000DC012D933C93DA01ED93FC9390E080E0A6
:1044F00008958FEF9FEF0895AF92BF92CF92DF9212
:10450000EF92FF920F931F93CF93DF93009709F4DD
:104510005FC04115510509F45BC06530710508F4B1
:1045200057C020912204C7EFDFEF222391F1DC0175
:10453000CD90DC9011971296ED91FC9196012A5F37
:104540003F4FC9EFDFEF2617370719F5C091230456
:10455000D0912404209749F521E030E030932404E1
:10456000209323047A018C01F0932604E093250420
:104570005601B4E0AB0EB11CB50176DE0A0D1B1D71
:10458000F801208131818217930729F5D701CD9257
:10459000DC92CE01DF91CF911F910F91FF90EF90B0
:1045A000DF90CF90BF90AF90089520912504309177
:1045B00026042F5F3F4FCCEFDFEFE217F30790F2B7
:1045C000CBEFDFEF2E173F0768F2D0E0C0E0CACF95
:1045D000CFEFDFEFDECFC3EFDFEFDBCF84E090E0A4
:1045E000089582E090E008958CEF9FEF089580E2B7
:1045F00090E0089510922804109227041092260447
:1046000010922504109224041092230490E080E07C
:104610000895909351018093500108958091220450
:10462000882391F0C5DD009789F410922804109238
:10463000270410922604109225041092240410924C
:10464000230410922204089590E080E008950097DA
:1046500049F06115710531F0FC0111821082FB01F6
:10466000118210820895F3CF26E030E040E855E251
:1046700060E070E090E080E000C0892B19F489E3ED
:1046800094E051C608951F920F920FB60F92112415
:104690002F933F934F935F936F937F938F939F934A
:1046A000AF93BF93EF93FF9386E09FEF90938500C6
:1046B00080938400B7D0FF91EF91BF91AF919F910C
:1046C0008F917F916F915F914F913F912F910F90BB
:1046D0000FBE0F901F90189586E09FEF9093850076
:1046E00080938400AFE6B0E08C918E7F8C93E0E8FD
:1046F000F0E080818C7F8083E1E8F0E08081877E3C
:10470000808380818360808380818B7F80838C9194
:1047100081608C930895EFE6F0E0808190819E7F28
:1047200090838170089581E008951092290408957E
:1047300068EE73E080E090E001D490E080E00895BE
:1047400026E030E040E052EC61E070E090E080E094
:1047500094DF89E394E01DD5892B21F089E394E06F
:1047600032D5F7CF90E080E00895CF92DF92EF92BC
:10477000FF920F931F93CF93DF936B017A01E901AF
:104780001982188289E394E004D5892B69F18601A6
:10479000CC24C39482E0D82E80912904811110C0CA
:1047A00089E394E010D50297B9F7C0922904F80183
:1047B000D1928F0188819981019699838883ECCF6A
:1047C000888199818E159F0578F489E394E0FBD464
:1047D0008F3F9807A9F3F80181938F018881998110
:1047E000019699838883ECCF90E080E0DF91CF91B0
:1047F0001F910F91FF90EF90DF90CF9008950F934E
:104800001F93CF93DF93EA01890189E394E06FD688
:10481000F801D183C08390E080E0DF91CF911F91B8
:104820000F910895CF92DF92EF92FF920F931F9313
:10483000CF93DF9300D0CDB7DEB780912C0491E009
:10484000980F90932C04882399F021E030E0309366
:104850002F0420932E0480932C040F900F90DF914F
:10486000CF911F910F91FF90EF90DF90CF9008951F
:10487000CE0101960E942C02789400915301109170
:104880005401F801C28CD38CE48CF58C0E94830215
:10489000B701A60190E080E00E949E01F89480910B
:1048A0002C04815080932C048A81882389F0809184
:1048B0002B0491E0980F90932B04882349F021E07A
:1048C00030E030932F0420932E0480932B04C5CF27
:1048D00080912B04882309F4C0CF80912D0481118D
:1048E000BCCF81E080932D047894F80122A133A1FC
:1048F00044A155A1A4E6B0E050D66B017C010E9412
:104900003204B701A60181E090E00E949E01F89474
:1049100080912B04815080932B0480912D04815031
:1049200080932D049ACF0F931F93CF93DF93109210
:104930000A051092090538D397DEC0915301D09132
:104940005401198218826FEF7FEFCB010E94210280
:1049500070E060E090E080E00E94A200009709F023
:104960003AC00E947204F8947894BE01675D7F4F4C
:104970008A819B810E94A500892B59F46FEF7FEFFC
:10498000CB010E9434010E941B02882311F081E0B8
:104990008DA7F894A1DE0E941E02882311F080E00A
:1049A00008C00E941B028111FACF81E09DA59111E0
:1049B000F6CF8093090578940E945E0B8C01789461
:1049C0008091090581110CC00E9423050E940002FC
:1049D000F89490E080E0DF91CF911F910F910895BE
:1049E0000E94FE010E941E028823D9F081E080937C
:1049F0000A0590910A0581E0911180E080930905F4
:104A000080910A05811187DE0130110529F40E9489
:104A10005E0B892B09F489DE0E945E0B8C0183DE1C
:104A2000CFCF0E941B028111E1CF81E09DA59111A2
:104A3000DECF80E0DCCF5058BB27AA270ED057C16D
:104A400048D130F04DD120F031F49F3F11F41EF4E5
:104A50003DC10EF4E095E7FB0AC1E92F59D180F37F
:104A6000BA17620773078407950718F071F49EF56B
:104A700088C10EF4E0950B2EBA2FA02D0B01B901C1
:104A800090010C01CA01A0011124FF27591B99F0C4
:104A9000593F50F4503E68F11A16F040A22F232FD0
:104AA000342F4427585FF3CF469537952795A79520
:104AB000F0405395C9F77EF41F16BA0B620B730BC7
:104AC000840BBAF09150A1F0FF0FBB1F661F771F38
:104AD000881FC2F70EC0BA0F621F731F841F48F4ED
:104AE000879577956795B795F7959E3F08F0B3CF73
:104AF0009395880F08F09927EE0F9795879508955D
:104B000029D180F09F3740F491110EF43BC160E051
:104B100070E080E89FE3089526F01B16611D711D6B
:104B2000811DABC0C5C07FD008F481E00895F8D0E6
:104B300088F09F5790F0B92F9927B751A0F0D1F086
:104B4000660F771F881F991F1AF0BA95C9F712C010
:104B5000B13081F016D1B1E0089513C1672F782FDD
:104B60008827B85F39F0B93FCCF38695779567957C
:104B7000B395D9F73EF490958095709561957F4FE8
:104B80008F4F9F4F0895E89409C097FB3EF490958E
:104B90008095709561957F4F8F4F9F4F9923A9F016
:104BA000F92F96E9BB279395F695879577956795A5
:104BB000B795F111F8CFFAF4BB0F11F460FF1BC0E9
:104BC0006F5F7F4F8F4F9F4F16C0882311F096E97C
:104BD00011C0772321F09EE8872F762F05C066232A
:104BE00071F096E8862F70E060E02AF09A95660FE3
:104BF000771F881FDAF7880F9695879597F908959C
:104C0000A9D080F09F3740F491110EF0BBC060E056
:104C100070E080E89FEB089526F41B16611D711D5E
:104C2000811D2BC045C0990F0008550FAA0BE0E865
:104C3000FEEF16161706E807F907C0F0121613065E
:104C4000E407F50798F0621B730B840B950B39F49E
:104C50000A2661F0232B242B252B21F408950A2604
:104C600009F4A140A6958FEF811D811D089597F944
:104C70009F6780E870E060E00895882371F47723EF
:104C800021F09850872B762F07C0662311F49927BF
:104C90000DC09051862B70E060E02AF09A95660F67
:104CA000771F881FDAF7880F9695879597F90895EB
:104CB0009F3F31F0915020F4879577956795B79590
:104CC000880F911D9695879597F908959FEF80EC31
:104CD000089500240A941616170618060906089562
:104CE00000240A9412161306140605060895092EC8
:104CF0000394000C11F4882352F0BB0F40F4BF2B37
:104D000011F460FF04C06F5F7F4F8F4F9F4F089576
:104D100057FD9058440F551F59F05F3F71F047956C
:104D2000880F97FB991F61F09F3F79F08795089551
:104D3000121613061406551FF2CF4695F1DF08C070
:104D4000161617061806991FF1CF8695710561058D
:104D500008940895E5DFA0F0BEE7B91788F4BB27F3
:104D60009F3860F41616B11D672F782F8827985F3B
:104D7000F7CF869577956795B11D93959639C8F3CA
:104D80000895E894BB2766277727CB0197F9089504
:104D90004ADF08F48FEF08950BD0A9CF9ADF28F0EF
:104DA0009FDF18F0952309F062CF90CF1124EACF4E
:104DB000AFDFA0F3959FD1F3950F50E0551F629F91
:104DC000F001729FBB27F00DB11D639FAA27F00D64
:104DD000B11DAA1F649F6627B00DA11D661F829F8B
:104DE0002227B00DA11D621F739FB00DA11D621F70
:104DF000839FA00D611D221F749F3327A00D611D8D
:104E0000231F849F600D211D822F762F6A2F11246E
:104E10009F5750408AF0E1F088234AF0EE0FFF1FC1
:104E2000BB1F661F771F881F91505040A9F79E3FF8
:104E3000510570F01CCFA6CF5F3FECF3983EDCF33A
:104E4000869577956795B795F795E7959F5FC1F735
:104E5000FE2B880F911D9695879597F908951F92BF
:104E60000F920FB60F9211242F933F938F939F931E
:104E7000AF93BF938091310490913204A091330499
:104E8000B09134043091300423E0230F2D3758F5CE
:104E90000196A11DB11D209330048093310490939D
:104EA0003204A0933304B09334048091350490917C
:104EB0003604A0913704B09138040196A11DB11DAC
:104EC0008093350490933604A0933704B09338044C
:104ED000BF91AF919F918F913F912F910F900FBEF6
:104EE0000F901F90189526E8230F0296A11DB11D63
:104EF000D2CF3FB7F8948091350490913604A091B9
:104F00003704B091380426B5A89B05C02F3F19F08F
:104F10000196A11DB11D3FBFBA2FA92F982F882739
:104F2000BC01CD01620F711D811D911D42E0660F14
:104F3000771F881F991F4A95D1F708958F929F92E6
:104F4000AF92BF92CF92DF92EF92FF926B017C0102
:104F5000D0DF4B015C01C114D104E104F104D9F0AC
:104F6000F3D2C7DF681979098A099B09683E734043
:104F70008105910580F321E0C21AD108E108F1080A
:104F800088EE880E83E0981EA11CB11CC114D104C8
:104F9000E104F10431F7FF90EF90DF90CF90BF90E4
:104FA000AF909F908F900895789484B5826084BD6F
:104FB00084B5816084BD85B5826085BD85B581601D
:104FC00085BDEEE6F0E0808181608083E1E8F0E07D
:104FD0001082808182608083808181608083E0E8AC
:104FE000F0E0808181608083E1EBF0E0808184608B
:104FF0008083E0EBF0E0808181608083EAE7F0E08D
:1050000080818460808380818260808380818160F0
:1050100080838081806880831092C10008958330EE
:1050200081F028F4813099F08230A9F0089587301A
:10503000A9F08830C9F08430B1F4809180008F7D70
:1050400003C0809180008F7780938000089584B59D
:105050008F7784BD089584B58F7DFBCF8091B0009C
:105060008F778093B00008958091B0008F7DF9CF45
:10507000CF93DF9390E0FC01E458FF4F24918057D9
:105080009F4FFC0184918823C9F090E0880F991FFD
:10509000FC01E854FF4FA591B491FC01E255FF4F8C
:1050A000C591D49161110DC09FB7F8948C91209552
:1050B00082238C938881282328839FBFDF91CF91FF
:1050C0000895623051F49FB7F8943C91822F8095F7
:1050D00083238C93E8812E2BEFCF8FB7F894EC913C
:1050E0002E2B2C938FBFEACF1F93CF93DF93282FC4
:1050F00030E0F901E859FF4F8491F901E458FF4F7E
:10510000D491F901E057FF4FC491CC23A1F0162FA1
:10511000811185DFEC2FF0E0EE0FFF1FE255FF4F0E
:10512000A591B4918FB7F894EC91111108C0D09566
:10513000DE23DC938FBFDF91CF911F910895DE2B8B
:10514000F8CFCF93DF93282F30E0F901E859FF4FD4
:105150008491F901E458FF4FD491F901E057FF4FD2
:10516000C491CC2399F081115ADFEC2FF0E0EE0FBF
:10517000FF1FEC55FF4FA591B491EC91ED2381E019
:1051800090E009F480E0DF91CF91089580E090E015
:10519000FACFFC01918D228D892F90E0805C9F4F8A
:1051A000821B91098F7399270895FC01918D828D3F
:1051B000981731F0828DE80FF11D858D90E00895EC
:1051C0008FEF9FEF0895FC01918D828D981761F00C
:1051D000A28DAE0FBF2FB11D5D968C91928D9F5FFA
:1051E0009F73928F90E008958FEF9FEF0895FC01D9
:1051F000538D448D252F30E0842F90E0821B930B3C
:10520000541710F0CF96089501970895FC01A48DCE
:10521000A80FB92FB11DA35ABF4F2C91848D90E0D8
:1052200001968F739927848FA689B7892C93A089BB
:10523000B1898C91837080648C93938D848D981345
:1052400006C00288F389E02D80818F7D80830895D8
:10525000CF93DF93EC01888D8823B1F0AA89BB89B5
:10526000E889F9898C9185FD03C0808186FD0CC099
:105270000FB607FCF7CF8C9185FFF2CF808185FFB9
:10528000EDCFCE01C3DFEACFDF91CF910895EF924A
:10529000FF920F931F93CF93DF93EC0181E0888FF0
:1052A0009B8D8C8D98131AC0E889F989808185FFC0
:1052B00015C09FB7F894EE89FF896083E889F98962
:1052C00080818370806480839FBF81E090E0DF9164
:1052D000CF911F910F91FF90EF900895F62E0B8DB7
:1052E00010E00F5F1F4F0F731127E02E8C8D8E1172
:1052F0000BC00FB607FCFACFE889F989808185FFDA
:10530000F5CFCE0183DFF2CFEB8DEC0FFD2FF11D3A
:10531000E35AFF4FF0829FB7F8940B8FEA89FB891D
:1053200080818062D0CFCF92DF92EF92FF921F9365
:10533000CF93DF93EC016A017B01122FE889F98991
:1053400082E08083C11481EED806E104F10499F073
:1053500060E079E08DE390E0A7019601F6D021505E
:1053600031094109510956954795379527952115DA
:1053700080E1380790F0E889F989108260E874E8E4
:105380008EE190E0A7019601E0D02150310941095A
:1053900051095695479537952795EC85FD853083BE
:1053A000EE85FF852083188EEC89FD891083EA89BC
:1053B000FB89808180618083EA89FB8980818860A4
:1053C0008083EA89FB89808180688083EA89FB8900
:1053D00080818F7D8083DF91CF911F91FF90EF902F
:1053E000DF90CF9008951F920F920FB60F92112465
:1053F0002F938F939F93EF93FF93E0914904F09144
:105400004A048081E0914F04F091500482FD1BC05A
:105410009081809152048F5F8F7320915304821783
:1054200041F0E0915204F0E0E75CFB4F958F8093F0
:105430005204FF91EF919F918F912F910F900FBE8A
:105440000F901F9018958081F4CF1F920F920FB686
:105450000F9211242F933F934F935F936F937F93FA
:105460008F939F93AF93BF93EF93FF9389E394E060
:10547000CDDEFF91EF91BF91AF919F918F917F9181
:105480006F915F914F913F912F910F900FBE0F90B1
:105490001F901895E9E3F4E01382128288EE93E0FE
:1054A000A0E0B0E084839583A683B78387ED91E085
:1054B0009183808385EC90E09587848784EC90E0ED
:1054C0009787868780EC90E0918B808B81EC90E0D1
:1054D000938B828B82EC90E0958B848B86EC90E0B2
:1054E000978B868B118E128E138E148E0895AF9229
:1054F000BF92CF92DF92EF92FF920F931F93CF93C1
:10550000DF936C017B018B01040F151FEB015E0122
:10551000AE18BF08C017D10759F06991D601ED91B7
:10552000FC910190F081E02DC6010995892B79F756
:10553000C501DF91CF911F910F91FF90EF90DF9008
:10554000CF90BF90AF9008950895A1E21A2EAA1BA4
:10555000BB1BFD010DC0AA1FBB1FEE1FFF1FA21723
:10556000B307E407F50720F0A21BB30BE40BF50B20
:10557000661F771F881F991F1A9469F760957095A9
:10558000809590959B01AC01BD01CF010895EE0F70
:10559000FF1F0590F491E02D099409D0A59F900D6F
:1055A000B49F900DA49F800D911D11240895A29F7A
:1055B000B001B39FC001A39F700D811D1124911DE7
:1055C000B29F700D811D1124911D0895FB01DC0116
:1055D00002C001900D9241505040D8F70895DC016F
:1055E00001C06D9341505040E0F70895F894FFCF0B
:1055F000CDCCCC3D0000803F00401C4600409C4587
:1056000000000000000000000000803F00409C45BA
:1056100000401C450000000000FEFFFFFF01E80302
:105620000000FFFF00000000FFFFFFFFFFFFFFFF84
:10563000FFFF010001000100200030000800FFFF13
:10564000FFFF010402FF00B50DE10DFE009B0D1CE4
:105650000BFD002D0D870DFC00730D1C0BF6006477
:105660000E1C0BF5003A0DA30EF4002D0EBA0EDE43
:1056700000E6128015DD0055141C0BDA006E107662
:1056800010D9009B158610E200560F1C0BE100910B
:105690000F1C0BE00006101C0BD60071191C0BD55B
:1056A0000013121C0BD4009F111C0BD30010111CF3
:1056B0000BC00095101C0BF000DA191C0BED0097C5
:1056C000191C0B000000004729772AF7282829C950
:0656D00028E328D52800A4
:00000001FF
