:100000005CC0000082C0000080C000007EC0000014
:100010007CC000007AC0000078C0000076C00000FC
:1000200074C0000072C0000070C000006EC000000C
:100030006CC000000C94E52068C0000066C00000A1
:100040000C947F2462C000000C941B270C944D2755
:100050005CC000005AC0000058C0000056C000003C
:1000600054C0000052C0000000000008000201005F
:100070000003040700000000000000000102040863
:100080001020408001020408102001020408102002
:10009000040404040404040402020202020203032E
:1000A0000303030300000000250028002B000000CC
:1000B0000000240027002A00722711241FBECFEF62
:1000C000D8E0DEBFCDBF11E0A0E0B1E0E0E4F0E5B4
:1000D00002C005900D92A03DB107D9F724E0A0ED34
:1000E000B1E001C01D92AB30B207E1F710E0CDE501
:1000F000D0E004C02197FE010E94EF27CC35D10744
:10010000C9F70E94E3210C941E287ACF611102C026
:100110000C9488256130E1F362E0FACF662319F090
:1001200061E00C94C42560E0FCCF90E080E008958D
:100130000F931F93009709F487C06115710509F4A7
:1001400083C0009120011091210120912201309162
:1001500023010E3F1F4F2F4F3F4F09F066C04FEF57
:100160005FEFBA0140932001509321016093220177
:10017000709323014091200150912101609122014F
:1001800070912301DC011296ED91FC9180819181A7
:10019000A281B38180933C0290933D02A0933E02E2
:1001A000B0933F0284819581A681B7818093380204
:1001B00090933902A0933A02B0933B0280859185D7
:1001C000A285B3858093340290933502A0933602C2
:1001D000B093370284859585A685B78580933002D4
:1001E00090933102A0933202B093330210922C020A
:1001F00010922D0210922E0210922F0255D589E7EF
:1002000096E09093D1018093D0019093D301809395
:10021000D20139D4009731F421E030E0309341022B
:10022000209340021F910F91089500912001109199
:1002300021012091220130912301DB010D931D93B7
:100240002D933C93139796CF8FEF9FEFEBCF8F9229
:100250009F92AF92BF92CF92DF92EF92FF921F9345
:10026000CF93DF934B015C011091430282E090E059
:10027000909341028093400281149104A104B1043F
:1002800041F480914302811104C080914202C1E097
:100290008111C0E0C12CD12C7601809143028111E3
:1002A00006C080914202811102C0CC23D9F083E0C4
:1002B00090E09093410280934002CC2379F1CCE905
:1002C000DFEF111102C00E94DD09CE01DF91CF9155
:1002D0001F91FF90EF90DF90CF90BF90AF909F90D5
:1002E0008F9008956AE070E080E090E00E94EE2434
:1002F00080E1C80E87E2D81EE11CF11C8FEF881642
:100300009806A806B80631F0C1E08C149D04AE042E
:10031000BF0408F0C0E080E0EAD3BFCFD0E0C0E087
:10032000D0CFCF92DF92EF92FF920F931F93CF9394
:10033000DF938F3F910511F008F050C020914002EB
:10034000309141022330310539F020914002309143
:1003500041022130310531F424E030E03093410294
:10036000209340026A017B01EC0182309105A0F0EC
:1003700011E0AE01C701B60185D3AB01BC01CE01CE
:100380001123F9F0DF91CF911F910F91FF90EF9022
:10039000DF90CF900C94060C8C01000F111F0053BE
:1003A0001E4FD8018D919C91892B11F30E94100C46
:1003B0000297F1F6D801ED91FC91CE010995182F25
:1003C000D8CF0E94280C90E080E0DF91CF911F9160
:1003D0000F91FF90EF90DF90CF9008958FEF9FEFF8
:1003E000F4CF80E084C3CF93DF9386E090E09093D6
:1003F000410280934002D4D3EC01E0EDF1E084E0CF
:10040000DF011D928A95E9F770D710924102109290
:100410004002CE01DF91CF9108958091420208956C
:1004200080912B02089560932001709321018093A5
:1004300022019093230190E080E00895CF92DF9213
:10044000EF92FF926B017C019F7720E030E040E863
:1004500059E50E94E32287FF2BC020E030E040E016
:100460005FE3C701B6010E94182487FD0EC020E09B
:1004700030E040E05FE3C701B6010E946C22FF90CC
:10048000EF90DF90CF900C94502320E030E040E0DC
:100490005FEBC701B6010E941824181684F420E00F
:1004A00030E0A901C701B6010E941C246B017C0148
:1004B000C701B601FF90EF90DF90CF90089520E044
:1004C00030E040E05FE3C701B6010E946B22FF907D
:1004D000EF90DF90CF900C94D0224F925F926F926A
:1004E0007F928F929F92AF92BF92CF92DF92EF92C4
:1004F000FF92CF93C0900104D0900204E0900304D7
:10050000F0900404C701B6010E9415232B013C01A1
:10051000209108013091090140910A0150910B018D
:100520000E94E32287FFEBC0F7FCE9C08090000146
:1005300090900101A0900201B090030120E030E012
:1005400040E85FE36091040170910501809106012C
:10055000909107010E946B229B01AC01C301B20183
:100560000E94182487FDCFC010920104109202044B
:100570001092030410920404C501B4015FDF6B0103
:100580007C0120E030E040E853E40E94E3226FEF7A
:1005900087FF0EC020E030E0A901C701B6010E942C
:1005A000182460E087FD04C0C701B6010E94E7225D
:1005B00082E0B4DDC1E020E030E0A901C501B40172
:1005C0000E94E3228111C0E06C2F83E0A7DDC09080
:1005D0000504D0900604E0900704F0900804C701D9
:1005E000B6010E9415232B013C0120911801309186
:1005F000190140911A0150911B010E94E32287FFCB
:1006000090C0F7FC8EC08090100190901101A090D6
:100610001201B090130120E030E040E85FE3609108
:1006200014017091150180911601909117010E949B
:100630006B229B01AC01C301B2010E94182487FD0B
:1006400074C01092050410920604109207041092D0
:100650000804C501B401F2DE6B017C0120E030E04A
:1006600040E853E40E94E3226FEF87FF0EC020E0D2
:1006700030E0A901C701B6010E94182460E087FD9F
:1006800004C0C701B6010E94E72288E047DD6091FF
:1006900002027091030280910402909105026F5F43
:1006A0007F4F8F4F9F4F609302027093030280939E
:1006B0000402909305020E9413239B01AC016091F8
:1006C00006027091070280910802909109020E942F
:1006D0001C246093FE017093FF01809300029093AD
:1006E0000102CF91FF90EF90DF90CF90BF90AF903D
:1006F0009F908F907F906F905F904F900895812C86
:10070000912C54011BCF8FEFC81AD80AE80AF80AB7
:10071000C0920104D0920204E0920304F092040417
:100720002BCF812C912C540176CF8FEFC81AD80A89
:10073000E80AF80AC0920504D0920604E092070481
:10074000F092080486CFCF92DF92EF92FF921F9330
:10075000CF93DF93E8EEF1E080E090E0A0E8BFEB1C
:1007600082A393A3A4A3B5A38FE692E1A3E8BAE37F
:10077000868F978FA0A3B1A384E89FEBA5E5B8E887
:1007800084839583A683B78381E59AEEA3E2B1EAD9
:1007900080879187A287B38780EB9AE3A3EABBEFB8
:1007A00084879587A687B78785E690E9ADEFBCE695
:1007B000808B918BA28BB38BACEDB1E0B383A28322
:1007C000E4EDF1E01196FC93EE938DE391E09183DB
:1007D00080839383828395838483978386838CEF3E
:1007E00091E015969C938E9314978CEE91E013965E
:1007F0009C938E9312978EEF91E017969C938E9315
:100800001697C9EED3E0188AC12CD12C7601C39477
:10081000C98ADA8AEB8AFC8A61E082E077DC11E03F
:100820001D8B1886C986DA86EB86FC8661E083E03C
:100830006DDC1D871882C982DA82EB82FC8261E05E
:1008400088E064DC1D83DF91CF911F91FF90EF90D2
:10085000DF90CF9008958091F903811103C081E06A
:100860008093F9038091F103811103C081E08093AB
:10087000F1038091E903811103C081E08093E903D2
:1008800008954F925F926F927F928F929F92AF9254
:10089000BF92CF92DF92EF92FF920F931F93F89443
:1008A00040901B0250901C0260901D0270901E022E
:1008B000C0900F02D0901002E0901102F09012024E
:1008C000452B09F0A4C09B01AC0124193509460948
:1008D000570929013A01009117021091180220913D
:1008E000190230911A0248015901840C951CA61C6A
:1008F000B71C80169106A206B306A0F4009113025D
:100900001091140220911502309116020F5F1F4FB3
:100910002F4F3F4F009313021093140220931502A0
:10092000309316028092170290921802A092190238
:10093000B0921A0200911302109114022091150234
:100940003091160280921F0290922002A092210202
:10095000B0922202009323021093240220932502D6
:100960003093260260931B0270931C0280931D0239
:1009700090931E02A8EEB3E0A30192010E94F52716
:100980006C0D7D1D8E1D9F1D60930F0270931002D4
:100990008093110290931202009120011091210185
:1009A00020912201309123010F3F1F4F2F4F3F4FC6
:1009B000F1F000912001109121012091220130914C
:1009C00023010E3F1F4F2F4F3F4F89F0C090200152
:1009D000D0902101E0902201F090230121E08C14BD
:1009E0009D04AE04BF0408F420E020932B02789409
:1009F0001F910F91FF90EF90DF90CF90BF90AF903D
:100A00009F908F907F906F905F904F9008954B01D3
:100A10005C0184189508A608B708A3019201261B5B
:100A2000370B480B590B6415750586059705D0F0F3
:100A300082169306A406B50640F420E030E0A90132
:100A400081149104A104B10491F4A8EEB3E00E94D2
:100A5000F527A7019601261B370B480B590BCA0136
:100A6000B901C5CF82169306A406B50670F7A8EEA5
:100A7000B3E0A50194010E94F5276C0D7D1D8E1D2C
:100A80009F1DB5CFFECECF93DF9300D000D0CDB762
:100A9000DEB71C821B821A821982109227021092E2
:100AA00028021092290210922A02BE016F5F7F4F26
:100AB000CE0103960E94C92069817A818B819C8135
:100AC0000E941E1B009761F4BE016F5F7F4FCE0135
:100AD00003960E94D52069817A818B819C812CD5D7
:100AE0000F900F900F900F90DF91CF910895FF928C
:100AF0000F931F93CF93DF93082F60E070E0CB013B
:100B00000E94EE24FF24F3940E94091AEC01892B21
:100B100089F010E0CE3F8FEFD80769F0002361F134
:100B200060E070E0CB010E94EE2481E090E0892B30
:100B300059F322C011E023D5EC01892B21F0CE3FDF
:100B40008FEFD80759F711111EC011E0229609F452
:100B500010E00E94BA19EC01892B21F0CE3F8FEFF3
:100B6000D807E1F6111111C011E0CE3F8FEFD80781
:100B700009F410E001110BC0CE01DF91CF911F915C
:100B80000F91FF90089511E0E4CF11E0F3CF60E002
:100B900070E0CB010E94EE241F25812F90E0C7CF8B
:100BA000CF93DF9380912B02882321F060E070E0E7
:100BB000CB014CD635D6D0E0C0E0892B71F06AE08D
:100BC00070E080E090E00E94EE2481E090DF28D683
:100BD0002196C03D27E0D20781F727D60E94721BDD
:100BE000109243021092420210923C0210923D0277
:100BF00010923E0210923F02109238021092390277
:100C000010923A0210923B02109234021092350276
:100C10001092360210923702109230021092310276
:100C2000109232021092330210922C0210922D0276
:100C300010922E0210922F024EEF5FEF6FEF7FEFB8
:100C4000409320015093210160932201709323016E
:100C500010922B02EFE1F2E028E0DF011D922A95CD
:100C6000E9F710921B0210921C0210921D021092C2
:100C70001E0210921702109218021092190210927E
:100C80001A0210921302109214021092150210927E
:100C9000160210920F02109210021092110210927E
:100CA0001202DF91CF91089510924F0210925002DC
:100CB000109251021092520210924E0280915702ED
:100CC0009091580290934D0280934C0210924B02E7
:100CD00010924A0210924602109247021092480265
:100CE00010924902109254021092530290E080E058
:100CF0000895CF92DF92EF92FF920F931F93CF93BD
:100D00008C01892B09F055C020915702309158026F
:100D100080914C0290914D0240915702509158029F
:100D200050934D0240934C022817390781F01092DE
:100D30004B0210924A021092460210924702109201
:100D4000480210924902109254021092530280916C
:100D5000570290915802019761F58091530290914A
:100D60005402892B21F480912401811112C08091B9
:100D70005302909154020197E1F4809146029091C0
:100D80004702A0914802B09149020197A105B1051F
:100D900081F410924602109247021092480210927B
:100DA00049021092240182E090E0909354028093D3
:100DB00053028091570290915802019709F01CC18B
:100DC00080916D0290916E028017910709F014C115
:100DD0008091690290916A02A0916B02B0916C02BD
:100DE000009709F409C12091680221110DC04091BA
:100DF000690250916A0260916B0270916C02452BFE
:100E0000462B472B09F4F8C020915302309154022D
:100E10002230310509F0F0C020914A022111ECC0C6
:100E2000FC01C080D180E280F38080914E02882353
:100E300009F4D3C080915A0290915B02892B09F486
:100E4000FDC020915A0230915B0281E022303105D1
:100E500009F080E020915A0230915B02C1E021301C
:100E6000310549F020915A0230915B02C1E02230F5
:100E7000310509F0C0E0882309F456C020916402CE
:100E8000309165024091660250916702C701B60138
:100E90000E94182487FD14C02091640230916502DD
:100EA000409166025091670260914F02709150022A
:100EB00080915102909152020E94E32287FD22C04C
:100EC0002091640230916502409166025091670260
:100ED000C701B6010E941824181634F52091640247
:100EE00030916502409166025091670260914F0215
:100EF0007091500280915102909152020E94E3221F
:100F0000811112C080915C0290915D02A0915E02FD
:100F1000B0915F02892B8A2B8B2B19F481E080938F
:100F20004B0281E080934A02CC2309F456C0209101
:100F30006402309165024091660250916702C701D8
:100F4000B6010E94E32287FF14C020916402309111
:100F50006502409166025091670260914F02709164
:100F6000500280915102909152020E94182487FFF2
:100F700022C0209164023091650240916602509136
:100F80006702C701B6010E94E322811126C02091A9
:100F9000640230916502409166025091670260914F
:100FA0004F027091500280915102909152020E9422
:100FB0001824181694F480915C0290915D02A0911F
:100FC0005E02B0915F02892B8A2B8B2B19F481E092
:100FD00080934B0281E080934A0281E090914A0223
:100FE000911180E080934E02C0924F02D092500245
:100FF000E0925102F0925202012B09F067C18091F8
:10100000530290915402892BD9F4109259021092F4
:101010004A0280912401882379F082E090E0909345
:101020005402809353021092240120915702309170
:10103000580281E0232BE9F080E01BC081E00ACF59
:101040001092240180915902882349F010924B029A
:10105000109254021092530210925902EDCF8091D7
:10106000570290915802892BE1F080914A02109228
:101070004A0220915302309154022230310509F482
:101080005EC088F42115310509F448C021303105CE
:1010900009F4F3C010924B0210924A0210925902C6
:1010A00038C081E0E6CF2330310509F4B1C02430E7
:1010B000310581F740914602509147026091480204
:1010C00070914902411551056105710561F041506A
:1010D0005109610971094093460250934702609398
:1010E0004802709349024091460250914702609134
:1010F000480270914902452B462B472BD9F4209189
:101100005502309156022130310509F046C0109247
:101110004B0210925402109253020CC08091240191
:10112000882341F082E090E0909354028093530230
:10113000109224011092440280914B02CEC0882369
:10114000C9F380915C0290915D02A0915E02B09122
:101150005F02181619061A061B060CF07DC0809156
:10116000570290915802019709F076C080915C0275
:1011700090915D02A0915E02B0915F028093460261
:1011800090934702A0934802B093490283E090E015
:101190009093540280935302CDCF409160025091BE
:1011A00061026091620270916302452B462B472BCE
:1011B000A9F010924B028091600290916102A0917F
:1011C0006202B09163028093460290934702A0931B
:1011D0004802B093490281E090E0DACF882399F089
:1011E0008091250190912601A0912701B0912801BD
:1011F0008093460290934702A0934802B09349021D
:1012000084E090E0C5CF10924B0282E090E0C0CF26
:101210008091460290914702A0914802B091490204
:101220000097A105B10559F00197A109B109809373
:10123000460290934702A0934802B09349028091DE
:10124000460290914702A0914802B0914902892B31
:101250008A2B8B2B09F06ECF80912501909126016E
:10126000A0912701B0912801892B8A2B8B2B09F49F
:101270004ECF81E080934B02B3CF40914602509114
:10128000470260914802709149024115510561057C
:10129000710561F04150510961097109409346029D
:1012A000509347026093480270934902409146026E
:1012B000509147026091480270914902452B462B9C
:1012C000472B09F037CF8111C7CF9FCF80914402C0
:1012D000882309F431CF80914502CF911F910F915E
:1012E000FF90EF90DF90CF90089510924F021092F0
:1012F0005002109251021092520210924E0210921D
:1013000054021092530210924D0210924C0210920D
:101310006E0210926D0210924B0210924A021092CD
:10132000460210924702109248021092490210920F
:101330004502109244021092690210926A021092C1
:101340006B0210926C02109268021092640210926A
:101350006502109266021092670288EE93E0A0E0A8
:10136000B0E08093250190932601A0932701B093CC
:101370002801109260021092610210926202109293
:10138000630210925C0210925D0210925E02109253
:101390005F0210925B0210925A0281E08093240156
:1013A000109259021092580210925702109256024F
:1013B0001092550290E080E008958091570290913C
:1013C0005802892B19F580912401882351F08091CE
:1013D0005902811106C081E0809345028093440246
:1013E0000895209159023091240181E090E0332347
:1013F00011F090E080E030E082239323892B21F0EC
:101400001092450281E0EACF10924402089582E0F2
:1014100090E0FA01918380838FEF9FEF0895CF933F
:10142000DF93EA01009711F00E94EC1B19821882E9
:1014300090E080E0DF91CF910895DB01009719F4EF
:101440008FEF8C9308952EEF2C930F968F3091058C
:1014500008F033C0FC01E15DF54F0C94EF275B0A07
:10146000590A570A550A530A4F0A510A4D0A4B0A9C
:10147000490A460A420A3E0A440A5D0A80E3119676
:101480008C93089589E2FBCF82E2F9CF11961C92EA
:10149000089583E2F4CF81E2F2CF81E1F0CF87E2D9
:1014A000EECF8AE2ECCF80E1EACF84E2E8CF88E2B7
:1014B000E6CF86E2E4CF81E3E2CF80E2E0CF809125
:1014C0007B0290917C02089590937C0280937B0232
:1014D000089580917A02089590917A02892B8093E1
:1014E0007A020895982F909580917A0289238093AB
:1014F0007A020895809179020895809177029091FF
:10150000780208956115710559F0FB0130E020E083
:1015100070E060E02417350719F06115710511F0CE
:10152000CB010895A081B181A817B90709F4BF01C3
:101530002F5F3F4F3696EECF80917D0281111CC008
:1015400062D268D29093700280936F020E94A314BB
:101550000E94B51490937402809373020E94241920
:101560000E942B19909372028093710281E0809304
:101570007D0290E080E0089584EF9FEF08958F92C0
:101580009F92AF92BF92CF92DF92EF92FF920F9312
:101590001F93CF93DF93CDB7DEB72A970FB6F8949A
:1015A000DEBF0FBECDBF1A86198618861F821E8227
:1015B0001D821C821B821A82198280917D0207EF94
:1015C0001FEF882309F49CC08E010D5F1F4F9E0101
:1015D0002B5F3F4FAE01495F5F4FBE01675F7F4F9B
:1015E00090E080E00E94A41A8C01009721F00596FB
:1015F000029708F0DBC029853A852115310509F4E9
:1016000002C1ED80FE804B815C81B701640F751FC4
:101610008F8198858617970708F4F5C0E20EF31EB0
:10162000D7019C91903C09F07FC04230510508F4ED
:101630007BC011968C9140917B0250917C02452B8E
:1016400009F49CC0913F08F071C02CE1290F2D30A6
:1016500008F48BC02DE2290F203108F489C0903C9A
:1016600021F48150823008F483C088E3890F8B30E5
:1016700008F481C09DE1C92E9AE0D92EE7E0FAE096
:101680006D817E81AE014F5F5F4F89859A85099597
:101690005C01C114D104A1F189809A808114910464
:1016A00079F18B819C818815990508F487C010E039
:1016B00000E04B815C8170E060E0C7010E94172868
:1016C00001151105E9F449815A8169857A858D8171
:1016D0009E81680F791FC501F6010995E980FA809E
:1016E0000D811E812F81388549855A856FEF7FEFE7
:1016F00081E090E00E94401A8C01892B09F056C0CD
:10170000C8012A960FB6F894DEBF0FBECDBFDF9199
:10171000CF911F910F91FF90EF90DF90CF90BF90EE
:10172000AF909F908F90089580E085CF30E020E0CB
:10173000220F331FF901E159FD4F0190F081E02D97
:10174000309709F497CF892F90E00995009709F415
:1017500091CFDC011296ED91FC9113971496CD90E8
:10176000DC90309709F08CCF1FC021E030E0E0CF53
:1017700022E030E0DDCF23E030E0DACFD12CC12C05
:10178000EFE0FAE09F3F09F07BCFE0916F02F0912C
:101790007002309721F4C90104EF1FEF0CC08FEFE6
:1017A00090E009950097A9F604EF1FEF89859A85C7
:1017B000009709F4A5CF0E94EC1BA2CF0E946D1BDD
:1017C0008C0189859A850E94EC1B70E060E0C40161
:1017D0000E94061B98878F830E943D1A9E838D83EB
:1017E0006F8178856115710559F0C8010E940F1D40
:1017F0009A87898706EF1FEF892B09F058CF59CFB9
:1018000008EF1FEF56CF08EF1FEFD0CF20917D02DA
:10181000222319F020E00C94BA1487EF9FEF08956B
:1018200080917B0290917C0208950E9430190E9461
:101830008A18F5D0EFE6F2E088E0DF011D928A9584
:10184000E9F710927D0290E080E008950C94E7168D
:1018500021E040E050E0BA010C94BA1486E090E038
:10186000FA019183808390E080E0089547E050E0A2
:1018700060E471E047CEDF92EF92FF920F931F93E7
:10188000CF93DF938A01EC01C60FD71FE09081024E
:10189000F0908202D9800E94551BD816190678F064
:1018A00082E090E0F801918380838EEF9FEFDF91DB
:1018B000CF911F910F91FF90EF90DF900895EF2847
:1018C00041F482E090E0F8019183808384EF9FEF00
:1018D000EECF89818093800290E00196F801918398
:1018E000808390E080E0E3CFCF93DF93EA010E9412
:1018F0009817882321F00E94621B0E94991782E0AA
:1019000090E0998388838BEF9FEFDF91CF910895CB
:10191000CF93DF93EB0186E0FB0111928A95E9F703
:101920008FEF8883D6DD8983E5DD8A83E6DD9D83BD
:101930008C83DF91CF910895CF93DF93EA010E94CA
:101940009B17811109C082E090E09983888385EF1D
:101950009FEFDF91CF91089590E080E0B5DD81E0C9
:1019600090E09983888390E080E0F3CF0F931F93FA
:10197000CF93DF93EA018C01060F171F0E949B177C
:1019800081110BC082E090E09983888385EF9FEFFF
:10199000DF91CF911F910F910895F80181818230DD
:1019A00038F082E090E0998388838EEF9FEFF0CF4C
:1019B00081E090E089DD88E090E09983888390E081
:1019C00080E0E6CFCF93DF930097D1F4EB01FB01EA
:1019D000329686E0DF011D928A95E9F78FEF8883C2
:1019E00085E089831A820E94551B8B830E94541BB9
:1019F0009D838C8381E08E838F83DF91CF910895C7
:101A0000DF91CF911ACD86E39CE090937F02809383
:101A10007E02089580917E0290917F020895109237
:101A20007F0210927E02089580918102909182023D
:101A30000895411105C0611571058105910561F099
:101A40006093810270938202809383029093840258
:101A50004093850281E0089580E00895FF920F93FE
:101A60001F93CF93DF938A01EC01C60FD71FF98034
:101A70000E94551BF816190668F082E090E0F80104
:101A8000918380838EEF9FEFDF91CF911F910F9114
:101A9000FF9008956C817D818E819F814B81C9DF8C
:101AA000811108C082E090E0F8019183808384EF87
:101AB0009FEFEACF89818093800290E00196F80140
:101AC0009183808390E080E0DFCFCF93DF93EA01C2
:101AD000FC01E60FF71F6481758186819781438140
:101AE000A8DF811109C082E090E09983888384EFA8
:101AF0009FEFDF91CF91089581E090E099838883F3
:101B000090E080E0F6CFE1E8F2E04081518162812F
:101B10007381480F511D611D711D40835183628384
:101B200073830895CF93C09180024C2F50E0609151
:101B300081027091820201960E940E288C2FE3DFB1
:101B400010928002CF910895009799F480918102BC
:101B5000909182022FEFFB012083892B59F0209175
:101B6000800230E02F5F3F4F2417350719F4CB0177
:101B7000D9CF63CC0895009799F480918102909118
:101B800082022FEFFB012083892B59F020918002E4
:101B900030E02F5F3F4F2417350719F4CB01C2CF38
:101BA0004CCC089523E1AC01249FC001259F900DEA
:101BB0001124E0918A02F0918B02E80FF91F238132
:101BC00034812250310981E02230310508F080E073
:101BD00008950F931F93CF93DF9300918C02109180
:101BE0008D02D0E0C0E080E00C171D0749F491E0C1
:101BF000811190E0892FDF91CF911F910F9108956E
:101C00008111F5CFCE01CEDF2196EECFA0918A02D1
:101C1000B0918B02109729F120918C0230918D02A6
:101C200082179307F0F453E1589F9001599F300DAC
:101C30001124A20FB31FED91FC911197309789F0F9
:101C400012968C91681768F48BE0689FE00DF11D87
:101C5000112480819181892B21F081E092814917A3
:101C600008F080E008959C0143E1429FC001439F3A
:101C7000900D1124E0918A02F0918B02E80FF91F78
:101C80008385823091F481E090E065817681409196
:101C9000290150912A016417750711F490E080E042
:101CA000892B19F081E0232B09F080E00895EF9251
:101CB000FF920F931F93CF93DF93EA01FC01E60F8E
:101CC000F71F02811381E480F5804F2D6E2DC8012E
:101CD0009DDF81110DC082E090E0998388838EEFB3
:101CE0009FEFDF91CF911F910F91FF90EF9008959B
:101CF000C80158DF882339F082E090E09983888317
:101D000088EF9FEFEECF1093300100932F01E09208
:101D10003101F092320181E090E09983888390E074
:101D200080E0DFCFCF92DF92EF92FF920F931F936D
:101D3000CF93DF937A01EC01C60FD71FC0902F011C
:101D4000D09030010091310110913201412F602F6C
:101D5000C6015CDF811110C082E090E0F701918341
:101D600080838AEF9FEFDF91CF911F910F91FF90BA
:101D7000EF90DF90CF900895C60114DF882341F0E3
:101D800082E090E0F7019183808388EF9FEFEBCFB3
:101D90004C815D816E817F819A8189818F3F41F085
:101DA00082E090E0F701918380838EEF9FEFDBCF9D
:101DB000E3E1EC9D9001ED9D300D1124E0918A024C
:101DC000F0918B02E20FF31F0190F081E02D2BE0E8
:101DD000029FE00DF11D11240190F081E02D27E01C
:101DE000129FE00DF11D1124808391838B818283EA
:101DF00043835483658376831F5F1093320181E0B0
:101E000090E0F7019183808390E080E0ACCFEF9287
:101E1000FF920F931F93CF93DF937A018C01060FEC
:101E2000171FC0918A02D0918B02209781F021E088
:101E300030E0F8018281938140918C0250918D02B3
:101E40008417950710F030E020E0232B71F482E036
:101E500090E0F701918380838EEF9FEFDF91CF9128
:101E60001F910F91FF90EF90089543E1489F9001DB
:101E7000499F300D1124C20FD31F94DE882341F0F7
:101E800082E090E0F7019183808388EF9FEFE6CFB7
:101E9000F8012481358120383105C8F68781811108
:101EA000D6CF4181842F90E08F7E009741F082E071
:101EB00090E0F7019183808386EF9FEFCFCF4F8330
:101EC0003E832D83268128871986223010F421E055
:101ED000288721E030E0F70131832083BFCF88E0FD
:101EE00090E0FA019183808390E080E00895FB0107
:101EF0008FEF808381E181838FEF9FEF93838283D4
:101F000080E890E095838483168217820895FB0110
:101F10008FEF808391E0918382839383848384E332
:101F2000858381E090E0978386830895DF92EF9226
:101F3000FF920F931F93CF93DF93EA01FC01E60F0B
:101F4000F71F8181813071F082E090E0998388836E
:101F50008FEF9FEFDF91CF911F910F91FF90EF9047
:101F6000DF90089582819381D4802581E680F78077
:101F700000918A0210918B020115110539F482E05B
:101F800090E0998388838CEF9FEFE4CF40918C029F
:101F900050918D028417950738F082E090E0998384
:101FA00088838EEF9FEFD6CF892B39F082E090E0C7
:101FB0009983888386EF9FEFCDCF8D2D8D7FB1F7ED
:101FC0002130A1F781E0D11006C091E0E916F104BB
:101FD00031F080E004C0E2E0EE16F104D0F3882393
:101FE00029F390E080E0DEDD882339F082E090E0A4
:101FF0009983888388EF9FEFADCFF801D38681E086
:102000008487F686E586108A178681E090E09983BA
:10201000888390E080E09ECF4CE050E06AE671E07B
:1020200071CA8F929F92BF92CF92DF92EF92FF92EE
:102030000F931F93CF93DF93EA01FC01E60FF71F85
:10204000828193810481B580E0918A02F0918B02B4
:10205000309791F482E090E0998388838CEF9FEF32
:10206000DF91CF911F910F91FF90EF90DF90CF9074
:10207000BF909F908F90089520918C0230918D0297
:102080008217930738F082E090E0998388838EEF7F
:102090009FEFE6CF23E1289F6001299FD00C1124F8
:1020A000EC0DFD1DE080F180E114F10499F28281D4
:1020B000081748F78BE0089F80011124E00EF11EFD
:1020C000F70180819181892B29F6BB20E1F2F7E0AD
:1020D000BF9E40011124C4010E94E91BF7019183B6
:1020E0008083E0918A02F0918B02EC0DFD1D01903E
:1020F000F081E02DE00FF11F80819181009739F48C
:1021000082E090E0998388838DEF9FEFA9CFA401AF
:1021100070E060E00E94172880918A0290918B0203
:10212000C80ED91EF60180819181080F191FF80190
:10213000B28281E090E09983888390E080E090CF44
:10214000AF92BF92CF92DF92FF920F931F93CF93E4
:10215000DF93EA01FC01E60FF71F82819381F4808F
:1021600000918A0210918B020115110581F482E021
:1021700090E0998388838CEF9FEFDF91CF911F913F
:102180000F91FF90DF90CF90BF90AF900895209176
:102190008C0230918D028217930738F082E090E034
:1021A000998388838EEF9FEFE8CF2FEF2F0D2C3F81
:1021B000A8F723E1289F6001299FD00C11240C0D62
:1021C0001D1DF80180819181892B89F6FBE0FF9E1E
:1021D00050011124C5010E94E91BF80191838083FD
:1021E000E0918A02F0918B02EC0DFD1D80819181BE
:1021F000009739F482E090E0998388838DEF9FEF18
:10220000BCCFA50170E060E00E941728E0918A022F
:10221000F0918B02EC0DFD1DF28281E090E099833C
:10222000888390E080E0A9CFCF92DF92EF92FF9277
:102230000F931F93CF93DF93860F971FFC010281AB
:10224000138180918A0290918B02892B81F082E028
:1022500090E0FA01918380838CEF9FEFDF91CF9123
:102260001F910F91FF90EF90DF90CF900895C801DC
:10227000B0E0A0E00197A109B1098F3F9F4FA105F0
:10228000B10540F082E090E0FA01918380838EEF07
:102290009FEFE4CF7A0183E1809F6001819FD00CA2
:1022A0001124C6010E94E91BEC01009741F482E071
:1022B00090E0F701918380838DEF9FEFCFCFA60150
:1022C00070E060E00E941728D0938B02C0938A02CE
:1022D00010938D0200938C0290E080E02FEF3FEF8F
:1022E00041E061E070E08017910741F481E090E007
:1022F000F7019183808390E080E0B0CF3A8B298B07
:102300001B864C877E876D87188A1F860196639689
:10231000EACFCF92DF92EF92FF920F931F93CF936A
:10232000DF93EC01D12CC12C10E000E0F12CE12C6A
:102330006A8170E006171707BCF0660F771FAE01C1
:102340004F5E5F4FC7010E94161C009721F02FEFD0
:102350003FEF3A8B298BDF91CF911F910F91FF9027
:10236000EF90DF90CF900895E881F981EC0DFD1D8D
:10237000438154818D859E85489F9001499F300DF2
:10238000589F300D1124C90101960115110519F44A
:102390004F8144FD049661E070E00E94061BE81640
:1023A000F90608F47C010F5F1F4F8BE0C80ED11CAB
:1023B000BFCFF894209188023091890281E02115E5
:1023C000310509F080E0232B09F0789408952F92CD
:1023D0003F924F925F926F927F928F929F92AF92B5
:1023E000BF92CF92DF92EF92FF920F931F93CF9302
:1023F000DF933C01660E771EF301828193814C01CD
:10240000B12CA12CC0918A02D0918B02209769F047
:1024100021E030E060918C0270918D028617970761
:1024200010F030E020E0232BD1F482E090E0FA01BC
:10243000918380838EEF9FEFDF91CF911F910F915A
:10244000FF90EF90DF90CF90BF90AF909F908F90D4
:102450007F906F905F904F903F902F900895809263
:10246000330190923401A0923501B092360163E1BC
:10247000689F9001699F300D1124C20FD31FF30193
:102480008181833040F082E090E0FA019183808383
:1024900086EF9FEFD1CF2A012B813C81232BF1F4D2
:1024A000288139819F8191FF2EC0232B09F46FC0B1
:1024B00020918F029A81422F490F5527551FBA014B
:1024C00041E050E06138710514F050E040E0452BE8
:1024D00009F45DC02A87920F90938F028150823059
:1024E00008F481C066DF882309F4D8C0F301818134
:1024F000813009F48DC008F47BC0823009F4C6C075
:1025000090E080E0ADC0232B09F441C020918E0201
:102510009A81E22FE90FFF27FF1F41E050E0ED3FD6
:10252000F10514F050E040E0452B89F12A87920F25
:1025300090938E02D3CFA081B181A20FB31F1196C9
:102540006C91060F111D0196295F3F4F8417950767
:1025500094F38D859E85089F1001099F300C189F6C
:10256000300C1124C114D104D1F48F8184FF17C021
:102570000E94541BF5E02F0E311C21E082159305BB
:1025800008F420E0A701455F5F4F21110EC082E0F3
:1025900090E0F2019183808387EF9FEF4DCF0E94FF
:1025A000541B2FEF221A320AE8CF88819981E80E56
:1025B000F91EF70114830383FFEFCF1ADF0A7A01B4
:1025C0008A818C151D0409F00CF48CCFE881F98107
:1025D000EE0DFF1D428150E030E020E010E000E011
:1025E00090E080E0B3CFF12CE12CD12CC12CE8CFCE
:1025F00081E090E09C838B83ECDA882309F480CF20
:1026000081E090E00E94640A80E40E94720A78CF20
:1026100089899A89019661F083E090E09C838B839D
:1026200082E090E00E94640A80E40E946C0A68CF15
:102630008D819E812091290130912A018217930773
:10264000D1F460912D0170912E01AE014F5E5F4F6C
:1026500080912B0190912C010E94CE1C0097E1F2F9
:10266000789422E030E0F20131832083892B99F0C5
:102670008DEF9FEFE1CE89288A288B2869F6892B78
:1026800059F6CE0146DE188A1F86E8CF82E090E038
:102690009C838B8335CF90E080E0CECE82E090E0CB
:1026A000F2019183808385EF9FEFC6CE8F929F9238
:1026B000AF92BF92CF92DF92EF92FF920F931F9350
:1026C000CF93DF93EA018C01060F171FF801818178
:1026D000833098F082E090E09983888386EF9FEFC3
:1026E000DF91CF911F910F91FF90EF90DF90CF90EE
:1026F000BF90AF909F908F90089580918A029091A3
:102700008B02892B61F081E090E020918C02309166
:102710008D02232B11F490E080E0892B39F482E0C4
:1027200090E0998388838EEF9FEFDACF42DE882393
:1027300009F4DFC0F8018181813009F495C0E8F027
:10274000823099F420918C0230918D02E0918A02BE
:10275000F0918B0290E080E041E050E028173907CB
:1027600009F0BDC036DA811117C0789481E090E09D
:102770009983888390E080E0B3CF20918C023091E0
:102780008D02E0918A02F0918B0290E080E041E0BE
:1027900050E02817390741F481E090E00E94640A74
:1027A00080E40E94720AE1CF63817481672B11F08B
:1027B0005483438301967396ECCFE0918A02F091A3
:1027C0008B02E00FF11F2381348122303105D9F4CF
:1027D000218932892F3F3F4FB1F4258136814091C5
:1027E000290150912A012417350761F5AF014F5E89
:1027F0005F4F60912D0170912E0180912B0190917E
:102800002C010E94CE1CEFEFCE1ADE0AEE0AFE0A61
:102810000D5E1F4F40918C0250918D0270E060E080
:10282000C416D506E606F7063CF5009731F2789413
:10283000892B09F49BCF82E090E0998388838DEF08
:102840009FEF4ECFC114D104E104F104E1F6232B34
:10285000D1F6CF015EDDE0918A02F0918B02E00FAC
:10286000F11F108A1786CFCF10E000E090E080E0E3
:10287000C12CD12C7601CECF0097C9F610E000E034
:10288000812C912C540183E0E82EF12C1AC0E091A8
:102890008A02F0918B02E00FF11F838194810297ED
:1028A00049F4F482E38282E090E00E94640A80E4CA
:1028B0000E946C0AFFEF8F1A9F0AAF0ABF0A0D5ED3
:1028C0001F4F80918C0290918D02B0E0A0E088169D
:1028D0009906AA06BB06DCF290E080E0A8CF6381EF
:1028E00074816230710511F45483438301967396A9
:1028F00035CF82E090E09983888385EF9FEFF0CE1B
:102900000097B9F48FEFFB01808320913301309160
:10291000340143E1429FC001439F900D1124E09197
:102920008A02F0918B02E80FF91F8285FB018183F7
:1029300008950C941D0A88E090E0FA019183808349
:1029400090E080E008951092890210928802EAE8EF
:10295000F2E086E0DF011D928A95E9F78CE090E1D4
:1029600090938702809386020895809186029091C9
:10297000870208952F923F924F925F926F927F92BB
:102980008F929F92AF92BF92CF92DF92EF92FF927F
:102990000F931F93CF93DF93CDB7DEB760970FB63A
:1029A000F894DEBF0FBECDBFF894E0918802F0919D
:1029B00089023196F0938902E09388027894A0917D
:1029C0008A02B0918B02BA83A983109709F4F9C1E6
:1029D000E0918C02F0918D02EF2B09F4F2C128876F
:1029E0004B875C876D877E879A878987B88BAF878F
:1029F000312C212CF12C512C412C80918C02909166
:102A00008D022816390610F4FF2029F1F8948091E0
:102A1000880290918902019790938902809388029D
:102A20007894C20160960FB6F894DEBF0FBECDBF9A
:102A3000DF91CF911F910F91FF90EF90DF90CF909A
:102A4000BF90AF909F908F907F906F905F904F90CE
:102A50003F902F900895B10190E080E086D4682ED9
:102A6000EF85F889878181FD3DC08381948103973B
:102A7000C9F5258136813C832B8389859A85281762
:102A8000390781F5C101EFD8782E8823A9F1AF85E8
:102A9000B8891F968D919C915097019621E01D96C3
:102AA0004D915C918417950709F020E02F83B12C9C
:102AB000A12CEF85F88982818A151B0419F014F086
:102AC000FF20E9F0F885FF2309F46BC1AF85B889D1
:102AD00050961C921E921F97662021F0B10190E043
:102AE00080E045D4FFEF2F1A3F0A2F8538892D5EED
:102AF0003F4F388B2F8781CFB1E0BF83D8CFBDD474
:102B00009E838D83E885EE23E9F0772009F43BC1AD
:102B1000AF85B8891F968D919C91892B79F0BBE088
:102B2000BA9DC001BB9D900D1124AF85B889ED9170
:102B3000FC91E80FF91F858196814ED6BFEFAB1A45
:102B4000BB0AB7CF81E0772039F0EF85F889278578
:102B50003089232B09F080E0F82EE12CA114B10478
:102B600039F4AF85B8891796EC90E4FAEE24E0F8D2
:102B7000BBE0BA9D6001BB9DD00C1124882309F4F1
:102B800023C1AF85B889ED91FC911197EC0DFD1D26
:102B9000438154811D962D913C91429FC001439FDA
:102BA000900D529F900D1124E1105CC0019690870A
:102BB000878361E070E08781908528D5EF85F8896B
:102BC00021893289008111810C0D1D1D2F3F320793
:102BD00009F44AC0BC01C90122D7D80116969C93BA
:102BE0008E931597AF85B889ED91FC911197EC0DF7
:102BF000FD1D058116810115110509F4CDC0ED817A
:102C0000FE810E0F1F1F1A968C918A0DD8018C938E
:102C1000E1102FC00F5F1F4FAF85B889ED91FC9178
:102C2000EC0DFD1D12870187AF85B889ED91FC91F0
:102C3000EC0DFD1D85819681892B09F4A4C080913E
:102C4000290190912A012B813C812817390709F429
:102C500065C0772011F001851285912C812C1A8294
:102C600019824AC00596A3CFB4D5F801968385830F
:102C7000B9CF8B859C85AD85BE85F8018183928314
:102C8000A383B4830B5F1F4FC7CFE080F180E80CB4
:102C9000F91CD70113966D917C9114978C918F3FFD
:102CA00009F473C0E1E0F0E002C0EE0FFF1F8A9567
:102CB000E2F7CF01092E000CAA0BBB0BFB014081F0
:102CC00051816281738184239523A623B72321E058
:102CD000892B8A2B8B2B09F420E0D8012C93D70168
:102CE00011968C91080F111DE981FA813196FA83B2
:102CF000E983F7E08F0E911CAF85B889ED91FC91C7
:102D0000EC0DFD1D828129813A818217130611F095
:102D10000CF0BBCF772011F0128701873F8133235E
:102D200091F1AF85B889ED91FC91EC0DFD1D61E04D
:102D300070E0878190856AD4AF85B889ED91FC9168
:102D4000EC0DFD1DE780F08445815681E1E0F0E067
:102D5000662011F0F0E0E0E00D811E819C01B101E0
:102D6000882799278E1B9F0B8BD32C01892B59F019
:102D7000EF85F88980819181C80ED91ED6011596FC
:102D80008D919C9129D5F12CD9CEF701418150E04C
:102D9000C8010E940E28A3CF86EF482E55245A94CE
:102DA000CDCEEF85F889878590890196908B8787AE
:102DB000258536858217930709F08ECE108A1786EF
:102DC0008BCE512C412C22CE10E000E02DCF2F9243
:102DD0003F924F925F926F927F928F929F92AF92AB
:102DE000BF92CF92DF92EF92FF920F931F93CF93F8
:102DF000DF9380918A0290918B0210E000E0892B92
:102E0000A9F0D7DA0AEF1FEF882381F020908C0217
:102E100030908D02C0918A02D0918B02D12CC12CAE
:102E200010E000E02C143D04A9F47894C801DF916F
:102E3000CF911F910F91FF90EF90DF90CF90BF90B7
:102E4000AF909F908F907F906F905F904F903F904A
:102E50002F900895C6010E94330E882309F18B81BB
:102E60009C810397E9F48F859889892BC9F0B60175
:102E700090E080E07AD221E030E0882311F030E069
:102E800020E044245524421A530AB12CA12C912C41
:102E9000812C8A818815190409F038F4188A1F8654
:102EA0004FEFC41AD40A6396BDCFE881F981EA0DC9
:102EB000FB1D85819681892BA1F161E070E08781FE
:102EC0009085A4D33C01D9D28C01E881F981EA0D27
:102ED000FB1D8185928525813681200F311FAC0134
:102EE000421B530B9A0147815085421B530B70E0E4
:102EF00060E00E941728E881F981EA0DFB1DE78058
:102F0000F084458156819301B601C201B9D28C018A
:102F1000892B39F0E881F981EA0DFB1D85819681C5
:102F20005BD45FEF851A950A8BE0A80EB11CB1CF78
:102F300040CA789408952F923F924F925F926F9279
:102F40007F929F92AF92BF92CF92DF92EF92FF92C9
:102F50000F931F93CF93DF9300D000D000D0CDB755
:102F6000DEB700918A0210918B0299249394011587
:102F7000110509F43EC0A0908C02B0908D0219DAC0
:102F8000982E8823B1F110928B0210928A0210922F
:102F90008D0210928C0210928E0210928F028FEF8F
:102FA0009FEFDC018093330190933401A0933501AE
:102FB000B093360178947AD31E830D83C12CD12C23
:102FC0007601C501B0E0A0E089839A83AB83BC831E
:102FD00022242A94322C89819A81AB81BC81C81623
:102FE000D906EA06FB06F4F0C801F6D380E40E9495
:102FF000720A892D26960FB6F894DEBF0FBECDBF9C
:10300000DF91CF911F910F91FF90EF90DF90CF90C4
:10301000BF90AF909F907F906F905F904F903F9048
:103020002F900895AD81BE8115968D919C91169734
:103030002091290130912A0182179307D1F45196EA
:103040008D919C91DAD4ED81FE8180819181B12CAA
:10305000A12C412C512C3201892B89F5BFEFCB1AC1
:10306000DB0AEB0AFB0AED81FE817396FE83ED839A
:10307000B2CFC114D104E104F10429F7892B19F767
:10308000ED81FE81818992898F3F980709F057D49D
:10309000AD81BE8152963C922E925197D4CF8A0D2B
:1030A0009B1DDC018D919C91009709F095D3BFEF9A
:1030B0004B1A5B0A6B0A7B0AEBE0AE0EB11CAD81CA
:1030C000BE818D919C91119712964C9150E070E0C9
:1030D00060E044165506660677060CF37DD3BECF36
:1030E000CF93DF93EA0127DF811109C082E090E0EE
:1030F0009983888385EF9FEFDF91CF91089581E0D9
:1031000090E00E94640A81E090E09983888390E0D7
:1031100080E0F2CF10DF10928702109286020895AD
:1031200042E050E062EB71E00C94820AFF920F9350
:103130001F93CF93DF938A01EC01C60FD71FF9804D
:10314000B4D20897F816190671F068F082E090E0A2
:10315000F801918380838EEF9FEFDF91CF911F91D4
:103160000F91FF9008956C817D818E819F814B81AD
:103170000E94190D811108C082E090E0F80191834E
:10318000808384EF9FEFE9CFF9800E94140D4F2DCB
:1031900050E0BE01685F7F4F0E940E2889810E9427
:1031A000830D81E090E0F8019183808390E080E0DE
:1031B000D4CFDF92EF92FF920F931F93CF93DF93C1
:1031C0008A01EC01C60FD71F0E94140D7C01D98023
:1031D0006CD2DD2059F0029721E030E0D8161906B4
:1031E00019F010F030E020E0232B79F482E090E039
:1031F000F801918380838EEF9FEFDF91CF911F9134
:103200000F91FF90EF90DF900895EF2841F482E056
:1032100090E0F8019183808384EF9FEFEECFF980F7
:103220000E94140D4F2D50E0BE016E5F7F4F0E9433
:103230000E2889810E94830D81E090E0F80191833E
:10324000808390E080E0D9CF80E998E1909391026B
:103250008093900208958091900290919102089538
:103260000895FC0111821082938382830895DB010B
:103270001D921C92DC011296ED91FC9113977183C3
:10328000608313967C936E9312970895FC0180815E
:103290009181DB018D939C93A081B181109741F0C6
:1032A0008D919C9191838083892B11F4F383E28328
:1032B0000895FC0180819181DB018D939C93892B82
:1032C00011F473836283718360830895FC0111821A
:1032D0001082938382830895CF93DF9300D0CDB77C
:1032E000DEB71A821982F894BE016F5F7F4F87E9BB
:1032F00092E0CCDF89819A81009709F06DD28981B3
:103300009A81892B89F7BE016F5F7F4F8BE992E02D
:10331000BDDF89819A81009709F05ED289819A8107
:10332000892B89F778940F900F90DF91CF910895B2
:10333000CF93DF9300D0CDB7DEB71A821982F8940D
:10334000BE016F5F7F4F83E992E0A0DF89819A81A0
:10335000009709F041D289819A81892B89F7789465
:103360000F900F90DF91CF91089581E0089590E044
:1033700080E00895EF92FF920F931F93CF93DF9316
:1033800000D0CDB7DEB71A8219828091920207EF82
:103390001FEF8823A1F1F894BE016F5F7F4F8BE987
:1033A00092E074DF789489819A81EE24E394F12C81
:1033B000892B51F4F894BE016F5F7F4F87E992E04B
:1033C00065DF7894F12CE12C89819A810EEF1FEF53
:1033D0000097A9F0FC014281538164E070E00DD5B3
:1033E0008C01892B61F0F89469817A81C701880F7B
:1033F000991F880F991F89569D4F5BDF7894C801EC
:103400000F900F90DF91CF911F910F91FF90EF9050
:1034100008950F931F93CF93DF9300D000D0CDB7C3
:10342000DEB71C821B821A8219828091920207EFFA
:103430001FEF8823C1F0AE014D5F5F4F64E070E085
:10344000CE0101964DD58C01892B69F4E981FA8171
:103450008B819C8193838283F89469817A8183E94B
:1034600092E005DF7894C8010F900F900F900F90B5
:10347000DF91CF911F910F91089552D60496089530
:103480008F929F92AF92BF92CF92DF92EF92FF9274
:103490000F931F93CF93DF9300D0CDB7DEB71A827F
:1034A0001982BC016F5F7F4F6330710598F0AA24C9
:1034B000AA94BA2CC5010F900F90DF91CF911F9164
:1034C0000F91FF90EF90DF90CF90BF90AF909F90C3
:1034D0008F9008954115510551F3480159018A0112
:1034E0006C01CBDF8815990511F7E114F104F9F2AD
:1034F0008E0D9F1DA816B906D0F2809192028823E6
:10350000F1F0F894B501645071099701AE014F5F75
:103510005F4FC801049679D55C01892B71F48981CC
:103520009A81F80193838283C601880F991F880FBF
:10353000991FB80189569D4F9ADE7894BBCF87EFCB
:10354000A82EBB24BA94B6CFAF92BF92CF92DF928F
:10355000EF92FF920F931F93CF93DF9300D0CDB7DD
:10356000DEB71A821982892B09F047C061157105EF
:1035700009F443C04115510509F43FC02115310537
:1035800009F43BC001151105C1F180919202882315
:10359000B9F179016A015B01F894BE016F5F7F4F59
:1035A00083E992E073DE789489819A81009759F1DA
:1035B000DC0112966D917C91A80104963FD58C0197
:1035C000E981FA81D501ED93FC9382819381049680
:1035D000F6019183808351DFD7018D939C93C801BD
:1035E0000F900F90DF91CF911F910F91FF90EF906F
:1035F000DF90CF90BF90AF9008950FEF1FEFEFCF08
:1036000007EF1FEFECCF0EEF1FEFE9CFCF93DF9364
:10361000EC01672B71F48DD58C179D0760F080D578
:103620002496C80FD91F7FD58C0F9D1FDF91CF9196
:1036300008957CD5F1CF90E080E0F8CF0F931F93F1
:10364000CF93DF932091920221112BC08B01EC01CB
:1036500087E992E006DE8BE992E003DE83E992E0FF
:1036600000DE97D00097C1F464D570E060E0CEDF53
:1036700047E351E062E070E0D9D0009769F48091AF
:1036800037019091380167D5B801CE019CD30097DE
:1036900019F421E020939202DF91CF911F910F91B5
:1036A000089584EF9FEFF8CF41C543C5CF93DF93D3
:1036B00043D5EC01892B11F40FDE3ADECE01DF9108
:1036C000CF910895CF93DF9337D5EC01892B09F47F
:1036D00003DECE01DF91CF91089580913701909163
:1036E00038010895CF93DF9380919202D0E0C0E03B
:1036F0008823D1F035D5EC01892BB1F4EDDD18DE4E
:1037000080913701909138011AD1CED1EC01892BEB
:1037100059F487E992E0DADD8BE992E0D7DD83E9BD
:1037200092E0D4DD10929202CE01DF91CF91089504
:10373000EF92FF920F931F93CF93DF93EC017A01E7
:103740008B010F5F1F4F0E9DA0010F9D500D1E9D01
:10375000500D112470E060E00E94172890E080E096
:10376000F0E0E0E02FEFE816F90639F4DF91CF91B1
:103770001F910F91FF90EF9008951A82198228836C
:10378000309711F0D283C1830196FE01C00FD11F83
:10379000EACFE1EAF2E085E8DF011D928A95E9F7D8
:1037A0001092A00210929F02EDE2F3E011821082CB
:1037B0001582148213821282178216821186108655
:1037C000E9E2F3E0118210821382128290E080E03D
:1037D000089590E080E00895009739F1DC018E9122
:1037E000813041F4E0912B03F0912C033097E9F004
:1037F000CD010994811119C0F8948FEF8C938091B9
:103800002D0390912E0312969C938E931197B09353
:103810002E03A0932D0380912F03909130030196E6
:103820009093300380932F0378940895EF92FF9242
:103830000F931F93CF93DF934115510509F47CC07B
:10384000009709F479C06115710509F475C0EA01A2
:10385000AB01BC01F89480912D0390912E03892B2C
:1038600019F584EA92E08C7F6D5F7F4F6C7F9B013E
:103870002F5F3F4F249F8001259F100D349F100D17
:10388000112420913503309136032115310509F0BB
:103890003CC0E0909F02F090A00222E830E02E1998
:1038A0003F092017310730F478942FEF3FEF86EF70
:1038B0009FEF22C090932E0380932D0350933203E9
:1038C000409331035093300340932F03709334039C
:1038D000609333031093360300933503009709F088
:1038E00027DF0E0D1F1D1093A00200939F027894F6
:1038F00030E020E090E080E039832883DF91CF91B1
:103900001F910F91FF90EF9008952017310760F2FB
:1039100090932E0380932D035093320340933103F1
:103920005093300340932F03709334036093330319
:103930000097E9F2FDDEDBCF8FEF9FEFDFCF892B22
:1039400051F5F89410922E0310922D031092320329
:10395000109231031092300310922F03109234030F
:103960001092330320913503309136032115310530
:1039700071F080919F029091A002821B930B909313
:10398000A00280939F021092360310923503789420
:1039900090E080E008958FEF9FEF08954115510565
:1039A00049F1009739F16115710521F1F8942091E1
:1039B000290330912A03232BB9F420912B03309152
:1039C0002C03232B89F490932A038093290370936B
:1039D0002C0360932B03789421E030E090E080E0AA
:1039E000FA0131832083089578942FEF3FEF86EF1B
:1039F0009FEFF6CF8FEF9FEF0895019769F4F8944A
:103A000010922A031092290310922C0310922B0378
:103A1000789490E080E008958FEF9FEF089561150E
:103A2000710519F4F0E0E0E011C08130910581F4F6
:103A3000E0912903F0912A033097A1F3CB0101967D
:103A40000995009779F3FC0181E08193CF010895F6
:103A5000892B41F780912D0390912E03892B11F32F
:103A6000809133039091340386179707D8F2F89426
:103A700080912F0390913003009731F0E0912D0356
:103A8000F0912E03309711F47894CCCF21813281BC
:103A900030932E0320932D0301979093300380934E
:103AA0002F0311927894D2CFE6E2F3E083E0DF01B6
:103AB0001D928A95E9F7E1EAF2E085E8DF011D92BF
:103AC0008A95E9F71092A00210929F02EDE2F3E0CE
:103AD0008AE0DF011D928A95E9F7E9E2F3E084E0EC
:103AE000DF011D928A95E9F790E080E00895CF9379
:103AF000DF93C0913901D0913A01CF3FDC0759F4EF
:103B0000C1D390933A018093390197FF09C0D093B4
:103B10003A01C093390184EF9FEFDF91CF9108956F
:103B200090E080E0FACF8230910528F4809337034B
:103B300090E080E008958FEF9FEF08954F925F929D
:103B40006F927F92AF92BF92CF92DF92EF92FF92ED
:103B50000F931F93CF93DF9300D0CDB7DEB71A82B8
:103B60001982009709F478C06115710509F474C0D1
:103B70002091390130913A0107EF1FEF2F3F3F4F5E
:103B800009F444C06B015C01412C512C3201F12C31
:103B9000E12C10E000E09E012F5F3F4FA6014E197F
:103BA0005F09B5016E0D7F1D8091390190913A0139
:103BB000C8D3892B09F04AC089819A81009741F4C2
:103BC000E114F10429F420913703222309F441C0C0
:103BD000E80EF91EEC14FD04C8F480E8481684E8E9
:103BE00058068EE16806710418F560E070E0CB01BC
:103BF000F5D62AE0420E511C611C711C0A3F4FEFA2
:103C0000140721F0043F8FEF1807A1F4C8010F90AB
:103C10000F90DF91CF911F910F91FF90EF90DF9068
:103C2000CF90BF90AF907F906F905F904F9008952E
:103C300001EF1FEF81E090E0013F2FEF120711F03D
:103C400090E080E0892B09F4A6CFE0CF04EF1FEFCE
:103C5000DDCF0AEF1FEFDACF0FEF1FEFD7CF4F9275
:103C60005F926F927F92AF92BF92CF92DF92EF926C
:103C7000FF920F931F93CF93DF9300D0CDB7DEB7A2
:103C80001A821982009709F478C06115710509F448
:103C900074C02091390130913A0107EF1FEF2F3F97
:103CA0003F4F09F444C06B015C01412C512C32019F
:103CB000F12CE12C10E000E09E012F5F3F4FA601A8
:103CC0004E195F09B5016E0D7F1D809139019091EC
:103CD0003A01EDD2892B09F04AC089819A81009777
:103CE00041F4E114F10429F420913703222309F46B
:103CF00041C0E80EF91EEC14FD04C8F480E8481633
:103D000086E9580688E96806710418F560E070E0F5
:103D1000CB0164D62AE0420E511C611C711C0E3F7F
:103D20004FEF140721F0043F8FEF1807A1F4C801EB
:103D30000F900F90DF91CF911F910F91FF90EF9017
:103D4000DF90CF90BF90AF907F906F905F904F903B
:103D5000089502EF1FEF81E090E0023F2FEF12077E
:103D600011F090E080E0892B09F4A6CFE0CF04EFBA
:103D70001FEFDDCF0EEF1FEFDACF0FEF1FEFD7CF23
:103D80008091390190913A018F3F980749F072D2A2
:103D9000892B49F48FEF9FEF90933A01809339017B
:103DA00090E080E0089584EF9FEF0895FC01680F94
:103DB000791F90E080E0E617F70709F40895219154
:103DC000820F911DF8CF20913803211113C08FDE8F
:103DD000009791F410923E0310923D0310923C0321
:103DE00010923B0310923A031092390321E0209382
:103DF0003803089584EF9FEF0895AF92BF92CF925A
:103E0000DF92EF92FF920F931F93CF93DF93009770
:103E100009F460C04630510508F45CC020913803B5
:103E2000C7EFDFEF222309F449C08C01060F171FEB
:103E3000F801C080D180C114D10409F44EC09601AC
:103E40002A5F3F4F4217530708F447C07C01809117
:103E50003D0390913E0393838283B6016C5F7F4F55
:103E60005801A60EB71EC801A1DFF501918380831A
:103E700064E070E0C80162DEEC01892BF9F481E0B6
:103E800090E051DEB601C801049658DEEC01892BA2
:103E900091F462E070E0C50151DEEC01892B59F428
:103EA000C7019ADC80913D0390913E030196909367
:103EB0003E0380933D0390E080E035DECE01DF914C
:103EC000CF911F910F91FF90EF90DF90CF90BF9017
:103ED000AF900895CFEFDFEFF1CFC9EFDFEFEECF77
:103EE0006F927F928F929F92AF92BF92CF92DF920A
:103EF000EF92FF920F931F93CF93DF9300D000D0E8
:103F0000CDB7DEB7009709F47AC04115510509F421
:103F100076C02091380307EF1FEF222309F44DC02C
:103F20003A017B015C0164E070E0CE01019697DE0E
:103F30008C01892B09F041C009811A8101151105F5
:103F400009F45AC0480186E0880E911CB701680D3B
:103F5000791D80913B0190913C0161DD6C010097DE
:103F600009F450C0A70170E060E00E941728898121
:103F70009A81AB81BC81EC0CFD1CF701819391937C
:103F8000A193B1937F0181E090E0CDDDB801C7013D
:103F900066DE892B31F562E070E0C701800F911F6A
:103FA0005EDE8C01892BE9F490E080E0BCDDF50158
:103FB000D182C082F30191828082C8010F900F905C
:103FC0000F900F90DF91CF911F910F91FF90EF9085
:103FD000DF90CF90BF90AF909F908F907F906F9029
:103FE000089590E080E09FDDF50111821082F301D9
:103FF00011821082C601F0DB09EF1FEFDECF0FEF59
:104000001FEFDBCF06EF1FEFD8CF0097A1F04115D0
:10401000510589F02115310571F0F90136966E17B9
:104020007F0748F0DC012D933C93DA01ED93FC937C
:1040300090E080E008958FEF9FEF0895AF92BF92D8
:10404000CF92DF92EF92FF920F931F93CF93DF9364
:10405000009709F45FC04115510509F45BC0653054
:10406000710508F457C020913803C7EFDFEF222312
:1040700091F1DC01CD90DC9011971296ED91FC91BD
:1040800096012A5F3F4FC9EFDFEF2617370719F573
:10409000C0913903D0913A03209749F521E030E0EF
:1040A00030933A03209339037A018C01F0933C0357
:1040B000E0933B035601B4E0AB0EB11CB50176DED4
:1040C0000A0D1B1DF801208131818217930729F504
:1040D000D701CD92DC92CE01DF91CF911F910F914C
:1040E000FF90EF90DF90CF90BF90AF900895209118
:1040F0003B0330913C032F5F3F4FCCEFDFEFE217E4
:10410000F30790F2CBEFDFEF2E173F0768F2D0E016
:10411000C0E0CACFCFEFDFEFDECFC3EFDFEFDBCF03
:1041200084E090E0089582E090E008958CEF9FEFA6
:10413000089580E290E0089510923E0310923D03AE
:1041400010923C0310923B0310923A0310923903F1
:1041500090E080E0089590933C0180933B010895A6
:1041600080913803882391F00BDE009789F4109238
:104170003E0310923D0310923C0310923B031092B9
:104180003A031092390310923803089590E080E0CA
:104190000895009749F06115710531F0FC01118215
:1041A0001082FB01118210820895F3CF26E030E0E7
:1041B00040E855E260E070E090E080E000C0892BCC
:1041C00019F48CE493E0D7C508951F920F920FB6AF
:1041D0000F9211242F933F934F935F936F937F938D
:1041E0008F939F93AF93BF93EF93FF9386E09FEFDF
:1041F0009093850080938400B7D0FF91EF91BF9199
:10420000AF919F918F917F916F915F914F913F916E
:104210002F910F900FBE0F901F90189586E09FEF83
:104220009093850080938400AFE6B0E08C918E7F00
:104230008C93E0E8F0E080818C7F8083E1E8F0E01F
:104240008081877E808380818360808380818B7F73
:1042500080838C9181608C930895EFE6F0E08081FB
:1042600090819E7F90838170089581E008951092DF
:104270003F03089568EE73E080E090E0AFD390E0F4
:1042800080E0089526E030E040E052EC61E070E02C
:1042900090E080E094DF8CE493E0A3D4892B21F0BC
:1042A0008CE493E0B8D4F7CF90E080E00895CF920B
:1042B000DF92EF92FF920F931F93CF93DF936B01E7
:1042C0007A01E901198218828CE493E08AD4892B5F
:1042D00069F18601CC24C39482E0D82E80913F03FB
:1042E000811110C08CE493E096D40297B9F7C09284
:1042F0003F03F801D1928F018881998101969983BA
:104300008883ECCF888199818E159F0578F48CE4A1
:1043100093E081D48F3F9807A9F3F80181938F012F
:1043200088819981019699838883ECCF90E080E021
:10433000DF91CF911F910F91FF90EF90DF90CF9081
:1043400008950F931F93CF93DF93EA0189018CE4C3
:1043500093E0F5D5F801D183C08390E080E0DF9150
:10436000CF911F910F910895CF92DF92EF92FF921C
:104370008091400391E0980F90934003882369F067
:1043800021E030E0309342032093410380934003C7
:10439000FF90EF90DF90CF9008957894E0913E01E8
:1043A000F0913F01C28CD38CE48CF58C0E946D029D
:1043B000B701A60190E080E00E949101F8948091FD
:1043C00040038150E3CF0F931F93CF93DF9310925D
:1043D0000A041092090438D3E9DEC0913E01D0915D
:1043E0003F01198218826FEF7FEFCB010E94130209
:1043F00070E060E090E080E00E949500009709F096
:104400003AC00E94A303F8947894BE016E5D7F4F7A
:104410008A819B810E949800892B59F46FEF7FEF6E
:10442000CB010E9427010E940D02882311F081E038
:104430008EA3F894F3DE0E941002882311F080E02E
:1044400008C00E940D028111FACF81E09EA1911156
:10445000F6CF8093090478940E945F0A8C017894C7
:104460008091090481110CC00E942B040E94F30169
:10447000F89490E080E0DF91CF911F910F91089523
:104480000E94F1010E9410028823D9F081E08093FC
:104490000A0490910A0481E0911180E0809309045C
:1044A00080910A048111D9DE0130110529F40E949E
:1044B0005F0A892B09F4DBDE0E945F0A8C01D5DEDE
:1044C000CFCF0E940D028111E1CF81E09EA1911119
:1044D000DECF80E0DCCF5058BB27AA270ED057C1D3
:1044E00048D130F04DD120F031F49F3F11F41EF44B
:1044F0003DC10EF4E095E7FB0AC1E92F59D180F3E5
:10450000BA17620773078407950718F071F49EF5D0
:1045100088C10EF4E0950B2EBA2FA02D0B01B90126
:1045200090010C01CA01A0011124FF27591B99F029
:10453000593F50F4503E68F11A16F040A22F232F35
:10454000342F4427585FF3CF469537952795A79585
:10455000F0405395C9F77EF41F16BA0B620B730B2C
:10456000840BBAF09150A1F0FF0FBB1F661F771F9D
:10457000881FC2F70EC0BA0F621F731F841F48F452
:10458000879577956795B795F7959E3F08F0B3CFD8
:104590009395880F08F09927EE0F979587950895C2
:1045A00029D180F09F3740F491110EF43BC160E0B7
:1045B00070E080E89FE3089526F01B16611D711DD1
:1045C000811DABC0C5C07FD008F481E00895F8D04C
:1045D00088F09F5790F0B92F9927B751A0F0D1F0EC
:1045E000660F771F881F991F1AF0BA95C9F712C076
:1045F000B13081F016D1B1E0089513C1672F782F43
:104600008827B85F39F0B93FCCF3869577956795E1
:10461000B395D9F73EF490958095709561957F4F4D
:104620008F4F9F4F0895E89409C097FB3EF49095F3
:104630008095709561957F4F8F4F9F4F9923A9F07B
:10464000F92F96E9BB279395F6958795779567950A
:10465000B795F111F8CFFAF4BB0F11F460FF1BC04E
:104660006F5F7F4F8F4F9F4F16C0882311F096E9E1
:1046700011C0772321F09EE8872F762F05C066238F
:1046800071F096E8862F70E060E02AF09A95660F48
:10469000771F881FDAF7880F9695879597F9089501
:1046A000A9D080F09F3740F491110EF0BBC060E0BC
:1046B00070E080E89FEB089526F41B16611D711DC4
:1046C000811D2BC045C0990F0008550FAA0BE0E8CB
:1046D000FEEF16161706E807F907C0F012161306C4
:1046E000E407F50798F0621B730B840B950B39F404
:1046F0000A2661F0232B242B252B21F408950A266A
:1047000009F4A140A6958FEF811D811D089597F9A9
:104710009F6780E870E060E00895882371F4772354
:1047200021F09850872B762F07C0662311F4992724
:104730000DC09051862B70E060E02AF09A95660FCC
:10474000771F881FDAF7880F9695879597F9089550
:104750009F3F31F0915020F4879577956795B795F5
:10476000880F911D9695879597F908959FEF80EC96
:10477000089500240A9416161706180609060895C7
:1047800000240A9412161306140605060895092E2D
:104790000394000C11F4882352F0BB0F40F4BF2B9C
:1047A00011F460FF04C06F5F7F4F8F4F9F4F0895DC
:1047B00057FD9058440F551F59F05F3F71F04795D2
:1047C000880F97FB991F61F09F3F79F087950895B7
:1047D000121613061406551FF2CF4695F1DF08C0D6
:1047E000161617061806991FF1CF869571056105F3
:1047F00008940895E5DFA0F0BEE7B91788F4BB2759
:104800009F3860F41616B11D672F782F8827985FA0
:10481000F7CF869577956795B11D93959639C8F32F
:104820000895E894BB2766277727CB0197F9089569
:104830004ADF08F48FEF08950BD0A9CF9ADF28F054
:104840009FDF18F0952309F062CF90CF1124EACFB3
:10485000AFDFA0F3959FD1F3950F50E0551F629FF6
:10486000F001729FBB27F00DB11D639FAA27F00DC9
:10487000B11DAA1F649F6627B00DA11D661F829FF0
:104880002227B00DA11D621F739FB00DA11D621FD5
:10489000839FA00D611D221F749F3327A00D611DF2
:1048A000231F849F600D211D822F762F6A2F1124D4
:1048B0009F5750408AF0E1F088234AF0EE0FFF1F27
:1048C000BB1F661F771F881F91505040A9F79E3F5E
:1048D000510570F01CCFA6CF5F3FECF3983EDCF3A0
:1048E000869577956795B795F795E7959F5FC1F79B
:1048F000FE2B880F911D9695879597F908951F9225
:104900000F920FB60F9211242F933F938F939F9383
:10491000AF93BF938091440390914503A0914603C8
:10492000B09147033091430323E0230F2D3758F50F
:104930000196A11DB11D20934303809344039093DE
:104940004503A0934603B093470380914803909199
:104950004903A0914A03B0914B030196A11DB11DDB
:104960008093480390934903A0934A03B0934B0369
:10497000BF91AF919F918F913F912F910F900FBE5B
:104980000F901F90189526E8230F0296A11DB11DC8
:10499000D2CF3FB7F8948091480390914903A091FA
:1049A0004A03B0914B0326B5A89B05C02F3F19F0D1
:1049B0000196A11DB11D3FBFBA2FA92F982F88279F
:1049C000BC01CD01620F711D811D911D42E0660F7A
:1049D000771F881F991F4A95D1F708958F929F924C
:1049E000AF92BF92CF92DF92EF92FF926B017C0168
:1049F000D0DF4B015C01C114D104E104F104D9F012
:104A0000CBD2C7DF681979098A099B09683E7340D0
:104A10008105910580F321E0C21AD108E108F1086F
:104A200088EE880E83E0981EA11CB11CC114D1042D
:104A3000E104F10431F7FF90EF90DF90CF90BF9049
:104A4000AF909F908F900895789484B5826084BDD4
:104A500084B5816084BD85B5826085BD85B5816082
:104A600085BDEEE6F0E0808181608083E1E8F0E0E2
:104A70001082808182608083808181608083E0E811
:104A8000F0E0808181608083E1EBF0E080818460F0
:104A90008083E0EBF0E0808181608083EAE7F0E0F2
:104AA0008081846080838081826080838081816056
:104AB00080838081806880831092C1000895833054
:104AC00081F028F4813099F08230A9F00895873080
:104AD000A9F08830C9F08430B1F4809180008F7DD6
:104AE00003C0809180008F7780938000089584B503
:104AF0008F7784BD089584B58F7DFBCF8091B00002
:104B00008F778093B00008958091B0008F7DF9CFAA
:104B1000CF93DF9390E0FC01E458FF4F249180573E
:104B20009F4FFC0184918823C9F090E0880F991F62
:104B3000FC01E255FF4FA591B491FC01EC55FF4FEC
:104B4000C591D49161110DC09FB7F8948C912095B7
:104B500082238C938881282328839FBFDF91CF9164
:104B60000895623051F49FB7F8943C91822F80955C
:104B700083238C93E8812E2BEFCF8FB7F894EC91A1
:104B80002E2B2C938FBFEACF1F93CF93DF93282F29
:104B900030E0F901E859FF4F8491F901E458FF4FE3
:104BA000D491F901E057FF4FC491CC23A1F0162F07
:104BB000811185DFEC2FF0E0EE0FFF1FEC55FF4F6A
:104BC000A591B4918FB7F894EC91111108C0D095CC
:104BD000DE23DC938FBFDF91CF911F910895DE2BF1
:104BE000F8CFFC01918D228D892F90E0805C9F4F42
:104BF000821B91098F7399270895FC01918D828DF5
:104C0000981731F0828DE80FF11D858D90E00895A1
:104C10008FEF9FEF0895FC01918D828D981761F0C1
:104C2000A28DAE0FBF2FB11D5D968C91928D9F5FAF
:104C30009F73928F90E008958FEF9FEF0895FC018E
:104C4000538D448D252F30E0842F90E0821B930BF1
:104C5000541710F0CF96089501970895FC01A48D84
:104C6000A80FB92FB11DA35ABF4F2C91848D90E08E
:104C700001968F739927848FA689B7892C93A08971
:104C8000B1898C91837080648C93938D848D9813FB
:104C900006C00288F389E02D80818F7D808308958E
:104CA000CF93DF93EC01888D8823B1F0AA89BB896B
:104CB000E889F9898C9185FD03C0808186FD0CC04F
:104CC0000FB607FCF7CF8C9185FFF2CF808185FF6F
:104CD000EDCFCE01C3DFEACFDF91CF910895EF9200
:104CE000FF920F931F93CF93DF93EC0181E0888FA6
:104CF0009B8D8C8D98131AC0E889F989808185FF76
:104D000015C09FB7F894EE89FF896083E889F98917
:104D100080818370806480839FBF81E090E0DF9119
:104D2000CF911F910F91FF90EF900895F62E0B8D6C
:104D300010E00F5F1F4F0F731127E02E8C8D8E1127
:104D40000BC00FB607FCFACFE889F989808185FF8F
:104D5000F5CFCE0183DFF2CFEB8DEC0FFD2FF11DF0
:104D6000E35AFF4FF0829FB7F8940B8FEA89FB89D3
:104D700080818062D0CFCF92DF92EF92FF921F931B
:104D8000CF93DF93EC016A017B01122FE889F98947
:104D900082E08083C11481EED806E104F10499F029
:104DA00060E079E08DE390E0A7019601F6D0215014
:104DB0003109410951095695479537952795211590
:104DC00080E1380790F0E889F989108260E874E89A
:104DD0008EE190E0A7019601E0D021503109410910
:104DE00051095695479537952795EC85FD85308374
:104DF000EE85FF852083188EEC89FD891083EA8972
:104E0000FB89808180618083EA89FB898081886059
:104E10008083EA89FB89808180688083EA89FB89B5
:104E200080818F7D8083DF91CF911F91FF90EF90E4
:104E3000DF90CF9008951F920F920FB60F9211241A
:104E40002F938F939F93EF93FF93E0915C03F091E7
:104E50005D038081E0916203F091630382FD1BC0DA
:104E60009081809165038F5F8F7320916603821715
:104E700041F0E0916503F0E0E45BFC4F958F809397
:104E80006503FF91EF919F918F912F910F900FBE2E
:104E90000F901F9018958081F4CF1F920F920FB63C
:104EA0000F9211242F933F934F935F936F937F93B0
:104EB0008F939F93AF93BF93EF93FF938CE493E013
:104EC000CDDEFF91EF91BF91AF919F918F917F9137
:104ED0006F915F914F913F912F910F900FBE0F9067
:104EE0001F901895ECE4F3E01382128288EE93E0B1
:104EF000A0E0B0E084839583A683B78382EC91E041
:104F00009183808385EC90E09587848784EC90E0A2
:104F10009787868780EC90E0918B808B81EC90E086
:104F2000938B828B82EC90E0958B848B86EC90E067
:104F3000978B868B118E128E138E148E0895AF92DE
:104F4000BF92CF92DF92EF92FF920F931F93CF9376
:104F5000DF936C017B018B01040F151FEB015E01D8
:104F6000AE18BF08C017D10759F06991D601ED916D
:104F7000FC910190F081E02DC6010995892B79F70C
:104F8000C501DF91CF911F910F91FF90EF90DF90BE
:104F9000CF90BF90AF9008950895A1E21A2EAA1B5A
:104FA000BB1BFD010DC0AA1FBB1FEE1FFF1FA217D9
:104FB000B307E407F50720F0A21BB30BE40BF50BD6
:104FC000661F771F881F991F1A9469F7609570955F
:104FD000809590959B01AC01BD01CF010895EE0F26
:104FE000FF1F0590F491E02D099409D0A59F900D25
:104FF000B49F900DA49F800D911D11240895A29F30
:10500000B001B39FC001A39F700D811D1124911D9C
:10501000B29F700D811D1124911D0895FB01DC01CB
:1050200002C001900D9241505040D8F70895DC0124
:1050300001C06D9341505040E0F70895F894FFCFC0
:105040000000803F00401C4600409C4500000000DE
:105050000000803F00401C4600409C4500000000CE
:10506000FEFFFFFF01E8030000FFFF00000000FF5C
:10507000FFFFFFFFFFFFFFFFFFFFFFFFFF01E80153
:10508000FF00B60CE20CFE009C0C1D0AFD002E0C6D
:10509000880CFC00740C1D0AF600650D1D0AF50055
:1050A0003B0CA40DF4002E0DBB0DDE00E7118014A7
:1050B000DD0056131D0ADA006F0F770FD9009B141D
:1050C000870FE200570E1D0AE100920E1D0AE00054
:1050D000070F1D0AD60070181D0AD50014111D0AED
:1050E000D400A0101D0AD30011101D0AC000960F95
:1050F0001D0AF000D9181D0AED0096181D0A0000BF
:1051000000006F269F271F265026F1250B26FD2520
:00000001FF
