:1000000070C0000096C0000094C0000092C00000C4
:1000100090C000008EC000008CC000008AC00000AC
:1000200088C0000086C0000084C0000082C00000BC
:1000300080C000000C944E277CC000007AC00000F5
:100040000C94B22B76C000000C94762E0C94A82E43
:1000500070C000006EC000006CC000006AC00000EC
:1000600068C0000066C0000005A84CCDB2D44EB9EF
:100070003836A9020C50B9918688083CA6AAAA2A4B
:10008000BE000000803F00000008000201000003E5
:100090000407000000000000000001020408102016
:1000A000408001020408102001020408102004040A
:1000B0000404040404040202020202020303030310
:1000C00003030000000023002600290000000000B8
:1000D000250028002B0000000000240027002A0033
:1000E000CD2E11241FBECFEFD8E0DEBFCDBF12E072
:1000F000A0E0B1E0E6EFFEE502C005900D92AC365F
:10010000B107D9F725E0ACE6B2E001C01D92A338F3
:10011000B207E1F710E0C1E7D0E004C02197FE018B
:100120000E944A2FC037D107C9F70E949E280C941D
:10013000792F66CF611102C00C94BB2C6130E1F3C2
:1001400062E0FACF662319F061E00C94F72C60E0CE
:10015000FCCF0E94242D21E0019709F020E0822F9E
:10016000089590E080E008950F931F93009709F49D
:1001700089C06115710509F485C00091BC01109119
:10018000BD012091BE013091BF010E3F1F4F2F4F87
:100190003F4F09F068C04FEF5FEFBA014093BC01D9
:1001A0005093BD016093BE017093BF014091BC01AB
:1001B0005091BD016091BE017091BF01DC011296AA
:1001C000ED91FC9180819181A281B38180930E0396
:1001D00090930F03A0931003B09311038481958132
:1001E000A681B78180930A0390930B03A0930C031D
:1001F000B0930D0380859185A285B3858093060316
:1002000090930703A0930803B09309038485958511
:10021000A685B7858093020390930303A0930403FC
:10022000B09305031092FE021092FF021092000399
:10023000109201030E94BC0C81EE9CE090936D0231
:1002400080936C0290936F0280936E020E94AB0BBE
:10025000009731F421E030E0309313032093120330
:100260001F910F9108950091BC011091BD01209143
:10027000BE013091BF01DB010D931D932D933C9383
:10028000139794CF8FEF9FEFEBCF8F929F92AF9208
:10029000BF92CF92DF92EF92FF921F93CF93DF93A3
:1002A0004B015C011091150382E090E090931303E1
:1002B0008093120381149104A104B10441F480914C
:1002C0001503811104C080911403C1E08111C0E0C5
:1002D000C12CD12C760180911503811106C080912B
:1002E0001403811102C0CC23D9F083E090E09093F5
:1002F000130380931203CC2381F1CCE9DFEF1111BA
:1003000002C00E944510CE01DF91CF911F91FF9056
:10031000EF90DF90CF90BF90AF909F908F90089517
:100320006AE070E080E090E00E94212C80E1C80E3D
:1003300087E2D81EE11CF11C8FEF88169806A806EC
:10034000B80631F0C1E08C149D04AE04BF0408F07F
:10035000C0E080E00E94DF0BBECFD0E0C0E0CFCF96
:10036000CF92DF92EF92FF920F931F93CF93DF9381
:100370008F3F910511F008F051C020911203309188
:1003800013032330310539F0209112033091130308
:100390002130310531F424E030E030931303209311
:1003A00012036A017B01EC0182309105A8F011E093
:1003B000AE01C701B6010E94AA0BAB01BC01CE0180
:1003C0001123F9F0DF91CF911F910F91FF90EF90E2
:1003D000DF90CF900C946E128C01000F111F045906
:1003E0001D4FD8018D919C91892B09F30E947812A1
:1003F0000297E9F6D801ED91FC91CE010995182FED
:10040000D7CF0E94901290E080E0DF91CF911F91B2
:100410000F91FF90EF90DF90CF9008958FEF9FEFB7
:10042000F4CF80E00C94DF0BCF93DF9386E090E075
:1004300090931303809312030E94380CEC01ECE6B6
:10044000F2E084E0DF011D928A95E9F70E94DD0F5A
:100450001092130310921203CE01DF91CF910895F1
:100460008091140308958091FD0208956093BC016A
:100470007093BD018093BE019093BF0190E080E036
:100480000895FC0191E08091DB02811190E091835D
:1004900008950F931F93CF93DF93EA019D818823E3
:1004A000C1F191110BC0F90180859185A285B385B9
:1004B00088839983AA83BB8381E08D83D9018B01D3
:1004C000288139814A815B8114966D917D918D914E
:1004D0009C9117970E942729F8016083718382837A
:1004E0009383688379838A839B838C81882371F0CB
:1004F000833041F481E090E08C83DF91CF911F91B4
:100500000F910895082E000C990BF6CF82E090E031
:10051000F3CF992391F31D82F0CFCF92DF92EF9228
:10052000FF926B017C019F7720E030E040E859E5C5
:100530000E949E2987FF2BC020E030E040E05FE36F
:10054000C701B6010E940F2B87FD0EC020E030E0EE
:1005500040E05FE3C701B6010E942729FF90EF90BA
:10056000DF90CF900C940E2A20E030E040E05FEB6B
:10057000C701B6010E940F2B181684F420E030E06A
:10058000A901C701B6010E94132B6B017C01C701B1
:10059000B601FF90EF90DF90CF90089520E030E01B
:1005A00040E05FE3C701B6010E942629FF90EF906B
:1005B000DF90CF900C948B298091DB028F5F843683
:1005C00068F58093DB026091CE027091CF0280913A
:1005D000D0029091D1026F5F7F4F8F4F9F4F6093FA
:1005E000CE027093CF028093D0029093D1020E94EA
:1005F000D1299B01AC016091D2027091D30280910C
:10060000D4029091D5020E94132B6093CA0270937A
:10061000CB028093CC029093CD0208951092DB021E
:10062000D2CF4F925F926F927F928F929F92AF92B2
:10063000BF92CF92DF92EF92FF92CF93DF93CDB72D
:10064000DEB760970FB6F894DEBF0FBECDBF8091C6
:1006500030058150823008F0D7C183E080933005A7
:1006600080912F058150823008F0D0C183E08093C3
:100670002F05809157058150823008F0C9C183E071
:1006800080935705809152058150823008F0C2C195
:1006900083E080935205C0902401D0902501E09022
:1006A0002601F0902701A70196016091C604709180
:1006B000C7048091C8049091C9040E949E29882390
:1006C00041F0C092C604D092C704E092C804F092F0
:1006D000C90482E03EDD20EB31E043E555E06DE703
:1006E00075E0D7DE20E030E040E85FE360917D0513
:1006F00070917E0580917F05909180050E949E29D2
:1007000081118AC18091AC019091AD01A091AE019F
:10071000B091AF018D839E83AF83B887C0901C01D9
:10072000D0901D01E0901E01F0901F01A7019601DD
:100730006091DE047091DF048091E0049091E10407
:100740000E949E29882341F0C092DE04D092DF04EB
:10075000E092E004F092E10483E0FBDC28E831E081
:1007600043E455E065E775E094DE20E030E040E8E2
:100770005FE36091750570917605809177059091A2
:1007800078050E949E29811150C1409084015090AB
:1007900085016090860170908701C0901401D0900F
:1007A0001501E0901601F0901701A70196016091E4
:1007B000F6047091F7048091F8049091F9040E9476
:1007C0009E29882341F0C092F604D092F704E0926B
:1007D000F804F092F90484E0BCDC2CE931E04BE44D
:1007E00055E069E775E055DE20E030E040E85FE382
:1007F0006091790570917A0580917B0590917C05D7
:100800000E949E2981111AC18090980190909901AF
:10081000A0909A01B0909B01C0902001D09021013E
:10082000E0902201F0902301A70196016091D2048B
:100830007091D3048091D4049091D5040E949E2994
:10084000882341F0C092D204D092D304E092D40421
:10085000F092D50485E07DDC24E731E04BE355E000
:1008600061E775E016DE20E030E040E85FE360918C
:1008700071057091720580917305909174050E94C5
:100880009E298111E4C0C0907001D0907101E09068
:100890007201F09073018091180190911901A0915B
:1008A0001A01B0911B0189839A83AB83BC839C019D
:1008B000AD016091EA047091EB048091EC04909199
:1008C000ED040E949E29882361F089819A81AB8181
:1008D000BC818093EA049093EB04A093EC04B09362
:1008E000ED0486E036DC20E631E043E355E06DE6DA
:1008F00075E0CFDD20E030E040E85FE360916D051A
:1009000070916E0580916F05909170050E949E29EF
:100910008111A6C080915C0190915D01A0915E0162
:10092000B0915F0189839A83AB83BC8320E030E080
:10093000A9016D817E818F8198850E949E2920E08A
:1009400030E0A901882309F494C0C301B2010E94D8
:100950009E298823E9F020E030E0A901C501B40117
:100960000E949E298823A1F020E030E0A901C70160
:10097000B6010E949E29882359F020E030E0A901A9
:1009800069817A818B819C810E949E29811156C345
:100990008D819E81AF81B8858093690590936A05AA
:1009A000A0936B05B0936C054092590550925A057F
:1009B00060925B0570925C05809261059092620581
:1009C000A0926305B0926405C0926505D092660559
:1009D000E0926705F092680589819A81AB81BC81BC
:1009E00080935D0590935E05A0935F05B0936005CD
:1009F00080912F05882309F418C3833009F41BC3A1
:100A0000082E000C990B13C380E028CE80E02FCE77
:100A100080E036CE80E03DCE8091A8019091A90182
:100A2000A091AA01B091AB0175CE40908001509089
:100A300081016090820170908301AFCE809094011B
:100A400090909501A0909601B0909701E5CEC0904E
:100A50006C01D0906D01E0906E01F0906F011BCFA2
:100A60008091580190915901A0915A01B0915B0178
:100A700059CFC301B2010E949E29811189CF20E084
:100A800030E0A901C501B4010E949E29811180CFE7
:100A900020E030E0A901C701B6010E949E29811122
:100AA00077CF20E030E0A90169817A818B819C8138
:100AB0000E949E2981116CCF80912E05813061F0BA
:100AC00081E090E0A0E0B0E080932A0590932B05B0
:100AD000A0932C05B0932D0580912A0590912B05AC
:100AE000A0912C05B0912D05892B8A2B8B2BD1F150
:100AF0006091D6027091D7028091D8029091D9026C
:100B00000E94D1292DEC3CEC4CEC5DE30E94132BB0
:100B100020913001309131014091320150913301E7
:100B20000E94132B6B017C010E94762B609322059F
:100B3000709323058093240590932505C701B60182
:100B40000E94A229609326057093270580932805AB
:100B50009093290510922A0510922B0510922C05CE
:100B600010922D05C0902205D0902305E090240519
:100B7000F090250540904001509041016090420165
:100B8000709043018091260590912705A09128053A
:100B9000B091290589839A83AB83BC8380913C0102
:100BA00090913D01A0913E01B0913F018D879E87BC
:100BB000AF87B88B8091380190913901A0913A01AB
:100BC000B0913B018D839E83AF83B88780913401C0
:100BD00090913501A0913601B091370189879A87AC
:100BE000AB87BC87A3019201C701B6010E94132BFA
:100BF0004B015C012D853E854F85588969817A813D
:100C00008B819C810E94132B9B01AC01C501B40117
:100C10000E9427292D813E814F8158850E94132BE8
:100C20004B015C0129813A814B815C81C301B20196
:100C30000E94132B2B013C012D853E854F85588941
:100C4000C701B6010E94132B9B01AC01C301B20185
:100C50000E94262929853A854B855C850E94132BA5
:100C60009B01AC01C501B4010E94272920912801F4
:100C70003091290140912A0150912B010E94132BA0
:100C800020912C0130912D0140912E0150912F0186
:100C90000E9427294B015C01209100013091010144
:100CA00040910201509103010E940F2B87FFBEC0AB
:100CB00080E090E0DC018093690590936A05A09341
:100CC0006B05B0936C0520910401309105014091B2
:100CD000060150910701C501B4010E940F2B87FF47
:100CE000AAC080E090E0DC0180935D0590935E05F2
:100CF000A0935F05B0936005209108013091090130
:100D000040910A0150910B01C501B4010E940F2BC3
:100D100087FF96C080E090E0DC01809361059093AE
:100D20006205A0936305B093640520910C01309196
:100D30000D0140910E0150910F01C501B4010E94B7
:100D40000F2B87FF82C080E090E0DC018093650577
:100D500090936605A0936705B093680520911001F4
:100D6000309111014091120150911301C501B4015C
:100D70000E940F2B87FF6EC080E090E0DC01809323
:100D8000590590935A05A0935B05B0935C052D819E
:100D90003E814F815885C701B6010E94132B4B013C
:100DA0005C0129853A854B855C8569817A818B81D7
:100DB0009C810E94132B9B01AC01C501B4010E94D0
:100DC000272960932205709323058093240590932F
:100DD00025052D813E814F81588569817A818B81DE
:100DE0009C810E94132B4B015C0129853A854B8520
:100DF0005C85C701B6010E94132B9B01AC01C501A4
:100E0000B4010E94262960932605709327058093DC
:100E100028059093290580913005882301F18330BE
:100E200009F400C1082E000C990B1BC080E090E073
:100E3000A0E8BFE340CF80E090E0A0E8BFE354CF5C
:100E400080E090E0A0E8BFE368CF80E090E0A0E819
:100E5000BFE37CCF80E090E0A0E8BFE390CF82E0EA
:100E600090E08093300581E080932E0560915905D4
:100E700070915A0580915B0590915C054EDB6B018A
:100E80007C0120E030E040E853E40E949E296FEFAF
:100E900087FF0EC020E030E0A901C701B6010E9423
:100EA0000F2B60E087FD04C0C701B6010E94A52991
:100EB00088E048D960915D0570915E0580915F057D
:100EC000909160052ADB6B017C0120E030E040E876
:100ED00053E40E949E296FEF87FF0EC020E030E0B0
:100EE000A901C701B6010E940F2B60E087FD04C075
:100EF000C701B6010E94A5298BE024D96091610544
:100F000070916205809163059091640506DB6B0129
:100F10007C0120E030E040E853E40E949E296FEF1E
:100F200087FF0EC020E030E0A901C701B6010E9492
:100F30000F2B60E087FD04C0C701B6010E94A52900
:100F400089E000D96091650570916605809167051B
:100F500090916805E2DA6B017C0120E030E040E826
:100F600053E40E949E296FEF87FF0EC020E030E01F
:100F7000A901C701B6010E940F2B60E087FD04C0E4
:100F8000C701B6010E94A5298AE0DCD860916905F5
:100F900070916A0580916B0590916C05BEDA6B01CA
:100FA0007C0120E030E040E853E40E949E296FEF8E
:100FB00087FF0EC020E030E0A901C701B6010E9402
:100FC0000F2B60E087FD04C0C701B6010E94A52970
:100FD00087E0B8D88091D6029091D702A091D8022C
:100FE000B091D9020196A11DB11D8093D6029093B4
:100FF000D702A093D802B093D90260960FB6F894A6
:10100000DEBF0FBECDBFDF91CF91FF90EF90DF909D
:10101000CF90BF90AF909F908F907F906F905F9098
:101020004F90089581E090E01CCF82E090E08093A3
:101030002F0582E019CF81E090E0F9CF80E014CF56
:10104000AF92BF92CF92DF92EF92FF921F93CF9316
:10105000DF93E4EBF2E080E090E0A0E8BFEB80A754
:1010600091A7A2A7B3A78FE692E1A3E8BAE3868F80
:10107000978FA0A3B1A38EEE9BE7A3E6BAE2848389
:101080009583A683B7838FE89CE8A1E5B9E98087BB
:101090009187A287B38781EE94E2A9ECB4E28487BA
:1010A0009587A687B78789E89DE8A0E8BBE8808B8D
:1010B000918BA28BB38BA8EAB2E0B383A283E0E763
:1010C000F2E01196FC93EE9389ED91E09183808399
:1010D0009383828395838483978386839187808794
:1010E000938782879587848797878687918B808B64
:1010F000938B828B958B848B80E395E0978B868B8B
:101100008FE295E0918F808F87E595E0938F828FB6
:1011100082E595E0958F848F81E595E0978F868FA6
:101120008FE495E091A380A38AE495E093A382A342
:1011300089E495E095A384A387E495E097A386A32B
:1011400082E495E091A780A781E495E093A782A728
:101150008FE395E095A784A78AE395E097A786A7F4
:1011600089E395E091AB80AB87E395E093AB82ABED
:1011700082E395E095AB84AB81E395E097AB86ABDA
:1011800088EC92E015969C938E93149788EB92E0EE
:1011900013969C938E9312978AEC92E017969C93E9
:1011A0008E931697CEEBD4E08FEF80932E05E9E572
:1011B000F5E080E0A82E81E0B82E80915401909156
:1011C0005501A0915601B0915701808B918BA28B54
:1011D000B38B8091440190914501A0914601B0915B
:1011E000470180839183A283B38380914C019091C6
:1011F0004D01A0914E01B0914F0180879187A28748
:10120000B3878091500190915101A0915201B0910A
:10121000530184879587A687B7878091480190916D
:101220004901A0914A01B0914B0184839583A68323
:10123000B7838091B8019091B901A091BA01B091A2
:10124000BB018093530590935405A0935505B0932B
:1012500056058091B0019091B101A091B201B09179
:10126000B30184A395A3A6A3B7A380919001909105
:101270009101A0919201B0919301809343059093C5
:101280004405A0934505B09346058091880190914F
:101290008901A0918A01B0918B01848F958FA68FCF
:1012A000B78F8091A4019091A501A091A601B09162
:1012B000A70180934B0590934C05A0934D05B093E7
:1012C0004E0580919C0190919D01A0919E01B0914D
:1012D0009F0180A391A3A2A3B3A380917C019091CD
:1012E0007D01A0917E01B0917F0180933B05909399
:1012F0003C05A0933D05B0933E058091740190910B
:101300007501A0917601B0917701808F918FA28FA6
:10131000B38F8091680190916901A0916A01B091A9
:101320006B018093330590933405A0933505B093FA
:1013300036058091600190916101A0916201B091A8
:101340006301848B958BA68BB78B1882F50184A1E2
:1013500095A1A6A1B7A188879987AA87BB87C12C29
:10136000D12C7601C394C982DA82EB82FC8260E0E0
:1013700082E00E949A0011E01D83188EF501848D91
:10138000958DA68DB78D88A399A3AAA3BBA3C98E5B
:10139000DA8EEB8EFC8E60E083E00E949A001D8F57
:1013A00018AAF50184899589A689B78988AF99AF6C
:1013B000AAAFBBAFC9AADAAAEBAAFCAA60E084E094
:1013C0000E949A001DAB1C86F50180A191A1A2A1EB
:1013D000B3A18C8B9D8BAE8BBF8BCD86DE86EF86CB
:1013E000F88A60E085E00E949A00198B1CA2F50142
:1013F000808D918DA28DB38D8CA79DA7AEA7BFA721
:10140000CDA2DEA2EFA2F8A660E086E00E949A00DC
:1014100019A710921A05C0921B05D0921C05E092E4
:101420001D05F0921E0561E088E00E949A0010936D
:101430001F0510921205C0921305D0921405E09278
:101440001505F092160561E08BE00E949A0010935A
:10145000170510920A05C0920B05D0920C05E09278
:101460000D05F0920E0561E089E00E949A0010934C
:101470000F0510920205C0920305D0920405E09278
:101480000505F092060561E08AE00E949A0010933B
:1014900007051CAEC092FB04D092FC04E092FD0450
:1014A000F092FE0461E087E00E949A001093FF042E
:1014B000DF91CF911F91FF90EF90DF90CF90BF9081
:1014C000AF9008958091BE04811103C081E08093A4
:1014D000BE048091D604811103C081E08093D604BC
:1014E0008091EE04811103C081E08093EE0480912D
:1014F000CA04811103C081E08093CA048091E20490
:10150000811103C081E08093E20480911A0581116A
:1015100003C081E080931A0580911205811103C0F8
:1015200081E08093120580910A05811103C081E05A
:1015300080930A0580910205811103C081E08093A8
:1015400002058091FA04811103C081E08093FA04BE
:1015500008954F925F926F927F928F929F92AF9277
:10156000BF92CF92DF92EF92FF920F931F93F89466
:101570004090ED025090EE026090EF027090F00209
:10158000C090E102D090E202E090E302F090E40229
:10159000452B09F0A4C09B01AC012419350946096B
:1015A000570929013A010091E9021091EA022091BC
:1015B000EB023091EC0248015901840C951CA61CE9
:1015C000B71C80169106A206B306A0F40091E502AE
:1015D0001091E6022091E7023091E8020F5F1F4F61
:1015E0002F4F3F4F0093E5021093E6022093E7024E
:1015F0003093E8028092E9029092EA02A092EB0214
:10160000B092EC020091E5021091E6022091E7020F
:101610003091E8028092F1029092F202A092F302DD
:10162000B092F4020093F5021093F6022093F702B1
:101630003093F8026093ED027093EE028093EF0214
:101640009093F002A8EEB3E0A30192010E94502F04
:101650006C0D7D1D8E1D9F1D6093E1027093E20253
:101660008093E3029093E4020091BC011091BD01CC
:101670002091BE013091BF010F3F1F4F2F4F3F4FB1
:10168000F1F00091BC011091BD012091BE0130919B
:10169000BF010E3F1F4F2F4F3F4F89F0C090BC013D
:1016A000D090BD01E090BE01F090BF0121E08C140C
:1016B0009D04AE04BF0408F420E02093FD0278945A
:1016C0001F910F91FF90EF90DF90CF90BF90AF9060
:1016D0009F908F907F906F905F904F9008954B01F7
:1016E0005C0184189508A608B708A3019201261B7F
:1016F000370B480B590B6415750586059705D0F017
:1017000082169306A406B50640F420E030E0A90155
:1017100081149104A104B10491F4A8EEB3E00E94F5
:10172000502FA7019601261B370B480B590BCA01F6
:10173000B901C5CF82169306A406B50670F7A8EEC8
:10174000B3E0A50194010E94502F6C0D7D1D8E1DEC
:101750009F1DB5CFFECECF93DF9300D000D0CDB785
:10176000DEB71C821B821A8219821092F902109233
:10177000FA021092FB021092FC02BE016F5F7F4FD3
:10178000CE0103960E94322769817A818B819C81E8
:101790000E948721009761F4BE016F5F7F4FCE01E9
:1017A00003960E943E2769817A818B819C812CD58A
:1017B0000F900F900F900F90DF91CF910895FF92AF
:1017C0000F931F93CF93DF93082F60E070E0CB015E
:1017D0000E94212CFF24F3940E947220EC01892B9B
:1017E00089F010E0CE3F8FEFD80769F0002361F158
:1017F00060E070E0CB010E94212C81E090E0892B19
:1018000059F322C011E023D5EC01892B21F0CE3F02
:101810008FEFD80759F711111EC011E0229609F475
:1018200010E00E942320EC01892B21F0CE3F8FEFA6
:10183000D807E1F6111111C011E0CE3F8FEFD807A4
:1018400009F410E001110BC0CE01DF91CF911F917F
:101850000F91FF90089511E0E4CF11E0F3CF60E025
:1018600070E0CB010E94212C1F25812F90E0C7CF73
:10187000CF93DF938091FD02882321F060E070E038
:10188000CB014CD635D6D0E0C0E0892B71F06AE0B0
:1018900070E080E090E00E94212C81E090DF28D66B
:1018A0002196C03D27E0D20781F727D60E94DB2191
:1018B000109215031092140310920E0310920F034E
:1018C000109210031092110310920A0310920B034E
:1018D00010920C0310920D0310920603109207034E
:1018E000109208031092090310920203109203034E
:1018F00010920403109205031092FE021092FF0250
:1019000010920003109201034EEF5FEF6FEF7FEF35
:101910004093BC015093BD016093BE017093BF0121
:101920001092FD02E1EFF2E028E0DF011D922A951E
:10193000E9F71092ED021092EE021092EF0210926F
:10194000F0021092E9021092EA021092EB02109259
:10195000EC021092E5021092E6021092E702109259
:10196000E8021092E1021092E2021092E302109259
:10197000E402DF91CF910895109221031092220387
:1019800010922303109224031092200380912903C4
:1019900090912A0390931F0380931E0310921D03BE
:1019A00010921C03109218031092190310921A033C
:1019B00010921B03109226031092250390E080E002
:1019C0000895CF92DF92EF92FF920F931F93CF93E0
:1019D0008C01892B09F055C02091290330912A03ED
:1019E00080911E0390911F034091290350912A0377
:1019F00050931F0340931E032817390781F010925C
:101A00001D0310921C0310921803109219031092D8
:101A10001A0310921B031092260310922503809143
:101A2000290390912A03019761F5809125039091F4
:101A30002603892B21F48091C001811112C080916D
:101A40002503909126030197E1F48091180390916A
:101A50001903A0911A03B0911B030197A105B105C9
:101A600081F4109218031092190310921A03109225
:101A70001B031092C00182E090E0909326038093B4
:101A800025038091290390912A03019709F01CC135
:101A900080913F03909140038017910709F014C192
:101AA00080913B0390913C03A0913D03B0913E0394
:101AB000009709F409C120913A0321110DC040910A
:101AC0003B0350913C0360913D0370913E03452BD5
:101AD000462B472B09F4F8C02091250330912603AB
:101AE0002230310509F0F0C020911C032111ECC017
:101AF000FC01C080D180E280F380809120038823A4
:101B000009F4D3C080912C0390912D03892B09F403
:101B1000FDC020912C0330912D0381E0223031054E
:101B200009F080E020912C0330912D03C1E0213099
:101B3000310549F020912C0330912D03C1E0223072
:101B4000310509F0C0E0882309F456C0209136031E
:101B5000309137034091380350913903C701B601E2
:101B60000E940F2B87FD14C020913603309137035C
:101B70004091380350913903609121037091220301
:101B800080912303909124030E949E2987FD22C007
:101B90002091360330913703409138035091390337
:101BA000C701B6010E940F2B181634F52091360399
:101BB00030913703409138035091390360912103EC
:101BC0007091220380912303909124030E949E2907
:101BD000811112C080912E0390912F03A0913003A8
:101BE000B0913103892B8A2B8B2B19F481E08093E0
:101BF0001D0381E080931C03CC2309F456C020917F
:101C00003603309137034091380350913903C701AF
:101C1000B6010E949E2987FF14C02091360330919F
:101C2000370340913803509139036091210370913B
:101C3000220380912303909124030E940F2B87FF9E
:101C400022C02091360330913703409138035091E0
:101C50003903C701B6010E949E29811126C0209137
:101C60003603309137034091380350913903609126
:101C700021037091220380912303909124030E94F9
:101C80000F2B181694F480912E0390912F03A0919E
:101C90003003B0913103892B8A2B8B2B19F481E00F
:101CA00080931D0381E080931C0381E090911C03CD
:101CB000911180E080932003C0922103D0922203EF
:101CC000E0922303F0922403012B09F067C1809175
:101CD000250390912603892BD9F410922B0310929F
:101CE0001C038091C001882379F082E090E09093FA
:101CF0002603809325031092C0012091290330917F
:101D00002A0381E0232BE9F080E01BC081E00ACFA9
:101D10001092C00180912B03882349F010921D037B
:101D2000109226031092250310922B03EDCF809181
:101D3000290390912A03892BE1F080911C031092D2
:101D40001C0320912503309126032230310509F42C
:101D50005EC088F42115310509F448C021303105F1
:101D600009F4F3C010921D0310921C0310922B0370
:101D700038C081E0E6CF2330310509F4B1C024300A
:101D8000310581F7409118035091190360911A03AE
:101D900070911B03411551056105710561F04150BA
:101DA0005109610971094093180350931903609315
:101DB0001A0370931B03409118035091190360910B
:101DC0001A0370911B03452B462B472BD9F4209106
:101DD0002703309128032130310509F046C01092C5
:101DE0001D0310922603109225030CC08091C001A0
:101DF000882341F082E090E09093260380932503AE
:101E00001092C0011092160380911D03CEC088234A
:101E1000C9F380912E0390912F03A0913003B091CC
:101E20003103181619061A061B060CF07DC08091A6
:101E3000290390912A03019709F076C080912E031F
:101E400090912F03A0913003B09131038093180338
:101E500090931903A0931A03B0931B0383E090E0BF
:101E60009093260380932503CDCF40913203509168
:101E700033036091340370913503452B462B472B78
:101E8000A9F010921D038091320390913303A09129
:101E90003403B09135038093180390931903A093F2
:101EA0001A03B0931B0381E090E0DACF882399F006
:101EB0008091C1019091C201A091C301B091C40170
:101EC0008093180390931903A0931A03B0931B03F4
:101ED00084E090E0C5CF10921D0382E090E0C0CF77
:101EE0008091180390911903A0911A03B0911B03DC
:101EF0000097A105B10559F00197A109B109809397
:101F0000180390931903A0931A03B0931B038091B5
:101F1000180390911903A0911A03B0911B03892B08
:101F20008A2B8B2B09F06ECF8091C1019091C20159
:101F3000A091C301B091C401892B8A2B8B2B09F48A
:101F40004ECF81E080931D03B3CF40911803509191
:101F5000190360911A0370911B0341155105610526
:101F6000710561F0415051096109710940931803ED
:101F70005093190360931A0370931B034091180345
:101F80005091190360911A0370911B03452B462B46
:101F9000472B09F037CF8111C7CF9FCF8091160310
:101FA000882309F431CF80911703CF911F910F91AE
:101FB000FF90EF90DF90CF90089510922103109240
:101FC00022031092230310922403109220031092F4
:101FD00026031092250310921F0310921E031092E5
:101FE000400310923F0310921D0310921C031092A5
:101FF00018031092190310921A0310921B031092E7
:1020000017031092160310923B0310923C03109298
:102010003D0310923E0310923A0310923603109241
:102020003703109238031092390388EE93E0A0E052
:10203000B0E08093C1019093C201A093C301B0931B
:10204000C4011092320310923303109234031092A1
:10205000350310922E0310922F031092300310922A
:10206000310310922D0310922C0381E08093C00164
:1020700010922B0310922A03109229031092280326
:102080001092270390E080E00895809129039091B9
:102090002A03892B19F58091C001882351F0809182
:1020A0002B03811106C081E08093170380931603F0
:1020B000089520912B033091C00181E090E03323FB
:1020C00011F090E080E030E082239323892B21F00F
:1020D0001092170381E0EACF10921603089582E070
:1020E00090E0FA01918380838FEF9FEF0895CF9363
:1020F000DF93EA01009711F00E945522198218829D
:1021000090E080E0DF91CF910895DB01009719F412
:102110008FEF8C9308952EEF2C930F968F309105AF
:1021200008F033C0FC01E956FF4E0C944A2FC3104F
:10213000C110BF10BD10BB10B710B910B510B3104F
:10214000B110AE10AA10A610AC10C51080E3119605
:102150008C93089589E2FBCF82E2F9CF11961C920D
:10216000089583E2F4CF81E2F2CF81E1F0CF87E2FC
:10217000EECF8AE2ECCF80E1EACF84E2E8CF88E2DA
:10218000E6CF86E2E4CF81E3E2CF80E2E0CF809148
:102190004D0390914E03089590934E0380934D0309
:1021A000089580914C03089590914C03892B80935E
:1021B0004C030895982F909580914C038923809328
:1021C0004C03089580914B030895809149039091A9
:1021D0004A0308956115710559F0FB0130E020E0D4
:1021E00070E060E02417350719F06115710511F0F2
:1021F000CB010895A081B181A817B90709F4BF01E7
:102200002F5F3F4F3696EECF80914F0381111CC058
:1022100062D268D290934203809341030E940C1BC8
:102220000E941E1B90934603809345030E948D1FBE
:102230000E94941F909344038093430381E0809312
:102240004F0390E080E0089584EF9FEF08958F9210
:102250009F92AF92BF92CF92DF92EF92FF920F9335
:102260001F93CF93DF93CDB7DEB72A970FB6F894BD
:10227000DEBF0FBECDBF1A86198618861F821E824A
:102280001D821C821B821A82198280914F0307EFE4
:102290001FEF882309F49CC08E010D5F1F4F9E0124
:1022A0002B5F3F4FAE01495F5F4FBE01675F7F4FBE
:1022B00090E080E00E940D218C01009721F00596AE
:1022C000029708F0DBC029853A852115310509F40C
:1022D00002C1ED80FE804B815C81B701640F751FE8
:1022E0008F8198858617970708F4F5C0E20EF31ED4
:1022F000D7019C91903C09F07FC04230510508F411
:102300007BC011968C9140914D0350914E03452B0B
:1023100009F49CC0913F08F071C02CE1290F2D30C9
:1023200008F48BC02DE2290F203108F489C0903CBD
:1023300021F48150823008F483C088E3890F8B3008
:1023400008F481C095E8C92E90E1D92EEFE6F0E1BE
:102350006D817E81AE014F5F5F4F89859A850995BA
:102360005C01C114D104A1F189809A808114910487
:1023700079F18B819C818815990508F487C010E05C
:1023800000E04B815C8170E060E0C7010E94722F29
:1023900001151105E9F449815A8169857A858D8194
:1023A0009E81680F791FC501F6010995E980FA80C1
:1023B0000D811E812F81388549855A856FEF7FEF0A
:1023C00081E090E00E94A9208C01892B09F056C081
:1023D000C8012A960FB6F894DEBF0FBECDBFDF91BD
:1023E000CF911F910F91FF90EF90DF90CF90BF9012
:1023F000AF909F908F90089580E085CF30E020E0EF
:10240000220F331FF901EF5BFC4F0190F081E02DAB
:10241000309709F497CF892F90E00995009709F438
:1024200091CFDC011296ED91FC9113971496CD900B
:10243000DC90309709F08CCF1FC021E030E0E0CF76
:1024400022E030E0DDCF23E030E0DACFD12CC12C28
:10245000E7E7F0E19F3F09F07BCFE0914103F09186
:102460004203309721F4C90104EF1FEF0CC08FEF36
:1024700090E009950097A9F604EF1FEF89859A85EA
:10248000009709F4A5CF0E945522A2CF0E94D62121
:102490008C0189859A850E94552270E060E0C40114
:1024A0000E946F2198878F830E94A6209E838D8330
:1024B0006F8178856115710559F0C8010E947823F4
:1024C0009A87898706EF1FEF892B09F058CF59CFDC
:1024D00008EF1FEF56CF08EF1FEFD0CF20914F032B
:1024E000222319F020E00C94231B87EF9FEF08951F
:1024F00080914D0390914E0308950E94991F0E9470
:10250000F31EF5D0E1E4F3E088E0DF011D928A9547
:10251000E9F710924F0390E080E008950C94501D6D
:1025200021E040E050E0BA010C94231B86E090E0EB
:10253000FA019183808390E080E0089547E050E0C5
:102540006CED71E047CEDF92EF92FF920F931F93F5
:10255000CF93DF938A01EC01C60FD71FE09053039E
:10256000F0905403D9800E94BE21D816190678F045
:1025700082E090E0F801918380838EEF9FEFDF91FE
:10258000CF911F910F91FF90EF90DF900895EF286A
:1025900041F482E090E0F8019183808384EF9FEF23
:1025A000EECF89818093520390E00196F8019183E8
:1025B000808390E080E0E3CFCF93DF93EA010E9435
:1025C000011E882321F00E94CB210E94021E82E07E
:1025D00090E0998388838BEF9FEFDF91CF910895EF
:1025E000CF93DF93EB0186E0FB0111928A95E9F727
:1025F0008FEF8883D6DD8983E5DD8A83E6DD9D83E1
:102600008C83DF91CF910895CF93DF93EA010E94ED
:10261000041E811109C082E090E09983888385EFD0
:102620009FEFDF91CF91089590E080E0B5DD81E0EC
:1026300090E09983888390E080E0F3CF0F931F931D
:10264000CF93DF93EA018C01060F171F0E94041E2F
:1026500081110BC082E090E09983888385EF9FEF22
:10266000DF91CF911F910F910895F8018181823000
:1026700038F082E090E0998388838EEF9FEFF0CF6F
:1026800081E090E089DD88E090E09983888390E0A4
:1026900080E0E6CFCF93DF930097D1F4EB01FB010D
:1026A000329686E0DF011D928A95E9F78FEF8883E5
:1026B00085E089831A820E94BE218B830E94BD21FE
:1026C0009D838C8381E08E838F83DF91CF910895EA
:1026D000DF91CF911ACD8EE992E1909351038093CF
:1026E00050030895809150039091510308951092E2
:1026F0005103109250030895809153039091540315
:102700000895411105C0611571058105910561F0BC
:10271000609353037093540380935503909356032F
:102720004093570381E0089580E00895FF920F934E
:102730001F93CF93DF938A01EC01C60FD71FF98057
:102740000E94BE21F816190668F082E090E0F801B8
:10275000918380838EEF9FEFDF91CF911F910F9137
:10276000FF9008956C817D818E819F814B81C9DFAF
:10277000811108C082E090E0F8019183808384EFAA
:102780009FEFEACF89818093520390E00196F80190
:102790009183808390E080E0DFCFCF93DF93EA01E5
:1027A000FC01E60FF71F6481758186819781438163
:1027B000A8DF811109C082E090E09983888384EFCB
:1027C0009FEFDF91CF91089581E090E09983888316
:1027D00090E080E0F6CFE3E5F3E040815181628153
:1027E0007381480F511D611D711D408351836283A8
:1027F00073830895CF93C09152034C2F50E06091A2
:1028000053037091540301960E94692F8C2FE3DFCC
:1028100010925203CF910895009799F48091530339
:10282000909154032FEFFB012083892B59F02091C5
:10283000520330E02F5F3F4F2417350719F4CB01C7
:10284000D9CF63CC0895009799F480915303909168
:1028500054032FEFFB012083892B59F02091520361
:1028600030E02F5F3F4F2417350719F4CB01C2CF5B
:102870004CCC089523E1AC01249FC001259F900D0D
:102880001124E0915C03F0915D03E80FF91F2381AF
:1028900034812250310981E02230310508F080E096
:1028A00008950F931F93CF93DF9300915E031091D0
:1028B0005F03D0E0C0E080E00C171D0749F491E011
:1028C000811190E0892FDF91CF911F910F91089591
:1028D0008111F5CFCE01CEDF2196EECFA0915C0322
:1028E000B0915D03109729F120915E0330915F0351
:1028F00082179307F0F453E1589F9001599F300DD0
:102900001124A20FB31FED91FC911197309789F01C
:1029100012968C91681768F48BE0689FE00DF11DAA
:10292000112480819181892B21F081E092814917C6
:1029300008F080E008959C0143E1429FC001439F5D
:10294000900D1124E0915C03F0915D03E80FF91FF5
:102950008385823091F481E090E0658176814091B9
:10296000C5015091C6016417750711F490E080E02D
:10297000892B19F081E0232B09F080E00895EF9274
:10298000FF920F931F93CF93DF93EA01FC01E60FB1
:10299000F71F02811381E480F5804F2D6E2DC80151
:1029A0009DDF81110DC082E090E0998388838EEFD6
:1029B0009FEFDF91CF911F910F91FF90EF900895BE
:1029C000C80158DF882339F082E090E0998388833A
:1029D00088EF9FEFEECF1093CC010093CB01E092F4
:1029E000CD01F092CE0181E090E09983888390E060
:1029F00080E0DFCFCF92DF92EF92FF920F931F9391
:102A0000CF93DF937A01EC01C60FD71FC090CB01A3
:102A1000D090CC010091CD011091CE01412F602FBB
:102A2000C6015CDF811110C082E090E0F701918364
:102A300080838AEF9FEFDF91CF911F910F91FF90DD
:102A4000EF90DF90CF900895C60114DF882341F006
:102A500082E090E0F7019183808388EF9FEFEBCFD6
:102A60004C815D816E817F819A8189818F3F41F0A8
:102A700082E090E0F701918380838EEF9FEFDBCFC0
:102A8000E3E1EC9D9001ED9D300D1124E0915C039C
:102A9000F0915D03E20FF31F0190F081E02D2BE038
:102AA000029FE00DF11D11240190F081E02D27E03F
:102AB000129FE00DF11D1124808391838B8182830D
:102AC00043835483658376831F5F1093CE0181E037
:102AD00090E0F7019183808390E080E0ACCFEF92AB
:102AE000FF920F931F93CF93DF937A018C01060F10
:102AF000171FC0915C03D0915D03209781F021E006
:102B000030E0F8018281938140915E0350915F0330
:102B10008417950710F030E020E0232B71F482E059
:102B200090E0F701918380838EEF9FEFDF91CF914B
:102B30001F910F91FF90EF90089543E1489F9001FE
:102B4000499F300D1124C20FD31F94DE882341F01A
:102B500082E090E0F7019183808388EF9FEFE6CFDA
:102B6000F8012481358120383105C8F6878181112B
:102B7000D6CF4181842F90E08F7E009741F082E094
:102B800090E0F7019183808386EF9FEFCFCF4F8353
:102B90003E832D83268128871986223010F421E078
:102BA000288721E030E0F70131832083BFCF88E020
:102BB00090E0FA019183808390E080E00895FB012A
:102BC0008FEF808381E181838FEF9FEF93838283F7
:102BD00080E890E095838483168217820895FB0134
:102BE0008FEF808391E0918382839383848384E356
:102BF000858381E090E0978386830895DF92EF924A
:102C0000FF920F931F93CF93DF93EA01FC01E60F2E
:102C1000F71F8181813071F082E090E09983888391
:102C20008FEF9FEFDF91CF911F910F91FF90EF906A
:102C3000DF90089582819381D4802581E680F7809A
:102C400000915C0310915D030115110539F482E0D8
:102C500090E0998388838CEF9FEFE4CF40915E03EF
:102C600050915F038417950738F082E090E09983D4
:102C700088838EEF9FEFD6CF892B39F082E090E0EA
:102C80009983888386EF9FEFCDCF8D2D8D7FB1F710
:102C90002130A1F781E0D11006C091E0E916F104DE
:102CA00031F080E004C0E2E0EE16F104D0F38823B6
:102CB00029F390E080E0DEDD882339F082E090E0C7
:102CC0009983888388EF9FEFADCFF801D38681E0A9
:102CD0008487F686E586108A178681E090E09983DE
:102CE000888390E080E09ECF4CE050E066E072E0A8
:102CF00071CA8F929F92BF92CF92DF92EF92FF9212
:102D00000F931F93CF93DF93EA01FC01E60FF71FA8
:102D1000828193810481B580E0915C03F0915D0331
:102D2000309791F482E090E0998388838CEF9FEF55
:102D3000DF91CF911F910F91FF90EF90DF90CF9097
:102D4000BF909F908F90089520915E0330915F0314
:102D50008217930738F082E090E0998388838EEFA2
:102D60009FEFE6CF23E1289F6001299FD00C11241B
:102D7000EC0DFD1DE080F180E114F10499F28281F7
:102D8000081748F78BE0089F80011124E00EF11E20
:102D9000F70180819181892B29F6BB20E1F2F7E0D0
:102DA000BF9E40011124C4010E945222F701918369
:102DB0008083E0915C03F0915D03EC0DFD1D0190BB
:102DC000F081E02DE00FF11F80819181009739F4AF
:102DD00082E090E0998388838DEF9FEFA9CFA401D3
:102DE00070E060E00E94722F80915C0390915D031F
:102DF000C80ED91EF60180819181080F191FF801B4
:102E0000B28281E090E09983888390E080E090CF67
:102E1000AF92BF92CF92DF92FF920F931F93CF9307
:102E2000DF93EA01FC01E60FF71F82819381F480B2
:102E300000915C0310915D030115110581F482E09E
:102E400090E0998388838CEF9FEFDF91CF911F9162
:102E50000F91FF90DF90CF90BF90AF900895209199
:102E60005E0330915F038217930738F082E090E0B1
:102E7000998388838EEF9FEFE8CF2FEF2F0D2C3FA4
:102E8000A8F723E1289F6001299FD00C11240C0D85
:102E90001D1DF80180819181892B89F6FBE0FF9E41
:102EA00050011124C5010E945222F80191838083B0
:102EB000E0915C03F0915D03EC0DFD1D808191813B
:102EC000009739F482E090E0998388838DEF9FEF3B
:102ED000BCCFA50170E060E00E94722FE0915C031E
:102EE000F0915D03EC0DFD1DF28281E090E099838D
:102EF000888390E080E0A9CFCF92DF92EF92FF929B
:102F00000F931F93CF93DF93860F971FFC010281CE
:102F1000138180915C0390915D03892B81F082E0A5
:102F200090E0FA01918380838CEF9FEFDF91CF9146
:102F30001F910F91FF90EF90DF90CF900895C801FF
:102F4000B0E0A0E00197A109B1098F3F9F4FA10513
:102F5000B10540F082E090E0FA01918380838EEF2A
:102F60009FEFE4CF7A0183E1809F6001819FD00CC5
:102F70001124C6010E945222EC01009741F482E024
:102F800090E0F701918380838DEF9FEFCFCFA60173
:102F900070E060E00E94722FD0935D03C0935C03E9
:102FA00010935F0300935E0390E080E02FEF3FEF0C
:102FB00041E061E070E08017910741F481E090E02A
:102FC000F7019183808390E080E0B0CF3A8B298B2A
:102FD0001B864C877E876D87188A1F8601966396AD
:102FE000EACFCF92DF92EF92FF920F931F93CF938E
:102FF000DF93EC01D12CC12C10E000E0F12CE12C8E
:103000006A8170E006171707BCF0660F771FAE01E4
:103010004F5E5F4FC7010E947F22009721F02FEF84
:103020003FEF3A8B298BDF91CF911F910F91FF904A
:10303000EF90DF90CF900895E881F981EC0DFD1DB0
:10304000438154818D859E85489F9001499F300D15
:10305000589F300D1124C90101960115110519F46D
:103060004F8144FD049661E070E00E946F21E816F4
:10307000F90608F47C010F5F1F4F8BE0C80ED11CCE
:10308000BFCFF89420915A0330915B0381E0211562
:10309000310509F080E0232B09F0789408952F92F0
:1030A0003F924F925F926F927F928F929F92AF92D8
:1030B000BF92CF92DF92EF92FF920F931F93CF9325
:1030C000DF933C01660E771EF301828193814C01F0
:1030D000B12CA12CC0915C03D0915D03209769F0C5
:1030E00021E030E060915E0370915F0386179707DF
:1030F00010F030E020E0232BD1F482E090E0FA01E0
:10310000918380838EEF9FEFDF91CF911F910F917D
:10311000FF90EF90DF90CF90BF90AF909F908F90F7
:103120007F906F905F904F903F902F900895809286
:10313000CF019092D001A092D101B092D20163E16F
:10314000689F9001699F300D1124C20FD31FF301B6
:103150008181833040F082E090E0FA0191838083A6
:1031600086EF9FEFD1CF2A012B813C81232BF1F4F5
:10317000288139819F8191FF2EC0232B09F46FC0D4
:10318000209161039A81422F490F5527551FBA019B
:1031900041E050E06138710514F050E040E0452B0B
:1031A00009F45DC02A87920F9093610381508230A9
:1031B00008F481C066DF882309F4D8C0F301818157
:1031C000813009F48DC008F47BC0823009F4C6C098
:1031D00090E080E0ADC0232B09F441C02091600352
:1031E0009A81E22FE90FFF27FF1F41E050E0ED3FFA
:1031F000F10514F050E040E0452B89F12A87920F49
:1032000090936003D3CFA081B181A20FB31F119619
:103210006C91060F111D0196295F3F4F841795078A
:1032200094F38D859E85089F1001099F300C189F8F
:10323000300C1124C114D104D1F48F8184FF17C044
:103240000E94BD21F5E02F0E311C21E0821593056F
:1032500008F420E0A701455F5F4F21110EC082E016
:1032600090E0F2019183808387EF9FEF4DCF0E9422
:10327000BD212FEF221A320AE8CF88819981E80E0A
:10328000F91EF70114830383FFEFCF1ADF0A7A01D7
:103290008A818C151D0409F00CF48CCFE881F9812A
:1032A000EE0DFF1D428150E030E020E010E000E034
:1032B00090E080E0B3CFF12CE12CD12CC12CE8CFF1
:1032C00081E090E09C838B83ECDA882309F480CF43
:1032D00081E090E00E94CC1080E40E94DA1078CF68
:1032E00089899A89019661F083E090E09C838B83C1
:1032F00082E090E00E94CC1080E40E94D41068CF5D
:103300008D819E812091C5013091C601821793075E
:10331000D1F46091C9017091CA01AE014F5E5F4F57
:103320008091C7019091C8010E9437230097E1F274
:10333000789422E030E0F20131832083892B99F0E8
:103340008DEF9FEFE1CE89288A288B2869F60297B6
:1033500058F6CE0146DE188A1F86E8CF82E090E05C
:103360009C838B8335CF90E080E0CECE82E090E0EE
:10337000F2019183808385EF9FEFC6CE8F929F925B
:10338000AF92BF92CF92DF92EF92FF920F931F9373
:10339000CF93DF93EA018C01060F171FF80181819B
:1033A000833098F082E090E09983888386EF9FEFE6
:1033B000DF91CF911F910F91FF90EF90DF90CF9011
:1033C000BF90AF909F908F90089580915C039091F3
:1033D0005D03892B61F081E090E020915E033091E4
:1033E0005F03232B11F490E080E0892B39F482E015
:1033F00090E0998388838EEF9FEFDACF42DE8823B7
:1034000009F4E0C0F8018181813009F496C0E8F048
:10341000823099F420915E0330915F03E0915C0368
:10342000F0915D0390E080E041E050E0281739071B
:1034300009F0BEC036DA811117C0789481E090E0BF
:103440009983888390E080E0B3CF20915E03309130
:103450005F03E0915C03F0915D0390E080E041E068
:1034600050E02817390741F481E090E00E94CC1029
:1034700080E40E94DA10E1CF63817481672B11F040
:103480005483438301967396ECCFE0915C03F091F3
:103490005D03E00FF11F2381348122303105D9F41F
:1034A000218932892F3F3F4FB1F4258136814091E8
:1034B000C5015091C6012417350761F5AF014F5E74
:1034C0005F4F6091C9017091CA018091C7019091CD
:1034D000C8010E943723EFEFCE1ADE0AEE0AFE0A79
:1034E0000D5E1F4F40915E0350915F0370E060E0FE
:1034F000C416D506E606F70644F5009731F278942F
:10350000892B09F49BCF82E090E0998388838DEF2B
:103510009FEF4ECFC114D104E104F104E1F6223053
:103520003105C8F6CF015DDDE0915C03F0915D03EC
:10353000E00FF11F108A1786CECF10E000E090E078
:1035400080E0C12CD12C7601CDCF0097C1F610E0E0
:1035500000E0812C912C540183E0E82EF12C1AC05C
:10356000E0915C03F0915D03E00FF11F8381948192
:10357000029749F4F482E38282E090E00E94CC104A
:1035800080E40E94D410FFEF8F1A9F0AAF0ABF0A8F
:103590000D5E1F4F80915E0390915F03B0E0A0E04D
:1035A00088169906AA06BB06DCF290E080E0A7CF59
:1035B000638174816230710511F4548343830196F1
:1035C000739634CF82E090E09983888385EF9FEFF4
:1035D000EFCE0097B9F48FEFFB0180832091CF01EC
:1035E0003091D00143E1429FC001439F900D1124CF
:1035F000E0915C03F0915D03E80FF91F8285FB0108
:10360000818308950C94851088E090E0FA019183FD
:10361000808390E080E0089510925B0310925A033B
:10362000ECE5F3E086E0DF011D928A95E9F784E797
:1036300096E190935903809358030895809158031D
:103640009091590308952F923F924F925F926F92FB
:103650007F928F929F92AF92BF92CF92DF92EF9222
:10366000FF920F931F93CF93DF93CDB7DEB7609791
:103670000FB6F894DEBF0FBECDBFF894E0915A03A9
:10368000F0915B033196F0935B03E0935A037894D7
:10369000A0915C03B0915D03BA83A983109709F4EC
:1036A000F9C1E0915E03F0915F03EF2B09F4F2C1E1
:1036B00028874B875C876D877E879A878987B88B39
:1036C000AF87312C212CF12C512C412C80915E03A1
:1036D00090915F032816390610F4FF2029F1F89421
:1036E00080915A0390915B03019790935B038093C1
:1036F0005A037894C20160960FB6F894DEBF0FBEED
:10370000CDBFDF91CF911F910F91FF90EF90DF9090
:10371000CF90BF90AF909F908F907F906F905F9071
:103720004F903F902F900895B10190E080E086D4B3
:10373000682EEF85F889878181FD3DC08381948162
:103740000397C9F5258136813C832B8389859A852A
:103750002817390781F5C101EED8782E8823A9F101
:10376000AF85B8891F968D919C915097019621E065
:103770001D964D915C918417950709F020E02F83E9
:10378000B12CA12CEF85F88982818A151B0419F0D0
:1037900014F0FF20E9F0F885FF2309F46BC1AF8531
:1037A000B88950961C921E921F97662021F0B10195
:1037B00090E080E045D4FFEF2F1A3F0A2F8538892B
:1037C0002D5E3F4F388B2F8781CFB1E0BF83D8CF9D
:1037D000BDD49E838D83E885EE23E9F0772009F43C
:1037E0003BC1AF85B8891F968D919C91892B79F04B
:1037F000BBE0BA9DC001BB9D900D1124AF85B88977
:10380000ED91FC91E80FF91F858196814ED6BFEFAF
:10381000AB1ABB0AB7CF81E0772039F0EF85F88982
:1038200027853089232B09F080E0F82EE12CA114A4
:10383000B10439F4AF85B8891796EC90E4FAEE2418
:10384000E0F8BBE0BA9D6001BB9DD00C1124882339
:1038500009F423C1AF85B889ED91FC911197EC0D66
:10386000FD1D438154811D962D913C91429FC001C5
:10387000439F900D529F900D1124E1105CC0019662
:103880009087878361E070E08781908528D5EF85F8
:10389000F88921893289008111810C0D1D1D2F3F6E
:1038A000320709F44AC0BC01C90122D7D8011696D3
:1038B0009C938E931597AF85B889ED91FC911197E4
:1038C000EC0DFD1D058116810115110509F4CDC012
:1038D000ED81FE810E0F1F1F1A968C918A0DD80163
:1038E0008C93E1102FC00F5F1F4FAF85B889ED910A
:1038F000FC91EC0DFD1D12870187AF85B889ED9114
:10390000FC91EC0DFD1D85819681892B09F4A4C0E5
:103910008091C5019091C6012B813C812817390700
:1039200009F465C0772011F001851285912C812C56
:103930001A8219824AC00596A3CFB4D5F80196839E
:103940008583B9CF8B859C85AD85BE85F801818344
:103950009283A383B4830B5F1F4FC7CFE080F180B6
:10396000E80CF91CD70113966D917C9114978C91FA
:103970008F3F09F473C0E1E0F0E002C0EE0FFF1FDB
:103980008A95E2F7CF01092E000CAA0BBB0BFB01B5
:10399000408151816281738184239523A623B723BB
:1039A00021E0892B8A2B8B2B09F420E0D8012C9362
:1039B000D70111968C91080F111DE981FA8131967A
:1039C000FA83E983F7E08F0E911CAF85B889ED91FA
:1039D000FC91EC0DFD1D828129813A81821713062D
:1039E00011F00CF0BBCF772011F0128701873F81D7
:1039F000332391F1AF85B889ED91FC91EC0DFD1D5C
:103A000061E070E0878190856AD4AF85B889ED91D7
:103A1000FC91EC0DFD1DE780F08445815681E1E0CD
:103A2000F0E0662011F0F0E0E0E00D811E819C01E5
:103A3000B101882799278E1B9F0B8BD32C01892BD3
:103A400059F0EF85F88980819181C80ED91ED60181
:103A500015968D919C9129D5F12CD9CEF7014181F4
:103A600050E0C8010E94692FA3CF86EF482E55244D
:103A70005A94CDCEEF85F889878590890196908BF1
:103A80008787258536858217930709F08ECE108AA1
:103A900017868BCE512C412C22CE10E000E02DCF8A
:103AA0002F923F924F925F926F927F928F929F924E
:103AB000AF92BF92CF92DF92EF92FF920F931F933C
:103AC000CF93DF9380915C0390915D0310E000E061
:103AD000892BA9F0D6DA0AEF1FEF882381F0209016
:103AE0005E0330905F03C0915C03D0915D03D12CE5
:103AF000C12C10E000E02C143D04A9F47894C80116
:103B0000DF91CF911F910F91FF90EF90DF90CF90B9
:103B1000BF90AF909F908F907F906F905F904F90ED
:103B20003F902F900895C6010E949B14882309F1AD
:103B30008B819C810397E9F48F859889892BC9F043
:103B4000B60190E080E07AD221E030E0882311F0E5
:103B500030E020E044245524421A530AB12CA12C11
:103B6000912C812C8A818815190409F038F4188A5F
:103B70001F864FEFC41AD40A6396BDCFE881F9813E
:103B8000EA0DFB1D85819681892BA1F161E070E032
:103B900087819085A4D33C01D9D28C01E881F98139
:103BA000EA0DFB1D8185928525813681200F311F0D
:103BB000AC01421B530B9A0147815085421B530BAA
:103BC00070E060E00E94722FE881F981EA0DFB1D30
:103BD000E780F084458156819301B601C201B9D2D4
:103BE0008C01892B39F0E881F981EA0DFB1D858173
:103BF00096815BD45FEF851A950A8BE0A80EB11C05
:103C0000B1CF3FCA789408952F923F924F925F921E
:103C10006F927F929F92AF92BF92CF92DF92EF927C
:103C2000FF920F931F93CF93DF9300D000D000D06B
:103C3000CDB7DEB700915C0310915D039924939496
:103C40000115110509F43EC0A0905E03B0905F031A
:103C500018DA982E8823B1F110925D0310925C035C
:103C600010925F0310925E03109260031092610342
:103C70008FEF9FEFDC018093CF019093D001A09351
:103C8000D101B093D20178947AD31E830D83C12CD5
:103C9000D12C7601C501B0E0A0E089839A83AB8383
:103CA000BC8322242A94322C89819A81AB81BC81E5
:103CB000C816D906EA06FB06F4F0C801F6D380E47C
:103CC0000E94DA10892D26960FB6F894DEBF0FBE3B
:103CD000CDBFDF91CF911F910F91FF90EF90DF90BB
:103CE000CF90BF90AF909F907F906F905F904F90DC
:103CF0003F902F900895AD81BE8115968D919C9136
:103D000016972091C5013091C60182179307D1F40F
:103D100051968D919C91DAD4ED81FE8180819181C3
:103D2000B12CA12C412C512C3201892B89F5BFEFEC
:103D3000CB1ADB0AEB0AFB0AED81FE817396FE8348
:103D4000ED83B2CFC114D104E104F10429F7029745
:103D500018F7ED81FE81818992898F3F980709F0DC
:103D600057D4AD81BE8152963C922E925197D4CFBA
:103D70008A0D9B1DDC018D919C91009709F095D3D4
:103D8000BFEF4B1A5B0A6B0A7B0AEBE0AE0EB11C6D
:103D9000AD81BE818D919C91119712964C9150E00E
:103DA00070E060E044165506660677060CF37DD396
:103DB000BECFCF93DF93EA0127DF811109C082E0F4
:103DC00090E09983888385EF9FEFDF91CF910895ED
:103DD00081E090E00E94CC1081E090E0998388839C
:103DE00090E080E0F2CF10DF109259031092580358
:103DF000089542E050E06EE472E00C94EA10FF9205
:103E00000F931F93CF93DF938A01EC01C60FD71F47
:103E1000F980B4D20897F816190671F068F082E0BC
:103E200090E0F801918380838EEF9FEFDF91CF9137
:103E30001F910F91FF9008956C817D818E819F81EC
:103E40004B810E948113811108C082E090E0F8014B
:103E50009183808384EF9FEFE9CFF9800E947C13E8
:103E60004F2D50E0BE01685F7F4F0E94692F89810E
:103E70000E94EB1381E090E0F8019183808390E051
:103E800080E0D4CFDF92EF92FF920F931F93CF93F6
:103E9000DF938A01EC01C60FD71F0E947C137C01BF
:103EA000D9806CD2DD2059F0029721E030E0D8169D
:103EB000190619F010F030E020E0232B79F482E0AD
:103EC00090E0F801918380838EEF9FEFDF91CF9197
:103ED0001F910F91FF90EF90DF900895EF2841F42C
:103EE00082E090E0F8019183808384EF9FEFEECF32
:103EF000F9800E947C134F2D50E0BE016E5F7F4F12
:103F00000E94692F89810E94EB1381E090E0F80103
:103F10009183808390E080E0D9CF89EF9EE19093F8
:103F20006303809362030895809162039091630319
:103F300008950895FC01118210829383828308956D
:103F4000DB011D921C92DC011296ED91FC911397FE
:103F50007183608313967C936E9312970895FC018E
:103F600080819181DB018D939C93A081B181109719
:103F700041F08D919C9191838083892B11F4F3837F
:103F8000E2830895FC0180819181DB018D939C93F4
:103F9000892B11F473836283718360830895FC011C
:103FA00011821082938382830895CF93DF9300D090
:103FB000CDB7DEB71A821982F894BE016F5F7F4FCA
:103FC00089E693E0CCDF89819A81009709F06DD270
:103FD00089819A81892B89F7BE016F5F7F4F8DE6BA
:103FE00093E0BDDF89819A81009709F05ED28981D3
:103FF0009A81892B89F778940F900F90DF91CF9158
:104000000895CF93DF9300D0CDB7DEB71A8219821F
:10401000F894BE016F5F7F4F85E693E0A0DF898152
:104020009A81009709F041D289819A81892B89F779
:1040300078940F900F90DF91CF91089581E00895CB
:1040400090E080E00895EF92FF920F931F93CF933B
:10405000DF9300D0CDB7DEB71A8219828091640356
:1040600007EF1FEF8823A1F1F894BE016F5F7F4F28
:104070008DE693E074DF789489819A81EE24E3944D
:10408000F12C892B51F4F894BE016F5F7F4F89E6C4
:1040900093E065DF7894F12CE12C89819A810EEF11
:1040A0001FEF0097A9F0FC014281538164E070E0AA
:1040B0000DD58C01892B61F0F89469817A81C70153
:1040C000880F991F880F991F87599C4F5BDF789441
:1040D000C8010F900F90DF91CF911F910F91FF902A
:1040E000EF9008950F931F93CF93DF9300D000D0EC
:1040F000CDB7DEB71C821B821A82198280916403BD
:1041000007EF1FEF8823C1F0AE014D5F5F4F64E002
:1041100070E0CE0101964DD58C01892B69F4E981BF
:10412000FA818B819C8193838283F89469817A815F
:1041300085E693E005DF7894C8010F900F900F900B
:104140000F90DF91CF911F910F91089552D6049651
:1041500008958F929F92AF92BF92CF92DF92EF928B
:10416000FF920F931F93CF93DF9300D0CDB7DEB7AD
:104170001A821982BC016F5F7F4F6330710598F01E
:10418000AA24AA94BA2CC5010F900F90DF91CF9169
:104190001F910F91FF90EF90DF90CF90BF90AF9065
:1041A0009F908F9008954115510551F34801590191
:1041B0008A016C01CBDF8815990511F7E114F10430
:1041C000F9F28E0D9F1DA816B906D0F280916403F6
:1041D0008823F1F0F894B501645071099701AE019C
:1041E0004F5F5F4FC801049679D55C01892B71F44C
:1041F00089819A81F80193838283C601880F991F70
:10420000880F991FB80187599C4F9ADE7894BBCFCD
:1042100087EFA82EBB24BA94B6CFAF92BF92CF92AD
:10422000DF92EF92FF920F931F93CF93DF9300D013
:10423000CDB7DEB71A821982892B09F047C0611504
:10424000710509F443C04115510509F43FC021151A
:10425000310509F43BC001151105C1F180916403DA
:104260008823B9F179016A015B01F894BE016F5F9F
:104270007F4F85E693E073DE789489819A81009779
:1042800059F1DC0112966D917C91A80104963FD5FD
:104290008C01E981FA81D501ED93FC9382819381B0
:1042A0000496F6019183808351DFD7018D939C930F
:1042B000C8010F900F90DF91CF911F910F91FF9048
:1042C000EF90DF90CF90BF90AF9008950FEF1FEF6A
:1042D000EFCF07EF1FEFECCF0EEF1FEFE9CFCF933C
:1042E000DF93EC01672B71F48DD58C179D0760F07F
:1042F00080D52496C80FD91F7FD58C0F9D1FDF91C5
:10430000CF9108957CD5F1CF90E080E0F8CF0F9366
:104310001F93CF93DF932091640321112BC08B0156
:10432000EC0189E693E006DE8DE693E003DE85E6A8
:1043300093E000DE97D00097C1F464D570E060E0B0
:10434000CEDF43ED51E062E070E0D9D0009769F430
:104350008091D3019091D40167D5B801CE019CD34F
:10436000009719F421E020936403DF91CF911F910E
:104370000F91089584EF9FEFF8CF41C543C5CF93C8
:10438000DF9343D5EC01892B11F40FDE3ADECE0129
:10439000DF91CF910895CF93DF9337D5EC01892B2F
:1043A00009F403DECE01DF91CF9108958091D3010E
:1043B0009091D4010895CF93DF9380916403D0E06E
:1043C000C0E08823D1F035D5EC01892BB1F4EDDDC7
:1043D00018DE8091D3019091D4011AD1CED1EC0195
:1043E000892B59F489E693E0DADD8DE693E0D7DD99
:1043F00085E693E0D4DD10926403CE01DF91CF9186
:104400000895EF92FF920F931F93CF93DF93EC01E8
:104410007A018B010F5F1F4F0E9DA0010F9D500D64
:104420001E9D500D112470E060E00E94722F90E0FC
:1044300080E0F0E0E0E02FEFE816F90639F4DF91D4
:10444000CF911F910F91FF90EF9008951A821982DA
:104450002883309711F0D283C1830196FE01C00FEB
:10446000D11FEACFE3E7F3E085E8DF011D928A95EB
:10447000E9F71092720310927103EFEFF3E01182EB
:10448000108215821482138212821782168211867C
:104490001086EBEFF3E0118210821382128290E01B
:1044A00080E0089590E080E00895009739F1DC0104
:1044B0008E91813041F4E091FD03F091FE0330973D
:1044C000E9F0CD010994811119C0F8948FEF8C9314
:1044D0008091FF039091000412969C938E93119704
:1044E000B0930004A093FF03809101049091020413
:1044F0000196909302048093010478940895EF92BA
:10450000FF920F931F93CF93DF934115510509F449
:104510007CC0009709F479C06115710509F475C074
:10452000EA01AB01BC01F8948091FF039091000473
:10453000892B19F586E793E08C7F6D5F7F4F6C7F49
:104540009B012F5F3F4F249F8001259F100D349FBB
:10455000100D112420910704309108042115310514
:1045600009F03CC0E0907103F090720322E830E063
:104570002E193F092017310730F478942FEF3FEFC1
:1045800086EF9FEF22C0909300048093FF03509327
:104590000404409303045093020440930104709375
:1045A0000604609305041093080400930704009721
:1045B00009F027DF0E0D1F1D109372030093710386
:1045C000789430E020E090E080E039832883DF9128
:1045D000CF911F910F91FF90EF9008952017310711
:1045E00060F2909300048093FF035093040440937F
:1045F00003045093020440930104709306046093F3
:1046000005040097E9F2FDDEDBCF8FEF9FEFDFCFF0
:10461000892B51F5F894109200041092FF03109228
:1046200004041092030410920204109201041092E8
:104630000604109205042091070430910804211506
:10464000310571F08091710390917203821B930B7D
:1046500090937203809371031092080410920704E0
:10466000789490E080E008958FEF9FEF08954115D2
:10467000510549F1009739F16115710521F1F8945F
:104680002091FB033091FC03232BB9F42091FD030F
:104690003091FE03232B89F49093FC038093FB035A
:1046A0007093FE036093FD03789421E030E090E086
:1046B00080E0FA0131832083089578942FEF3FEF53
:1046C00086EF9FEFF6CF8FEF9FEF0895019769F484
:1046D000F8941092FC031092FB031092FE031092C8
:1046E000FD03789490E080E008958FEF9FEF0895A8
:1046F0006115710519F4F0E0E0E011C08130910519
:1047000081F4E091FB03F091FC033097A1F3CB011E
:1047100001960995009779F3FC0181E08193CF011F
:104720000895892B41F78091FF0390910004892B14
:1047300011F3809105049091060486179707D8F22B
:10474000F8948091010490910204009731F0E09177
:10475000FF03F0910004309711F47894CCCF2181BD
:104760003281309300042093FF0301979093020459
:104770008093010411927894D2CFE8EFF3E083E0C4
:10478000DF011D928A95E9F7E3E7F3E085E8DF01B1
:104790001D928A95E9F71092720310927103EFEF60
:1047A000F3E08AE0DF011D928A95E9F7EBEFF3E091
:1047B00084E0DF011D928A95E9F790E080E008959A
:1047C000CF93DF93C091D501D091D601CF3FDC07C5
:1047D00059F4C1D39093D6018093D50197FF09C0B6
:1047E000D093D601C093D50184EF9FEFDF91CF9195
:1047F000089590E080E0FACF8230910528F480930C
:10480000090490E080E008958FEF9FEF08954F92A4
:104810005F926F927F92AF92BF92CF92DF92EF92B0
:10482000FF920F931F93CF93DF9300D0CDB7DEB7E6
:104830001A821982009709F478C06115710509F48C
:1048400074C02091D5013091D60107EF1FEF2F3FA3
:104850003F4F09F444C06B015C01412C512C3201E3
:10486000F12CE12C10E000E09E012F5F3F4FA601EC
:104870004E195F09B5016E0D7F1D8091D501909194
:10488000D601C8D3892B09F04AC089819A81009743
:1048900041F4E114F10429F420910904222309F4DC
:1048A00041C0E80EF91EEC14FD04C8F480E8481677
:1048B00084E858068EE16806710418F560E070E03F
:1048C000CB01BFD72AE0420E511C611C711C0A3F6C
:1048D0004FEF140721F0043F8FEF1807A1F4C80130
:1048E0000F900F90DF91CF911F910F91FF90EF905C
:1048F000DF90CF90BF90AF907F906F905F904F9080
:10490000089501EF1FEF81E090E0013F2FEF1207C4
:1049100011F090E080E0892B09F4A6CFE0CF04EFFE
:104920001FEFDDCF0AEF1FEFDACF0FEF1FEFD7CF6B
:104930004F925F926F927F92AF92BF92CF92DF922F
:10494000EF92FF920F931F93CF93DF9300D0CDB7D9
:10495000DEB71A821982009709F478C061157105D3
:1049600009F474C02091D5013091D60107EF1FEFF3
:104970002F3F3F4F09F444C06B015C01412C512C87
:104980003201F12CE12C10E000E09E012F5F3F4F3F
:10499000A6014E195F09B5016E0D7F1D8091D501ED
:1049A0009091D601EDD2892B09F04AC089819A8174
:1049B000009741F4E114F10429F420910904222321
:1049C00009F441C0E80EF91EEC14FD04C8F480E8B7
:1049D000481686E9580688E96806710418F560E00B
:1049E00070E0CB012ED72AE0420E511C611C711CD5
:1049F0000E3F4FEF140721F0043F8FEF1807A1F48B
:104A0000C8010F900F90DF91CF911F910F91FF90F0
:104A1000EF90DF90CF90BF90AF907F906F905F90BE
:104A20004F90089502EF1FEF81E090E0023F2FEFDB
:104A3000120711F090E080E0892B09F4A6CFE0CFB7
:104A400004EF1FEFDDCF0EEF1FEFDACF0FEF1FEFF9
:104A5000D7CF8091D5019091D6018F3F980749F02B
:104A600072D2892B49F48FEF9FEF9093D6018093F8
:104A7000D50190E080E0089584EF9FEF0895FC0158
:104A8000680F791F90E080E0E617F70709F40895B2
:104A90002191820F911DF8CF20910A04211113C09A
:104AA0008FDE009791F41092100410920F04109270
:104AB0000E0410920D0410920C0410920B0421E0CD
:104AC00020930A04089584EF9FEF0895AF92BF9258
:104AD000CF92DF92EF92FF920F931F93CF93DF93CA
:104AE000009709F460C04630510508F45CC020917D
:104AF0000A04C7EFDFEF222309F449C08C01060F37
:104B0000171FF801C080D180C114D10409F44EC030
:104B100096012A5F3F4F4217530708F447C07C01B4
:104B200080910F049091100493838283B6016C5F8F
:104B30007F4F5801A60EB71EC801A1DFF501918372
:104B4000808364E070E0C80162DEEC01892BF9F437
:104B500081E090E051DEB601C801049658DEEC0118
:104B6000892B91F462E070E0C50151DEEC01892BE4
:104B700059F4C7019ADC80910F04909110040196BA
:104B80009093100480930F0490E080E035DECE0116
:104B9000DF91CF911F910F91FF90EF90DF90CF9019
:104BA000BF90AF900895CFEFDFEFF1CFC9EFDFEF08
:104BB000EECF6F927F928F929F92AF92BF92CF92E1
:104BC000DF92EF92FF920F931F93CF93DF9300D06A
:104BD00000D0CDB7DEB7009709F47AC04115510572
:104BE00009F476C020910A0407EF1FEF222309F48D
:104BF0004DC03A017B015C0164E070E0CE0101969A
:104C000097DE8C01892B09F041C009811A810115B9
:104C1000110509F45AC0480186E0880E911CB701BD
:104C2000680D791D8091D7019091D80161DD6C01EB
:104C3000009709F450C0A70170E060E00E94722F55
:104C400089819A81AB81BC81EC0CFD1CF7018193B9
:104C50009193A193B1937F0181E090E0CDDDB80104
:104C6000C70166DE892B31F562E070E0C701800F75
:104C7000911F5EDE8C01892BE9F490E080E0BCDDC1
:104C8000F501D182C082F30191828082C8010F9028
:104C90000F900F900F90DF91CF911F910F91FF9088
:104CA000EF90DF90CF90BF90AF909F908F907F90CC
:104CB0006F90089590E080E09FDDF50111821082F1
:104CC000F30111821082C601F0DB09EF1FEFDECF86
:104CD0000FEF1FEFDBCF06EF1FEFD8CF0097A1F04C
:104CE0004115510589F02115310571F0F90136960C
:104CF0006E177F0748F0DC012D933C93DA01ED93AA
:104D0000FC9390E080E008958FEF9FEF0895AF92BD
:104D1000BF92CF92DF92EF92FF920F931F93CF93A8
:104D2000DF93009709F45FC04115510509F45BC09A
:104D30006530710508F457C020910A04C7EFDFEF12
:104D4000222391F1DC01CD90DC9011971296ED9128
:104D5000FC9196012A5F3F4FC9EFDFEF2617370717
:104D600019F5C0910B04D0910C04209749F521E06E
:104D700030E030930C0420930B047A018C01F09303
:104D80000E04E0930D045601B4E0AB0EB11CB50166
:104D900076DE0A0D1B1DF8012081318182179307F1
:104DA00029F5D701CD92DC92CE01DF91CF911F91F1
:104DB0000F91FF90EF90DF90CF90BF90AF9008954C
:104DC00020910D0430910E042F5F3F4FCCEFDFEFA9
:104DD000E217F30790F2CBEFDFEF2E173F0768F2F1
:104DE000D0E0C0E0CACFCFEFDFEFDECFC3EFDFEF21
:104DF000DBCF84E090E0089582E090E008958CEFAE
:104E00009FEF089580E290E00895109210041092B0
:104E10000F0410920E0410920D0410920C041092C4
:104E20000B0490E080E008959093D8018093D7011F
:104E3000089580910A04882391F00BDE009789F48D
:104E40001092100410920F0410920E0410920D0490
:104E500010920C0410920B0410920A04089590E032
:104E600080E00895009749F06115710531F0FC016B
:104E700011821082FB01118210820895F3CF26E087
:104E800030E040E855E260E070E090E080E000C093
:104E9000892B19F481E294E0C9C608951F920F92FC
:104EA0000FB60F9211242F933F934F935F936F93FD
:104EB0007F938F939F93AF93BF93EF93FF9386E07E
:104EC0009FEF9093850080938400B7D0FF91EF917E
:104ED000BF91AF919F918F917F916F915F914F9112
:104EE0003F912F910F900FBE0F901F90189586E065
:104EF0009FEF9093850080938400AFE6B0E08C91A3
:104F00008E7F8C93E0E8F0E080818C7F8083E1E805
:104F1000F0E08081877E80838081836080838081D0
:104F20008B7F80838C9181608C930895EFE6F0E015
:104F3000808190819E7F90838170089581E00895A3
:104F400010921104089568EE73E080E090E079D447
:104F500090E080E0089526E030E040E052EC61E02F
:104F600070E090E080E094DF81E294E095D5892BB9
:104F700021F081E294E0AAD5F7CF90E080E0089597
:104F8000CF92DF92EF92FF920F931F93CF93DF9315
:104F90006B017A01E9011982188281E294E07CD5E3
:104FA000892B69F18601CC24C39482E0D82E8091AC
:104FB0001104811110C081E294E088D50297B9F7FD
:104FC000C0921104F801D1928F01888199810196D4
:104FD00099838883ECCF888199818E159F0578F419
:104FE00081E294E073D58F3F9807A9F3F80181938C
:104FF0008F0188819981019699838883ECCF90E015
:1050000080E0DF91CF911F910F91FF90EF90DF90A3
:10501000CF9008950F931F93CF93DF93EA018901F7
:1050200081E294E0E7D6F801D183C08390E080E08C
:10503000DF91CF911F910F910895CF92DF92EF9260
:10504000FF920F931F93CF93DF9300D0CDB7DEB7BE
:105050008091140491E0980F90931404882399F0A0
:1050600021E030E030931704209316048093140459
:105070000F900F90DF91CF911F910F91FF90EF90C4
:10508000DF90CF900895CE0101960E94410278945E
:105090000091DA011091DB01F801C28CD38CE48C11
:1050A000F58C0E94DC02B701A60190E080E00E942E
:1050B000B001F894809114048150809314048A8183
:1050C000882389F08091130491E0980F9093130442
:1050D000882349F021E030E0309317042093160430
:1050E00080931304C5CF80911304882309F4C0CFA3
:1050F000809115048111BCCF81E0809315047894D0
:10510000F80122A133A144A155A1A4E6B0E0C8D67C
:105110006B017C010E941103B701A60181E090E0C0
:105120000E94B001F894809113048150809313047D
:10513000809115048150809315049ACF0F931F938B
:10514000CF93DF931092820510928105B0D397DE42
:10515000C091DA01D091DB01198218826FEF7FEFE5
:10516000CB010E94360270E060E090E080E00E9497
:10517000B100009709F03AC00E942008F894789492
:10518000BE01685D7F4F8A819B810E94B400892B9C
:1051900059F46FEF7FEFCB010E9445010E9430026E
:1051A000882311F081E08CA7F894A1DE0E943302DD
:1051B000882311F080E008C00E9430028111FACFEC
:1051C00081E09CA59111F6CF8093810578940E948F
:1051D000C7108C0178948091810581110CC00E94C8
:1051E000620A0E941402F89490E080E0DF91CF916F
:1051F0001F910F9108950E9411020E94330288238B
:10520000D9F081E0809382059091820581E091112F
:1052100080E08093810580918205811187DE0130D5
:10522000110529F40E94C710892B09F489DE0E9418
:10523000C7108C0183DECFCF0E9430028111E1CFF5
:1052400081E09CA59111DECF80E0DCCF5058BB27D8
:10525000AA270ED082C14BD130F050D120F031F4CA
:105260009F3F11F41EF440C10EF4E095E7FB0DC121
:10527000E92F95D180F3BA17620773078407950762
:1052800018F071F49EF5C4C10EF4E0950B2EBA2F00
:10529000A02D0B01B90190010C01CA01A00111243C
:1052A000FF27591B99F0593F50F4503E68F11A16E8
:1052B000F040A22F232F342F4427585FF3CF469579
:1052C00037952795A795F0405395C9F77EF41F169B
:1052D000BA0B620B730B840BBAF09150A1F0FF0F65
:1052E000BB1F661F771F881FC2F70EC0BA0F621F51
:1052F000731F841F48F4879577956795B795F79541
:105300009E3F08F0B3CF9395880F08F09927EE0FD2
:1053100097958795089565D180F09F3740F4911156
:105320000EF477C160E070E080E89FE3089526F016
:105330001B16611D711D811DAEC0C8C082D008F44E
:1053400081E00895E3D0E39519C131D188F09F57EA
:1053500090F0B92F9927B751A0F0D1F0660F771FC1
:10536000881F991F1AF0BA95C9F712C0B13081F0A1
:105370004FD1B1E008954CC1672F782F8827B85FCF
:1053800039F0B93FCCF3869577956795B395D9F702
:105390003EF490958095709561957F4F8F4F9F4F0C
:1053A0000895E89409C097FB3EF490958095709518
:1053B00061957F4F8F4F9F4F9923A9F0F92F96E961
:1053C000BB279395F695879577956795B795F111D6
:1053D000F8CFFAF4BB0F11F460FF1BC06F5F7F4F73
:1053E0008F4F9F4F16C0882311F096E911C0772385
:1053F00021F09EE8872F762F05C0662371F096E88E
:10540000862F70E060E02AF09A95660F771F881F5C
:10541000DAF7880F9695879597F90895E2D080F08E
:105420009F3740F491110EF0F4C060E070E080E826
:105430009FEB089526F41B16611D711D811D2BC065
:1054400045C0990F0008550FAA0BE0E8FEEF1616AD
:105450001706E807F907C0F012161306E407F50768
:1054600098F0621B730B840B950B39F40A2661F0DC
:10547000232B242B252B21F408950A2609F4A1407F
:10548000A6958FEF811D811D089597F99F6780E88C
:1054900070E060E00895882371F4772321F098503C
:1054A000872B762F07C0662311F499270DC09051E2
:1054B000862B70E060E02AF09A95660F771F881FB0
:1054C000DAF7880F9695879597F908959F3F31F001
:1054D000915020F4879577956795B795880F911D22
:1054E0009695879597F908959FEF80EC089500248D
:1054F0000A941616170618060906089500240A9439
:1055000012161306140605060895EECF50D0E8F3E0
:10551000E894E0E0BB279F57F0F02AED3FE049EC2C
:1055200006C0EE0FBB0F661F771F881F28F0B23A28
:1055300062077307840728F0B25A620B730B840B5F
:10554000E3959A9572F7803830F49A95BB0F661FF1
:10555000771F881FD2F79048BBCF092E0394000C09
:1055600011F4882352F0BB0F40F4BF2B11F460FFFD
:1055700004C06F5F7F4F8F4F9F4F0895EF93E0FF01
:1055800006C0A2EA2AED3FE049EC5FEB71DEE5DF01
:105590000F90039401FC9058E8E6F0E0ADC057FD91
:1055A0009058440F551F59F05F3F71F04795880F91
:1055B00097FB991F61F09F3F79F087950895121628
:1055C00013061406551FF2CF4695F1DF08C01616D4
:1055D00017061806991FF1CF869571056105089485
:1055E0000895E5DFA0F0BEE7B91788F4BB279F3820
:1055F00060F41616B11D672F782F8827985FF7CFB4
:10560000869577956795B11D93959639C8F308955A
:10561000E894BB2766277727CB0197F9089511DF18
:1056200008F48FEF08950BD098CF61DF28F066DF84
:1056300018F0952309F029CF57CF1124EACFAFDF17
:10564000A0F3959FD1F3950F50E0551F629FF00195
:10565000729FBB27F00DB11D639FAA27F00DB11DEE
:10566000AA1F649F6627B00DA11D661F829F222777
:10567000B00DA11D621F739FB00DA11D621F839FFE
:10568000A00D611D221F749F3327A00D611D231FD4
:10569000849F600D211D822F762F6A2F11249F5722
:1056A00050408AF0E1F088234AF0EE0FFF1FBB1F45
:1056B000661F771F881F91505040A9F79E3F5105E4
:1056C00070F0E3CEA6CF5F3FECF3983EDCF3869517
:1056D00077956795B795F795E7959F5FC1F7FE2B8F
:1056E000880F911D9695879597F908959F930EDFE2
:1056F0000F9007FCEE5F42CF9F938F937F936F9342
:10570000FF93EF939B01AC018EDFEF91FF9105D0EA
:105710002F913F914F915F9186CFDF93CF931F934E
:105720000F93FF92EF92DF927B018C01689405C08A
:10573000DA2EEF0184DFFE01E894A59125913591E1
:1057400045915591AEF3EF0193DDFE019701A8015C
:10575000DA9479F7DF90EF90FF900F911F91CF913E
:10576000DF9108951F920F920FB60F9211242F937D
:105770003F938F939F93AF93BF9380911904909120
:105780001A04A0911B04B0911C043091180423E06A
:10579000230F2D3758F50196A11DB11D2093180434
:1057A0008093190490931A04A0931B04B0931C04D3
:1057B00080911D0490911E04A0911F04B0912004BB
:1057C0000196A11DB11D80931D0490931E04A0930A
:1057D0001F04B0932004BF91AF919F918F913F918F
:1057E0002F910F900FBE0F901F90189526E8230F52
:1057F0000296A11DB11DD2CF3FB7F89480911D0430
:1058000090911E04A0911F04B091200426B5A89B7E
:1058100005C02F3F19F00196A11DB11D3FBFBA2F42
:10582000A92F982F8827BC01CD01620F711D811D02
:10583000911D42E0660F771F881F991F4A95D1F787
:1058400008958F929F92AF92BF92CF92DF92EF9284
:10585000FF926B017C01D0DF4B015C01C114D104CC
:10586000E104F104D9F0F3D2C7DF681979098A0994
:105870009B09683E73408105910580F321E0C21ABF
:10588000D108E108F10888EE880E83E0981EA11C7B
:10589000B11CC114D104E104F10431F7FF90EF9081
:1058A000DF90CF90BF90AF909F908F9008957894A5
:1058B00084B5826084BD84B5816084BD85B5826015
:1058C00085BD85B5816085BDEEE6F0E080818160B3
:1058D0008083E1E8F0E010828081826080838081B3
:1058E00081608083E0E8F0E0808181608083E1EB8B
:1058F000F0E0808184608083E0EBF0E08081816073
:105900008083EAE7F0E08081846080838081826028
:105910008083808181608083808180688083109211
:10592000C1000895833081F028F4813099F08230ED
:10593000A9F008958730A9F08830C9F08430B1F417
:10594000809180008F7D03C0809180008F7780934D
:105950008000089584B58F7784BD089584B58F7DC8
:10596000FBCF8091B0008F778093B0000895809135
:10597000B0008F7DF9CFCF93DF9390E0FC01E65626
:10598000FF4F249182559F4FFC0184918823C9F0D9
:1059900090E0880F991FFC01EA52FF4FA591B49146
:1059A000FC01E453FF4FC591D49161110DC09FB725
:1059B000F8948C91209582238C93888128232883C6
:1059C0009FBFDF91CF910895623051F49FB7F89453
:1059D0003C91822F809583238C93E8812E2BEFCFEF
:1059E0008FB7F894EC912E2B2C938FBFEACF1F9397
:1059F000CF93DF93282F30E0F901EA57FF4F8491CE
:105A0000F901E656FF4FD491F901E255FF4FC491D9
:105A1000CC23A1F0162F811185DFEC2FF0E0EE0FE3
:105A2000FF1FE453FF4FA591B4918FB7F894EC9109
:105A3000111108C0D095DE23DC938FBFDF91CF9189
:105A40001F910895DE2BF8CFCF93DF93282F30E0FE
:105A5000F901EA57FF4F8491F901E656FF4FD491BF
:105A6000F901E255FF4FC491CC2399F081115ADF1F
:105A7000EC2FF0E0EE0FFF1FEE53FF4FA591B49116
:105A8000EC91ED2381E090E009F480E0DF91CF918B
:105A9000089580E090E0FACFFC01918D228D892F4E
:105AA00090E0805C9F4F821B91098F739927089526
:105AB000FC01918D828D981731F0828DE80FF11DD8
:105AC000858D90E008958FEF9FEF0895FC01918DF3
:105AD000828D981761F0A28DAE0FBF2FB11D5D961C
