:1000000061C0000087C0000085C0000083C0000000
:1000100081C000007FC000007DC000007BC00000E8
:1000200079C0000077C0000075C0000073C00000F8
:1000300071C000000C9405226DC000006BC0000070
:100040000C945F2567C000000C9423280C9455285D
:1000500061C000005FC000005DC000005BC0000028
:1000600059C0000057C00000000000080002010055
:100070000003040700000000000000000102040863
:100080001020408001020408102001020408102002
:10009000040404040404040402020202020203032E
:1000A00003030303000000002300260029000000D2
:1000B0000000250028002B0000000000240027007D
:1000C0002A007A2811241FBECFEFD8E0DEBFCDBFB3
:1000D00011E0A0E0B1E0E0E5F2E502C005900D928C
:1000E000AE3CB107D9F724E0AEECB1E001C01D92FF
:1000F000AD3FB207E1F710E0C2E6D0E004C02197BF
:10010000FE010E94F728C136D107C9F70E94552386
:100110000C94262975CF611102C00C9468266130B9
:10012000E1F362E0FACF662319F061E00C94A426B3
:1001300060E0FCCF0E94D12621E0019709F020E089
:10014000822F089590E080E008950F931F93009709
:1001500009F487C06115710509F483C0009112018B
:100160001091130120911401309115010E3F1F4F82
:100170002F4F3F4F09F066C04FEF5FEFBA0140933A
:100180001201509313016093140170931501409173
:100190001201509113016091140170911501DC015D
:1001A0001296ED91FC9180819181A281B38180931F
:1001B000420290934302A0934402B093450284818B
:1001C0009581A681B78180933E0290933F02A093D0
:1001D0004002B093410280859185A285B3858093CA
:1001E0003A0290933B02A0933C02B0933D02848577
:1001F0009585A685B7858093360290933702A093A4
:100200003802B093390210923202109233021092E7
:1002100034021092350209D58AE396E09093CF011B
:100220008093CE019093D1018093D001EDD30097BC
:1002300031F421E030E030934702209346021F91D1
:100240000F91089500911201109113012091140152
:1002500030911501DB010D931D932D933C93139762
:1002600096CF8FEF9FEFEBCF8F929F92AF92BF927F
:10027000CF92DF92EF92FF921F93CF93DF934B01C8
:100280005C011091490282E090E0909347028093D4
:10029000460281149104A104B10441F48091490201
:1002A000811104C080914802C1E08111C0E0C12CDD
:1002B000D12C760180914902811106C080914802BB
:1002C000811102C0CC23D9F083E090E090934702E3
:1002D00080934602CC2379F1CCE9DFEF111102C003
:1002E0000E949E09CE01DF91CF911F91FF90EF9068
:1002F000DF90CF90BF90AF909F908F9008956AE06D
:1003000070E080E090E00E94CE2580E1C80E87E298
:10031000D81EE11CF11C8FEF88169806A806B806B7
:1003200031F0C1E08C149D04AE04BF0408F0C0E0BD
:1003300080E09ED3BFCFD0E0C0E0D0CFCF92DF929D
:10034000EF92FF920F931F93CF93DF938F3F91050F
:1003500011F008F050C0209146023091470223303E
:10036000310539F0209146023091470221303105A4
:1003700031F424E030E030934702209346026A01D2
:100380007B01EC0182309105A0F011E0AE01C701C4
:10039000B60139D3AB01BC01CE011123F9F0DF91D5
:1003A000CF911F910F91FF90EF90DF90CF900C9421
:1003B000C70B8C01000F111F02531E4FD8018D91E6
:1003C0009C91892B11F30E94D10B0297F1F6D80171
:1003D000ED91FC91CE010995182FD8CF0E94E90B21
:1003E00090E080E0DF91CF911F910F91FF90EF900F
:1003F000DF90CF9008958FEF9FEFF4CF80E038C368
:10040000CF93DF9386E090E090934702809346027B
:1004100088D3EC01EEECF1E084E0DF011D928A95D7
:10042000E9F724D71092470210924602CE01DF91DD
:10043000CF910895809148020895809131020895E6
:10044000609312017093130180931401909315012E
:1004500090E080E00895FC0191E080910F0281110D
:1004600090E09183089580910F028F5F843668F544
:1004700080930F0260910202709103028091040246
:10048000909105026F5F7F4F8F4F9F4F60930202E5
:100490007093030280930402909305020E94462405
:1004A0009B01AC01609106027091070280910802E5
:1004B000909109020E94FC246093FE017093FF0159
:1004C0008093000290930102089510920F02D2CF00
:1004D000CF92DF92EF92FF928091F30481508230AD
:1004E00008F074C083E08093F3048091F20481509B
:1004F000823008F06DC083E08093F204C090000168
:10050000D0900101E0900201F0900301A701960153
:100510006091DB047091DC048091DD049091DE0435
:100520000E944224882341F0C092DB04D092DC0474
:10053000E092DD04F092DE0487E0FCDD8093FA04B3
:100540009091F404882309F46FC0911113C0809135
:100550000C0190910D01A0910E01B0910F018093BB
:10056000E7049093E804A093E904B093EA0481E0DF
:100570008093F4042091E7043091E8044091E90469
:100580005091EA04609108017091090180910A017B
:1005900090910B010E94DE236093F5047093F604A2
:1005A0008093F7049093F8046093E7047093E80451
:1005B0008093E9049093EA048091F304882351F036
:1005C000833079F1082E000C990B06C080E08BCFA8
:1005D00080E092CF82E090E08093F30420E030E06E
:1005E00042E852E46091F5047091F6048091F704BA
:1005F0009091F8040E94422481112FC081E09091D3
:10060000F104911180E08093F9048093F1048091CA
:10061000F2048823F1F08330E1F1082E000C990BED
:100620001AC081E090E0D8CF9923C1F280910401F3
:1006300090910501A0910601B09107018093F50406
:100640009093F604A093F704B093F8041092F40486
:10065000C5CF82E090E08093F2046091F90488E0D5
:1006600062DD80910A0290910B02A0910C02B09180
:100670000D020196A11DB11D80930A0290930B02F9
:10068000A0930C02B0930D02FF90EF90DF90CF90FB
:10069000089581E090E0DFCFCF92DF92EF92FF925A
:1006A0001F93CF93DF93E8EEF1E080E090E0A0E8C5
:1006B000BFEB80A791A7A2A7B3A78FE692E1A3E81B
:1006C000BAE3868F978FA0A3B1A38AE699EEA9E734
:1006D000B6E284839583A683B7838FEC94ECA8EF6E
:1006E000BCE480879187A287B38782E691E9AFEE69
:1006F000B5EC84879587A687B78787EF99EBA3EF3B
:10070000BBE0808B918BA28BB38BACEDB1E0B3835C
:10071000A283E2EDF1E01196FC93EE938BE391E07E
:1007200091838083938382839583848383EF94E092
:100730009783868382EF94E0918780878CEF91E0A6
:1007400015969C938E9314978CEE91E013969C9340
:100750008E9312978EEF91E017969C938E93169737
:10076000C3EDD4E0E0E0F1E084859585A685B7850A
:100770008C8B9D8BAE8BBF8BA5EFB4E044815581F4
:10078000668177814D935D936D937C9313978189F7
:100790008E8F808914968C93188280819181A2819A
:1007A000B38188879987AA87BB87C12CD12C760112
:1007B000C394C982DA82EB82FC8260E087E0ABDC22
:1007C00011E01D831C86CD86DE86EF86F88A61E007
:1007D00088E0A1DC198BDF91CF911F91FF90EF9002
:1007E000DF90CF9008958091D304811103C081E000
:1007F0008093D3048091DF04811103C081E0809352
:10080000DF0408954F925F926F927F928F929F9232
:10081000AF92BF92CF92DF92EF92FF920F931F930E
:10082000F894409021025090220260902302709030
:100830002402C0901502D0901602E0901702F090AA
:100840001802452B09F0A4C09B01AC0124193509FD
:100850004609570929013A0100911D0210911E0213
:1008600020911F023091200248015901840C951CEF
:10087000A61CB71C80169106A206B306A0F4009130
:10088000190210911A0220911B0230911C020F5F75
:100890001F4F2F4F3F4F0093190210931A022093BE
:1008A0001B0230931C0280921D0290921E02A092A5
:1008B0001F02B09220020091190210911A02209199
:1008C0001B0230911C028092250290922602A09277
:1008D0002702B09228020093290210932A02209343
:1008E0002B0230932C02609321027093220280939A
:1008F000230290932402A8EEB3E0A30192010E9488
:10090000FD286C0D7D1D8E1D9F1D6093150270933B
:100910001602809317029093180200911201109111
:10092000130120911401309115010F3F1F4F2F4FDC
:100930003F4FF1F000911201109113012091140129
:10094000309115010E3F1F4F2F4F3F4F89F0C09040
:100950001201D0901301E0901401F090150121E0F4
:100960008C149D04AE04BF0408F420E020933102EF
:1009700078941F910F91FF90EF90DF90CF90BF90F0
:10098000AF909F908F907F906F905F904F90089561
:100990004B015C0184189508A608B708A3019201D1
:1009A000261B370B480B590B6415750586059705F3
:1009B000D0F082169306A406B50640F420E030E09D
:1009C000A90181149104A104B10491F4A8EEB3E04B
:1009D0000E94FD28A7019601261B370B480B590BD7
:1009E000CA01B901C5CF82169306A406B50670F7F1
:1009F000A8EEB3E0A50194010E94FD286C0D7D1DB9
:100A00008E1D9F1DB5CFFECECF93DF9300D000D0BB
:100A1000CDB7DEB71C821B821A82198210922D027A
:100A200010922E0210922F0210923002BE016F5FC0
:100A30007F4FCE0103960E94E92169817A818B81E3
:100A40009C810E94E11A009761F4BE016F5F7F4FA5
:100A5000CE0103960E94F52169817A818B819C8168
:100A60002CD50F900F900F900F90DF91CF9108959C
:100A7000FF920F931F93CF93DF93082F60E070E0F6
:100A8000CB010E94CE25FF24F3940E94CC19EC01E7
:100A9000892B89F010E0CE3F8FEFD80769F0002353
:100AA00061F160E070E0CB010E94CE2581E090E032
:100AB000892B59F322C011E023D5EC01892B21F0B9
:100AC000CE3F8FEFD80759F711111EC011E02296C3
:100AD00009F410E00E947D19EC01892B21F0CE3F32
:100AE0008FEFD807E1F6111111C011E0CE3F8FEF63
:100AF000D80709F410E001110BC0CE01DF91CF91AE
:100B00001F910F91FF90089511E0E4CF11E0F3CF12
:100B100060E070E0CB010E94CE251F25812F90E080
:100B2000C7CFCF93DF9380913102882321F060E01B
:100B300070E0CB014CD635D6D0E0C0E0892B71F007
:100B40006AE070E080E090E00E94CE2581E090DFD6
:100B500028D62196C03D27E0D20781F727D60E94EC
:100B6000351B1092490210924802109242021092D4
:100B70004302109244021092450210923E021092DB
:100B80003F02109240021092410210923A021092DB
:100B90003B0210923C0210923D02109236021092DB
:100BA00037021092380210923902109232021092DB
:100BB000330210923402109235024EEF5FEF6FEF66
:100BC0007FEF4093120150931301609314017093CF
:100BD000150110923102E5E2F2E028E0DF011D92FA
:100BE0002A95E9F710922102109222021092230214
:100BF0001092240210921D0210921E0210921F02E7
:100C0000109220021092190210921A0210921B02E6
:100C100010921C02109215021092160210921702E6
:100C200010921802DF91CF91089510925502109200
:100C3000560210925702109258021092540280915C
:100C40005D0290915E029093530280935202109243
:100C500051021092500210924C0210924D021092CA
:100C60004E0210924F0210925A021092590290E0D6
:100C700080E00895CF92DF92EF92FF920F931F933F
:100C8000CF938C01892B09F055C020915D023091E2
:100C90005E02809152029091530240915D02509108
:100CA0005E0250935302409352022817390781F095
:100CB000109251021092500210924C0210924D026A
:100CC00010924E0210924F0210925A021092590244
:100CD00080915D0290915E02019761F580915902C9
:100CE00090915A02892B21F480911601811112C032
:100CF0008091590290915A020197E1F480914C023F
:100D000090914D02A0914E02B0914F020197A10522
:100D1000B10581F410924C0210924D0210924E02D5
:100D200010924F021092160182E090E090935A02C6
:100D30008093590280915D0290915E02019709F0C3
:100D40001CC180917302909174028017910709F081
:100D500014C180916F0290917002A0917102B091C4
:100D60007202009709F409C120916E0221110DC091
:100D700040916F0250917002609171027091720205
:100D8000452B462B472B09F4F8C02091590230918E
:100D90005A022230310509F0F0C020915002211191
:100DA000ECC0FC01C080D180E280F38080915402CD
:100DB000882309F4D3C08091600290916102892B4D
:100DC00009F4FDC0209160023091610281E022307F
:100DD000310509F080E02091600230916102C1E0AC
:100DE0002130310549F02091600230916102C1E06B
:100DF0002230310509F0C0E0882309F456C0209163
:100E00006A0230916B0240916C0250916D02C701F1
:100E1000B6010E94F82487FD14C020916A02309127
:100E20006B0240916C0250916D026091550270917D
:100E3000560280915702909158020E94422487FDE9
:100E400022C020916A0230916B0240916C02509155
:100E50006D02C701B6010E94F824181634F52091DE
:100E60006A0230916B0240916C0250916D02609168
:100E700055027091560280915702909158020E943B
:100E80004224811112C08091620290916302A0916C
:100E90006402B0916502892B8A2B8B2B19F481E0B7
:100EA0008093510281E080935002CC2309F456C014
:100EB00020916A0230916B0240916C0250916D0258
:100EC000C701B6010E94422487FF14C020916A0224
:100ED00030916B0240916C0250916D02609155020D
:100EE0007091560280915702909158020E94F82406
:100EF00087FF22C020916A0230916B0240916C0200
:100F000050916D02C701B6010E944224811126C092
:100F100020916A0230916B0240916C0250916D02F7
:100F2000609155027091560280915702909158023B
:100F30000E94F824181694F4809162029091630242
:100F4000A0916402B0916502892B8A2B8B2B19F436
:100F500081E08093510281E08093500281E0909182
:100F60005002911180E080935402C0925502D092B9
:100F70005602E0925702F0925802012B09F067C125
:100F80008091590290915A02892BD9F410925F02F4
:100F90001092500280911601882379F082E090E04F
:100FA00090935A02809359021092160120915D028B
:100FB00030915E0281E0232BE9F080E01BC081E0EC
:100FC0000ACF1092160180915F02882349F0109297
:100FD000510210925A021092590210925F02EDCF04
:100FE00080915D0290915E02892BE1F08091500228
:100FF000109250022091590230915A02223031054C
:1010000009F45EC088F42115310509F448C0213087
:10101000310509F4F3C0109251021092500210925F
:101020005F0238C081E0E6CF2330310509F4B1C05A
:101030002430310581F740914C0250914D0260916E
:101040004E0270914F02411551056105710561F025
:10105000415051096109710940934C0250934D026E
:1010600060934E0270934F0240914C0250914D029A
:1010700060914E0270914F02452B462B472BD9F4BD
:1010800020915B0230915C022130310509F046C0AD
:101090001092510210925A02109259020CC0809183
:1010A0001601882341F082E090E090935A028093E9
:1010B00059021092160110924A0280915102CEC03C
:1010C0008823C9F38091620290916302A091640227
:1010D000B0916502181619061A061B060CF07DC0A1
:1010E00080915D0290915E02019709F076C0809137
:1010F000620290916302A0916402B09165028093B4
:101100004C0290934D02A0934E02B0934F0283E0A5
:1011100090E090935A0280935902CDCF409166029D
:10112000509167026091680270916902452B462BCD
:10113000472BA9F0109251028091660290916702AC
:10114000A0916802B091690280934C0290934D0285
:10115000A0934E02B0934F0281E090E0DACF882353
:1011600099F08091170190911801A0911901B09107
:101170001A0180934C0290934D02A0934E02B093BB
:101180004F0284E090E0C5CF1092510282E090E0DF
:10119000C0CF80914C0290914D02A0914E02B0912F
:1011A0004F020097A105B10559F00197A109B109B6
:1011B00080934C0290934D02A0934E02B0934F0245
:1011C00080914C0290914D02A0914E02B0914F023D
:1011D000892B8A2B8B2B09F06ECF80911701909170
:1011E0001801A0911901B0911A01892B8A2B8B2B20
:1011F00009F44ECF81E080935102B3CF40914C026D
:1012000050914D0260914E0270914F02411551056F
:101210006105710561F041505109610971094093FF
:101220004C0250934D0260934E0270934F024091D6
:101230004C0250914D0260914E0270914F02452B2D
:10124000462B472B09F037CF8111C7CF9FCF809115
:101250004A02882309F431CF80914B02CF911F912C
:101260000F91FF90EF90DF90CF900895109255026C
:101270001092560210925702109258021092540285
:1012800010925A0210925902109253021092520276
:101290001092740210927302109251021092500236
:1012A00010924C0210924D0210924E0210924F0278
:1012B00010924B0210924A0210926F02109270022A
:1012C000109271021092720210926E0210926A02D3
:1012D00010926B0210926C0210926D0288EE93E0F5
:1012E000A0E0B0E08093170190931801A09319013A
:1012F000B0931A011092660210926702109268026F
:1013000010926902109262021092630210926402BB
:1013100010926502109261021092600281E0809347
:10132000160110925F0210925E0210925D021092FE
:101330005C0210925B0290E080E0089580915D0273
:1013400090915E02892B19F580911601882351F046
:1013500080915F02811106C081E080934B028093EF
:101360004A02089520915F023091160181E090E0D9
:10137000332311F090E080E030E082239323892B27
:1013800021F010924B0281E0EACF10924A020895B8
:1013900082E090E0FA01918380838FEF9FEF0895C0
:1013A000CF93DF93EA01009711F00E94521C19823B
:1013B000188290E080E0DF91CF910895DB010097E3
:1013C00019F48FEF8C9308952EEF2C930F968F3096
:1013D000910508F033C0FC01E051F64F0C94F7285A
:1013E0001C0A1A0A180A160A140A100A120A0E0A05
:1013F0000C0A0A0A070A030AFF09050A1E0A80E303
:1014000011968C93089589E2FBCF82E2F9CF119671
:101410001C92089583E2F4CF81E2F2CF81E1F0CF14
:1014200087E2EECF8AE2ECCF80E1EACF84E2E8CF38
:1014300088E2E6CF86E2E4CF81E3E2CF80E2E0CF4C
:10144000809181029091820208959093820280930C
:101450008102089580918002089590918002892BE5
:10146000809380020895982F90958091800289231F
:1014700080938002089580917F02089580917D027B
:1014800090917E0208956115710559F0FB0130E0DD
:1014900020E070E060E02417350719F06115710550
:1014A00011F0CB010895A081B181A817B90709F403
:1014B000BF012F5F3F4F3696EECF8091830281119F
:1014C0001CC062D268D290937602809375020E940B
:1014D00065140E94771490937A02809379020E9497
:1014E000E7180E94EE18909378028093770281E0CB
:1014F0008093830290E080E0089584EF9FEF089549
:101500008F929F92AF92BF92CF92DF92EF92FF9213
:101510000F931F93CF93DF93CDB7DEB72A970FB604
:10152000F894DEBF0FBECDBF1A86198618861F82BB
:101530001E821D821C821B821A8219828091830264
:1015400007EF1FEF882309F49CC08E010D5F1F4F2A
:101550009E012B5F3F4FAE01495F5F4FBE01675F4A
:101560007F4F90E080E00E94671A8C01009721F085
:101570000596029708F0DBC029853A8521153105CB
:1015800009F402C1ED80FE804B815C81B701640FDC
:10159000751F8F8198858617970708F4F5C0E20EAE
:1015A000F31ED7019C91903C09F07FC04230510559
:1015B00008F47BC011968C91409181025091820277
:1015C000452B09F49CC0913F08F071C02CE1290F14
:1015D0002D3008F48BC02DE2290F203108F489C08A
:1015E000903C21F48150823008F483C088E3890F55
:1015F0008B3008F481C09EEDC92E99E0D92EE8EC1D
:10160000F9E06D817E81AE014F5F5F4F89859A85DC
:1016100009955C01C114D104A1F189809A808114DB
:10162000910479F18B819C818815990508F487C014
:1016300010E000E04B815C8170E060E0C7010E9437
:101640001F2901151105E9F449815A8169857A85B7
:101650008D819E81680F791FC501F6010995E9808A
:10166000FA800D811E812F81388549855A856FEF5B
:101670007FEF81E090E00E94031A8C01892B09F032
:1016800056C0C8012A960FB6F894DEBF0FBECDBF74
:10169000DF91CF911F910F91FF90EF90DF90CF904E
:1016A000BF90AF909F908F90089580E085CF30E0FD
:1016B00020E0220F331FF901EB58FD4F0190F0811C
:1016C000E02D309709F497CF892F90E00995009786
:1016D00009F491CFDC011296ED91FC9113971496C9
:1016E000CD90DC90309709F08CCF1FC021E030E026
:1016F000E0CF22E030E0DDCF23E030E0DACFD12CC4
:10170000C12CE0EDF9E09F3F09F07BCFE09175023D
:10171000F0917602309721F4C90104EF1FEF0CC05D
:101720008FEF90E009950097A9F604EF1FEF8985E8
:101730009A85009709F4A5CF0E94521CA2CF0E945F
:10174000301B8C0189859A850E94521C70E060E0F4
:10175000C4010E94C91A98878F830E94001A9E8331
:101760008D836F8178856115710559F0C8010E94DC
:10177000DE1D9A87898706EF1FEF892B09F058CF66
:1017800059CF08EF1FEF56CF08EF1FEFD0CF2091B2
:101790008302222319F020E00C947C1487EF9FEF42
:1017A0000895809181029091820208950E94F31819
:1017B0000E944D18F5D0E5E7F2E088E0DF011D92C8
:1017C0008A95E9F71092830290E080E008950C94E6
:1017D000AA1621E040E050E0BA010C947C1486E0A7
:1017E00090E0FA019183808390E080E0089547E0E3
:1017F00050E06EE371E047CEDF92EF92FF920F93DD
:101800001F93CF93DF938A01EC01C60FD71FE0909F
:101810008702F0908802D9800E94181BD8161906FA
:1018200078F082E090E0F801918380838EEF9FEF63
:10183000DF91CF911F910F91FF90EF90DF9008956E
:10184000EF2841F482E090E0F8019183808384EFF7
:101850009FEFEECF89818093860290E00196F80198
:101860009183808390E080E0E3CFCF93DF93EA0120
:101870000E945B17882321F00E94251B0E945C17A1
:1018800082E090E0998388838BEF9FEFDF91CF9187
:101890000895CF93DF93EB0186E0FB0111928A95C7
:1018A000E9F78FEF8883D6DD8983E5DD8A83E6DD7E
:1018B0009D838C83DF91CF910895CF93DF93EA01CD
:1018C0000E945E17811109C082E090E099838883AD
:1018D00085EF9FEFDF91CF91089590E080E0B5DD37
:1018E00081E090E09983888390E080E0F3CF0F93CC
:1018F0001F93CF93DF93EA018C01060F171F0E94FD
:101900005E1781110BC082E090E09983888385EF98
:101910009FEFDF91CF911F910F910895F801818181
:10192000823038F082E090E0998388838EEF9FEFD9
:10193000F0CF81E090E089DD88E090E099838883B2
:1019400090E080E0E6CFCF93DF930097D1F4EB01F6
:10195000FB01329686E0DF011D928A95E9F78FEF51
:10196000888385E089831A820E94181B8B830E94DA
:10197000171B9D838C8381E08E838F83DF91CF91B2
:101980000895DF91CF911ACD87EF9BE09093850268
:101990008093840208958091840290918502089535
:1019A000109285021092840208958091870290918E
:1019B00088020895411105C06115710581059105E1
:1019C00061F06093870270938802809389029093FC
:1019D0008A0240938B0281E0089580E00895FF928F
:1019E0000F931F93CF93DF938A01EC01C60FD71F8C
:1019F000F9800E94181BF816190668F082E090E042
:101A0000F801918380838EEF9FEFDF91CF911F913B
:101A10000F91FF9008956C817D818E819F814B8114
:101A2000C9DF811108C082E090E0F80191838083D2
:101A300084EF9FEFEACF89818093860290E0019640
:101A4000F8019183808390E080E0DFCFCF93DF9334
:101A5000EA01FC01E60FF71F648175818681978199
:101A60004381A8DF811109C082E090E099838883D7
:101A700084EF9FEFDF91CF91089581E090E099830B
:101A8000888390E080E0F6CFE7E8F2E04081518182
:101A900062817381480F511D611D711D4083518307
:101AA000628373830895CF93C09186024C2F50E0D8
:101AB000609187027091880201960E9416298C2FEE
:101AC000E3DF10928602CF910895009799F48091F8
:101AD0008702909188022FEFFB012083892B59F018
:101AE0002091860230E02F5F3F4F2417350719F40D
:101AF000CB01D9CF63CC0895009799F480918702E8
:101B0000909188022FEFFB012083892B59F02091BF
:101B1000860230E02F5F3F4F2417350719F4CB01C1
:101B2000C2CF4CCC089523E1AC01249FC001259F76
:101B3000900D1124E0919002F0919102E80FF91FAD
:101B4000238134812250310981E02230310508F0AF
:101B500080E008950F931F93CF93DF93009192023B
:101B600010919302D0E0C0E080E00C171D0749F40B
:101B700091E0811190E0892FDF91CF911F910F911A
:101B800008958111F5CFCE01CEDF2196EECFA09141
:101B90009002B0919102109729F120919202309118
:101BA000930282179307F0F453E1589F9001599FD5
:101BB000300D1124A20FB31FED91FC9111973097B6
:101BC00089F012968C91681768F48BE0689FE00D9D
:101BD000F11D112480819181892B21F081E0928176
:101BE000491708F080E008959C0143E1429FC0013D
:101BF000439F900D1124E0919002F0919102E80F23
:101C0000F91F8385823091F481E090E065817681CF
:101C100040911B0150911C016417750711F490E06D
:101C200080E0892B19F081E0232B09F080E00895F2
:101C3000EF92FF920F931F93CF93DF93EA01FC0182
:101C4000E60FF71F02811381E480F5804F2D6E2D82
:101C5000C8019DDF81110DC082E090E099838883E7
:101C60008EEF9FEFDF91CF911F910F91FF90EF903B
:101C70000895C80158DF882339F082E090E0998305
:101C8000888388EF9FEFEECF10932201009321010C
:101C9000E0922301F092240181E090E0998388830F
:101CA00090E080E0DFCFCF92DF92EF92FF920F9330
:101CB0001F93CF93DF937A01EC01C60FD71FC0901B
:101CC0002101D09022010091230110912401412F84
:101CD000602FC6015CDF811110C082E090E0F70147
:101CE000918380838AEF9FEFDF91CF911F910F91B6
:101CF000FF90EF90DF90CF900895C60114DF882306
:101D000041F082E090E0F7019183808388EF9FEFBC
:101D1000EBCF4C815D816E817F819A8189818F3F7C
:101D200041F082E090E0F701918380838EEF9FEF96
:101D3000DBCFE3E1EC9D9001ED9D300D1124E091AE
:101D40009002F0919102E20FF31F0190F081E02DDB
:101D50002BE0029FE00DF11D11240190F081E02D98
:101D600027E0129FE00DF11D1124808391838B8168
:101D7000828343835483658376831F5F109324019A
:101D800081E090E0F7019183808390E080E0ACCF28
:101D9000EF92FF920F931F93CF93DF937A018C0101
:101DA000060F171FC0919002D0919102209781F0E9
:101DB00021E030E0F80182819381409192025091BC
:101DC00093028417950710F030E020E0232B71F484
:101DD00082E090E0F701918380838EEF9FEFDF91A7
:101DE000CF911F910F91FF90EF90089543E1489F8D
:101DF0009001499F300D1124C20FD31F94DE882318
:101E000041F082E090E0F7019183808388EF9FEFBB
:101E1000E6CFF8012481358120383105C8F6878165
:101E20008111D6CF4181842F90E08F7E009741F0C1
:101E300082E090E0F7019183808386EF9FEFCFCF20
:101E40004F833E832D83268128871986223010F404
:101E500021E0288721E030E0F70131832083BFCFE4
:101E600088E090E0FA019183808390E080E008951B
:101E7000FB018FEF808381E181838FEF9FEF93835D
:101E8000828380E890E09583848316821782089588
:101E9000FB018FEF808391E091838283938384831E
:101EA00084E3858381E090E0978386830895DF92C1
:101EB000EF92FF920F931F93CF93DF93EA01FC0100
:101EC000E60FF71F8181813071F082E090E0998305
:101ED00088838FEF9FEFDF91CF911F910F91FF903C
:101EE000EF90DF90089582819381D4802581E680F0
:101EF000F78000919002109191020115110539F4BB
:101F000082E090E0998388838CEF9FEFE4CF40914B
:101F10009202509193028417950738F082E090E086
:101F2000998388838EEF9FEFD6CF892B39F082E09B
:101F300090E09983888386EF9FEFCDCF8D2D8D7FA5
:101F4000B1F72130A1F781E0D11006C091E0E91688
:101F5000F10431F080E004C0E2E0EE16F104D0F3C9
:101F6000882329F390E080E0DEDD882339F082E0E9
:101F700090E09983888388EF9FEFADCFF801D386F7
:101F800081E08487F686E586108A178681E090E0F6
:101F90009983888390E080E09ECF4CE050E068E633
:101FA00071E071CA8F929F92BF92CF92DF92EF92AF
:101FB000FF920F931F93CF93DF93EA01FC01E60F8B
:101FC000F71F828193810481B580E0919002F091A6
:101FD0009102309791F482E090E0998388838CEFAE
:101FE0009FEFDF91CF911F910F91FF90EF90DF90C6
:101FF000CF90BF909F908F90089520919202309142
:1020000093028217930738F082E090E099838883E7
:102010008EEF9FEFE6CF23E1289F6001299FD00C30
:102020001124EC0DFD1DE080F180E114F10499F222
:102030008281081748F78BE0089F80011124E00E89
:10204000F11EF70180819181892B29F6BB20E1F2F5
:10205000F7E0BF9E40011124C4010E94191CF70142
:1020600091838083E0919002F0919102EC0DFD1D2F
:102070000190F081E02DE00FF11F808191810097A8
:1020800039F482E090E0998388838DEF9FEFA9CFA8
:10209000A40170E060E00E941F298091900290915D
:1020A0009102C80ED91EF60180819181080F191F77
:1020B000F801B28281E090E09983888390E080E02B
:1020C00090CFAF92BF92CF92DF92FF920F931F9368
:1020D000CF93DF93EA01FC01E60FF71F8281938122
:1020E000F48000919002109191020115110581F484
:1020F00082E090E0998388838CEF9FEFDF91CF910E
:102100001F910F91FF90DF90CF90BF90AF900895F7
:1021100020919202309193028217930738F082E067
:1021200090E0998388838EEF9FEFE8CF2FEF2F0DFC
:102130002C3FA8F723E1289F6001299FD00C112490
:102140000C0D1D1DF80180819181892B89F6FBE022
:10215000FF9E50011124C5010E94191CF8019183B2
:102160008083E0919002F0919102EC0DFD1D808141
:102170009181009739F482E090E0998388838DEF14
:102180009FEFBCCFA50170E060E00E941F29E091A5
:102190009002F0919102EC0DFD1DF28281E090E041
:1021A0009983888390E080E0A9CFCF92DF92EF926D
:1021B000FF920F931F93CF93DF93860F971FFC011E
:1021C000028113818091900290919102892B81F07C
:1021D00082E090E0FA01918380838CEF9FEFDF91A2
:1021E000CF911F910F91FF90EF90DF90CF900895C6
:1021F000C801B0E0A0E00197A109B1098F3F9F4F4E
:10220000A105B10540F082E090E0FA01918380835E
:102210008EEF9FEFE4CF7A0183E1809F6001819F81
:10222000D00C1124C6010E94191CEC01009741F446
:1022300082E090E0F701918380838DEF9FEFCFCF15
:10224000A60170E060E00E941F29D0939102C09324
:102250009002109393020093920290E080E02FEF9F
:102260003FEF41E061E070E08017910741F481E0C9
:1022700090E0F7019183808390E080E0B0CF3A8BCB
:10228000298B1B864C877E876D87188A1F8601964F
:102290006396EACFCF92DF92EF92FF920F931F9354
:1022A000CF93DF93EC01D12CC12C10E000E0F12C96
:1022B000E12C6A8170E006171707BCF0660F771FE4
:1022C000AE014F5E5F4FC7010E947E1C009721F058
:1022D0002FEF3FEF3A8B298BDF91CF911F910F9119
:1022E000FF90EF90DF90CF900895E881F981EC0D99
:1022F000FD1D438154818D859E85489F9001499F96
:10230000300D589F300D1124C9010196011511059A
:1023100019F44F8144FD049661E070E00E94C91AEF
:10232000E816F90608F47C010F5F1F4F8BE0C80E1A
:10233000D11CBFCFF89420918E0230918F0281E0A2
:102340002115310509F080E0232B09F078940895D8
:102350002F923F924F925F926F927F928F929F92B5
:10236000AF92BF92CF92DF92EF92FF920F931F93A3
:10237000CF93DF933C01660E771EF3018281938138
:102380004C01B12CA12CC0919002D09191022097C8
:1023900069F021E030E0609192027091930286171B
:1023A000970710F030E020E0232BD1F482E090E09A
:1023B000FA01918380838EEF9FEFDF91CF911F9180
:1023C0000F91FF90EF90DF90CF90BF90AF909F90D4
:1023D0008F907F906F905F904F903F902F900895D7
:1023E0008092250190922601A0922701B0922801A7
:1023F00063E1689F9001699F300D1124C20FD31FC4
:10240000F3018181833040F082E090E0FA01918312
:10241000808386EF9FEFD1CF2A012B813C81232B34
:10242000F1F4288139819F8191FF2EC0232B09F47B
:102430006FC0209195029A81422F490F5527551F51
:10244000BA0141E050E06138710514F050E040E01D
:10245000452B09F45DC02A87920F90939502815015
:10246000823008F481C066DF882309F4D8C0F30104
:102470008181813009F48DC008F47BC0823009F479
:10248000C6C090E080E0ADC0232B09F441C020918C
:1024900094029A81E22FE90FFF27FF1F41E050E0ED
:1024A000ED3FF10514F050E040E0452B89F12A871B
:1024B000920F90939402D3CFA081B181A20FB31F4A
:1024C00011966C91060F111D0196295F3F4F8417DD
:1024D000950794F38D859E85089F1001099F300C08
:1024E000189F300C1124C114D104D1F48F8184FFC2
:1024F00017C00E94171BF5E02F0E311C21E082153A
:10250000930508F420E0A701455F5F4F21110EC03D
:1025100082E090E0F2019183808387EF9FEF4DCFBF
:102520000E94171B2FEF221A320AE8CF8881998167
:10253000E80EF91EF70114830383FFEFCF1ADF0AB9
:102540007A018A818C151D0409F00CF48CCFE88186
:10255000F981EE0DFF1D428150E030E020E010E0F7
:1025600000E090E080E0B3CFF12CE12CD12CC12C25
:10257000E8CF81E090E09C838B83ECDA882309F438
:1025800080CF81E090E00E94250A80E40E94330A17
:1025900078CF89899A89019661F083E090E09C83E5
:1025A0008B8382E090E00E94250A80E40E942D0A3D
:1025B00068CF8D819E8120911B0130911C01821773
:1025C0009307D1F460911F0170912001AE014F5E1D
:1025D0005F4F80911D0190911E010E949D1D0097EB
:1025E000E1F2789422E030E0F20131832083892BFC
:1025F00099F08DEF9FEFE1CE89288A288B2869F624
:10260000029758F6CE0146DE188A1F86E8CF82E090
:1026100090E09C838B8335CF90E080E0CECE82E04B
:1026200090E0F2019183808385EF9FEFC6CE8F9279
:102630009F92AF92BF92CF92DF92EF92FF920F9351
:102640001F93CF93DF93EA018C01060F171FF80148
:102650008181833098F082E090E09983888386EFCF
:102660009FEFDF91CF911F910F91FF90EF90DF903F
:10267000CF90BF90AF909F908F90089580919002DF
:1026800090919102892B61F081E090E0209192027B
:1026900030919302232B11F490E080E0892B39F4E0
:1026A00082E090E0998388838EEF9FEFDACF42DE5D
:1026B000882309F4E0C0F8018181813009F496C0D3
:1026C000E8F0823099F42091920230919302E091E7
:1026D0009002F091910290E080E041E050E02817F4
:1026E000390709F0BEC036DA811117C0789481E04D
:1026F00090E09983888390E080E0B3CF20919202AC
:1027000030919302E0919002F091910290E080E08C
:1027100041E050E02817390741F481E090E00E9441
:10272000250A80E40E94330AE1CF63817481672B1C
:1027300011F05483438301967396ECCFE09190029D
:10274000F0919102E00FF11F238134812230310595
:10275000D9F4218932892F3F3F4FB1F42581368149
:1027600040911B0150911C012417350761F5AF0101
:102770004F5E5F4F60911F017091200180911D019C
:1027800090911E010E949D1DEFEFCE1ADE0AEE0A07
:10279000FE0A0D5E1F4F409192025091930270E02D
:1027A00060E0C416D506E606F70644F5009731F258
:1027B0007894892B09F49BCF82E090E099838883F9
:1027C0008DEF9FEF4ECFC114D104E104F104E1F687
:1027D00022303105C8F6CF015DDDE0919002F09125
:1027E0009102E00FF11F108A1786CECF10E000E0B3
:1027F00090E080E0C12CD12C7601CDCF0097C1F6BE
:1028000010E000E0812C912C540183E0E82EF12CA3
:102810001AC0E0919002F0919102E00FF11F8381C4
:102820009481029749F4F482E38282E090E00E946E
:10283000250A80E40E942D0AFFEF8F1A9F0AAF0A33
:10284000BF0A0D5E1F4F8091920290919302B0E0FB
:10285000A0E088169906AA06BB06DCF290E080E0AC
:10286000A7CF638174816230710511F4548343836F
:102870000196739634CF82E090E09983888385EF48
:102880009FEFEFCE0097B9F48FEFFB01808320918B
:1028900025013091260143E1429FC001439F900DE5
:1028A0001124E0919002F0919102E80FF91F8285C6
:1028B000FB01818308950C94DE0988E090E0FA0121
:1028C0009183808390E080E0089510928F021092AF
:1028D0008E02E0E9F2E086E0DF011D928A95E9F7D9
:1028E0008DEC9FE090938D0280938C0208958091EF
:1028F0008C0290918D0208952F923F924F925F9299
:102900006F927F928F929F92AF92BF92CF92DF92FF
:10291000EF92FF920F931F93CF93DF93CDB7DEB764
:1029200060970FB6F894DEBF0FBECDBFF894E0916C
:102930008E02F0918F023196F0938F02E0938E0217
:102940007894A0919002B0919102BA83A9831097D4
:1029500009F4FAC1E0919202F0919302EF2B09F48D
:10296000F3C128874B875C876D877E879A87898725
:10297000B88BAF87312C212CF12C512C412C80911C
:102980009202909193022816390610F4FF2029F143
:10299000F89480918E0290918F02019790938F020C
:1029A00080938E027894C20160960FB6F894DEBFD1
:1029B0000FBECDBFDF91CF911F910F91FF90EF9090
:1029C000DF90CF90BF90AF909F908F907F906F904F
:1029D0005F904F903F902F900895B10190E080E07C
:1029E00087D4682EEF85F889878181FD3DC083817A
:1029F00094810397C9F5258136813C832B83898592
:102A00009A852817390781F5C101EED8782E8823D9
:102A1000A9F1AF85B8891F968D919C915097019629
:102A200021E01D964D915C918417950709F020E0F7
:102A30002F83B12CA12CEF85F88982818A151B0484
:102A400019F014F0FF20E9F0F885FF2309F46CC1B8
:102A5000AF85B88950961C921E921F97662021F070
:102A6000B10190E080E046D4FFEF2F1A3F0A2F8596
:102A700038892D5E3F4F388B2F8781CFB1E0BF83E0
:102A8000D8CFBED49E838D83E885EE23E9F07720EE
:102A900009F43CC1AF85B8891F968D919C91892B13
:102AA00079F0BBE0BA9DC001BB9D900D1124AF85AC
:102AB000B889ED91FC91E80FF91F85819681F2D6D6
:102AC000BFEFAB1ABB0AB7CF81E0772039F0EF85B3
:102AD000F88927853089232B09F080E0F82EE12C36
:102AE000A114B10439F4AF85B8891796EC90E4FAD3
:102AF000EE24E0F8BBE0BA9D6001BB9DD00C112430
:102B0000882309F424C1AF85B889ED91FC91119710
:102B1000EC0DFD1D438154811D962D913C91429FEA
:102B2000C001439F900D529F900D1124E1105DC094
:102B300001969087878361E070E08781908529D531
:102B4000EF85F88921893289008111810C0D1D1DC5
:102B50002F3F320709F44BC0BC01C9010E94DE1DA2
:102B6000D80116969C938E931597AF85B889ED91F1
:102B7000FC911197EC0DFD1D0581168101151105C4
:102B800009F4CDC0ED81FE810E0F1F1F1A968C91A6
:102B90008A0DD8018C93E1102FC00F5F1F4FAF85B6
:102BA000B889ED91FC91EC0DFD1D12870187AF8571
:102BB000B889ED91FC91EC0DFD1D85819681892BE5
:102BC00009F4A4C080911B0190911C012B813C81D0
:102BD0002817390709F465C0772011F0018512859F
:102BE000912C812C1A8219824AC00596A2CF21D637
:102BF000F80196838583B9CF8B859C85AD85BE858D
:102C0000F80181839283A383B4830B5F1F4FC7CFE7
:102C1000E080F180E80CF91CD70113966D917C914E
:102C200014978C918F3F09F473C0E1E0F0E002C08B
:102C3000EE0FFF1F8A95E2F7CF01092E000CAA0BB9
:102C4000BB0BFB01408151816281738184239523F9
:102C5000A623B72321E0892B8A2B8B2B09F420E0B4
:102C6000D8012C93D70111968C91080F111DE98181
:102C7000FA813196FA83E983F7E08F0E911CAF85D4
:102C8000B889ED91FC91EC0DFD1D828129813A817D
:102C90008217130611F00CF0BBCF772011F01287CA
:102CA00001873F81332391F1AF85B889ED91FC9184
:102CB000EC0DFD1D61E070E0878190856AD4AF85E1
:102CC000B889ED91FC91EC0DFD1DE780F084458104
:102CD0005681E1E0F0E0662011F0F0E0E0E00D81E7
:102CE0001E819C01B101882799278E1B9F0B8BD3D6
:102CF0002C01892B59F0EF85F88980819181C80ECC
:102D0000D91ED60115968D919C91CCD5F12CD8CE9B
:102D1000F701418150E0C8010E941629A3CF86EF38
:102D2000482E55245A94CCCEEF85F8898785908912
:102D30000196908B8787258536858217930709F042
:102D40008DCE108A17868ACE512C412C21CE10E0D0
:102D500000E02DCF2F923F924F925F926F927F9221
:102D60008F929F92AF92BF92CF92DF92EF92FF929B
:102D70000F931F93CF93DF938091900290919102D4
:102D800010E000E0892BA9F0D5DA0AEF1FEF8823C5
:102D900081F02090920230909302C0919002D091E5
:102DA0009102D12CC12C10E000E02C143D04A9F4B8
:102DB0007894C801DF91CF911F910F91FF90EF9010
:102DC000DF90CF90BF90AF909F908F907F906F904B
:102DD0005F904F903F902F900895C6010E94F40D90
:102DE000882309F18B819C810397E9F48F85988969
:102DF000892BC9F0B60190E080E07AD221E030E082
:102E0000882311F030E020E044245524421A530A6C
:102E1000B12CA12C912C812C8A818815190409F0E0
:102E200038F4188A1F864FEFC41AD40A6396BDCFB0
:102E3000E881F981EA0DFB1D85819681892BA1F13D
:102E400061E070E087819085A4D33C01D9D28C01E8
:102E5000E881F981EA0DFB1D818592852581368106
:102E6000200F311FAC01421B530B9A014781508543
:102E7000421B530B70E060E00E941F29E881F9813A
:102E8000EA0DFB1DE780F084458156819301B60170
:102E9000C201B9D28C01892B39F0E881F981EA0DA0
:102EA000FB1D85819681FED45FEF851A950A8BE024
:102EB000A80EB11CB1CF3ECA789408952F923F92CC
:102EC0004F925F926F927F929F92AF92BF92CF92FA
:102ED000DF92EF92FF920F931F93CF93DF9300D077
:102EE00000D000D0CDB7DEB70091900210919102D2
:102EF000992493940115110509F43EC0A090920203
:102F0000B090930217DA982E8823B1F110929102B3
:102F100010929002109293021092920210929402D8
:102F2000109295028FEF9FEFDC0180932501909323
:102F30002601A0932701B093280178947AD31E83A9
:102F40000D83C12CD12C7601C501B0E0A0E08983AE
:102F50009A83AB83BC8322242A94322C89819A8160
:102F6000AB81BC81C816D906EA06FB06F4F0C8019D
:102F700099D480E40E94330A892D26960FB6F894DE
:102F8000DEBF0FBECDBFDF91CF911F910F91FF909C
:102F9000EF90DF90CF90BF90AF909F907F906F9019
:102FA0005F904F903F902F900895AD81BE81159610
:102FB0008D919C91169720911B0130911C018217D5
:102FC0009307D1F451968D919C91E6D5ED81FE81C8
:102FD00080819181B12CA12C412C512C3201892B63
:102FE00089F5BFEFCB1ADB0AEB0AFB0AED81FE8104
:102FF0007396FE83ED83B2CFC114D104E104F104D2
:1030000029F7029718F7ED81FE81818992898F3F18
:10301000980709F021D5AD81BE8152963C922E923F
:103020005197D4CF8A0D9B1DDC018D919C91009707
:1030300009F038D4BFEF4B1A5B0A6B0A7B0AEBE04E
:10304000AE0EB11CAD81BE818D919C9111971296EF
:103050004C9150E070E060E0441655066606770635
:103060000CF320D4BECFCF93DF93EA0127DF811189
:1030700009C082E090E09983888385EF9FEFDF911C
:10308000CF91089581E090E00E94250A81E090E0D0
:103090009983888390E080E0F2CF10DF10928D0258
:1030A00010928C02089542E050E060EB71E00C94C5
:1030B000430AFF920F931F93CF93DF938A01EC0192
:1030C000C60FD71FF980B4D20897F816190671F009
:1030D00068F082E090E0F801918380838EEF9FEFAB
:1030E000DF91CF911F910F91FF9008956C817D81A9
:1030F0008E819F814B810E94DA0C811108C082E091
:1031000090E0F8019183808384EF9FEFE9CFF9800D
:103110000E94D50C4F2D50E0BE01685F7F4F0E948A
:10312000162989810E94440D81E090E0F801918385
:10313000808390E080E0D4CFDF92EF92FF920F93F4
:103140001F93CF93DF938A01EC01C60FD71F0E9414
:10315000D50C7C01D9806CD2DD2059F0029721E09A
:1031600030E0D816190619F010F030E020E0232BDB
:1031700079F482E090E0F801918380838EEF9FEFF5
:10318000DF91CF911F910F91FF90EF90DF90089505
:10319000EF2841F482E090E0F8019183808384EF8E
:1031A0009FEFEECFF9800E94D50C4F2D50E0BE016D
:1031B0006E5F7F4F0E94162989810E94440D81E035
:1031C00090E0F8019183808390E080E0D9CF83E59F
:1031D00098E19093970280939602089580919602C9
:1031E0009091970208950895FC01118210829383B3
:1031F00082830895DB011D921C92DC011296ED91F1
:10320000FC9113977183608313967C936E9312974E
:103210000895FC0180819181DB018D939C93A081B5
:10322000B181109741F08D919C9191838083892B7E
:1032300011F4F383E2830895FC0180819181DB0125
:103240008D939C93892B11F47383628371836083C4
:103250000895FC0111821082938382830895CF9395
:10326000DF9300D0CDB7DEB71A821982F894BE0181
:103270006F5F7F4F8DE992E0CCDF89819A81009763
:1032800009F010D389819A81892B89F7BE016F5F7C
:103290007F4F81EA92E0BDDF89819A81009709F032
:1032A00001D389819A81892B89F778940F900F90A7
:1032B000DF91CF910895CF93DF9300D0CDB7DEB7E4
:1032C0001A821982F894BE016F5F7F4F89E992E0FC
:1032D000A0DF89819A81009709F0E4D289819A81DF
:1032E000892B89F778940F900F90DF91CF910895F3
:1032F00081E0089590E080E00895EF92FF920F93AF
:103300001F93CF93DF9300D0CDB7DEB71A82198217
:103310008091980207EF1FEF8823A1F1F894BE0176
:103320006F5F7F4F81EA92E074DF789489819A81A0
:10333000EE24E394F12C892B51F4F894BE016F5FD5
:103340007F4F8DE992E065DF7894F12CE12C898143
:103350009A810EEF1FEF0097A9F0FC014281538183
:1033600064E070E06AD68C01892B61F0F894698181
:103370007A81C701880F991F880F991F83569D4F27
:103380005BDF7894C8010F900F90DF91CF911F9170
:103390000F91FF90EF9008950F931F93CF93DF93BA
:1033A00000D000D0CDB7DEB71C821B821A821982F2
:1033B0008091980207EF1FEF8823C1F0AE014D5FA7
:1033C0005F4F64E070E0CE010196AAD68C01892B94
:1033D00069F4E981FA818B819C8193838283F894DB
:1033E00069817A8189E992E005DF7894C8010F90BC
:1033F0000F900F900F90DF91CF911F910F91089533
:10340000AFD7049608958F929F92AF92BF92CF92BA
:10341000DF92EF92FF920F931F93CF93DF9300D031
:10342000CDB7DEB71A821982BC016F5F7F4F633060
:10343000710598F0AA24AA94BA2CC5010F900F9098
:10344000DF91CF911F910F91FF90EF90DF90CF9080
:10345000BF90AF909F908F9008954115510551F303
:10346000480159018A016C01CBDF8815990511F7D4
:10347000E114F104F9F28E0D9F1DA816B906D0F2E1
:10348000809198028823F1F0F894B5016450710995
:103490009701AE014F5F5F4FC8010496D6D65C011D
:1034A000892B71F489819A81F80193838283C60103
:1034B000880F991F880F991FB80183569D4F9ADE78
:1034C0007894BBCF87EFA82EBB24BA94B6CFAF9227
:1034D000BF92CF92DF92EF92FF920F931F93CF9301
:1034E000DF9300D0CDB7DEB71A821982892B09F09D
:1034F00047C06115710509F443C04115510509F430
:103500003FC02115310509F43BC001151105C1F17A
:10351000809198028823B9F179016A015B01F894DE
:10352000BE016F5F7F4F89E992E073DE78948981F5
:103530009A81009759F1DC0112966D917C91A80156
:1035400004969CD68C01E981FA81D501ED93FC9318
:10355000828193810496F6019183808351DFD701A4
:103560008D939C93C8010F900F90DF91CF911F9185
:103570000F91FF90EF90DF90CF90BF90AF900895A4
:103580000FEF1FEFEFCF07EF1FEFECCF0EEF1FEFA7
:10359000E9CFCF93DF93EC01672B71F4EAD68C1758
:1035A0009D0760F0DDD62496C80FD91FDCD68C0F9E
:1035B0009D1FDF91CF910895D9D6F1CF90E080E0A3
:1035C000F8CF0F931F93CF93DF932091980221118F
:1035D0002BC08B01EC018DE992E006DE81EA92E0DE
:1035E00003DE89E992E000DE97D00097C1F4C1D6EE
:1035F00070E060E0CEDF49E251E062E070E07ED151
:10360000009769F48091290190912A01C4D6B801EC
:10361000CE01F9D4009719F421E020939802DF91AC
:10362000CF911F910F91089584EF9FEFF8CF9EC621
:10363000A0C6CF93DF93A0D6EC01892B11F40FDE47
:103640003ADECE01DF91CF910895CF93DF9394D6E8
:10365000EC01892B09F403DECE01DF91CF910895AF
:103660008091290190912A010895CF93DF93809151
:103670009802D0E0C0E08823D1F092D6EC01892BEB
:10368000B1F4EDDD18DE8091290190912A01E4D199
:10369000E5D2EC01892B59F48DE992E0DADD81EA7B
:1036A00092E0D7DD89E992E0D4DD10929802CE0154
:1036B000DF91CF910895EF92FF920F931F93CF93D5
:1036C000DF93EC017A018B010F5F1F4F0E9DA0016C
:1036D0000F9D500D1E9D500D112470E060E00E9462
:1036E0001F2990E080E0F0E0E0E02FEFE816F90617
:1036F00039F4DF91CF911F910F91FF90EF900895D2
:103700001A8219822883309711F0D283C1830196DF
:10371000FE01C00FD11FEACFCF92DF92EF92FF924E
:103720000F931F93CF93DF930DE713E00C7F43E0DC
:1037300050E06BE271E081E391E012D48BE2E82E7D
:1037400081E0F82E91E3C92E91E0D92ECCEED3E0A2
:10375000D7014D915D917D01F601619171916F01EC
:10376000198308835D834C835B834A837F836E83E5
:103770009B012F5F3F4F249FC001259F900D349FD9
:10378000900D1124998788870115110511F0C80142
:1037900092DF88859985080F191F2A96F1E3EF16A5
:1037A000F1E0FF06A9F6E7EAF2E083EDDF011D9202
:1037B0008A95E9F71092A6021092A50210920B04C6
:1037C00010920A0410920F0410920E0410920D042D
:1037D00010920C0410921104109210041092130411
:1037E00010921204109215041092140410921904ED
:1037F00010921804109217041092160410921B04D1
:1038000010921A0410921D0410921C041092E903E5
:103810001092E8031092EB031092EA0390E080E02C
:10382000DF91CF911F910F91FF90EF90DF90CF909C
:1038300008950097F1F0F894A1E3B1E0ECEEF3E025
:1038400030E020E04D915D9148175907A8F0428182
:1038500053814115510581F08AE0829FF001839FD9
:10386000F00D1124E451FC4F80819181009759F4AF
:10387000789490E080E008952F5F3F4F3A96233090
:10388000310501F7F5CFDC0111966D917C917183C3
:1038900060834150510953834283FC012193CF013E
:1038A00078940895009749F1DC018E91853041F4B8
:1038B000E091EA03F091EB033097F9F0CD01099420
:1038C0008530D8F4282F30E0F8948FEF8C938AE07D
:1038D000829FF001839FF00D1124E451FC4F808101
:1038E000918112969C938E931197B183A0838281CC
:1038F000938101969383828378940895CF92DF9287
:10390000EF92FF920F931F93CF93DF939C018AEA6C
:1039100092E08C7F4115510509F49BC021153105BA
:1039200009F497C06115710509F493C07A01AB01E0
:10393000B9016D5F7F4F6C7F9B012F5F3F4F249FCD
:103940008001259F100D349F100D1124F8942091B3
:103950000A0430910B04232B59F420911204309166
:1039600013042115310569F12017310708F058C0FB
:103970002091140430911504232B91F4209112040A
:1039800030911304820F931F20911C0430911D0469
:103990002115310509F441C02017310708F056C040
:1039A0007894CFEFDFEF86EF9FEFF701D183C083ED
:1039B000DF91CF911F910F91FF90EF90DF90CF900B
:1039C0000895C3E0D0E0C090A502D090A60220EDFB
:1039D00030E02C193D092017310710F32AE02C9F05
:1039E000F0012D9FF00D1124E451FC4F9183808351
:1039F000558344835383428377836683118700878B
:103A0000009709F058DE0C0D1D1D1093A6020093BF
:103A1000A502789490E080E0C8CFC4E0D0E0D3CF96
:103A2000C3E0D0E02AE02C9FF0012D9FF00D11247F
:103A3000E451FC4F918380835583448353834283B5
:103A400077836683009729F336DEE3CFC4E0D0E0C6
:103A5000E9CF8FEF9FEFACCF9C010397029708F05F
:103A600069C0F89484E09AE0482F50E024173507A5
:103A70000CF44DC091E08AE0829FF001839FF00D2D
:103A80001124E451FC4F118210821582148213829A
:103A90001282178216829923B1F180910A049091C3
:103AA0000B04892BA9F420911204309113042115E1
:103AB000310571F08091A5029091A602821B930BB3
:103AC0009093A6028093A502109213041092120400
:103AD0008091140490911504892BA9F420911C0461
:103AE00030911D042115310571F08091A50290914E
:103AF000A602821B930B9093A6028093A5021092BC
:103B00001D0410921C04789490E080E00895949F26
:103B1000F001959FF00D1124E451FC4F408151813B
:103B2000452B31F440855185452B11F481509CCFB4
:103B300090E0A1CF8FEF9FEF08954115510549F116
:103B4000009739F16115710521F1F8942091E8038E
:103B50003091E903232BB9F42091EA033091EB0370
:103B6000232B89F49093E9038093E8037093EB038C
:103B70006093EA03789425E030E090E080E0FA0179
:103B800031832083089578942FEF3FEF86EF9FEFE6
:103B9000F6CF8FEF9FEF0895059769F4F894109290
:103BA000E9031092E8031092EB031092EA03789471
:103BB00090E080E008958FEF9FEF08956115710503
:103BC00019F4F0E0E0E011C08530910581F4E09156
:103BD000E803F091E9033097A1F3CB010196099531
:103BE000009779F3FC0185E08193CF0108959C0152
:103BF000235031092230310520F72AE0289FD001D7
:103C0000299FB00D1124A451BC4F2D913C911197C7
:103C1000232BB9F216962D913C911797261737074B
:103C200080F2F89412962D913C911397211531054D
:103C300029F0ED91FC911197309711F47894C1CF50
:103C40004181528111965C934E9321503109139614
:103C50003C932E93129781937894C7CFEAE7F3E0D1
:103C60008EE6DF011D928A95E9F7E7EAF2E083ED3F
:103C7000DF011D928A95E9F71092A6021092A50223
:103C8000ECEEF3E082E3DF011D928A95E9F7E8EEBE
:103C9000F3E084E0DF011D928A95E9F790E080E08F
:103CA0000895CF93DF93C0913701D0913801CF3F72
:103CB000DC0759F407D4909338018093370197FFBC
:103CC00009C0D0933801C093370184EF9FEFDF9193
:103CD000CF91089590E080E0FACF8230910528F4EA
:103CE00080931E0490E080E008958FEF9FEF089589
:103CF0004F925F926F927F92AF92BF92CF92DF927C
:103D0000EF92FF920F931F93CF93DF9300D0CDB725
:103D1000DEB71A821982009709F478C0611571051F
:103D200009F474C0209137013091380107EF1FEF7B
:103D30002F3F3F4F09F444C06B015C01412C512CD3
:103D40003201F12CE12C10E000E09E012F5F3F4F8B
:103D5000A6014E195F09B5016E0D7F1D80913701D7
:103D6000909138010ED4892B09F04AC089819A813B
:103D7000009741F4E114F10429F420911E04222358
:103D800009F441C0E80EF91EEC14FD04C8F480E803
:103D9000481684E858068EE16806710418F560E05C
:103DA00070E0CB01FBD62AE0420E511C611C711C55
:103DB0000A3F4FEF140721F0043F8FEF1807A1F4DB
:103DC000C8010F900F90DF91CF911F910F91FF903D
:103DD000EF90DF90CF90BF90AF907F906F905F900B
:103DE0004F90089501EF1FEF81E090E0013F2FEF2A
:103DF000120711F090E080E0892B09F4A6CFE0CF04
:103E000004EF1FEFDDCF0AEF1FEFDACF0FEF1FEF49
:103E1000D7CF4F925F926F927F92AF92BF92CF9225
:103E2000DF92EF92FF920F931F93CF93DF9300D017
:103E3000CDB7DEB71A821982009709F478C06115F0
:103E4000710509F474C0209137013091380107EFF2
:103E50001FEF2F3F3F4F09F444C06B015C01412C21
:103E6000512C3201F12CE12C10E000E09E012F5F7B
:103E70003F4FA6014E195F09B5016E0D7F1D809160
:103E800037019091380133D3892B09F04AC08981D9
:103E90009A81009741F4E114F10429F420911E0461
:103EA000222309F441C0E80EF91EEC14FD04C8F405
:103EB00080E8481686E9580688E96806710418F50E
:103EC00060E070E0CB016AD62AE0420E511C611C12
:103ED000711C0E3F4FEF140721F0043F8FEF1807BE
:103EE000A1F4C8010F900F90DF91CF911F910F9116
:103EF000FF90EF90DF90CF90BF90AF907F906F904A
:103F00005F904F90089502EF1FEF81E090E0023F35
:103F10002FEF120711F090E080E0892B09F4A6CF73
:103F2000E0CF04EF1FEFDDCF0EEF1FEFDACF0FEF83
:103F30001FEFD7CF80913701909138018F3F9807BD
:103F400049F0B8D2892B49F48FEF9FEF9093380155
:103F50008093370190E080E0089584EF9FEF08950B
:103F6000CF92DF92EF92FF920F931F93CF93DF9345
:103F700021E04115510509F020E04150510921117E
:103F80002CC0DC01FB01D12CC12C21E022C03FEF71
:103F9000C31AD30A7D010D911D91E701EA80FB80D0
:103FA000E016F106A8F420813181E280F380F182ED
:103FB000E08233832283ED90FC9011979D01225083
:103FC0003109E901F982E88211961C930E9320E0F1
:103FD0003296C416D506D8F2D2CFDF91CF911F9179
:103FE0000F91FF90EF90DF90CF900895FC01680F44
:103FF000791F90E080E0E617F70709F40895219112
:10400000820F911DF8CF20911F04211113C049DEAA
:10401000009791F410922504109224041092230426
:1040200010922204109221041092200421E0209387
:104030001F04089584EF9FEF0895AF92BF92CF922F
:10404000DF92EF92FF920F931F93CF93DF9300972E
:1040500009F460C04630510508F45CC020911F048B
:10406000C7EFDFEF222309F449C08C01060F171FA9
:10407000F801C080D180C114D10409F44EC096016A
:104080002A5F3F4F4217530708F447C07C018091D5
:1040900024049091250493838283B6016C5F7F4F43
:1040A0005801A60EB71EC801A1DFF50191838083D8
:1040B00064E070E0C8011CDEEC01892BF9F481E0BA
:1040C00090E00BDEB601C801049612DEEC01892BEC
:1040D00091F462E070E0C5010BDEEC01892B59F42C
:1040E000C701E0DB80912404909125040196909310
:1040F00025048093240490E080E0EFDDCE01DF9181
:10410000CF911F910F91FF90EF90DF90CF90BF90D4
:10411000AF900895CFEFDFEFF1CFC9EFDFEFEECF34
:104120006F927F928F929F92AF92BF92CF92DF92C7
:10413000EF92FF920F931F93CF93DF9300D000D0A5
:10414000CDB7DEB7009709F47AC04115510509F4DF
:1041500076C020911F0407EF1FEF222309F44DC002
:104160003A017B015C0164E070E0CE01019651DE12
:104170008C01892B09F041C009811A8101151105B3
:1041800009F45AC0480186E0880E911CB701680DF9
:10419000791D8091390190913A0110DD6C010097F1
:1041A00009F450C0A70170E060E00E941F298981D6
:1041B0009A81AB81BC81EC0CFD1CF701819391933A
:1041C000A193B1937F0181E090E087DDB801C70141
:1041D00020DE892B31F562E070E0C701800F911F6E
:1041E00018DE8C01892BE9F490E080E076DDF501A2
:1041F000D182C082F30191828082C8010F900F901A
:104200000F900F90DF91CF911F910F91FF90EF9042
:10421000DF90CF90BF90AF909F908F907F906F90E6
:10422000089590E080E059DDF50111821082F301DC
:1042300011821082C60136DB09EF1FEFDECF0FEFD0
:104240001FEFDBCF06EF1FEFD8CF0097A1F041158E
:10425000510589F02115310571F0F90136966E1777
:104260007F0748F0DC012D933C93DA01ED93FC933A
:1042700090E080E008958FEF9FEF0895AF92BF9296
:10428000CF92DF92EF92FF920F931F93CF93DF9322
:10429000009709F45FC04115510509F45BC0653012
:1042A000710508F457C020911F04C7EFDFEF2223E8
:1042B00091F1DC01CD90DC9011971296ED91FC917B
:1042C00096012A5F3F4FC9EFDFEF2617370719F531
:1042D000C0912004D0912104209749F521E030E0DD
:1042E00030932104209320047A018C01F09323045D
:1042F000E09322045601B4E0AB0EB11CB50176DEAA
:104300000A0D1B1DF801208131818217930729F5C1
:10431000D701CD92DC92CE01DF91CF911F910F9109
:10432000FF90EF90DF90CF90BF90AF9008952091D5
:104330002204309123042F5F3F4FCCEFDFEFE217D1
:10434000F30790F2CBEFDFEF2E173F0768F2D0E0D4
:10435000C0E0CACFCFEFDFEFDECFC3EFDFEFDBCFC1
:1043600084E090E0089582E090E008958CEF9FEF64
:10437000089580E290E0089510922504109224049C
:10438000109223041092220410922104109220040F
:1043900090E080E0089590933A0180933901089568
:1043A00080911F04882391F0C5DD009789F4109255
:1043B00025041092240410922304109222041092D7
:1043C00021041092200410921F04089590E080E0D0
:1043D0000895009749F06115710531F0FC011182D3
:1043E0001082FB01118210820895F3CF26E030E0A5
:1043F00040E855E260E070E090E080E000C0892B8A
:1044000019F486E394E0BFC508951F920F920FB68A
:104410000F9211242F933F934F935F936F937F934A
:104420008F939F93AF93BF93EF93FF9386E09FEF9C
:104430009093850080938400B7D0FF91EF91BF9156
:10444000AF919F918F917F916F915F914F913F912C
:104450002F910F900FBE0F901F90189586E09FEF41
:104460009093850080938400AFE6B0E08C918E7FBE
:104470008C93E0E8F0E080818C7F8083E1E8F0E0DD
:104480008081877E808380818360808380818B7F31
:1044900080838C9181608C930895EFE6F0E08081B9
:1044A00090819E7F90838170089581E0089510929D
:1044B0002604089568EE73E080E090E06FD390E00A
:1044C00080E0089526E030E040E052EC61E070E0EA
:1044D00090E080E094DF86E394E08BD4892B21F098
:1044E00086E394E0A0D4F7CF90E080E00895CF92E7
:1044F000DF92EF92FF920F931F93CF93DF936B01A5
:104500007A01E9011982188286E394E072D4892B3A
:1045100069F18601CC24C39482E0D82E80912604D0
:10452000811110C086E394E07ED40297B9F7C0925F
:104530002604F801D1928F0188819981019699838F
:104540008883ECCF888199818E159F0578F486E366
:1045500094E069D48F3F9807A9F3F80181938F0104
:1045600088819981019699838883ECCF90E080E0DF
:10457000DF91CF911F910F91FF90EF90DF90CF903F
:1045800008950F931F93CF93DF93EA01890186E388
:1045900094E0DDD5F801D183C08390E080E0DF9125
:1045A000CF911F910F910895CF92DF92EF92FF92DA
:1045B0000F931F93CF93DF9300D0CDB7DEB78091D9
:1045C000290491E0980F90932904882399F021E021
:1045D00030E030932C0420932B04809329040F9017
:1045E0000F90DF91CF911F910F91FF90EF90DF908F
:1045F000CF900895CE0101960E942B0278940091ED
:104600003C0110913D01F801C28CD38CE48CF58CF7
:104610000E943302B701A60190E080E00E949E0153
:10462000F894809129048150809329048A818823F9
:1046300089F08091280491E0980F909328048823B2
:1046400049F021E030E030932C0420932B04809338
:104650002804C5CF80912804882309F4C0CF809115
:104660002A048111BCCF81E080932A047894F80158
:1046700022A133A144A155A1A4E6B0E0BED56B01AF
:104680007C010E946802B701A60181E090E00E94CF
:104690009E01F89480912804815080932804809191
:1046A0002A04815080932A049ACF0F931F93CF93AB
:1046B000DF931092FC041092FB04A6D297DEC09107
:1046C0003C01D0913D01198218826FEF7FEFCB0141
:1046D0000E94200270E060E090E080E00E94A20072
:1046E000009709F03AC00E944C03F8947894BE01F8
:1046F000685D7F4F8A819B810E94A500892B59F4B8
:104700006FEF7FEFCB010E9434010E941A028823D1
:1047100011F081E08CA7F894A1DE0E941D0288238D
:1047200011F080E008C00E941A028111FACF81E0E6
:104730009CA59111F6CF8093FB0478940E94200AE7
:104740008C0178948091FB0481110CC00E94F303CA
:104750000E940002F89490E080E0DF91CF911F91D9
:104760000F9108950E94FE010E941D028823D9F036
:1047700081E08093FC049091FC0481E0911180E041
:104780008093FB048091FC04811187DE01301105C8
:1047900029F40E94200A892B09F489DE0E94200A4C
:1047A0008C0183DECFCF0E941A028111E1CF81E01C
:1047B0009CA59111DECF80E0DCCF5058BB27AA2703
:1047C0000ED0DCC0CDD030F0D2D020F031F49F3FFD
:1047D00011F41EF4C2C00EF4E095E7FBB8C0E92F57
:1047E000DED080F3BA17620773078407950718F0C5
:1047F00071F49EF5F6C00EF4E0950B2EBA2FA02DA5
:104800000B01B90190010C01CA01A0011124FF277D
:10481000591B99F0593F50F4503E68F11A16F04078
:10482000A22F232F342F4427585FF3CF4695379577
:104830002795A795F0405395C9F77EF41F16BA0B3C
:10484000620B730B840BBAF09150A1F0FF0FBB1FEA
:10485000661F771F881FC2F70EC0BA0F621F731F33
:10486000841F48F4879577956795B795F7959E3F90
:1048700008F0B3CF9395880F08F09927EE0F97951E
:104880008795089540D008F481E00895E89409C020
:1048900097FB3EF490958095709561957F4F8F4F73
:1048A0009F4F9923A9F0F92F96E9BB279395F69589
:1048B000879577956795B795F111F8CFFAF4BB0F07
:1048C00011F460FF1BC06F5F7F4F8F4F9F4F16C06B
:1048D000882311F096E911C0772321F09EE8872FF5
:1048E000762F05C0662371F096E8862F70E060E0B1
:1048F0002AF09A95660F771F881FDAF7880F96952A
:10490000879597F90895990F0008550FAA0BE0E8CD
:10491000FEEF16161706E807F907C0F01216130681
:10492000E407F50798F0621B730B840B950B39F4C1
:104930000A2661F0232B242B252B21F408950A2627
:1049400009F4A140A6958FEF811D811D089597F967
:104950009F6780E870E060E008959FEF80EC089525
:1049600000240A941616170618060906089500244E
:104970000A9412161306140605060895092E0394C8
:10498000000C11F4882352F0BB0F40F4BF2B11F43C
:1049900060FF04C06F5F7F4F8F4F9F4F089557FD9B
:1049A0009058440F551F59F05F3F71F04795880F9D
:1049B00097FB991F61F09F3F79F087950895121634
:1049C00013061406551FF2CF4695F1DF08C01616E0
:1049D00017061806991FF1CF869571056105089491
:1049E0000895E894BB2766277727CB0197F90895A8
:1049F0008ADF08F48FEF08950BD0C0CFB1DF28F025
:104A0000B6DF18F0952309F0A2CFA7CF1124EACF83
:104A1000C6DFA0F3959FD1F3950F50E0551F629F1D
:104A2000F001729FBB27F00DB11D639FAA27F00D07
:104A3000B11DAA1F649F6627B00DA11D661F829F2E
:104A40002227B00DA11D621F739FB00DA11D621F13
:104A5000839FA00D611D221F749F3327A00D611D30
:104A6000231F849F600D211D822F762F6A2F112412
:104A70009F5750408AF0E1F088234AF0EE0FFF1F65
:104A8000BB1F661F771F881F91505040A9F79E3F9C
:104A9000510570F05CCFA6CF5F3FECF3983EDCF39E
:104AA000869577956795B795F795E7959F5FC1F7D9
:104AB000FE2B880F911D9695879597F908951F9263
:104AC0000F920FB60F9211242F933F938F939F93C2
:104AD000AF93BF9380912E0490912F04A091300446
:104AE000B091310430912D0423E0230F2D3758F578
:104AF0000196A11DB11D20932D0480932E04909347
:104B00002F04A0933004B09331048091320490912B
:104B10003304A0913404B09135040196A11DB11D58
:104B20008093320490933304A0933404B0933504FB
:104B3000BF91AF919F918F913F912F910F900FBE99
:104B40000F901F90189526E8230F0296A11DB11D06
:104B5000D2CF3FB7F8948091320490913304A09162
:104B60003404B091350426B5A89B05C02F3F19F039
:104B70000196A11DB11D3FBFBA2FA92F982F8827DD
:104B8000BC01CD01620F711D811D911D42E0660FB8
:104B9000771F881F991F4A95D1F708958F929F928A
:104BA000AF92BF92CF92DF92EF92FF926B017C01A6
:104BB000D0DF4B015C01C114D104E104F104D9F050
:104BC000F3D2C7DF681979098A099B09683E7340E7
:104BD0008105910580F321E0C21AD108E108F108AE
:104BE00088EE880E83E0981EA11CB11CC114D1046C
:104BF000E104F10431F7FF90EF90DF90CF90BF9088
:104C0000AF909F908F900895789484B5826084BD12
:104C100084B5816084BD85B5826085BD85B58160C0
:104C200085BDEEE6F0E0808181608083E1E8F0E020
:104C30001082808182608083808181608083E0E84F
:104C4000F0E0808181608083E1EBF0E0808184602E
:104C50008083E0EBF0E0808181608083EAE7F0E030
:104C60008081846080838081826080838081816094
:104C700080838081806880831092C1000895833092
:104C800081F028F4813099F08230A9F008958730BE
:104C9000A9F08830C9F08430B1F4809180008F7D14
:104CA00003C0809180008F7780938000089584B541
:104CB0008F7784BD089584B58F7DFBCF8091B00040
:104CC0008F778093B00008958091B0008F7DF9CFE9
:104CD000CF93DF9390E0FC01E458FF4F249180577D
:104CE0009F4FFC0184918823C9F090E0880F991FA1
:104CF000FC01E854FF4FA591B491FC01E255FF4F30
:104D0000C591D49161110DC09FB7F8948C912095F5
:104D100082238C938881282328839FBFDF91CF91A2
:104D20000895623051F49FB7F8943C91822F80959A
:104D300083238C93E8812E2BEFCF8FB7F894EC91DF
:104D40002E2B2C938FBFEACF1F93CF93DF93282F67
:104D500030E0F901E859FF4F8491F901E458FF4F21
:104D6000D491F901E057FF4FC491CC23A1F0162F45
:104D7000811185DFEC2FF0E0EE0FFF1FE255FF4FB2
:104D8000A591B4918FB7F894EC91111108C0D0950A
:104D9000DE23DC938FBFDF91CF911F910895DE2B2F
:104DA000F8CFCF93DF93282F30E0F901E859FF4F78
:104DB0008491F901E458FF4FD491F901E057FF4F76
:104DC000C491CC2399F081115ADFEC2FF0E0EE0F63
:104DD000FF1FEC55FF4FA591B491EC91ED2381E0BD
:104DE00090E009F480E0DF91CF91089580E090E0B9
:104DF000FACFFC01918D228D892F90E0805C9F4F2E
:104E0000821B91098F7399270895FC01918D828DE2
:104E1000981731F0828DE80FF11D858D90E008958F
:104E20008FEF9FEF0895FC01918D828D981761F0AF
:104E3000A28DAE0FBF2FB11D5D968C91928D9F5F9D
:104E40009F73928F90E008958FEF9FEF0895FC017C
:104E5000538D448D252F30E0842F90E0821B930BDF
:104E6000541710F0CF96089501970895FC01A48D72
:104E7000A80FB92FB11DA35ABF4F2C91848D90E07C
:104E800001968F739927848FA689B7892C93A0895F
:104E9000B1898C91837080648C93938D848D9813E9
:104EA00006C00288F389E02D80818F7D808308957C
:104EB000CF93DF93EC01888D8823B1F0AA89BB8959
:104EC000E889F9898C9185FD03C0808186FD0CC03D
:104ED0000FB607FCF7CF8C9185FFF2CF808185FF5D
:104EE000EDCFCE01C3DFEACFDF91CF910895EF92EE
:104EF000FF920F931F93CF93DF93EC0181E0888F94
:104F00009B8D8C8D98131AC0E889F989808185FF63
:104F100015C09FB7F894EE89FF896083E889F98905
:104F200080818370806480839FBF81E090E0DF9107
:104F3000CF911F910F91FF90EF900895F62E0B8D5A
:104F400010E00F5F1F4F0F731127E02E8C8D8E1115
:104F50000BC00FB607FCFACFE889F989808185FF7D
:104F6000F5CFCE0183DFF2CFEB8DEC0FFD2FF11DDE
:104F7000E35AFF4FF0829FB7F8940B8FEA89FB89C1
:104F800080818062D0CFCF92DF92EF92FF921F9309
:104F9000CF93DF93EC016A017B01122FE889F98935
:104FA00082E08083C11481EED806E104F10499F017
:104FB00060E079E08DE390E0A7019601F6D0215002
:104FC000310941095109569547953795279521157E
:104FD00080E1380790F0E889F989108260E874E888
:104FE0008EE190E0A7019601E0D0215031094109FE
:104FF00051095695479537952795EC85FD85308362
:10500000EE85FF852083188EEC89FD891083EA895F
:10501000FB89808180618083EA89FB898081886047
:105020008083EA89FB89808180688083EA89FB89A3
:1050300080818F7D8083DF91CF911F91FF90EF90D2
:10504000DF90CF9008951F920F920FB60F92112408
:105050002F938F939F93EF93FF93E0914604F091EA
:1050600047048081E0914C04F0914D0482FD1BC007
:10507000908180914F048F5F8F732091500482172D
:1050800041F0E0914F04F0E0EA5CFB4F958F809394
:105090004F04FF91EF919F918F912F910F900FBE31
:1050A0000F901F9018958081F4CF1F920F920FB62A
:1050B0000F9211242F933F934F935F936F937F939E
:1050C0008F939F93AF93BF93EF93FF9386E394E007
:1050D000CDDEFF91EF91BF91AF919F918F917F9125
:1050E0006F915F914F913F912F910F900FBE0F9055
:1050F0001F901895E6E3F4E01382128288EE93E0A5
:10510000A0E0B0E084839583A683B78380EC91E030
:105110009183808385EC90E09587848784EC90E090
:105120009787868780EC90E0918B808B81EC90E074
:10513000938B828B82EC90E0958B848B86EC90E055
:10514000978B868B118E128E138E148E0895AF92CC
:10515000BF92CF92DF92EF92FF920F931F93CF9364
:10516000DF936C017B018B01040F151FEB015E01C6
:10517000AE18BF08C017D10759F06991D601ED915B
:10518000FC910190F081E02DC6010995892B79F7FA
:10519000C501DF91CF911F910F91FF90EF90DF90AC
:1051A000CF90BF90AF9008950895A1E21A2EAA1B48
:1051B000BB1BFD010DC0AA1FBB1FEE1FFF1FA217C7
:1051C000B307E407F50720F0A21BB30BE40BF50BC4
:1051D000661F771F881F991F1A9469F7609570954D
:1051E000809590959B01AC01BD01CF010895EE0F14
:1051F000FF1F0590F491E02D099409D0A59F900D13
:10520000B49F900DA49F800D911D11240895A29F1D
:10521000B001B39FC001A39F700D811D1124911D8A
:10522000B29F700D811D1124911D0895FB01DC01B9
:1052300002C001900D9241505040D8F70895DC0112
:1052400001C06D9341505040E0F70895F894FFCFAE
:10525000CDCCCC3D000000000000803F00000000ED
:105260000000FEFFFFFF01E8030000FFFF00000059
:1052700000FFFFFFFFFFFFFFFFFFFF010001000135
:1052800000200030001800FFFFFFFF01E801FF00D1
:10529000770CA30CFE005D0CDE09FD00EF0B490C42
:1052A000FC00350CDE09F600260DDE09F500FC0BCE
:1052B000650DF400EF0C7C0DDE00A8114214DD003A
:1052C0001713DE09DA00300F380FD9005D14480FCC
:1052D000E200180EDE09E100530EDE09E000C80E00
:1052E000DE09D6003318DE09D500D510DE09D4005A
:1052F0006110DE09D300D20FDE09C000570FDE09AE
:10530000F0009C18DE09ED005918DE0900000000CD
:0E5310007727A72827275827F92613270527D0
:00000001FF
