:1000000061C0000087C0000085C0000083C0000000
:1000100081C000007FC000007DC000007BC00000E8
:1000200079C0000077C0000075C0000073C00000F8
:1000300071C000000C94F41F6DC000006BC0000084
:100040000C94E92267C000000C94AD250C94DF25C8
:1000500061C000005FC000005DC000005BC0000028
:1000600059C0000057C00000000000080002010055
:100070000003040700000000000000000102040863
:100080001020408001020408102001020408102002
:10009000040404040404040402020202020203032E
:1000A00003030303000000002300260029000000D2
:1000B0000000250028002B0000000000240027007D
:1000C0002A00042611241FBECFEFD8E0DEBFCDBF2B
:1000D00011E0A0E0B1E0E4E6FDE402C005900D927D
:1000E000A63BB107D9F723E0A6EBB1E001C01D9212
:1000F000A03FB207E1F710E0C2E6D0E004C02197CC
:10010000FE010E948126C136D107C9F70E94442111
:100110000C94B02675CF611102C00C94F2236130AB
:10012000E1F362E0FACF662319F061E00C942E242B
:1001300060E0FCCF0E945B2421E0019709F020E001
:10014000822F089590E080E008950F931F93009709
:1001500009F487C06115710509F483C00091060197
:100160001091070120910801309109010E3F1F4FA6
:100170002F4F3F4F09F066C04FEF5FEFBA0140933A
:1001800006015093070160930801709309014091A3
:100190000601509107016091080170910901DC018D
:1001A0001296ED91FC9180819181A281B38180931F
:1001B000280290932902A0932A02B0932B028481F3
:1001C0009581A681B7818093240290932502A09304
:1001D0002602B093270280859185A285B3858093FE
:1001E000200290932102A0932202B09323028485DF
:1001F0009585A685B78580931C0290931D02A093D8
:100200001E02B0931F02109218021092190210924F
:100210001A0210921B0257D488E895E09093B70118
:100220008093B6019093B9018093B8013BD30097B6
:1002300031F421E030E030932D0220932C021F9105
:100240000F91089500910601109107012091080176
:1002500030910901DB010D931D932D933C9313976E
:1002600096CF8FEF9FEFEBCF8F929F92AF92BF927F
:10027000CF92DF92EF92FF921F93CF93DF934B01C8
:100280005C0110912F0282E090E090932D02809308
:100290002C0281149104A104B10441F480912F0235
:1002A000811104C080912E02C1E08111C0E0C12CF7
:1002B000D12C760180912F02811106C080912E02EF
:1002C000811102C0CC23D1F083E090E090932D0205
:1002D00080932C02CC2371F1CCE9DFEF111101C026
:1002E0007BD7CE01DF91CF911F91FF90EF90DF90F0
:1002F000CF90BF90AF909F908F9008956AE070E08C
:1003000080E090E00E94582380E1C80E87E2D81E6A
:10031000E11CF11C8FEF88169806A806B80631F08C
:10032000C1E08C149D04AE04BF0408F0C0E080E07E
:10033000EDD2C0CFD0E0C0E0D1CFCF92DF92EF922C
:10034000FF920F931F93CF93DF938F3F910511F08F
:1003500008F050C020912C0230912D02233031053D
:1003600039F020912C0230912D022130310531F4E9
:1003700024E030E030932D0220932C026A017B01AF
:10038000EC0182309105A0F011E0AE01C701B60189
:1003900088D2AB01BC01CE011123F9F0DF91CF91DE
:1003A0001F910F91FF90EF90DF90CF900C94150B61
:1003B0008C01000F111F0A541E4FD8018D919C9182
:1003C000892B11F30E941F0B0297F1F6D801ED91D2
:1003D000FC91CE010995182FD8CF0E94370B90E0E1
:1003E00080E0DF91CF911F910F91FF90EF90DF9010
:1003F000CF9008958FEF9FEFF4CF80E087C2CF9327
:10040000DF9386E090E090932D0280932C02D7D268
:10041000EC01E6EBF1E084E0DF011D928A95E9F75B
:1004200073D610922D0210922C02CE01DF91CF9143
:10043000089580912E020895809117020895609387
:10044000060170930701809308019093090190E0E1
:1004500080E00895FC0191E08091F501811190E028
:10046000918308958091F5018F5F843668F58093BC
:10047000F5016091E8017091E9018091EA019091A4
:10048000EB016F5F7F4F8F4F9F4F6093E801709339
:10049000E9018093EA019093EB010E94D0219B0136
:1004A000AC016091EC017091ED018091EE019091B1
:1004B000EF010E9435226093E4017093E50180937F
:1004C000E6019093E70108951092F501D2CFCF9203
:1004D000DF92EF92FF92C0900001D0900101E09076
:1004E0000201F0900301A70196016091E003709171
:1004F000E1038091E2039091E3030E94CC218823E1
:1005000041F0C092E003D092E103E092E203F09266
:10051000E30384E00FDE882339F081E09091EC035F
:10052000911180E08093ED036091ED0383E0FBDDAA
:100530008091ED038093EC038091F0019091F101A3
:10054000A091F201B091F3010196A11DB11D80931C
:10055000F0019093F101A093F201B093F301FF90A9
:10056000EF90DF90CF900895CF92DF92EF92FF92BD
:100570001F93CF93DF93EEECF1E080E090E0A0E8F2
:10058000BFEB80A791A7A2A7B3A78FE692E1A3E84C
:10059000BAE3868F978FA0A3B1A387E69EEDAFEF56
:1005A000B1E984839583A683B7838BE292E3AFE2BC
:1005B000B3E180879187A287B3878CE69DEAAEE49A
:1005C000B5E884879587A687B78785EF9BE2A0E487
:1005D000BBE5808B918BA28BB38BA2ECB1E0B38394
:1005E000A283EAEBF1E01196FC93EE9383E291E0B3
:1005F0009183808393838283958384839783868387
:1006000082EE91E015969C938E93149782ED91E083
:1006100013969C938E93129784EE91E017969C9379
:100620008E931697C8EDD3E0E0E0F1E084818C8BE7
:1006300085818D8B188280819181A281B381888789
:100640009987AA87BB87C12CD12C7601C394C98214
:10065000DA82EB82FC8260E084E05DDD11E01D83E4
:100660001C86CD86DE86EF86F88A61E083E053DD66
:10067000198BDF91CF911F91FF90EF90DF90CF907A
:1006800008958091D803811103C081E08093D8033D
:100690008091E403811103C081E08093E403089515
:1006A0004F925F926F927F928F929F92AF92BF9282
:1006B000CF92DF92EF92FF920F931F93F8944090A6
:1006C0000702509008026090090270900A02C090E0
:1006D000FB01D090FC01E090FD01F090FE01452B64
:1006E00009F0A4C09B01AC0124193509460957093A
:1006F00029013A01009103021091040220910502A0
:100700003091060248015901840C951CA61CB71CA7
:1007100080169106A206B306A0F40091FF01109185
:10072000000220910102309102020F5F1F4F2F4FF4
:100730003F4F0093FF01109300022093010230937A
:1007400002028092030290920402A0920502B092EB
:1007500006020091FF0110910002209101023091E8
:10076000020280920B0290920C02A0920D02B092B3
:100770000E0200930F021093100220931102309387
:10078000120260930702709308028093090290930B
:100790000A02A8EEB3E0A30192010E9487266C0D25
:1007A0007D1D8E1D9F1D6093FB017093FC01809346
:1007B000FD019093FE010091060110910701209127
:1007C0000801309109010F3F1F4F2F4F3F4FF1F0AC
:1007D0000091060110910701209108013091090153
:1007E0000E3F1F4F2F4F3F4F89F0C0900601D09012
:1007F0000701E0900801F090090121E08C149D04AC
:10080000AE04BF0408F420E02093170278941F91EF
:100810000F91FF90EF90DF90CF90BF90AF909F909F
:100820008F907F906F905F904F9008954B015C0187
:1008300084189508A608B708A3019201261B370B58
:10084000480B590B6415750586059705D0F082167F
:100850009306A406B50640F420E030E0A901811417
:100860009104A104B10491F4A8EEB3E00E9487269C
:10087000A7019601261B370B480B590BCA01B9017A
:10088000C5CF82169306A406B50670F7A8EEB3E0AE
:10089000A50194010E9487266C0D7D1D8E1D9F1D54
:1008A000B5CFFECECF93DF9300D000D0CDB7DEB76B
:1008B0001C821B821A821982109213021092140257
:1008C0001092150210921602BE016F5F7F4FCE018B
:1008D00003960E94D81F69817A818B819C810E9436
:1008E0002E1A009761F4BE016F5F7F4FCE01039611
:1008F0000E94E41F69817A818B819C812CD50F90A5
:100900000F900F900F90DF91CF910895FF920F936A
:100910001F93CF93DF93082F60E070E0CB010E941C
:100920005823FF24F3940E941919EC01892B89F0B4
:1009300010E0CE3F8FEFD80769F0002361F160E04F
:1009400070E0CB010E94582381E090E0892B59F39D
:1009500022C011E023D5EC01892B21F0CE3F8FEF8F
:10096000D80759F711111EC011E0229609F410E0C2
:100970000E94CA18EC01892B21F0CE3F8FEFD807D7
:10098000E1F6111111C011E0CE3F8FEFD80709F445
:1009900010E001110BC0CE01DF91CF911F910F919B
:1009A000FF90089511E0E4CF11E0F3CF60E070E034
:1009B000CB010E9458231F25812F90E0C7CFCF93F2
:1009C000DF9380911702882321F060E070E0CB0173
:1009D0004CD635D6D0E0C0E0892B71F06AE070E0EB
:1009E00080E090E00E94582381E090DF28D6219695
:1009F000C03D27E0D20781F727D60E94821A1092C5
:100A00002F0210922E0210922802109229021092A8
:100A10002A0210922B0210922402109225021092A8
:100A200026021092270210922002109221021092A8
:100A300022021092230210921C0210921D021092A8
:100A40001E0210921F0210921802109219021092A8
:100A50001A0210921B024EEF5FEF6FEF7FEF409391
:100A600006015093070160930801709309011092E9
:100A70001702EBE0F2E028E0DF011D922A95E9F78A
:100A800010920702109208021092090210920A02B4
:100A900010920302109204021092050210920602B4
:100AA0001092FF01109200021092010210920202B5
:100AB0001092FB011092FC011092FD011092FE01B8
:100AC000DF91CF91089510923B0210923C02109258
:100AD0003D0210923E0210923A02809143029091A0
:100AE0004402909339028093380210923702109298
:100AF0003602109232021092330210923402109297
:100B000035021092400210923F0290E080E008957A
:100B1000CF92DF92EF92FF920F931F93CF938C01AE
:100B2000892B09F055C020914302309144028091F5
:100B300038029091390240914302509144025093FF
:100B40003902409338022817390781F01092370292
:100B50001092360210923202109233021092340236
:100B6000109235021092400210923F02809143028F
:100B700090914402019761F580913F02909140026B
:100B8000892B21F480910A01811112C080913F02CA
:100B9000909140020197E1F48091320290913302EA
:100BA000A0913402B09135020197A105B10581F4FD
:100BB00010923202109233021092340210923502D7
:100BC00010920A0182E090E09093400280933F02ED
:100BD0008091430290914402019709F01CC18091D9
:100BE000590290915A028017910709F014C180911F
:100BF000550290915602A0915702B0915802009769
:100C000009F409C12091540221110DC040915502EF
:100C1000509156026091570270915802452B462B15
:100C2000472B09F4F8C020913F0230914002223056
:100C3000310509F0F0C0209136022111ECC0FC0111
:100C4000C080D180E280F38080913A02882309F449
:100C5000D3C08091460290914702892B09F4FDC0D0
:100C6000209146023091470281E02230310509F09F
:100C700080E02091460230914702C1E021303105E9
:100C800049F02091460230914702C1E022303105FF
:100C900009F0C0E0882309F456C020915002309139
:100CA00051024091520250915302C701B6010E9475
:100CB000312287FD14C020915002309151024091A1
:100CC00052025091530260913B0270913C0280911C
:100CD0003D0290913E020E94CC2187FD22C02091CE
:100CE0005002309151024091520250915302C7017B
:100CF000B6010E943122181634F52091500230912D
:100D00005102409152025091530260913B02709106
:100D10003C0280913D0290913E020E94CC218111C3
:100D200012C08091480290914902A0914A02B0916C
:100D30004B02892B8A2B8B2B19F481E0809337028D
:100D400081E080933602CC2309F456C020915002F2
:100D5000309151024091520250915302C701B601A5
:100D60000E94CC2187FF14C0209150023091510283
:100D7000409152025091530260913B0270913C02AB
:100D800080913D0290913E020E94312287FF22C055
:100D900020915002309151024091520250915302E1
:100DA000C701B6010E94CC21811126C020915002BA
:100DB00030915102409152025091530260913B0296
:100DC00070913C0280913D0290913E020E9431223E
:100DD000181694F48091480290914902A0914A0219
:100DE000B0914B02892B8A2B8B2B19F481E08093D5
:100DF000370281E08093360281E0909136029111B2
:100E000080E080933A02C0923B02D0923C02E09292
:100E10003D02F0923E02012B09F067C180913F0232
:100E200090914002892BD9F410924502109236021B
:100E300080910A01882379F082E090E0909340024B
:100E400080933F0210920A012091430230914402A4
:100E500081E0232BE9F080E01BC081E00ACF1092F3
:100E60000A0180914502882349F0109237021092BE
:100E7000400210923F0210924502EDCF8091430252
:100E800090914402892BE1F0809136021092360253
:100E900020913F02309140022230310509F45EC0BA
:100EA00088F42115310509F448C02130310509F4D1
:100EB000F3C010923702109236021092450238C0E9
:100EC00081E0E6CF2330310509F4B1C0243031058B
:100ED00081F7409132025091330260913402709157
:100EE0003502411551056105710561F04150510907
:100EF00061097109409332025093330260933402C6
:100F00007093350240913202509133026091340265
:100F100070913502452B462B472BD9F42091410285
:100F2000309142022130310509F046C0109237025B
:100F30001092400210923F020CC080910A01882357
:100F400041F082E090E09093400280933F02109243
:100F50000A011092300280913702CEC08823C9F373
:100F60008091480290914902A0914A02B0914B02AF
:100F7000181619061A061B060CF07DC08091430254
:100F800090914402019709F076C0809148029091B7
:100F90004902A0914A02B0914B0280933202909391
:100FA0003302A0933402B093350283E090E0909333
:100FB000400280933F02CDCF40914C0250914D02B0
:100FC00060914E0270914F02452B462B472BA9F0A2
:100FD0001092370280914C0290914D02A0914E02E6
:100FE000B0914F028093320290933302A093340267
:100FF000B093350281E090E0DACF882399F08091B8
:101000000B0190910C01A0910D01B0910E01809304
:10101000320290933302A0933402B093350284E0FD
:1010200090E0C5CF1092370282E090E0C0CF80916F
:10103000320290913302A0913402B09135020097B0
:10104000A105B10559F00197A109B10980933202B8
:1010500090933302A0933402B09335028091320210
:1010600090913302A0913402B0913502892B8A2BE2
:101070008B2B09F06ECF80910B0190910C01A09108
:101080000D01B0910E01892B8A2B8B2B09F44ECFC9
:1010900081E080933702B3CF409132025091330206
:1010A0006091340270913502411551056105710559
:1010B00061F0415051096109710940933202509326
:1010C00033026093340270933502409132025091A2
:1010D00033026091340270913502452B462B472B29
:1010E00009F037CF8111C7CF9FCF8091300288237D
:1010F00009F431CF80913102CF911F910F91FF9070
:10110000EF90DF90CF90089510923B0210923C0236
:1011100010923D0210923E0210923A02109240024A
:1011200010923F02109239021092380210925A0225
:101130001092590210923702109236021092320227
:101140001092330210923402109235021092310242
:1011500010923002109255021092560210925702CD
:1011600010925802109254021092500210925102A2
:10117000109252021092530288EE93E0A0E0B0E089
:1011800080930B0190930C01A0930D01B0930E017D
:1011900010924C0210924D0210924E0210924F0289
:1011A000109248021092490210924A0210924B0289
:1011B000109247021092460281E080930A01109239
:1011C0004502109244021092430210924202109281
:1011D000410290E080E008958091430290914402A2
:1011E000892B19F580910A01882351F080914502DD
:1011F000811106C081E0809331028093300208950E
:101200002091450230910A0181E090E0332311F0F2
:1012100090E080E030E082239323892B21F010922C
:10122000310281E0EACF10923002089582E090E02E
:10123000FA01918380838FEF9FEF0895CF93DF931F
:10124000EA01009711F00E94FC1A1982188290E0BE
:1012500080E0DF91CF910895DB01009719F48FEFC3
:101260008C9308952EEF2C930F968F30910508F0F4
:1012700033C0FC01E25CF64F0C9481266A096809D0
:101280006609640962095E0960095C095A0958091E
:10129000550951094D0953096C0980E311968C9346
:1012A000089589E2FBCF82E2F9CF11961C9208954E
:1012B00083E2F4CF81E2F2CF81E1F0CF87E2EECF9B
:1012C0008AE2ECCF80E1EACF84E2E8CF88E2E6CFA1
:1012D00086E2E4CF81E3E2CF80E2E0CF8091670253
:1012E0009091680208959093680280936702089530
:1012F00080916602089590916602892B8093660220
:101300000895982F909580916602892380936602B4
:10131000089580916502089580916302909164021E
:1013200008956115710559F0FB0130E020E070E08F
:1013300060E02417350719F06115710511F0CB0134
:101340000895A081B181A817B90709F4BF012F5FE3
:101350003F4F3696EECF8091690281111CC062D258
:1013600068D290935C0280935B020E94B3130E9448
:10137000C5139093600280935F020E9434180E940C
:101380003B1890935E0280935D0281E08093690236
:1013900090E080E0089584EF9FEF08958F929F92F0
:1013A000AF92BF92CF92DF92EF92FF920F931F9373
:1013B000CF93DF93CDB7DEB72A970FB6F894DEBF91
:1013C0000FBECDBF1A86198618861F821E821D8207
:1013D0001C821B821A8219828091690207EF1FEF1B
:1013E000882309F49CC08E010D5F1F4F9E012B5F67
:1013F0003F4FAE01495F5F4FBE01675F7F4F90E097
:1014000080E00E94B4198C01009721F005960297A4
:1014100008F0DBC029853A852115310509F402C1A0
:10142000ED80FE804B815C81B701640F751F8F8159
:1014300098858617970708F4F5C0E20EF31ED701CA
:101440009C91903C09F07FC04230510508F47BC06C
:1014500011968C914091670250916802452B09F4D6
:101460009CC0913F08F071C02CE1290F2D3008F489
:101470008BC02DE2290F203108F489C0903C21F463
:101480008150823008F483C088E3890F8B3008F4E0
:1014900081C09CE2C92E99E0D92EE6E1F9E06D8188
:1014A0007E81AE014F5F5F4F89859A8509955C010A
:1014B000C114D104A1F189809A808114910479F139
:1014C0008B819C818815990508F487C010E000E0A5
:1014D0004B815C8170E060E0C7010E94A926011584
:1014E0001105E9F449815A8169857A858D819E814A
:1014F000680F791FC501F6010995E980FA800D8111
:101500001E812F81388549855A856FEF7FEF81E0F5
:1015100090E00E9450198C01892B09F056C0C80137
:101520002A960FB6F894DEBF0FBECDBFDF91CF91E4
:101530001F910F91FF90EF90DF90CF90BF90AF90F1
:101540009F908F90089580E085CF30E020E0220FBB
:10155000331FF901E55AFD4F0190F081E02D3097DE
:1015600009F497CF892F90E00995009709F491CF5E
:10157000DC011296ED91FC9113971496CD90DC90BE
:10158000309709F08CCF1FC021E030E0E0CF22E09F
:1015900030E0DDCF23E030E0DACFD12CC12CEEE11A
:1015A000F9E09F3F09F07BCFE0915B02F0915C0294
:1015B000309721F4C90104EF1FEF0CC08FEF90E0CA
:1015C00009950097A9F604EF1FEF89859A85009782
:1015D00009F4A5CF0E94FC1AA2CF0E947D1A8C01AB
:1015E00089859A850E94FC1A70E060E0C4010E941F
:1015F000161A98878F830E944D199E838D836F8161
:1016000078856115710559F0C8010E941F1C9A87E1
:10161000898706EF1FEF892B09F058CF59CF08EFC4
:101620001FEF56CF08EF1FEFD0CF20916902222382
:1016300019F020E00C94CA1387EF9FEF0895809172
:1016400067029091680208950E9440180E949A17BC
:10165000F5D0EBE5F2E088E0DF011D928A95E9F72D
:101660001092690290E080E008950C94F71521E053
:1016700040E050E0BA010C94CA1386E090E0FA0111
:101680009183808390E080E0089547E050E066E237
:1016900071E047CEDF92EF92FF920F931F93CF93AB
:1016A000DF938A01EC01C60FD71FE0906D02F09026
:1016B0006E02D9800E94651AD816190678F082E069
:1016C00090E0F801918380838EEF9FEFDF91CF91BF
:1016D0001F910F91FF90EF90DF900895EF2841F454
:1016E00082E090E0F8019183808384EF9FEFEECF5A
:1016F000898180936C0290E00196F8019183808348
:1017000090E080E0E3CFCF93DF93EA010E94A81638
:10171000882321F00E94721A0E94A91682E090E0AC
:10172000998388838BEF9FEFDF91CF910895CF93BB
:10173000DF93EB0186E0FB0111928A95E9F78FEFC9
:101740008883D6DD8983E5DD8A83E6DD9D838C830E
:10175000DF91CF910895CF93DF93EA010E94AB16FA
:10176000811109C082E090E09983888385EF9FEF23
:10177000DF91CF91089590E080E0B5DD81E090E0C9
:101780009983888390E080E0F3CF0F931F93CF93EA
:10179000DF93EA018C01060F171F0E94AB1681111F
:1017A0000BC082E090E09983888385EF9FEFDF9103
:1017B000CF911F910F910895F8018181823038F007
:1017C00082E090E0998388838EEF9FEFF0CF81E0F5
:1017D00090E089DD88E090E09983888390E080E064
:1017E000E6CFCF93DF930097D1F4EB01FB01329664
:1017F00086E0DF011D928A95E9F78FEF888385E007
:1018000089831A820E94651A8B830E94641A9D83C1
:101810008C8381E08E838F83DF91CF910895DF9158
:10182000CF911ACD85E49BE090936B0280936A027E
:10183000089580916A0290916B02089510926B0254
:1018400010926A02089580916D0290916E0208953F
:10185000411105C0611571058105910561F0609325
:101860006D0270936E0280936F02909370024093AA
:10187000710281E0089580E00895FF920F931F9315
:10188000CF93DF938A01EC01C60FD71FF9800E9426
:10189000651AF816190668F082E090E0F801918365
:1018A00080838EEF9FEFDF91CF911F910F91FF907B
:1018B00008956C817D818E819F814B81C9DF81116B
:1018C00008C082E090E0F8019183808384EF9FEF6D
:1018D000EACF898180936C0290E00196F8019183B0
:1018E000808390E080E0DFCFCF93DF93EA01FC01BB
:1018F000E60FF71F64817581868197814381A8DF98
:10190000811109C082E090E09983888384EF9FEF82
:10191000DF91CF91089581E090E09983888390E0F2
:1019200080E0F6CFEDE6F2E0408151816281738183
:10193000480F511D611D711D408351836283738364
:101940000895CF93C0916C024C2F50E060916D02CE
:1019500070916E0201960E94A0268C2FE3DF1092F8
:101960006C02CF910895009799F480916D02909147
:101970006E022FEFFB012083892B59F020916C021E
:1019800030E02F5F3F4F2417350719F4CB01D9CF33
:1019900063CC0895009799F480916D0290916E0246
:1019A0002FEFFB012083892B59F020916C0230E04E
:1019B0002F5F3F4F2417350719F4CB01C2CF4CCC12
:1019C000089523E1AC01249FC001259F900D1124AF
:1019D000E0917602F0917702E80FF91F23813481BC
:1019E0002250310981E02230310508F080E008956D
:1019F0000F931F93CF93DF93009178021091790298
:101A0000D0E0C0E080E00C171D0749F491E081119F
:101A100090E0892FDF91CF911F910F91089581114F
:101A2000F5CFCE01CEDF2196EECFA0917602B09118
:101A30007702109729F1209178023091790282176C
:101A40009307F0F453E1589F9001599F300D1124F2
:101A5000A20FB31FED91FC911197309789F0129668
:101A60008C91681768F48BE0689FE00DF11D1124DC
:101A700080819181892B21F081E09281491708F0C2
:101A800080E008959C0143E1429FC001439F900D77
:101A90001124E0917602F0917702E80FF91F838517
:101AA000823091F481E090E06581768140910F0170
:101AB000509110016417750711F490E080E0892BB4
:101AC00019F081E0232B09F080E00895EF92FF9256
:101AD0000F931F93CF93DF93EA01FC01E60FF71FEB
:101AE00002811381E480F5804F2D6E2DC8019DDFAA
:101AF00081110DC082E090E0998388838EEF9FEF83
:101B0000DF91CF911F910F91FF90EF900895C80141
:101B100058DF882339F082E090E09983888388EF4A
:101B20009FEFEECF1093160100931501E09217017D
:101B3000F092180181E090E09983888390E080E042
:101B4000DFCFCF92DF92EF92FF920F931F93CF934D
:101B5000DF937A01EC01C60FD71FC0901501D0901A
:101B600016010091170110911801412F602FC60135
:101B70005CDF811110C082E090E0F70191838083E7
:101B80008AEF9FEFDF91CF911F910F91FF90EF9020
:101B9000DF90CF900895C60114DF882341F082E0E2
:101BA00090E0F7019183808388EF9FEFEBCF4C812A
:101BB0005D816E817F819A8189818F3F41F082E0D2
:101BC00090E0F701918380838EEF9FEFDBCFE3E11D
:101BD000EC9D9001ED9D300D1124E0917602F09185
:101BE0007702E20FF31F0190F081E02D2BE0029FBE
:101BF000E00DF11D11240190F081E02D27E0129FEE
:101C0000E00DF11D1124808391838B8182834383B6
:101C10005483658376831F5F1093180181E090E001
:101C2000F7019183808390E080E0ACCFEF92FF9248
:101C30000F931F93CF93DF937A018C01060F171F29
:101C4000C0917602D0917702209781F021E030E0B8
:101C5000F801828193814091780250917902841732
:101C6000950710F030E020E0232B71F482E090E043
:101C7000F701918380838EEF9FEFDF91CF911F91CA
:101C80000F91FF90EF90089543E1489F9001499F85
:101C9000300D1124C20FD31F94DE882341F082E05F
:101CA00090E0F7019183808388EF9FEFE6CFF80102
:101CB0002481358120383105C8F687818111D6CF3E
:101CC0004181842F90E08F7E009741F082E090E088
:101CD000F7019183808386EF9FEFCFCF4F833E83C1
:101CE0002D83268128871986223010F421E0288749
:101CF00021E030E0F70131832083BFCF88E090E01E
:101D0000FA019183808390E080E00895FB018FEFDA
:101D1000808381E181838FEF9FEF9383828380E8CB
:101D200090E095838483168217820895FB018FEFDC
:101D3000808391E0918382839383848384E385838A
:101D400081E090E0978386830895DF92EF92FF927F
:101D50000F931F93CF93DF93EA01FC01E60FF71F68
:101D60008181813071F082E090E0998388838FEFE8
:101D70009FEFDF91CF911F910F91FF90EF90DF9038
:101D8000089582819381D4802581E680F780009137
:101D90007602109177020115110539F482E090E086
:101DA000998388838CEF9FEFE4CF40917802509124
:101DB00079028417950738F082E090E09983888350
:101DC0008EEF9FEFD6CF892B39F082E090E0998398
:101DD000888386EF9FEFCDCF8D2D8D7FB1F721309A
:101DE000A1F781E0D11006C091E0E916F10431F0CD
:101DF00080E004C0E2E0EE16F104D0F3882329F37A
:101E000090E080E0DEDD882339F082E090E0998385
:101E1000888388EF9FEFADCFF801D38681E0848778
:101E2000F686E586108A178681E090E0998388839C
:101E300090E080E09ECF4CE050E060E571E071CA38
:101E40008F929F92BF92CF92DF92EF92FF920F9369
:101E50001F93CF93DF93EA01FC01E60FF71F828106
:101E600093810481B580E0917602F09177023097FA
:101E700091F482E090E0998388838CEF9FEFDF916B
:101E8000CF911F910F91FF90EF90DF90CF90BF9077
:101E90009F908F9008952091780230917902821757
:101EA000930738F082E090E0998388838EEF9FEF6C
:101EB000E6CF23E1289F6001299FD00C1124EC0D6F
:101EC000FD1DE080F180E114F10499F28281081790
:101ED00048F78BE0089F80011124E00EF11EF70106
:101EE00080819181892B29F6BB20E1F2F7E0BF9E2A
:101EF00040011124C4010E94F91AF70191838083E3
:101F0000E0917602F0917702EC0DFD1D0190F081D9
:101F1000E02DE00FF11F80819181009739F482E07C
:101F200090E0998388838DEF9FEFA9CFA40170E0A3
:101F300060E00E94A9268091760290917702C80EF7
:101F4000D91EF60180819181080F191FF801B28214
:101F500081E090E09983888390E080E090CFAF9219
:101F6000BF92CF92DF92FF920F931F93CF93DF9395
:101F7000EA01FC01E60FF71F82819381F480009152
:101F80007602109177020115110581F482E090E04C
:101F9000998388838CEF9FEFDF91CF911F910F91F1
:101FA000FF90DF90CF90BF90AF900895209178027E
:101FB000309179028217930738F082E090E099839C
:101FC00088838EEF9FEFE8CF2FEF2F0D2C3FA8F7E0
:101FD00023E1289F6001299FD00C11240C0D1D1DA9
:101FE000F80180819181892B89F6FBE0FF9E5001E9
:101FF0001124C5010E94F91AF80191838083E091B0
:102000007602F0917702EC0DFD1D808191810097A1
:1020100039F482E090E0998388838DEF9FEFBCCF05
:10202000A50170E060E00E94A926E0917602F0919F
:102030007702EC0DFD1DF28281E090E099838883A8
:1020400090E080E0A9CFCF92DF92EF92FF920F93C2
:102050001F93CF93DF93860F971FFC01028113819B
:102060008091760290917702892B81F082E090E056
:10207000FA01918380838CEF9FEFDF91CF911F91C5
:102080000F91FF90EF90DF90CF900895C801B0E0DE
:10209000A0E00197A109B1098F3F9F4FA105B105AC
:1020A00040F082E090E0FA01918380838EEF9FEF11
:1020B000E4CF7A0183E1809F6001819FD00C1124DD
:1020C000C6010E94F91AEC01009741F482E090E009
:1020D000F701918380838DEF9FEFCFCFA60170E052
:1020E00060E00E94A926D0937702C09376021093F5
:1020F00079020093780290E080E02FEF3FEF41E01B
:1021000061E070E08017910741F481E090E0F70111
:102110009183808390E080E0B0CF3A8B298B1B863F
:102120004C877E876D87188A1F8601966396EACF53
:10213000CF92DF92EF92FF920F931F93CF93DF9393
:10214000EC01D12CC12C10E000E0F12CE12C6A81D3
:1021500070E006171707BCF0660F771FAE014F5EE1
:102160005F4FC7010E94261B009721F02FEF3FEF22
:102170003A8B298BDF91CF911F910F91FF90EF90B8
:10218000DF90CF900895E881F981EC0DFD1D43812A
:1021900054818D859E85489F9001499F300D589FA1
:1021A000300D1124C90101960115110519F44F8153
:1021B00044FD049661E070E00E94161AE816F906E4
:1021C00008F47C010F5F1F4F8BE0C80ED11CBFCFFE
:1021D000F894209174023091750281E02115310547
:1021E00009F080E0232B09F0789408952F923F9214
:1021F0004F925F926F927F928F929F92AF92BF9217
:10220000CF92DF92EF92FF920F931F93CF93DF93C2
:102210003C01660E771EF301828193814C01B12C43
:10222000A12CC0917602D0917702209769F021E02D
:1022300030E060917802709179028617970710F06C
:1022400030E020E0232BD1F482E090E0FA0191838A
:1022500080838EEF9FEFDF91CF911F910F91FF90C1
:10226000EF90DF90CF90BF90AF909F908F907F9036
:102270006F905F904F903F902F900895809219013A
:1022800090921A01A0921B01B0921C0163E1689F19
:102290009001699F300D1124C20FD31FF30181817A
:1022A000833040F082E090E0FA019183808386EFF2
:1022B0009FEFD1CF2A012B813C81232BF1F4288180
:1022C00039819F8191FF2EC0232B09F46FC020918B
:1022D0007B029A81422F490F5527551FBA0141E0D1
:1022E00050E06138710514F050E040E0452B09F4EE
:1022F0005DC02A87920F90937B028150823008F450
:1023000081C066DF882309F4D8C0F3018181813060
:1023100009F48DC008F47BC0823009F4C6C090E097
:1023200080E0ADC0232B09F441C020917A029A814C
:10233000E22FE90FFF27FF1F41E050E0ED3FF105DD
:1023400014F050E040E0452B89F12A87920F9093DA
:102350007A02D3CFA081B181A20FB31F11966C91E5
:10236000060F111D0196295F3F4F8417950794F3BF
:102370008D859E85089F1001099F300C189F300C99
:102380001124C114D104D1F48F8184FF17C00E949D
:10239000641AF5E02F0E311C21E08215930508F434
:1023A00020E0A701455F5F4F21110EC082E090E061
:1023B000F2019183808387EF9FEF4DCF0E94641AD3
:1023C0002FEF221A320AE8CF88819981E80EF91E90
:1023D000F70114830383FFEFCF1ADF0A7A018A81A2
:1023E0008C151D0409F00CF48CCFE881F981EE0DF9
:1023F000FF1D428150E030E020E010E000E090E07E
:1024000080E0B3CFF12CE12CD12CC12CE8CF81E0BE
:1024100090E09C838B83ECDA882309F480CF81E001
:1024200090E00E94730980E40E94810978CF898935
:102430009A89019661F083E090E09C838B8382E02F
:1024400090E00E94730980E40E947B0968CF8D812F
:102450009E8120910F013091100182179307D1F4D2
:102460006091130170911401AE014F5E5F4F809136
:102470001101909112010E94DE1B0097E1F2789405
:1024800022E030E0F20131832083892B99F08DEF37
:102490009FEFE1CE89288A288B2869F6029758F6A3
:1024A000CE0146DE188A1F86E8CF82E090E09C834A
:1024B0008B8335CF90E080E0CECE82E090E0F201D9
:1024C0009183808385EF9FEFC6CE8F929F92AF92CC
:1024D000BF92CF92DF92EF92FF920F931F93CF9311
:1024E000DF93EA018C01060F171FF8018181833009
:1024F00098F082E090E09983888386EF9FEFDF91E8
:10250000CF911F910F91FF90EF90DF90CF90BF90F0
:10251000AF909F908F90089580917602909177026E
:10252000892B61F081E090E020917802309179026E
:10253000232B11F490E080E0892B39F482E090E0C5
:10254000998388838EEF9FEFDACF42DE882309F4E8
:10255000E0C0F8018181813009F496C0E8F0823052
:1025600099F42091780230917902E0917602F0910D
:10257000770290E080E041E050E02817390709F049
:10258000BEC036DA811117C0789481E090E099835B
:10259000888390E080E0B3CF209178023091790277
:1025A000E0917602F091770290E080E041E050E027
:1025B0002817390741F481E090E00E94730980E414
:1025C0000E948109E1CF63817481672B11F05483EC
:1025D000438301967396ECCFE0917602F0917702F7
:1025E000E00FF11F2381348122303105D9F4218994
:1025F00032892F3F3F4FB1F42581368140910F0141
:10260000509110012417350761F5AF014F5E5F4F00
:102610006091130170911401809111019091120148
:102620000E94DE1BEFEFCE1ADE0AEE0AFE0A0D5EF6
:102630001F4F409178025091790270E060E0C4161B
:10264000D506E606F70644F5009731F27894892B13
:1026500009F49BCF82E090E0998388838DEF9FEF10
:102660004ECFC114D104E104F104E1F6223031056A
:10267000C8F6CF015DDDE0917602F0917702E00FC0
:10268000F11F108A1786CECF10E000E090E080E0C6
:10269000C12CD12C7601CDCF0097C1F610E000E01F
:1026A000812C912C540183E0E82EF12C1AC0E0918A
:1026B0007602F0917702E00FF11F838194810297F7
:1026C00049F4F482E38282E090E00E94730980E49E
:1026D0000E947B09FFEF8F1A9F0AAF0ABF0A0D5EA7
:1026E0001F4F8091780290917902B0E0A0E08816A7
:1026F0009906AA06BB06DCF290E080E0A7CF6381D2
:1027000074816230710511F454834383019673968A
:1027100034CF82E090E09983888385EF9FEFEFCEFE
:102720000097B9F48FEFFB0180832091190130915C
:102730001A0143E1429FC001439F900D1124E09193
:102740007602F0917702E80FF91F8285FB01818301
:1027500008950C942C0988E090E0FA01918380831D
:1027600090E080E008951092750210927402E6E7FE
:10277000F2E086E0DF011D928A95E9F78BE19FE0A8
:1027800090937302809372020895809172029091E7
:10279000730208952F923F924F925F926F927F92B1
:1027A0008F929F92AF92BF92CF92DF92EF92FF9261
:1027B0000F931F93CF93DF93CDB7DEB760970FB61C
:1027C000F894DEBF0FBECDBFF894E0917402F09193
:1027D00075023196F0937502E09374027894A0919B
:1027E0007602B0917702BA83A983109709F4F9C1F0
:1027F000E0917802F0917902EF2B09F4F2C1288779
:102800004B875C876D877E879A878987B88BAF8770
:10281000312C212CF12C512C412C8091780290915B
:1028200079022816390610F4FF2029F1F8948091D6
:1028300074029091750201979093750280937402CF
:102840007894C20160960FB6F894DEBF0FBECDBF7C
:10285000DF91CF911F910F91FF90EF90DF90CF907C
:10286000BF90AF909F908F907F906F905F904F90B0
:102870003F902F900895B10190E080E086D4682EBB
:10288000EF85F889878181FD3DC08381948103971D
:10289000C9F5258136813C832B8389859A85281744
:1028A000390781F5C101EED8782E8823A9F1AF85CB
:1028B000B8891F968D919C915097019621E01D96A5
:1028C0004D915C918417950709F020E02F83B12C7E
:1028D000A12CEF85F88982818A151B0419F014F068
:1028E000FF20E9F0F885FF2309F46BC1AF85B889B3
:1028F00050961C921E921F97662021F0B10190E025
:1029000080E045D4FFEF2F1A3F0A2F8538892D5ECE
:102910003F4F388B2F8781CFB1E0BF83D8CFBDD455
:102920009E838D83E885EE23E9F0772009F43BC18F
:10293000AF85B8891F968D919C91892B79F0BBE06A
:10294000BA9DC001BB9D900D1124AF85B889ED9152
:10295000FC91E80FF91F858196814ED6BFEFAB1A27
:10296000BB0AB7CF81E0772039F0EF85F88927855A
:102970003089232B09F080E0F82EE12CA114B1045A
:1029800039F4AF85B8891796EC90E4FAEE24E0F8B4
:10299000BBE0BA9D6001BB9DD00C1124882309F4D3
:1029A00023C1AF85B889ED91FC911197EC0DFD1D08
:1029B000438154811D962D913C91429FC001439FBC
:1029C000900D529F900D1124E1105CC001969087EC
:1029D000878361E070E08781908528D5EF85F8894D
:1029E00021893289008111810C0D1D1D2F3F320775
:1029F00009F44AC0BC01C90122D7D80116969C939C
:102A00008E931597AF85B889ED91FC911197EC0DD8
:102A1000FD1D058116810115110509F4CDC0ED815B
:102A2000FE810E0F1F1F1A968C918A0DD8018C9370
:102A3000E1102FC00F5F1F4FAF85B889ED91FC915A
:102A4000EC0DFD1D12870187AF85B889ED91FC91D2
:102A5000EC0DFD1D85819681892B09F4A4C0809120
:102A60000F01909110012B813C812817390709F43F
:102A700065C0772011F001851285912C812C1A8276
:102A800019824AC00596A3CFB4D5F80196838583F1
:102A9000B9CF8B859C85AD85BE85F80181839283F6
:102AA000A383B4830B5F1F4FC7CFE080F180E80C96
:102AB000F91CD70113966D917C9114978C918F3FDF
:102AC00009F473C0E1E0F0E002C0EE0FFF1F8A9549
:102AD000E2F7CF01092E000CAA0BBB0BFB014081D2
:102AE00051816281738184239523A623B72321E03A
:102AF000892B8A2B8B2B09F420E0D8012C93D7014A
:102B000011968C91080F111DE981FA813196FA8393
:102B1000E983F7E08F0E911CAF85B889ED91FC91A8
:102B2000EC0DFD1D828129813A818217130611F077
:102B30000CF0BBCF772011F0128701873F81332340
:102B400091F1AF85B889ED91FC91EC0DFD1D61E02F
:102B500070E0878190856AD4AF85B889ED91FC914A
:102B6000EC0DFD1DE780F08445815681E1E0F0E049
:102B7000662011F0F0E0E0E00D811E819C01B101C2
:102B8000882799278E1B9F0B8BD32C01892B59F0FB
:102B9000EF85F88980819181C80ED91ED6011596DE
:102BA0008D919C9129D5F12CD9CEF701418150E02E
:102BB000C8010E94A026A3CF86EF482E55245A9420
:102BC000CDCEEF85F889878590890196908B878790
:102BD000258536858217930709F08ECE108A1786D1
:102BE0008BCE512C412C22CE10E000E02DCF2F9225
:102BF0003F924F925F926F927F928F929F92AF928D
:102C0000BF92CF92DF92EF92FF920F931F93CF93D9
:102C1000DF93809176029091770210E000E0892B9B
:102C2000A9F0D6DA0AEF1FEF882381F0209078020E
:102C300030907902C0917602D0917702D12CC12CCC
:102C400010E000E02C143D04A9F47894C801DF9151
:102C5000CF911F910F91FF90EF90DF90CF90BF9099
:102C6000AF909F908F907F906F905F904F903F902C
:102C70002F900895C6010E94420D882309F18B818F
:102C80009C810397E9F48F859889892BC9F0B60157
:102C900090E080E07AD221E030E0882311F030E04B
:102CA00020E044245524421A530AB12CA12C912C23
:102CB000812C8A818815190409F038F4188A1F8636
:102CC0004FEFC41AD40A6396BDCFE881F981EA0DAB
:102CD000FB1D85819681892BA1F161E070E08781E0
:102CE0009085A4D33C01D9D28C01E881F981EA0D09
:102CF000FB1D8185928525813681200F311FAC0116
:102D0000421B530B9A0147815085421B530B70E0C5
:102D100060E00E94A926E881F981EA0DFB1DE780A9
:102D2000F084458156819301B601C201B9D28C016C
:102D3000892B39F0E881F981EA0DFB1D85819681A7
:102D40005BD45FEF851A950A8BE0A80EB11CB1CF5A
:102D50003FCA789408952F923F924F925F926F925C
:102D60007F929F92AF92BF92CF92DF92EF92FF92AB
:102D70000F931F93CF93DF9300D000D000D0CDB737
:102D8000DEB7009176021091770299249394011591
:102D9000110509F43EC0A0907802B090790218DACB
:102DA000982E8823B1F11092770210927602109239
:102DB00079021092780210927A0210927B028FEFC1
:102DC0009FEFDC018093190190931A01A0931B01DE
:102DD000B0931C0178947AD31E830D83C12CD12C1F
:102DE0007601C501B0E0A0E089839A83AB83BC8300
:102DF00022242A94322C89819A81AB81BC81C81605
:102E0000D906EA06FB06F4F0C801F6D380E40E9476
:102E10008109892D26960FB6F894DEBF0FBECDBF6F
:102E2000DF91CF911F910F91FF90EF90DF90CF90A6
:102E3000BF90AF909F907F906F905F904F903F902A
:102E40002F900895AD81BE8115968D919C91169716
:102E500020910F013091100182179307D1F4519600
:102E60008D919C91DAD4ED81FE8180819181B12C8C
:102E7000A12C412C512C3201892B89F5BFEFCB1AA3
:102E8000DB0AEB0AFB0AED81FE817396FE83ED837C
:102E9000B2CFC114D104E104F10429F7029718F765
:102EA000ED81FE81818992898F3F980709F057D47F
:102EB000AD81BE8152963C922E925197D4CF8A0D0D
:102EC0009B1DDC018D919C91009709F095D3BFEF7C
:102ED0004B1A5B0A6B0A7B0AEBE0AE0EB11CAD81AC
:102EE000BE818D919C91119712964C9150E070E0AB
:102EF00060E044165506660677060CF37DD3BECF18
:102F0000CF93DF93EA0127DF811109C082E090E0CF
:102F10009983888385EF9FEFDF91CF91089581E0BA
:102F200090E00E94730981E090E09983888390E0AB
:102F300080E0F2CF10DF10927302109272020895B7
:102F400042E050E068E971E00C949109FF920F9320
:102F50001F93CF93DF938A01EC01C60FD71FF9802F
:102F6000B4D20897F816190671F068F082E090E084
:102F7000F801918380838EEF9FEFDF91CF911F91B6
:102F80000F91FF9008956C817D818E819F814B818F
:102F90000E94280C811108C082E090E0F801918322
:102FA000808384EF9FEFE9CFF9800E94230C4F2D9F
:102FB00050E0BE01685F7F4F0E94A02689810E9479
:102FC000920C81E090E0F8019183808390E080E0B2
:102FD000D4CFDF92EF92FF920F931F93CF93DF93A3
:102FE0008A01EC01C60FD71F0E94230C7C01D980F7
:102FF0006CD2DD2059F0029721E030E0D816190696
:1030000019F010F030E020E0232B79F482E090E01A
:10301000F801918380838EEF9FEFDF91CF911F9115
:103020000F91FF90EF90DF900895EF2841F482E038
:1030300090E0F8019183808384EF9FEFEECFF980D9
:103040000E94230C4F2D50E0BE016E5F7F4F0E9407
:10305000A02689810E94920C81E090E0F801918382
:10306000808390E080E0D9CF80EA97E190937D0261
:1030700080937C02089580917C0290917D02089556
:103080000895FC0111821082938382830895DB01ED
:103090001D921C92DC011296ED91FC9113977183A5
:1030A000608313967C936E9312970895FC01808140
:1030B0009181DB018D939C93A081B181109741F0A8
:1030C0008D919C9191838083892B11F4F383E2830A
:1030D0000895FC0180819181DB018D939C93892B64
:1030E00011F473836283718360830895FC011182FC
:1030F0001082938382830895CF93DF9300D0CDB75E
:10310000DEB71A821982F894BE016F5F7F4F83E8A1
:1031100092E0CCDF89819A81009709F06DD2898194
:103120009A81892B89F7BE016F5F7F4F87E892E014
:10313000BDDF89819A81009709F05ED289819A81E9
:10314000892B89F778940F900F90DF91CF91089594
:10315000CF93DF9300D0CDB7DEB71A821982F894EF
:10316000BE016F5F7F4F8FE792E0A0DF89819A8178
:10317000009709F041D289819A81892B89F7789447
:103180000F900F90DF91CF91089581E0089590E026
:1031900080E00895EF92FF920F931F93CF93DF93F8
:1031A00000D0CDB7DEB71A82198280917E0207EF78
:1031B0001FEF8823A1F1F894BE016F5F7F4F87E86E
:1031C00092E074DF789489819A81EE24E394F12C63
:1031D000892B51F4F894BE016F5F7F4F83E892E032
:1031E00065DF7894F12CE12C89819A810EEF1FEF35
:1031F0000097A9F0FC014281538164E070E00DD595
:103200008C01892B61F0F89469817A81C701880F5C
:10321000991F880F991F8D579D4F5BDF7894C801C8
:103220000F900F90DF91CF911F910F91FF90EF9032
:1032300008950F931F93CF93DF9300D000D0CDB7A5
:10324000DEB71C821B821A82198280917E0207EFF0
:103250001FEF8823C1F0AE014D5F5F4F64E070E067
:10326000CE0101964DD58C01892B69F4E981FA8153
:103270008B819C8193838283F89469817A818FE723
:1032800092E005DF7894C8010F900F900F900F9097
:10329000DF91CF911F910F91089551D60496089513
:1032A0008F929F92AF92BF92CF92DF92EF92FF9256
:1032B0000F931F93CF93DF9300D0CDB7DEB71A8261
:1032C0001982BC016F5F7F4F6330710598F0AA24AB
:1032D000AA94BA2CC5010F900F90DF91CF911F9146
:1032E0000F91FF90EF90DF90CF90BF90AF909F90A5
:1032F0008F9008954115510551F3480159018A01F4
:103300006C01CBDF8815990511F7E114F104F9F28E
:103310008E0D9F1DA816B906D0F280917E028823DB
:10332000F1F0F894B501645071099701AE014F5F57
:103330005F4FC801049678D55C01892B71F48981AF
:103340009A81F80193838283C601880F991F880FA1
:10335000991FB8018D579D4F9ADE7894BBCF87EFA8
:10336000A82EBB24BA94B6CFAF92BF92CF92DF9271
:10337000EF92FF920F931F93CF93DF9300D0CDB7BF
:10338000DEB71A821982892B09F047C061157105D1
:1033900009F443C04115510509F43FC02115310519
:1033A00009F43BC001151105C1F180917E0288230B
:1033B000B9F179016A015B01F894BE016F5F7F4F3B
:1033C0008FE792E073DE789489819A81009759F1B2
:1033D000DC0112966D917C91A80104963ED58C017A
:1033E000E981FA81D501ED93FC9382819381049662
:1033F000F6019183808351DFD7018D939C93C8019F
:103400000F900F90DF91CF911F910F91FF90EF9050
:10341000DF90CF90BF90AF9008950FEF1FEFEFCFE9
:1034200007EF1FEFECCF0EEF1FEFE9CFCF93DF9346
:10343000EC01672B71F48CD58C179D0760F07FD55C
:103440002496C80FD91F7ED58C0F9D1FDF91CF9179
:1034500008957BD5F1CF90E080E0F8CF0F931F93D4
:10346000CF93DF9320917E0221112BC08B01EC01C1
:1034700083E892E006DE87E892E003DE8FE792E0E1
:1034800000DE97D00097C1F463D570E060E0CEDF36
:103490004DE151E062E070E0D9D0009769F480918D
:1034A0001D0190911E0166D5B801CE019CD30097F5
:1034B00019F421E020937E02DF91CF911F910F91AB
:1034C000089584EF9FEFF8CF40C542C5CF93DF93B7
:1034D00042D5EC01892B11F40FDE3ADECE01DF91EB
:1034E000CF910895CF93DF9336D5EC01892B09F462
:1034F00003DECE01DF91CF91089580911D0190915F
:103500001E010895CF93DF9380917E02D0E0C0E04A
:103510008823D1F034D5EC01892BB1F4EDDD18DE30
:1035200080911D0190911E011AD1CED1EC01892B01
:1035300059F483E892E0DADD87E892E0D7DD8FE79F
:1035400092E0D4DD10927E02CE01DF91CF910895FA
:10355000EF92FF920F931F93CF93DF93EC017A01C9
:103560008B010F5F1F4F0E9DA0010F9D500D1E9DE3
:10357000500D112470E060E00E94A92690E080E0E8
:10358000F0E0E0E02FEFE816F90639F4DF91CF9193
:103590001F910F91FF90EF9008951A82198228834E
:1035A000309711F0D283C1830196FE01C00FD11F65
:1035B000EACFEDE8F2E085E8DF011D928A95E9F7B0
:1035C00010928C0210928B02E9E1F3E011821082DA
:1035D0001582148213821282178216821186108637
:1035E000E5E1F3E0118210821382128290E080E024
:1035F000089590E080E00895009739F1DC018E9104
:10360000813041F4E0911703F09118033097E9F00D
:10361000CD010994811119C0F8948FEF8C9380919A
:10362000190390911A0312969C938E931197B0935D
:103630001A03A093190380911B0390911C03019618
:1036400090931C0380931B0378940895EF92FF924C
:103650000F931F93CF93DF934115510509F47CC05D
:10366000009709F479C06115710509F475C0EA0184
:10367000AB01BC01F8948091190390911A03892B36
:1036800019F580E992E08C7F6D5F7F4F6C7F9B0125
:103690002F5F3F4F249F8001259F100D349F100DF9
:1036A000112420912103309122032115310509F0C5
:1036B0003CC0E0908B02F0908C0222E830E02E19A2
:1036C0003F092017310730F478942FEF3FEF86EF52
:1036D0009FEF22C090931A038093190350931E0307
:1036E00040931D0350931C0340931B0370932003CE
:1036F00060931F031093220300932103009709F0A6
:1037000027DF0E0D1F1D10938C0200938B027894FF
:1037100030E020E090E080E039832883DF91CF9192
:103720001F910F91FF90EF9008952017310760F2DD
:1037300090931A038093190350931E0340931D0323
:1037400050931C0340931B037093200360931F034B
:103750000097E9F2FDDEDBCF8FEF9FEFDFCF892B04
:1037600051F5F89410921A031092190310921E0347
:1037700010921D0310921C0310921B031092200341
:1037800010921F032091210330912203211531054E
:1037900071F080918B0290918C02821B930B90931D
:1037A0008C0280938B021092220310922103789452
:1037B00090E080E008958FEF9FEF08954115510547
:1037C00049F1009739F16115710521F1F8942091C3
:1037D000150330911603232BB9F420911703309170
:1037E0001803232B89F49093160380931503709389
:1037F000180360931703789421E030E090E080E0B4
:10380000FA0131832083089578942FEF3FEF86EFFC
:103810009FEFF6CF8FEF9FEF0895019769F4F8942B
:1038200010921603109215031092180310921703AA
:10383000789490E080E008958FEF9FEF08956115F0
:10384000710519F4F0E0E0E011C08130910581F4D8
:10385000E0911503F09116033097A1F3CB01019687
:103860000995009779F3FC0181E08193CF010895D8
:10387000892B41F78091190390911A03892B11F339
:1038800080911F039091200386179707D8F2F89430
:1038900080911B0390911C03009731F0E091190374
:1038A000F0911A03309711F47894CCCF21813281B2
:1038B00030931A0320931903019790931C0380936C
:1038C0001B0311927894D2CFE2E1F3E083E0DF01B1
:1038D0001D928A95E9F7EDE8F2E085E8DF011D9297
:1038E0008A95E9F710928C0210928B02E9E1F3E0DD
:1038F0008AE0DF011D928A95E9F7E5E1F3E084E0D3
:10390000DF011D928A95E9F790E080E00895CF935A
:10391000DF93C0911F01D0912001CF3FDC0759F404
:10392000C0D39093200180931F0197FF09C0D093CB
:103930002001C0931F0184EF9FEFDF91CF91089585
:1039400090E080E0FACF8230910528F48093230341
:1039500090E080E008958FEF9FEF08954F925F927F
:103960006F927F92AF92BF92CF92DF92EF92FF92CF
:103970000F931F93CF93DF9300D0CDB7DEB71A829A
:103980001982009709F478C06115710509F474C0B3
:1039900020911F013091200107EF1FEF2F3F3F4F74
:1039A00009F444C06B015C01412C512C3201F12C13
:1039B000E12C10E000E09E012F5F3F4FA6014E1961
:1039C0005F09B5016E0D7F1D80911F01909120014F
:1039D000C7D3892B09F04AC089819A81009741F4A5
:1039E000E114F10429F420912303222309F441C0B6
:1039F000E80EF91EEC14FD04C8F480E8481684E8CB
:103A000058068EE16806710418F560E070E0CB019D
:103A10004FD62AE0420E511C611C711C0A3F4FEF29
:103A2000140721F0043F8FEF1807A1F4C8010F908D
:103A30000F90DF91CF911F910F91FF90EF90DF904A
:103A4000CF90BF90AF907F906F905F904F90089510
:103A500001EF1FEF81E090E0013F2FEF120711F01F
:103A600090E080E0892B09F4A6CFE0CF04EF1FEFB0
:103A7000DDCF0AEF1FEFDACF0FEF1FEFD7CF4F9257
:103A80005F926F927F92AF92BF92CF92DF92EF924E
:103A9000FF920F931F93CF93DF9300D0CDB7DEB784
:103AA0001A821982009709F478C06115710509F42A
:103AB00074C020911F013091200107EF1FEF2F3FAD
:103AC0003F4F09F444C06B015C01412C512C320181
:103AD000F12CE12C10E000E09E012F5F3F4FA6018A
:103AE0004E195F09B5016E0D7F1D80911F019091E8
:103AF0002001ECD2892B09F04AC089819A81009774
:103B000041F4E114F10429F420912303222309F460
:103B100041C0E80EF91EEC14FD04C8F480E8481614
:103B200086E9580688E96806710418F560E070E0D7
:103B3000CB01BED52AE0420E511C611C711C0E3F08
:103B40004FEF140721F0043F8FEF1807A1F4C801CD
:103B50000F900F90DF91CF911F910F91FF90EF90F9
:103B6000DF90CF90BF90AF907F906F905F904F901D
:103B7000089502EF1FEF81E090E0023F2FEF120760
:103B800011F090E080E0892B09F4A6CFE0CF04EF9C
:103B90001FEFDDCF0EEF1FEFDACF0FEF1FEFD7CF05
:103BA00080911F01909120018F3F980749F071D2B9
:103BB000892B49F48FEF9FEF9093200180931F0191
:103BC00090E080E0089584EF9FEF0895FC01680F76
:103BD000791F90E080E0E617F70709F40895219136
:103BE000820F911DF8CF20912403211113C08FDE85
:103BF000009791F410922A0310922903109228033F
:103C000010922703109226031092250321E020939F
:103C10002403089584EF9FEF0895AF92BF92CF924F
:103C2000DF92EF92FF920F931F93CF93DF93009752
:103C300009F460C04630510508F45CC020912403AB
:103C4000C7EFDFEF222309F449C08C01060F171FCD
:103C5000F801C080D180C114D10409F44EC096018E
:103C60002A5F3F4F4217530708F447C07C018091F9
:103C7000290390912A0393838283B6016C5F7F4F5F
:103C80005801A60EB71EC801A1DFF50191838083FC
:103C900064E070E0C80162DEEC01892BF9F481E098
:103CA00090E051DEB601C801049658DEEC01892B84
:103CB00091F462E070E0C50151DEEC01892B59F40A
:103CC000C7019ADC8091290390912A030196909371
:103CD0002A038093290390E080E035DECE01DF9156
:103CE000CF911F910F91FF90EF90DF90CF90BF90F9
:103CF000AF900895CFEFDFEFF1CFC9EFDFEFEECF59
:103D00006F927F928F929F92AF92BF92CF92DF92EB
:103D1000EF92FF920F931F93CF93DF9300D000D0C9
:103D2000CDB7DEB7009709F479C04115510509F404
:103D300075C02091240307EF1FEF222309F44CC024
:103D40003A017B015C0164E070E0CE01019697DEF0
:103D50008C01892B09F040C009811A8101151105D8
:103D600009F459C0480186E0880E911CB701680D1E
:103D7000791D809121019091220161DD6C010097F4
:103D800009F44FC0A70170E060E0E3D789819A8110
:103D9000AB81BC81EC0CFD1CF70181939193A19345
:103DA000B1937F0181E090E0CEDDB801C70167DE0D
:103DB000892B31F562E070E0C701800F911F5FDE53
:103DC0008C01892BE9F490E080E0BDDDF501D18222
:103DD000C082F30191828082C8010F900F900F90F2
:103DE0000F90DF91CF911F910F91FF90EF90DF9097
:103DF000CF90BF90AF909F908F907F906F900895DD
:103E000090E080E0A0DDF50111821082F3011182C3
:103E10001082C601F1DB09EF1FEFDECF0FEF1FEFBE
:103E2000DBCF06EF1FEFD8CF0097A1F0411551056A
:103E300089F02115310571F0F90136966E177F076B
:103E400048F0DC012D933C93DA01ED93FC9390E074
:103E500080E008958FEF9FEF0895AF92BF92CF92C9
:103E6000DF92EF92FF920F931F93CF93DF93009710
:103E700009F45FC04115510509F45BC06530710557
:103E800008F457C020912403C7EFDFEF222391F1FC
:103E9000DC01CD90DC9011971296ED91FC9196018A
:103EA0002A5F3F4FC9EFDFEF2617370719F5C0919B
:103EB0002503D0912603209749F521E030E0309387
:103EC0002603209325037A018C01F0932803E093C5
:103ED00027035601B4E0AB0EB11CB50177DE0A0D25
:103EE0001B1DF801208131818217930729F5D70125
:103EF000CD92DC92CE01DF91CF911F910F91FF9077
:103F0000EF90DF90CF90BF90AF900895209127035E
:103F1000309128032F5F3F4FCCEFDFEFE217F3071D
:103F200090F2CBEFDFEF2E173F0768F2D0E0C0E052
:103F3000CACFCFEFDFEFDECFC3EFDFEFDBCF84E021
:103F400090E0089582E090E008958CEF9FEF08954F
:103F500080E290E0089510922A03109229031092B3
:103F6000280310922703109226031092250390E055
:103F700080E008959093220180932101089580911B
:103F80002403882391F00CDE009789F410922A0311
:103F900010922903109228031092270310922603EF
:103FA0001092250310922403089590E080E0089574
:103FB000009749F06115710531F0FC011182108202
:103FC000FB01118210820895F3CF26E030E040E833
:103FD00055E260E070E090E080E000C0892B19F4C9
:103FE0008BE393E05AC508951F920F920FB60F927C
:103FF00011242F933F934F935F936F937F938F93EE
:104000009F93AF93BF93EF93FF9386E09FEF9093BF
:10401000850080938400B7D0FF91EF91BF91AF915D
:104020009F918F917F916F915F914F913F912F91D0
:104030000F900FBE0F901F90189586E09FEF909302
:10404000850080938400AFE6B0E08C918E7F8C93E6
:10405000E0E8F0E080818C7F8083E1E8F0E080811F
:10406000877E808380818360808380818B7F808353
:104070008C9181608C930895EFE6F0E080819081CF
:104080009E7F90838170089581E0089510922B03A4
:10409000089568EE73E080E090E00AD390E080E05D
:1040A000089526E030E040E052EC61E070E090E0FE
:1040B00080E094DF8BE393E026D4892B21F08BE31F
:1040C00093E03BD4F7CF90E080E00895CF92DF9269
:1040D000EF92FF920F931F93CF93DF936B017A01BF
:1040E000E901198218828BE393E00DD4892B69F1E1
:1040F0008601CC24C39482E0D82E80912B038111B9
:1041000010C08BE393E019D40297B9F7C0922B0348
:10411000F801D1928F0188819981019699838883D2
:10412000ECCF888199818E159F0578F48BE393E01D
:1041300004D48F3F9807A9F3F80181938F018881F8
:104140009981019699838883ECCF90E080E0DF919C
:10415000CF911F910F91FF90EF90DF90CF90089536
:104160000F931F93CF93DF93EA0189018BE393E0D1
:1041700078D5F801D183C08390E080E0DF91CF91C2
:104180001F910F910895CF92DF92EF92FF920F93BC
:104190001F93CF93DF9300D0CDB7DEB780912E036E
:1041A00091E0980F90932E03882399F021E030E05E
:1041B000309331032093300380932E030F900F90A0
:1041C000DF91CF911F910F91FF90EF90DF90CF90F3
:1041D0000895CE0101960E942A027894009124014C
:1041E00010912501F801C28CD38CE48CF58C0E94CF
:1041F0003202B701A60190E080E00E949D01F89490
:1042000080912E03815080932E038A81882389F028
:1042100080912D0391E0980F90932D03882349F00E
:1042200021E030E0309331032093300380932D035D
:10423000C5CF80912D03882309F4C0CF80912F032F
:104240008111BCCF81E080932F037894F80122A1E3
:1042500033A144A155A1A4E6B0E059D56B017C017E
:104260000E946702B701A60181E090E00E949D01D3
:10427000F89480912D03815080932D0380912F031A
:10428000815080932F039ACF0F931F93CF93DF9387
:104290001092EF031092EE0341D297DEC0912401F9
:1042A000D0912501198218826FEF7FEFCB010E9418
:1042B0001F0270E060E090E080E00E94A2000097A2
:1042C00009F03AC00E94B402F8947894BE01685D87
:1042D0007F4F8A819B810E94A500892B59F46FEF43
:1042E0007FEFCB010E9434010E941902882311F054
:1042F00081E08CA7F894A1DE0E941C02882311F0B3
:1043000080E008C00E9419028111FACF81E09CA5CB
:104310009111F6CF8093EE0378940E946E098C0180
:1043200078948091EE0381110CC00E9441030E9499
:10433000FF01F89490E080E0DF91CF911F910F9101
:1043400008950E94FD010E941C028823D9F081E09B
:104350008093EF039091EF0381E0911180E08093CF
:10436000EE038091EF03811187DE0130110529F4FE
:104370000E946E09892B09F489DE0E946E098C0166
:1043800083DECFCF0E9419028111E1CF81E09CA58D
:104390009111DECF80E0DCCF40D008F481E00895B9
:1043A000E89409C097FB3EF49095809570956195CF
:1043B0007F4F8F4F9F4F9923A9F0F92F96E9BB2785
:1043C0009395F695879577956795B795F111F8CF01
:1043D000FAF4BB0F11F460FF1BC06F5F7F4F8F4F6C
:1043E0009F4F16C0882311F096E911C0772321F062
:1043F0009EE8872F762F05C0662371F096E8862FFA
:1044000070E060E02AF09A95660F771F881FDAF750
:10441000880F9695879597F90895990F0008550F7D
:10442000AA0BE0E8FEEF16161706E807F907C0F03A
:1044300012161306E407F50798F0621B730B840B42
:10444000950B39F40A2661F0232B242B252B21F41C
:1044500008950A2609F4A140A6958FEF811D811DBC
:104460000895DBDF08F48FEF08950BD078C069D092
:1044700028F06ED018F0952309F05AC05FC01124BF
:10448000A2C07ED0A0F3959FD1F3950F50E0551FA9
:10449000629FF001729FBB27F00DB11D639FAA2799
:1044A000F00DB11DAA1F649F6627B00DA11D661FE8
:1044B000829F2227B00DA11D621F739FB00DA11D09
:1044C000621F839FA00D611D221F749F3327A00DC3
:1044D000611D231F849F600D211D822F762F6A2F5F
:1044E00011249F5750408AF0E1F088234AF0EE0FE4
:1044F000FF1FBB1F661F771F881F91505040A9F7F1
:104500009E3F510570F014C05EC05F3FECF3983ED3
:10451000DCF3869577956795B795F795E7959F5F57
:10452000C1F7FE2B880F911D9695879597F90895F1
:1045300097F99F6780E870E060E008959FEF80EC56
:10454000089500240A9416161706180609060895F9
:1045500000240A9412161306140605060895092E5F
:104560000394000C11F4882352F0BB0F40F4BF2BCE
:1045700011F460FF04C06F5F7F4F8F4F9F4F08950E
:1045800057FD9058440F551F59F05F3F71F0479504
:10459000880F97FB991F61F09F3F79F087950895E9
:1045A000121613061406551FF2CF4695F1DF08C008
:1045B000161617061806991FF1CF86957105610525
:1045C00008940895E894BB2766277727CB0197F9CD
:1045D00008951F920F920FB60F9211242F933F93BD
:1045E0008F939F93AF93BF93809133039091340344
:1045F000A0913503B09136033091320323E0230FAD
:104600002D3758F50196A11DB11D209332038093DB
:10461000330390933403A0933503B0933603809112
:10462000370390913803A0913903B0913A03019672
:10463000A11DB11D8093370390933803A0933903D4
:10464000B0933A03BF91AF919F918F913F912F917A
:104650000F900FBE0F901F90189526E8230F02961B
:10466000A11DB11DD2CF3FB7F8948091370390912F
:104670003803A0913903B0913A0326B5A89B05C031
:104680002F3F19F00196A11DB11D3FBFBA2FA92FD1
:10469000982F8827BC01CD01620F711D811D911DCE
:1046A00042E0660F771F881F991F4A95D1F708953A
:1046B0008F929F92AF92BF92CF92DF92EF92FF9232
:1046C0006B017C01D0DF4B015C01C114D104E1041A
:1046D000F104D9F0F3D2C7DF681979098A099B0977
:1046E000683E73408105910580F321E0C21AD1082C
:1046F000E108F10888EE880E83E0981EA11CB11C29
:10470000C114D104E104F10431F7FF90EF90DF9080
:10471000CF90BF90AF909F908F900895789484B57C
:10472000826084BD84B5816084BD85B5826085BDAD
:1047300085B5816085BDEEE6F0E080818160808393
:10474000E1E8F0E010828081826080838081816076
:104750008083E0E8F0E0808181608083E1EBF0E03D
:10476000808184608083E0EBF0E0808181608083E1
:10477000EAE7F0E0808184608083808182608083CA
:104780008081816080838081806880831092C100F5
:104790000895833081F028F4813099F08230A9F0B7
:1047A00008958730A9F08830C9F08430B1F4809141
:1047B00080008F7D03C0809180008F778093800080
:1047C000089584B58F7784BD089584B58F7DFBCF20
:1047D0008091B0008F778093B00008958091B000F1
:1047E0008F7DF9CFCF93DF9390E0FC01E458FF4F2A
:1047F000249180579F4FFC0184918823C9F090E059
:10480000880F991FFC01E854FF4FA591B491FC015A
:10481000E255FF4FC591D49161110DC09FB7F89437
:104820008C91209582238C938881282328839FBF95
:10483000DF91CF910895623051F49FB7F8943C9185
:10484000822F809583238C93E8812E2BEFCF8FB717
:10485000F894EC912E2B2C938FBFEACF1F93CF931C
:10486000DF93282F30E0F901E859FF4F8491F901D7
:10487000E458FF4FD491F901E057FF4FC491CC2386
:10488000A1F0162F811185DFEC2FF0E0EE0FFF1F56
:10489000E255FF4FA591B4918FB7F894EC911111A7
:1048A00008C0D095DE23DC938FBFDF91CF911F919D
:1048B0000895DE2BF8CFCF93DF93282F30E0F90156
:1048C000E859FF4F8491F901E458FF4FD491F90161
:1048D000E057FF4FC491CC2399F081115ADFEC2FA0
:1048E000F0E0EE0FFF1FEC55FF4FA591B491EC9156
:1048F000ED2381E090E009F480E0DF91CF9108950D
:1049000080E090E0FACFFC01918D228D892F90E01C
:10491000805C9F4F821B91098F7399270895FC013A
:10492000918D828D981731F0828DE80FF11D858D64
:1049300090E008958FEF9FEF0895FC01918D828D97
:10494000981761F0A28DAE0FBF2FB11D5D968C91AF
:10495000928D9F5F9F73928F90E008958FEF9FEFEE
:104960000895FC01538D448D252F30E0842F90E075
:10497000821B930B541710F0CF960895019708955A
:10498000FC01A48DA80FB92FB11DA35ABF4F2C91C4
:10499000848D90E001968F739927848FA689B789BB
:1049A0002C93A089B1898C91837080648C93938DB2
:1049B000848D981306C00288F389E02D80818F7D55
:1049C00080830895CF93DF93EC01888D8823B1F025
:1049D000AA89BB89E889F9898C9185FD03C080810A
:1049E00086FD0CC00FB607FCF7CF8C9185FFF2CF88
:1049F000808185FFEDCFCE01C3DFEACFDF91CF917C
:104A00000895EF92FF920F931F93CF93DF93EC01E2
:104A100081E0888F9B8D8C8D98131AC0E889F98965
:104A2000808185FF15C09FB7F894EE89FF89608368
:104A3000E889F98980818370806480839FBF81E0E9
:104A400090E0DF91CF911F910F91FF90EF9008952B
:104A5000F62E0B8D10E00F5F1F4F0F731127E02E06
:104A60008C8D8E110BC00FB607FCFACFE889F9893F
:104A7000808185FFF5CFCE0183DFF2CFEB8DEC0F88
:104A8000FD2FF11DE35AFF4FF0829FB7F8940B8F73
:104A9000EA89FB8980818062D0CFCF92DF92EF924A
:104AA000FF921F93CF93DF93EC016A017B01122FDA
:104AB000E889F98982E08083C11481EED806E10497
:104AC000F10499F060E079E08DE390E0A7019601B0
:104AD000F6D021503109410951095695479537952E
:104AE0002795211580E1380790F0E889F98910822F
:104AF00060E874E88EE190E0A7019601E0D02150D3
:104B00003109410951095695479537952795EC8507
:104B1000FD853083EE85FF852083188EEC89FD8925
:104B20001083EA89FB89808180618083EA89FB891F
:104B3000808188608083EA89FB89808180688083A6
:104B4000EA89FB8980818F7D8083DF91CF911F91DE
:104B5000FF90EF90DF90CF9008951F920F920FB6C5
:104B60000F9211242F938F939F93EF93FF93E091D4
:104B70004B03F0914C038081E0915103F09152037B
:104B800082FD1BC09081809154038F5F8F732091B1
:104B90005503821741F0E0915403F0E0E55CFC4FCF
:104BA000958F80935403FF91EF919F918F912F9157
:104BB0000F900FBE0F901F9018958081F4CF1F9219
:104BC0000F920FB60F9211242F933F934F935F9341
:104BD0006F937F938F939F93AF93BF93EF93FF93C5
:104BE0008BE393E0CDDEFF91EF91BF91AF919F9169
:104BF0008F917F916F915F914F913F912F910F9086
:104C00000FBE0F901F901895EBE3F3E01382128212
:104C100088EE93E0A0E0B0E084839583A683B78319
:104C200088EA91E09183808385EC90E09587848782
:104C300084EC90E09787868780EC90E0918B808B66
:104C400081EC90E0938B828B82EC90E0958B848B4F
:104C500086EC90E0978B868B118E128E138E148EBD
:104C60000895AF92BF92CF92DF92EF92FF920F938F
:104C70001F93CF93DF936C017B018B01040F151FF2
:104C8000EB015E01AE18BF08C017D10759F069915A
:104C9000D601ED91FC910190F081E02DC6010995BE
:104CA000892B79F7C501DF91CF911F910F91FF906B
:104CB000EF90DF90CF90BF90AF9008950895A1E25C
:104CC0001A2EAA1BBB1BFD010DC0AA1FBB1FEE1F86
:104CD000FF1FA217B307E407F50720F0A21BB30BD1
:104CE000E40BF50B661F771F881F991F1A9469F74D
:104CF00060957095809590959B01AC01BD01CF01A9
:104D00000895EE0FFF1F0590F491E02D099409D04E
:104D1000A59F900DB49F900DA49F800D911D11240F
:104D20000895A29FB001B39FC001A39F700D811D84
:104D30001124911DB29F700D811D1124911D0895A4
:104D4000FB01DC0102C001900D9241505040D8F7A8
:104D50000895DC0101C06D9341505040E0F7089583
:044D6000F894FFCFF5
:104D6400CDCCCC3D0000FEFFFFFF01E8030000FFB7
:104D7400FF00000000FFFFFFFFFFFFFFFFFFFFFF3B
:104D8400FFFFFF01CE01FF00C50BF10BFE00AB0BD3
:104D94002C09FD003D0B970BFC00830B2C09F6003E
:104DA400740C2C09F5004A0BB30CF4003D0CCA0C2E
:104DB400DE00F6109013DD0065122C09DA007E0E79
:104DC400860ED900AB13960EE200660D2C09E100A5
:104DD400A10D2C09E000160E2C09D60080172C0911
:104DE400D50023102C09D400AF0F2C09D300200FB9
:104DF4002C09C000A50E2C09F000E9172C09ED00C0
:104E0400A6172C090000000001253126B124E22454
:064E140083249D248F247D
:00000001FF
