:100000005CC0000082C0000080C000007EC0000014
:100010007CC000007AC0000078C0000076C00000FC
:1000200074C0000072C0000070C000006EC000000C
:100030006CC000000C94C32068C0000066C00000C3
:100040000C945D2462C000000C94F9260C942B27BC
:100050005CC000005AC0000058C0000056C000003C
:1000600054C0000052C0000000000008000201005F
:100070000003040700000000000000000102040863
:100080001020408001020408102001020408102002
:10009000040404040404040402020202020203032E
:1000A0000303030300000000250028002B000000CC
:1000B0000000240027002A00502711241FBECFEF84
:1000C000D8E0DEBFCDBF11E0A0E0B1E0ECEFFFE48F
:1000D00002C005900D92A43CB107D9F727E0A4EC2B
:1000E000B1E001C01D92A131B207E1F710E0CDE50A
:1000F000D0E004C02197FE010E94CD27CC35D10766
:10010000C9F70E94C1210C94FC277ACF611102C06B
:100110000C9466256130E1F362E0FACF662319F0B2
:1001200061E00C94A22560E0FCCF90E080E00895AF
:100130000F931F93009709F487C06115710509F4A7
:1001400083C0009114011091150120911601309186
:1001500017010E3F1F4F2F4F3F4F09F066C04FEF63
:100160005FEFBA014093140150931501609316019B
:10017000709317014091140150911501609116017F
:1001800070911701DC011296ED91FC9180819181B3
:10019000A281B38180932E0290932F02A09330020C
:1001A000B093310284819581A681B78180932A0220
:1001B00090932B02A0932C02B0932D028085918501
:1001C000A285B3858093260290932702A0932802EC
:1001D000B093290284859585A685B78580932202F0
:1001E00090932302A0932402B093250210921E0242
:1001F00010921F02109220021092210233D587E53F
:1002000096E09093C5018093C4019093C7018093B9
:10021000C60117D4009731F421E030E03093330267
:10022000209332021F910F910895009114011091B3
:1002300015012091160130911701DB010D931D93DB
:100240002D933C93139796CF8FEF9FEFEBCF8F9229
:100250009F92AF92BF92CF92DF92EF92FF921F9345
:10026000CF93DF934B015C011091350282E090E067
:10027000909333028093320281149104A104B1045B
:1002800041F480913502811104C080913402C1E0B3
:100290008111C0E0C12CD12C7601809135028111F1
:1002A00006C080913402811102C0CC23D9F083E0D2
:1002B00090E09093330280933202CC2379F1CCE921
:1002C000DFEF111102C00E94BB09CE01DF91CF9177
:1002D0001F91FF90EF90DF90CF90BF90AF909F90D5
:1002E0008F9008956AE070E080E090E00E94CC2456
:1002F00080E1C80E87E2D81EE11CF11C8FEF881642
:100300009806A806B80631F0C1E08C149D04AE042E
:10031000BF0408F0C0E080E0C8D3BFCFD0E0C0E0A9
:10032000D0CFCF92DF92EF92FF920F931F93CF9394
:10033000DF938F3F910511F008F050C020913202F9
:10034000309133022330310539F02091320230915F
:1003500033022130310531F424E030E030933302B0
:10036000209332026A017B01EC0182309105A0F0FA
:1003700011E0AE01C701B60163D3AB01BC01CE01F0
:100380001123F9F0DF91CF911F910F91FF90EF9022
:10039000DF90CF900C94E40B8C01000F111F0C53D5
:1003A0001E4FD8018D919C91892B11F30E94EE0B69
:1003B0000297F1F6D801ED91FC91CE010995182F25
:1003C000D8CF0E94060C90E080E0DF91CF911F9182
:1003D0000F91FF90EF90DF90CF9008958FEF9FEFF8
:1003E000F4CF80E062C3CF93DF9386E090E09093F8
:1003F000330280933202B2D3EC01E4ECF1E084E00A
:10040000DF011D928A95E9F74ED7109233021092C0
:100410003202CE01DF91CF91089580913402089588
:1004200080911D02089560931401709315018093CB
:1004300016019093170190E080E00895CF92DF922B
:10044000EF92FF926B017C019F7720E030E040E863
:1004500059E50E94C12287FF2BC020E030E040E038
:100460005FE3C701B6010E94F62387FD0EC020E0BE
:1004700030E040E05FE3C701B6010E944A22FF90EE
:10048000EF90DF90CF900C942E2320E030E040E0FE
:100490005FEBC701B6010E94F623181684F420E032
:1004A00030E0A901C701B6010E94FA236B017C016B
:1004B000C701B601FF90EF90DF90CF90089520E044
:1004C00030E040E05FE3C701B6010E944922FF909F
:1004D000EF90DF90CF900C94AE224F925F926F928C
:1004E0007F928F929F92AF92BF92CF92DF92EF92C4
:1004F000FF926091EB037091EC038091ED0390917A
:10050000EE039CDF6B017C0120E030E040E853E427
:100510000E94C1226FEF87FF0EC020E030E0A901EA
:10052000C701B6010E94F62360E087FD04C0C70141
:10053000B6010E94C52283E0F1DDC0900B07D09088
:100540000C07E0900D07F0900E07C701B6010E945E
:10055000F3222B013C0120910C0130910D014091BF
:100560000E0150910F010E94C12287FF93C0F7FC3A
:1005700091C08090040190900501A0900601B09078
:10058000070120E030E040E85FE3609108017091EE
:10059000090180910A0190910B010E9449229B015F
:1005A000AC01C301B2010E94F62387FD77C010920F
:1005B0000B0710920C0710920D0710920E07C50141
:1005C000B4013CDF6B017C0120E030E040E853E403
:1005D0000E94C1226FEF87FF0EC020E030E0A9012A
:1005E000C701B6010E94F62360E087FD04C0C70181
:1005F000B6010E94C52282E091DDEBEEF3E084813A
:100600009581A681B78181939193A193B19387E05E
:10061000E730F807A1F78092070790920807A092A9
:100620000907B0920A076091F4017091F501809179
:10063000F6019091F7016F5F7F4F8F4F9F4F60934F
:10064000F4017093F5018093F6019093F7010E94F5
:10065000F1229B01AC016091F8017091F901809148
:10066000FA019091FB010E94FA236093F0017093CC
:10067000F1018093F2019093F301FF90EF90DF90EE
:10068000CF90BF90AF909F908F907F906F905F9032
:100690004F900895812C912C540173CF8FEFC81A7D
:1006A000D80AE80AF80AC0920B07D0920C07E09229
:1006B0000D07F0920E0783CFCF92DF92EF92FF9259
:1006C000CF9380E090E0A0E8BFEB8093FC01909393
:1006D000FD01A093FE01B093FF018FE692E1A3E834
:1006E000BAE38093F8019093F901A093FA01B093D3
:1006F000FB0180ED9AEAA2E1B3E88093DE019093DA
:10070000DF01A093E001B093E10181E29DE5A9E85A
:10071000B3E78093E2019093E301A093E401B093E7
:10072000E50186EB9AEFAEE4BDE18093E60190939C
:10073000E701A093E801B093E9018EE290E8A1E916
:10074000B1E78093EA019093EB01A093EC01B093A1
:10075000ED018EEC91E09093DD018093DC0188EC5B
:1007600091E09093CF018093CE0181E391E090934B
:10077000C9018093C8019093CB018093CA019093E3
:10078000CD018093CC018EEE91E09093D3018093C4
:10079000D2018EED91E09093D1018093D00180EF52
:1007A00091E09093D5018093D401809100019091C4
:1007B0000101A0910201B0910301EBEEF3E08193FE
:1007C0009193A193B19327E0EB30F207C1F7109218
:1007D000DB03C12CD12C7601C394C092DC03D092F0
:1007E000DD03E092DE03F092DF0361E083E08EDC64
:1007F000C1E0C093E0031092E303C092E403D092FF
:10080000E503E092E603F092E70361E082E07EDC3C
:10081000C093E803CF91FF90EF90DF90CF900895C1
:100820008091DB03811103C081E08093DB03809121
:10083000E303811103C081E08093E30308954F92A5
:100840005F926F927F928F929F92AF92BF92CF9260
:10085000DF92EF92FF920F931F93F89440900D0256
:1008600050900E0260900F0270901002C090010232
:10087000D0900202E0900302F0900402452B09F0B0
:10088000A4C09B01AC012419350946095709290167
:100890003A010091090210910A0220910B02309155
:1008A0000C0248015901840C951CA61CB71C80162B
:1008B0009106A206B306A0F400910502109106026B
:1008C00020910702309108020F5F1F4F2F4F3F4FBB
:1008D000009305021093060220930702309308024A
:1008E0008092090290920A02A0920B02B0920C022E
:1008F0000091050210910602209107023091080232
:100900008092110290921202A0921302B0921402ED
:1009100000931502109316022093170230931802C9
:1009200060930D0270930E0280930F029093100259
:10093000A8EEB3E0A30192010E94D3276C0D7D1DA8
:100940008E1D9F1D6093010270930202809303022B
:100950009093040200911401109115012091160149
:10096000309117010F3F1F4F2F4F3F4FF1F0009174
:1009700014011091150120911601309117010E3FBD
:100980001F4F2F4F3F4F89F0C0901401D090150199
:10099000E0901601F090170121E08C149D04AE0444
:1009A000BF0408F420E020931D0278941F910F915A
:1009B000FF90EF90DF90CF90BF90AF909F908F907F
:1009C0007F906F905F904F9008954B015C01841869
:1009D0009508A608B708A3019201261B370B480B00
:1009E000590B6415750586059705D0F08216930698
:1009F000A406B50640F420E030E0A901811491047A
:100A0000A104B10491F4A8EEB3E00E94D327A7019A
:100A10009601261B370B480B590BCA01B901C5CFEC
:100A200082169306A406B50670F7A8EEB3E0A501FA
:100A300094010E94D3276C0D7D1D8E1D9F1DB5CF87
:100A4000FECECF93DF9300D000D0CDB7DEB71C82AF
:100A50001B821A8219821092190210921A021092A5
:100A60001B0210921C02BE016F5F7F4FCE010396E6
:100A70000E94A72069817A818B819C810E94FC1A47
:100A8000009761F4BE016F5F7F4FCE0103960E9415
:100A9000B32069817A818B819C812CD50F900F9036
:100AA0000F900F90DF91CF910895FF920F931F93B6
:100AB000CF93DF93082F60E070E0CB010E94CC243D
:100AC000FF24F3940E94E719EC01892B89F010E0D0
:100AD000CE3F8FEFD80769F0002361F160E070E04E
:100AE000CB010E94CC2481E090E0892B59F322C0F5
:100AF00011E023D5EC01892B21F0CE3F8FEFD807F1
:100B000059F711111EC011E0229609F410E00E945D
:100B10009819EC01892B21F0CE3F8FEFD807E1F631
:100B2000111111C011E0CE3F8FEFD80709F410E08A
:100B300001110BC0CE01DF91CF911F910F91FF905A
:100B4000089511E0E4CF11E0F3CF60E070E0CB0155
:100B50000E94CC241F25812F90E0C7CFCF93DF9335
:100B600080911D02882321F060E070E0CB014CD61B
:100B700035D6D0E0C0E0892B71F06AE070E080E00B
:100B800090E00E94CC2481E090DF28D62196C03DE1
:100B900027E0D20781F727D60E94501B109235021A
:100BA0001092340210922E0210922F0210923002F4
:100BB0001092310210922A0210922B0210922C02F3
:100BC00010922D02109226021092270210922802F3
:100BD00010922902109222021092230210922402F3
:100BE0001092250210921E0210921F0210922002F3
:100BF000109221024EEF5FEF6FEF7FEF40931401F1
:100C000050931501609316017093170110921D0205
:100C1000E1E1F2E028E0DF011D922A95E9F7109268
:100C20000D0210920E0210920F02109210021092FA
:100C3000090210920A0210920B0210920C021092FA
:100C400005021092060210920702109208021092FA
:100C50000102109202021092030210920402DF912C
:100C6000CF910895109241021092420210924302D5
:100C700010924402109240028091490290914A02DF
:100C800090933F0280933E0210923D0210923C02EC
:100C9000109238021092390210923A0210923B02DE
:100CA000109246021092450290E080E00895CF92A3
:100CB000DF92EF92FF920F931F93CF938C01892BBA
:100CC00009F055C02091490230914A0280913E02BC
:100CD00090913F024091490250914A0250933F0245
:100CE00040933E022817390781F010923D0210927E
:100CF0003C02109238021092390210923A0210927D
:100D00003B02109246021092450280914902909156
:100D10004A02019761F58091450290914602892B24
:100D200021F480911801811112C0809145029091A7
:100D300046020197E1F48091380290913902A09126
:100D40003A02B0913B020197A105B10581F41092DE
:100D500038021092390210923A0210923B0210921D
:100D6000180182E090E090934602809345028091C2
:100D7000490290914A02019709F01CC180915F02DB
:100D8000909160028017910709F014C180915B0275
:100D900090915C02A0915D02B0915E02009709F40F
:100DA00009C120915A0221110DC040915B0250915E
:100DB0005C0260915D0270915E02452B462B472BD1
:100DC00009F4F8C0209145023091460222303105E5
:100DD00009F0F0C020913C022111ECC0FC01C08060
:100DE000D180E280F38080914002882309F4D3C04F
:100DF00080914C0290914D02892B09F4FDC0209105
:100E00004C0230914D0281E02230310509F080E042
:100E100020914C0230914D02C1E02130310549F062
:100E200020914C0230914D02C1E02230310509F091
:100E3000C0E0882309F456C0209156023091570231
:100E40004091580250915902C701B6010E94F62301
:100E500087FD14C0209156023091570240915802EC
:100E60005091590260914102709142028091430277
:100E7000909144020E94C12287FD22C02091560217
:100E8000309157024091580250915902C701B60162
:100E90000E94F623181634F520915602309157021D
:100EA0004091580250915902609141027091420262
:100EB00080914302909144020E94C122811112C08C
:100EC00080914E0290914F02A0915002B091510238
:100ED000892B8A2B8B2B19F481E080933D0281E0D2
:100EE00080933C02CC2309F456C0209156023091E5
:100EF00057024091580250915902C701B6010E9411
:100F0000C12287FF14C020915602309157024091B0
:100F100058025091590260914102709142028091B1
:100F20004302909144020E94F62387FF22C0209141
:100F30005602309157024091580250915902C70110
:100F4000B6010E94C122811126C020915602309123
:100F5000570240915802509159026091410270919C
:100F6000420280914302909144020E94F623181697
:100F700094F480914E0290914F02A0915002B09152
:100F80005102892B8A2B8B2B19F481E080933D022F
:100F900081E080933C0281E090913C02911180E0DD
:100FA00080934002C0924102D0924202E0924302FA
:100FB000F0924402012B09F067C1809145029091A3
:100FC0004602892BD9F410924B0210923C02809178
:100FD0001801882379F082E090E090934602809394
:100FE0004502109218012091490230914A0281E095
:100FF000232BE9F080E01BC081E00ACF109218019A
:1010000080914B02882349F010923D0210924602D3
:101010001092450210924B02EDCF809149029091BF
:101020004A02892BE1F080913C0210923C0220910F
:101030004502309146022230310509F45EC088F441
:101040002115310509F448C02130310509F4F3C0F8
:1010500010923D0210923C0210924B0238C081E087
:10106000E6CF2330310509F4B1C02430310581F7D2
:10107000409138025091390260913A0270913B02DE
:10108000411551056105710561F041505109610932
:101090007109409338025093390260933A02709379
:1010A0003B02409138025091390260913A027091AE
:1010B0003B02452B462B472BD9F420914702309118
:1010C00048022130310509F046C010923D021092CD
:1010D0004602109245020CC080911801882341F00D
:1010E00082E090E0909346028093450210921801AE
:1010F0001092360280913D02CEC08823C9F38091C0
:101100004E0290914F02A0915002B09151021816D8
:1011100019061A061B060CF07DC0809149029091B9
:101120004A02019709F076C080914E0290914F02D9
:10113000A0915002B09151028093380290933902ED
:10114000A0933A02B0933B0283E090E09093460272
:1011500080934502CDCF409152025091530260914D
:10116000540270915502452B462B472BA9F0109243
:101170003D028091520290915302A0915402B0918D
:1011800055028093380290933902A0933A02B093AB
:101190003B0281E090E0DACF882399F08091190139
:1011A00090911A01A0911B01B0911C01809338020B
:1011B00090933902A0933A02B0933B0284E090E00E
:1011C000C5CF10923D0282E090E0C0CF80913802FE
:1011D00090913902A0913A02B0913B020097A1058B
:1011E000B10559F00197A109B10980933802909394
:1011F0003902A0933A02B0933B0280913802909159
:101200003902A0913A02B0913B02892B8A2B8B2B99
:1012100009F06ECF8091190190911A01A0911B01E4
:10122000B0911C01892B8A2B8B2B09F44ECF81E0C6
:1012300080933D02B3CF40913802509139026091C2
:101240003A0270913B02411551056105710561F04B
:101250004150510961097109409338025093390294
:1012600060933A0270933B024091380250913902E8
:1012700060913A0270913B02452B462B472B09F0B7
:1012800037CF8111C7CF9FCF80913602882309F4D1
:1012900031CF80913702CF911F910F91FF90EF9046
:1012A000DF90CF9008951092410210924202109266
:1012B0004302109244021092400210924602109291
:1012C000450210923F0210923E021092600210926C
:1012D0005F0210923D0210923C021092380210926E
:1012E000390210923A0210923B0210923702109289
:1012F000360210925B0210925C0210925D02109214
:101300005E0210925A0210925602109257021092E8
:1013100058021092590288EE93E0A0E0B0E080936A
:10132000190190931A01A0931B01B0931C01109214
:1013300052021092530210925402109255021092CF
:101340004E0210924F0210925002109251021092CF
:101350004D0210924C0281E08093180110924B02D2
:1013600010924A02109249021092480210924702CB
:1013700090E080E008958091490290914A02892B83
:1013800019F580911801882351F080914B02811149
:1013900006C081E080933702809336020895209141
:1013A0004B023091180181E090E0332311F090E07E
:1013B00080E030E082239323892B21F010923702C2
:1013C00081E0EACF10923602089582E090E0FA01BF
:1013D000918380838FEF9FEF0895CF93DF93EA018E
:1013E000009711F00E94CA1B1982188290E080E0D9
:1013F000DF91CF910895DB01009719F48FEF8C9363
:1014000008952EEF2C930F968F30910508F033C07E
:10141000FC01E35FF54F0C94CD27390A370A350AF2
:10142000330A310A2D0A2F0A2B0A290A270A240A0D
:10143000200A1C0A220A3B0A80E311968C93089525
:1014400089E2FBCF82E2F9CF11961C92089583E2E4
:10145000F4CF81E2F2CF81E1F0CF87E2EECF8AE2F2
:10146000ECCF80E1EACF84E2E8CF88E2E6CF86E203
:10147000E4CF81E3E2CF80E2E0CF80916D029091F2
:101480006E02089590936E0280936D02089580918C
:101490006C02089590916C02892B80936C020895E0
:1014A000982F909580916C02892380936C02089507
:1014B00080916B0208958091690290916A0208956B
:1014C0006115710559F0FB0130E020E070E060E04B
:1014D0002417350719F06115710511F0CB01089536
:1014E000A081B181A817B90709F4BF012F5F3F4F51
:1014F0003696EECF80916F0281111CC062D268D205
:1015000090936202809361020E9481140E9493145E
:1015100090936602809365020E9402190E94091945
:10152000909364028093630281E080936F0290E065
:1015300080E0089584EF9FEF08958F929F92AF927D
:10154000BF92CF92DF92EF92FF920F931F93CF93B0
:10155000DF93CDB7DEB72A970FB6F894DEBF0FBE84
:10156000CDBF1A86198618861F821E821D821C8294
:101570001B821A82198280916F0207EF1FEF882366
:1015800009F49CC08E010D5F1F4F9E012B5F3F4FE2
:10159000AE01495F5F4FBE01675F7F4F90E080E023
:1015A0000E94821A8C01009721F00596029708F09C
:1015B000DBC029853A852115310509F402C1ED808A
:1015C000FE804B815C81B701640F751F8F81988508
:1015D0008617970708F4F5C0E20EF31ED7019C9119
:1015E000903C09F07FC04230510508F47BC0119651
:1015F0008C9140916D0250916E02452B09F49CC074
:10160000913F08F071C02CE1290F2D3008F48BC0F8
:101610002DE2290F203108F489C0903C21F481503B
:10162000823008F483C088E3890F8B3008F481C0CE
:101630009BEFC92E99E0D92EE5EEF9E06D817E8110
:10164000AE014F5F5F4F89859A8509955C01C11492
:10165000D104A1F189809A808114910479F18B8160
:101660009C818815990508F487C010E000E04B8143
:101670005C8170E060E0C7010E94F527011511054B
:10168000E9F449815A8169857A858D819E81680F47
:10169000791FC501F6010995E980FA800D811E8147
:1016A0002F81388549855A856FEF7FEF81E090E083
:1016B0000E941E1A8C01892B09F056C0C8012A9677
:1016C0000FB6F894DEBF0FBECDBFDF91CF911F9153
:1016D0000F91FF90EF90DF90CF90BF90AF909F90D1
:1016E0008F90089580E085CF30E020E0220F331FF7
:1016F000F901EF59FD4F0190F081E02D309709F489
:1017000097CF892F90E00995009709F491CFDC01DC
:101710001296ED91FC9113971496CD90DC90309732
:1017200009F08CCF1FC021E030E0E0CF22E030E0B4
:10173000DDCF23E030E0DACFD12CC12CEDEEF9E0A3
:101740009F3F09F07BCFE0916102F09162023097F8
:1017500021F4C90104EF1FEF0CC08FEF90E0099551
:101760000097A9F604EF1FEF89859A85009709F481
:10177000A5CF0E94CA1BA2CF0E944B1B8C0189855A
:101780009A850E94CA1B70E060E0C4010E94E41ABE
:1017900098878F830E941B1A9E838D836F81788523
:1017A0006115710559F0C8010E94ED1C9A8789875F
:1017B00006EF1FEF892B09F058CF59CF08EF1FEF25
:1017C00056CF08EF1FEFD0CF20916F02222319F0E0
:1017D00020E00C94981487EF9FEF089580916D029C
:1017E00090916E0208950E940E190E946818F5D01B
:1017F000E1E6F2E088E0DF011D928A95E9F71092B8
:101800006F0290E080E008950C94C51621E040E05E
:1018100050E0BA010C94981486E090E0FA019183AC
:10182000808390E080E0089547E050E064E371E059
:1018300047CEDF92EF92FF920F931F93CF93DF93E8
:101840008A01EC01C60FD71FE0907302F09074027A
:10185000D9800E94331BD816190678F082E090E0F8
:10186000F801918380838EEF9FEFDF91CF911F91DD
:101870000F91FF90EF90DF900895EF2841F482E000
:1018800090E0F8019183808384EF9FEFEECF898110
:101890008093720290E00196F8019183808390E03A
:1018A00080E0E3CFCF93DF93EA010E94761788238D
:1018B00021F00E94401B0E94771782E090E09983FC
:1018C00088838BEF9FEFDF91CF910895CF93DF93C4
:1018D000EB0186E0FB0111928A95E9F78FEF88838F
:1018E000D6DD8983E5DD8A83E6DD9D838C83DF9108
:1018F000CF910895CF93DF93EA010E947917811168
:1019000009C082E090E09983888385EF9FEFDF91A3
:10191000CF91089590E080E0B5DD81E090E099837B
:10192000888390E080E0F3CF0F931F93CF93DF93F2
:10193000EA018C01060F171F0E94791781110BC055
:1019400082E090E09983888385EF9FEFDF91CF91CC
:101950001F910F910895F8018181823038F082E063
:1019600090E0998388838EEF9FEFF0CF81E090E045
:1019700089DD88E090E09983888390E080E0E6CF7D
:10198000CF93DF930097D1F4EB01FB01329686E011
:10199000DF011D928A95E9F78FEF888385E08983BF
:1019A0001A820E94331B8B830E94321B9D838C837F
:1019B00081E08E838F83DF91CF910895DF91CF9166
:1019C0001ACD84E19CE09093710280937002089597
:1019D000809170029091710208951092710210929C
:1019E00070020895809173029091740208954111DC
:1019F00005C0611571058105910561F06093730261
:101A000070937402809375029093760240937702EC
:101A100081E0089580E00895FF920F931F93CF9384
:101A2000DF938A01EC01C60FD71FF9800E94331B98
:101A3000F816190668F082E090E0F801918380833F
:101A40008EEF9FEFDF91CF911F910F91FF9008953F
:101A50006C817D818E819F814B81C9DF811108C09E
:101A600082E090E0F8019183808384EF9FEFEACFDA
:101A700089818093720290E00196F80191838083BE
:101A800090E080E0DFCFCF93DF93EA01FC01E60F27
:101A9000F71F64817581868197814381A8DF811159
:101AA00009C082E090E09983888384EF9FEFDF9103
:101AB000CF91089581E090E09983888390E080E061
:101AC000F6CFE3E7F2E04081518162817381480FF4
:101AD000511D611D711D408351836283738308957D
:101AE000CF93C09172024C2F50E0609173027091BD
:101AF000740201960E94EC278C2FE3DF1092720291
:101B0000CF910895009799F4809173029091740297
:101B10002FEFFB012083892B59F02091720230E0D6
:101B20002F5F3F4F2417350719F4CB01D9CF63CC72
:101B30000895009799F480917302909174022FEFA9
:101B4000FB012083892B59F02091720230E02F5F36
:101B50003F4F2417350719F4CB01C2CF4CCC089561
:101B600023E1AC01249FC001259F900D1124E09139
:101B70007C02F0917D02E80FF91F2381348122500D
:101B8000310981E02230310508F080E008950F939B
:101B90001F93CF93DF9300917E0210917F02D0E0DC
:101BA000C0E080E00C171D0749F491E0811190E03E
:101BB000892FDF91CF911F910F9108958111F5CF5A
:101BC000CE01CEDF2196EECFA0917C02B0917D02B6
:101BD000109729F120917E0230917F02821793079E
:101BE000F0F453E1589F9001599F300D1124A20F3A
:101BF000B31FED91FC911197309789F012968C915B
:101C0000681768F48BE0689FE00DF11D1124808156
:101C10009181892B21F081E09281491708F080E0C1
:101C200008959C0143E1429FC001439F900D112400
:101C3000E0917C02F0917D02E80FF91F83858230EC
:101C400091F481E090E06581768140911D01509191
:101C50001E016417750711F490E080E0892B19F0DC
:101C600081E0232B09F080E00895EF92FF920F931B
:101C70001F93CF93DF93EA01FC01E60FF71F028168
:101C80001381E480F5804F2D6E2DC8019DDF8111F9
:101C90000DC082E090E0998388838EEF9FEFDF9103
:101CA000CF911F910F91FF90EF900895C80158DFD9
:101CB000882339F082E090E09983888388EF9FEF52
:101CC000EECF1093240100932301E0922501F092BE
:101CD000260181E090E09983888390E080E0DFCF67
:101CE000CF92DF92EF92FF920F931F93CF93DF93E8
:101CF0007A01EC01C60FD71FC0902301D0902401B8
:101D00000091250110912601412F602FC6015CDF53
:101D1000811110C082E090E0F701918380838AEF07
:101D20009FEFDF91CF911F910F91FF90EF90DF9088
:101D3000CF900895C60114DF882341F082E090E03F
:101D4000F7019183808388EF9FEFEBCF4C815D811A
:101D50006E817F819A8189818F3F41F082E090E09E
:101D6000F701918380838EEF9FEFDBCFE3E1EC9D62
:101D70009001ED9D300D1124E0917C02F0917D02E7
:101D8000E20FF31F0190F081E02D2BE0029FE00DA8
:101D9000F11D11240190F081E02D27E0129FE00D4C
:101DA000F11D1124808391838B818283438354832B
:101DB000658376831F5F1093260181E090E0F70131
:101DC0009183808390E080E0ACCFEF92FF920F93FD
:101DD0001F93CF93DF937A018C01060F171FC091D9
:101DE0007C02D0917D02209781F021E030E0F80163
:101DF0008281938140917E0250917F0284179507E2
:101E000010F030E020E0232B71F482E090E0F70145
:101E1000918380838EEF9FEFDF91CF911F910F9180
:101E2000FF90EF90089543E1489F9001499F300D46
:101E30001124C20FD31F94DE882341F082E090E08A
:101E4000F7019183808388EF9FEFE6CFF80124812B
:101E5000358120383105C8F687818111D6CF41817F
:101E6000842F90E08F7E009741F082E090E0F701B0
:101E70009183808386EF9FEFCFCF4F833E832D8367
:101E8000268128871986223010F421E0288721E056
:101E900030E0F70131832083BFCF88E090E0FA0182
:101EA0009183808390E080E00895FB018FEF808331
:101EB00081E181838FEF9FEF9383828380E890E0BD
:101EC00095838483168217820895FB018FEF8083A8
:101ED00091E0918382839383848384E3858381E08B
:101EE00090E0978386830895DF92EF92FF920F939D
:101EF0001F93CF93DF93EA01FC01E60FF71F818167
:101F0000813071F082E090E0998388838FEF9FEFBA
:101F1000DF91CF911F910F91FF90EF90DF90089587
:101F200082819381D4802581E680F78000917C02B4
:101F300010917D020115110539F482E090E099833A
:101F400088838CEF9FEFE4CF40917E0250917F0217
:101F50008417950738F082E090E0998388838EEFAC
:101F60009FEFD6CF892B39F082E090E09983888368
:101F700086EF9FEFCDCF8D2D8D7FB1F72130A1F76B
:101F800081E0D11006C091E0E916F10431F080E063
:101F900004C0E2E0EE16F104D0F3882329F390E0C8
:101FA00080E0DEDD882339F082E090E09983888349
:101FB00088EF9FEFADCFF801D38681E08487F68666
:101FC000E586108A178681E090E09983888390E007
:101FD00080E09ECF4CE050E06EE571E071CA8F92D8
:101FE0009F92BF92CF92DF92EF92FF920F931F9337
:101FF000CF93DF93EA01FC01E60FF71F8281938103
:102000000481B580E0917C02F0917D02309791F4DB
:1020100082E090E0998388838CEF9FEFDF91CF91EE
:102020001F910F91FF90EF90DF90CF90BF909F9006
:102030008F90089520917E0230917F02821793073E
:1020400038F082E090E0998388838EEF9FEFE6CFAF
:1020500023E1289F6001299FD00C1124EC0DFD1D68
:10206000E080F180E114F10499F28281081748F7C9
:102070008BE0089F80011124E00EF11EF7018081A2
:102080009181892B29F6BB20E1F2F7E0BF9E400148
:102090001124C4010E94C71BF70191838083E09142
:1020A0007C02F0917D02EC0DFD1D0190F081E02D90
:1020B000E00FF11F80819181009739F482E090E078
:1020C000998388838DEF9FEFA9CFA40170E060E032
:1020D0000E94F52780917C0290917D02C80ED91E46
:1020E000F60180819181080F191FF801B28281E009
:1020F00090E09983888390E080E090CFAF92BF9288
:10210000CF92DF92FF920F931F93CF93DF93EA0159
:10211000FC01E60FF71F82819381F48000917C021D
:1021200010917D020115110581F482E090E0998300
:1021300088838CEF9FEFDF91CF911F910F91FF90DC
:10214000DF90CF90BF90AF90089520917E023091A4
:102150007F028217930738F082E090E099838883AA
:102160008EEF9FEFE8CF2FEF2F0D2C3FA8F723E145
:10217000289F6001299FD00C11240C0D1D1DF80112
:1021800080819181892B89F6FBE0FF9E500111240B
:10219000C5010E94C71BF80191838083E0917C02F6
:1021A000F0917D02EC0DFD1D80819181009739F445
:1021B00082E090E0998388838DEF9FEFBCCFA501EB
:1021C00070E060E00E94F527E0917C02F0917D02D2
:1021D000EC0DFD1DF28281E090E09983888390E010
:1021E00080E0A9CFCF92DF92EF92FF920F931F93DF
:1021F000CF93DF93860F971FFC010281138180919B
:102200007C0290917D02892B81F082E090E0FA01BE
:10221000918380838CEF9FEFDF91CF911F910F917E
:10222000FF90EF90DF90CF900895C801B0E0A0E05C
:102230000197A109B1098F3F9F4FA105B10540F05A
:1022400082E090E0FA01918380838EEF9FEFE4CFEC
:102250007A0183E1809F6001819FD00C1124C60127
:102260000E94C71BEC01009741F482E090E0F70167
:10227000918380838DEF9FEFCFCFA60170E060E068
:102280000E94F527D0937D02C0937C0210937F02B9
:1022900000937E0290E080E02FEF3FEF41E061E0AD
:1022A00070E08017910741F481E090E0F70191839D
:1022B000808390E080E0B0CF3A8B298B1B864C87DF
:1022C0007E876D87188A1F8601966396EACFCF9224
:1022D000DF92EF92FF920F931F93CF93DF93EC0166
:1022E000D12CC12C10E000E0F12CE12C6A8170E0CF
:1022F00006171707BCF0660F771FAE014F5E5F4FE2
:10230000C7010E94F41B009721F02FEF3FEF3A8B9B
:10231000298BDF91CF911F910F91FF90EF90DF906C
:10232000CF900895E881F981EC0DFD1D4381548122
:102330008D859E85489F9001499F300D589F300D97
:102340001124C90101960115110519F44F8144FDAD
:10235000049661E070E00E94E41AE816F90608F4B9
:102360007C010F5F1F4F8BE0C80ED11CBFCFF894CC
:1023700020917A0230917B0281E02115310509F02C
:1023800080E0232B09F0789408952F923F924F928A
:102390005F926F927F928F929F92AF92BF92CF92F5
:1023A000DF92EF92FF920F931F93CF93DF933C0145
:1023B000660E771EF301828193814C01B12CA12C12
:1023C000C0917C02D0917D02209769F021E030E03D
:1023D00060917E0270917F028617970710F030E0BF
:1023E00020E0232BD1F482E090E0FA0191838083F6
:1023F0008EEF9FEFDF91CF911F910F91FF90EF90A4
:10240000DF90CF90BF90AF909F908F907F906F9014
:102410005F904F903F902F90089580922701909267
:102420002801A0922901B0922A0163E1689F9001DE
:10243000699F300D1124C20FD31FF30181818330B6
:1024400040F082E090E0FA019183808386EF9FEF75
:10245000D1CF2A012B813C81232BF1F428813981B2
:102460009F8191FF2EC0232B09F46FC02091810220
:102470009A81422F490F5527551FBA0141E050E07C
:102480006138710514F050E040E0452B09F45DC05F
:102490002A87920F909381028150823008F481C084
:1024A00066DF882309F4D8C0F3018181813009F403
:1024B0008DC008F47BC0823009F4C6C090E080E093
:1024C000ADC0232B09F441C0209180029A81E22FF4
:1024D000E90FFF27FF1F41E050E0ED3FF10514F049
:1024E00050E040E0452B89F12A87920F90938002BB
:1024F000D3CFA081B181A20FB31F11966C91060FAB
:10250000111D0196295F3F4F8417950794F38D8520
:102510009E85089F1001099F300C189F300C1124D4
:10252000C114D104D1F48F8184FF17C00E94321BE3
:10253000F5E02F0E311C21E08215930508F420E010
:10254000A701455F5F4F21110EC082E090E0F201CC
:102550009183808387EF9FEF4DCF0E94321B2FEF37
:10256000221A320AE8CF88819981E80EF91EF70114
:1025700014830383FFEFCF1ADF0A7A018A818C1557
:102580001D0409F00CF48CCFE881F981EE0DFF1DDC
:10259000428150E030E020E010E000E090E080E098
:1025A000B3CFF12CE12CD12CC12CE8CF81E090E00D
:1025B0009C838B83ECDA882309F480CF81E090E060
:1025C0000E94420A80E40E94500A78CF89899A8941
:1025D000019661F083E090E09C838B8382E090E041
:1025E0000E94420A80E40E944A0A68CF8D819E813F
:1025F00020911D0130911E0182179307D1F4609143
:10260000210170912201AE014F5E5F4F80911F0149
:10261000909120010E94AC1C0097E1F2789422E096
:1026200030E0F20131832083892B99F08DEF9FEF09
:10263000E1CE89288A288B2869F6892B59F6CE01A4
:1026400046DE188A1F86E8CF82E090E09C838B8369
:1026500035CF90E080E0CECE82E090E0F201918331
:10266000808385EF9FEFC6CE8F929F92AF92BF92ED
:10267000CF92DF92EF92FF920F931F93CF93DF934E
:10268000EA018C01060F171FF8018181833098F051
:1026900082E090E09983888386EF9FEFDF91CF916E
:1026A0001F910F91FF90EF90DF90CF90BF90AF9070
:1026B0009F908F90089580917C0290917D02892B4C
:1026C00061F081E090E020917E0230917F02232B27
:1026D00011F490E080E0892B39F482E090E0998356
:1026E00088838EEF9FEFDACF42DE882309F4DFC0C4
:1026F000F8018181813009F495C0E8F0823099F4C5
:1027000020917E0230917F02E0917C02F0917D0267
:1027100090E080E041E050E02817390709F0BDC0A3
:1027200036DA811117C0789481E090E0998388832C
:1027300090E080E0B3CF20917E0230917F02E09163
:102740007C02F0917D0290E080E041E050E02817AB
:10275000390741F481E090E00E94420A80E40E943F
:10276000500AE1CF63817481672B11F05483438356
:1027700001967396ECCFE0917C02F0917D02E00F20
:10278000F11F2381348122303105D9F42189328926
:102790002F3F3F4FB1F42581368140911D0150916B
:1027A0001E012417350761F5AF014F5E5F4F609141
:1027B00021017091220180911F01909120010E94BE
:1027C000AC1CEFEFCE1ADE0AEE0AFE0A0D5E1F4FBA
:1027D00040917E0250917F0270E060E0C416D50601
:1027E000E606F7063CF5009731F27894892B09F458
:1027F0009BCF82E090E0998388838DEF9FEF4ECF4F
:10280000C114D104E104F104E1F6232BD1F6CF0188
:102810005EDDE0917C02F0917D02E00FF11F108AF5
:102820001786CFCF10E000E090E080E0C12CD12CE3
:102830007601CECF0097C9F610E000E0812C912CF4
:10284000540183E0E82EF12C1AC0E0917C02F09153
:102850007D02E00FF11F83819481029749F4F48295
:10286000E38282E090E00E94420A80E40E944A0AE9
:10287000FFEF8F1A9F0AAF0ABF0A0D5E1F4F8091AC
:102880007E0290917F02B0E0A0E088169906AA0629
:10289000BB06DCF290E080E0A8CF638174816230F7
:1028A000710511F4548343830196739635CF82E00A
:1028B00090E09983888385EF9FEFF0CE0097B9F47D
:1028C0008FEFFB018083209127013091280143E1A4
:1028D000429FC001439F900D1124E0917C02F09132
:1028E0007D02E80FF91F8285FB01818308950C9416
:1028F000FB0988E090E0FA019183808390E080E01A
:10290000089510927B0210927A02ECE7F2E086E0E2
:10291000DF011D928A95E9F78AEE9FE09093790294
:1029200080937802089580917802909179020895B9
:102930002F923F924F925F926F927F928F929F92CF
:10294000AF92BF92CF92DF92EF92FF920F931F93BD
:10295000CF93DF93CDB7DEB760970FB6F894DEBFA5
:102960000FBECDBFF894E0917A02F0917B023196D0
:10297000F0937B02E0937A027894A0917C02B0916C
:102980007D02BA83A983109709F4F9C1E0917E0210
:10299000F0917F02EF2B09F4F2C128874B875C8707
:1029A0006D877E879A878987B88BAF87312C212CDA
:1029B000F12C512C412C80917E0290917F0228169F
:1029C000390610F4FF2029F1F89480917A02909151
:1029D0007B02019790937B0280937A027894C201E4
:1029E00060960FB6F894DEBF0FBECDBFDF91CF91DA
:1029F0001F910F91FF90EF90DF90CF90BF90AF901D
:102A00009F908F907F906F905F904F903F902F900E
:102A10000895B10190E080E086D4682EEF85F889B2
:102A2000878181FD3DC0838194810397C9F525810C
:102A300036813C832B8389859A852817390781F550
:102A4000C101EFD8782E8823A9F1AF85B8891F96E8
:102A50008D919C915097019621E01D964D915C912E
:102A60008417950709F020E02F83B12CA12CEF8566
:102A7000F88982818A151B0419F014F0FF20E9F00F
:102A8000F885FF2309F46BC1AF85B88950961C9275
:102A90001E921F97662021F0B10190E080E045D49E
:102AA000FFEF2F1A3F0A2F8538892D5E3F4F388B55
:102AB0002F8781CFB1E0BF83D8CFBDD49E838D83D4
:102AC000E885EE23E9F0772009F43BC1AF85B889AA
:102AD0001F968D919C91892B79F0BBE0BA9DC00126
:102AE000BB9D900D1124AF85B889ED91FC91E80F45
:102AF000F91F858196814ED6BFEFAB1ABB0AB7CFBF
:102B000081E0772039F0EF85F88927853089232BFC
:102B100009F080E0F82EE12CA114B10439F4AF855E
:102B2000B8891796EC90E4FAEE24E0F8BBE0BA9D81
:102B30006001BB9DD00C1124882309F423C1AF850B
:102B4000B889ED91FC911197EC0DFD1D43815481E5
:102B50001D962D913C91429FC001439F900D529F25
:102B6000900D1124E1105CC001969087878361E08D
:102B700070E08781908528D5EF85F8892189328991
:102B8000008111810C0D1D1D2F3F320709F44AC031
:102B9000BC01C90122D7D80116969C938E93159734
:102BA000AF85B889ED91FC911197EC0DFD1D058164
:102BB00016810115110509F4CDC0ED81FE810E0FBE
:102BC0001F1F1A968C918A0DD8018C93E1102FC08B
:102BD0000F5F1F4FAF85B889ED91FC91EC0DFD1D86
:102BE00012870187AF85B889ED91FC91EC0DFD1D31
:102BF00085819681892B09F4A4C080911D01909153
:102C00001E012B813C812817390709F465C0772004
:102C100011F001851285912C812C1A8219824AC0EB
:102C20000596A3CFB4D5F80196838583B9CF8B855C
:102C30009C85AD85BE85F80181839283A383B4838F
:102C40000B5F1F4FC7CFE080F180E80CF91CD70164
:102C500013966D917C9114978C918F3F09F473C0FA
:102C6000E1E0F0E002C0EE0FFF1F8A95E2F7CF012E
:102C7000092E000CAA0BBB0BFB0140815181628124
:102C8000738184239523A623B72321E0892B8A2BE4
:102C90008B2B09F420E0D8012C93D70111968C914D
:102CA000080F111DE981FA813196FA83E983F7E073
:102CB0008F0E911CAF85B889ED91FC91EC0DFD1D37
:102CC000828129813A818217130611F00CF0BBCF63
:102CD000772011F0128701873F81332391F1AF856F
:102CE000B889ED91FC91EC0DFD1D61E070E08781EC
:102CF00090856AD4AF85B889ED91FC91EC0DFD1DEE
:102D0000E780F08445815681E1E0F0E0662011F033
:102D1000F0E0E0E00D811E819C01B1018827992738
:102D20008E1B9F0B8BD32C01892B59F0EF85F889D3
:102D300080819181C80ED91ED60115968D919C91E6
:102D400029D5F12CD9CEF701418150E0C8010E946C
:102D5000EC27A3CF86EF482E55245A94CDCEEF858D
:102D6000F889878590890196908B87872585368598
:102D70008217930709F08ECE108A17868BCE512CBE
:102D8000412C22CE10E000E02DCF2F923F924F92A7
:102D90005F926F927F928F929F92AF92BF92CF92EB
:102DA000DF92EF92FF920F931F93CF93DF93809167
:102DB0007C0290917D0210E000E0892BA9F0D7DA27
:102DC0000AEF1FEF882381F020907E0230907F026F
:102DD000C0917C02D0917D02D12CC12C10E000E08A
:102DE0002C143D04A9F47894C801DF91CF911F9170
:102DF0000F91FF90EF90DF90CF90BF90AF909F909A
:102E00008F907F906F905F904F903F902F9008959C
:102E1000C6010E94110E882309F18B819C810397C2
:102E2000E9F48F859889892BC9F0B60190E080E09C
:102E30007AD221E030E0882311F030E020E0442411
:102E40005524421A530AB12CA12C912C812C8A8131
:102E50008815190409F038F4188A1F864FEFC41A30
:102E6000D40A6396BDCFE881F981EA0DFB1D858107
:102E70009681892BA1F161E070E087819085A4D3D0
:102E80003C01D9D28C01E881F981EA0DFB1D8185D5
:102E9000928525813681200F311FAC01421B530BD7
:102EA0009A0147815085421B530B70E060E00E94FD
:102EB000F527E881F981EA0DFB1DE780F084458163
:102EC00056819301B601C201B9D28C01892B39F028
:102ED000E881F981EA0DFB1D858196815BD45FEF66
:102EE000851A950A8BE0A80EB11CB1CF40CA789420
:102EF00008952F923F924F925F926F927F929F928E
:102F0000AF92BF92CF92DF92EF92FF920F931F93F7
:102F1000CF93DF9300D000D000D0CDB7DEB70091C3
:102F20007C0210917D02992493940115110509F4F6
:102F30003EC0A0907E02B0907F0219DA982E8823BE
:102F4000B1F110927D0210927C0210927F021092D9
:102F50007E0210928002109281028FEF9FEFDC01BF
:102F60008093270190932801A0932901B0932A010F
:102F700078947AD31E830D83C12CD12C7601C501A0
:102F8000B0E0A0E089839A83AB83BC8322242A9497
:102F9000322C89819A81AB81BC81C816D906EA0698
:102FA000FB06F4F0C801F6D380E40E94500A892D94
:102FB00026960FB6F894DEBF0FBECDBFDF91CF913E
:102FC0001F910F91FF90EF90DF90CF90BF90AF9047
:102FD0009F907F906F905F904F903F902F900895BB
:102FE000AD81BE8115968D919C91169720911D0102
:102FF00030911E0182179307D1F451968D919C91C7
:10300000DAD4ED81FE8180819181B12CA12C412CFB
:10301000512C3201892B89F5BFEFCB1ADB0AEB0A61
:10302000FB0AED81FE817396FE83ED83B2CFC1145E
:10303000D104E104F10429F7892B19F7ED81FE8110
:10304000818992898F3F980709F057D4AD81BE815D
:1030500052963C922E925197D4CF8A0D9B1DDC0143
:103060008D919C91009709F095D3BFEF4B1A5B0AA5
:103070006B0A7B0AEBE0AE0EB11CAD81BE818D9177
:103080009C91119712964C9150E070E060E04416CC
:103090005506660677060CF37DD3BECFCF93DF933C
:1030A000EA0127DF811109C082E090E099838883DB
:1030B00085EF9FEFDF91CF91089581E090E00E942E
:1030C000420A81E090E09983888390E080E0F2CF2B
:1030D00010DF1092790210927802089542E050E0D9
:1030E00066EA71E00C94600AFF920F931F93CF93EE
:1030F000DF938A01EC01C60FD71FF980B4D208977D
:10310000F816190671F068F082E090E0F8019183FA
:1031100080838EEF9FEFDF91CF911F910F91FF90F2
:1031200008956C817D818E819F814B810E94F70C77
:10313000811108C082E090E0F8019183808384EFE0
:103140009FEFE9CFF9800E94F20C4F2D50E0BE01B5
:10315000685F7F4F0E94EC2789810E94610D81E0AA
:1031600090E0F8019183808390E080E0D4CFDF92FB
:10317000EF92FF920F931F93CF93DF938A01EC019D
:10318000C60FD71F0E94F20C7C01D9806CD2DD20C3
:1031900059F0029721E030E0D816190619F010F026
:1031A00030E020E0232B79F482E090E0F801918375
:1031B00080838EEF9FEFDF91CF911F910F91FF9052
:1031C000EF90DF900895EF2841F482E090E0F8015D
:1031D0009183808384EF9FEFEECFF9800E94F20C01
:1031E0004F2D50E0BE016E5F7F4F0E94EC2789811A
:1031F0000E94610D81E090E0F8019183808390E06E
:1032000080E0D9CF8EE698E190938302809382028A
:103210000895809182029091830208950895FC019F
:1032200011821082938382830895DB011D921C9288
:10323000DC011296ED91FC911397718360831396D4
:103240007C936E9312970895FC0180819181DB013C
:103250008D939C93A081B181109741F08D919C91A9
:1032600091838083892B11F4F383E2830895FC0119
:1032700080819181DB018D939C93892B11F4738361
:103280006283718360830895FC01118210829383AD
:1032900082830895CF93DF9300D0CDB7DEB71A8233
:1032A0001982F894BE016F5F7F4F89E892E0CCDF0E
:1032B00089819A81009709F06DD289819A81892B41
:1032C00089F7BE016F5F7F4F8DE892E0BDDF898196
:1032D0009A81009709F05ED289819A81892B89F7BA
:1032E00078940F900F90DF91CF910895CF93DF9353
:1032F00000D0CDB7DEB71A821982F894BE016F5F95
:103300007F4F85E892E0A0DF89819A81009709F0DC
:1033100041D289819A81892B89F778940F900F90F7
:10332000DF91CF91089581E0089590E080E00895C5
:10333000EF92FF920F931F93CF93DF9300D0CDB7FF
:10334000DEB71A8219828091840207EF1FEF88236B
:10335000A1F1F894BE016F5F7F4F8DE892E074DFBA
:10336000789489819A81EE24E394F12C892B51F48D
:10337000F894BE016F5F7F4F89E892E065DF789433
:10338000F12CE12C89819A810EEF1FEF0097A9F0B3
:10339000FC014281538164E070E00DD58C01892BE2
:1033A00061F0F89469817A81C701880F991F880FAD
:1033B000991F87579D4F5BDF7894C8010F900F903E
:1033C000DF91CF911F910F91FF90EF9008950F9390
:1033D0001F93CF93DF9300D000D0CDB7DEB71C8210
:1033E0001B821A8219828091840207EF1FEF8823C3
:1033F000C1F0AE014D5F5F4F64E070E0CE01019619
:103400004DD58C01892B69F4E981FA818B819C81EE
:1034100093838283F89469817A8185E892E005DF5D
:103420007894C8010F900F900F900F90DF91CF917B
:103430001F910F91089552D6049608958F929F92EE
:10344000AF92BF92CF92DF92EF92FF920F931F93B2
:10345000CF93DF9300D0CDB7DEB71A821982BC01BB
:103460006F5F7F4F6330710598F0AA24AA94BA2C3D
:10347000C5010F900F90DF91CF911F910F91FF9099
:10348000EF90DF90CF90BF90AF909F908F90089576
:103490004115510551F3480159018A016C01CBDFF7
:1034A0008815990511F7E114F104F9F28E0D9F1DAD
:1034B000A816B906D0F2809184028823F1F0F8941E
:1034C000B501645071099701AE014F5F5F4FC801AC
:1034D000049679D55C01892B71F489819A81F80170
:1034E00093838283C601880F991F880F991FB801A3
:1034F00087579D4F9ADE7894BBCF87EFA82EBB24C9
:10350000BA94B6CFAF92BF92CF92DF92EF92FF9272
:103510000F931F93CF93DF9300D0CDB7DEB71A82FE
:103520001982892B09F047C06115710509F443C060
:103530004115510509F43FC02115310509F43BC07F
:1035400001151105C1F1809184028823B9F1790137
:103550006A015B01F894BE016F5F7F4F85E892E0DE
:1035600073DE789489819A81009759F1DC01129673
:103570006D917C91A80104963FD58C01E981FA8177
:10358000D501ED93FC93828193810496F60191839A
:10359000808351DFD7018D939C93C8010F900F90CA
:1035A000DF91CF911F910F91FF90EF90DF90CF901F
:1035B000BF90AF9008950FEF1FEFEFCF07EF1FEF12
:1035C000ECCF0EEF1FEFE9CFCF93DF93EC01672B2A
:1035D00071F48DD58C179D0760F080D52496C80FA7
:1035E000D91F7FD58C0F9D1FDF91CF9108957CD57A
:1035F000F1CF90E080E0F8CF0F931F93CF93DF934C
:103600002091840221112BC08B01EC0189E892E00A
:1036100006DE8DE892E003DE85E892E000DE97D0DA
:103620000097C1F464D570E060E0CEDF4BE251E07A
:1036300062E070E0D9D0009769F480912B019091FD
:103640002C0167D5B801CE019CD3009719F421E075
:1036500020938402DF91CF911F910F91089584EF01
:103660009FEFF8CF41C543C5CF93DF9343D5EC011E
:10367000892B11F40FDE3ADECE01DF91CF91089550
:10368000CF93DF9337D5EC01892B09F403DECE010C
:10369000DF91CF91089580912B0190912C01089595
:1036A000CF93DF9380918402D0E0C0E08823D1F0F3
:1036B00035D5EC01892BB1F4EDDD18DE80912B01BD
:1036C00090912C011AD1CED1EC01892B59F489E8C3
:1036D00092E0DADD8DE892E0D7DD85E892E0D4DD96
:1036E00010928402CE01DF91CF910895EF92FF9264
:1036F0000F931F93CF93DF93EC017A018B010F5F40
:103700001F4F0E9DA0010F9D500D1E9D500D1124A9
:1037100070E060E00E94F52790E080E0F0E0E0E0FB
:103720002FEFE816F90639F4DF91CF911F910F9131
:10373000FF90EF9008951A8219822883309711F034
:10374000D283C1830196FE01C00FD11FEACFE3E906
:10375000F2E085E8DF011D928A95E9F71092920266
:1037600010929102EFE1F3E011821082158214822F
:10377000138212821782168211861086EBE1F3E023
:10378000118210821382128290E080E0089590E00E
:1037900080E00895009739F1DC018E91813041F489
:1037A000E0911D03F0911E033097E9F0CD010994DB
:1037B000811119C0F8948FEF8C9380911F03909121
:1037C000200312969C938E931197B0932003A0939D
:1037D0001F0380912103909122030196909322036D
:1037E0008093210378940895EF92FF920F931F9393
:1037F000CF93DF934115510509F47CC0009709F47C
:1038000079C06115710509F475C0EA01AB01BC010D
:10381000F89480911F0390912003892B19F586E974
:1038200092E08C7F6D5F7F4F6C7F9B012F5F3F4FDE
:10383000249F8001259F100D349F100D112420918D
:103840002703309128032115310509F03CC0E09091
:103850009102F090920222E830E02E193F092017E1
:10386000310730F478942FEF3FEF86EF9FEF22C0BF
:103870009093200380931F035093240340932303CA
:1038800050932203409321037093260360932503F2
:103890001093280300932703009709F027DF0E0DEC
:1038A0001F1D1093920200939102789430E020E063
:1038B00090E080E039832883DF91CF911F910F91B1
:1038C000FF90EF9008952017310760F29093200346
:1038D00080931F03509324034093230350932203A8
:1038E0004093210370932603609325030097E9F228
:1038F000FDDEDBCF8FEF9FEFDFCF892B51F5F89403
:103900001092200310921F0310922403109223039D
:103910001092220310922103109226031092250385
:1039200020912703309128032115310571F08091F2
:10393000910290919202821B930B9093920280933A
:1039400091021092280310922703789490E080E06F
:1039500008958FEF9FEF08954115510549F10097A4
:1039600039F16115710521F1F89420911B03309113
:103970001C03232BB9F420911D0330911E03232B2C
:1039800089F490931C0380931B0370931E03609330
:103990001D03789421E030E090E080E0FA0131836B
:1039A0002083089578942FEF3FEF86EF9FEFF6CFB7
:1039B0008FEF9FEF0895019769F4F89410921C031C
:1039C00010921B0310921E0310921D03789490E036
:1039D00080E008958FEF9FEF08956115710519F448
:1039E000F0E0E0E011C08130910581F4E0911B032B
:1039F000F0911C033097A1F3CB0101960995009734
:103A000079F3FC0181E08193CF010895892B41F77F
:103A100080911F0390912003892B11F3809125033E
:103A20009091260386179707D8F2F8948091210386
:103A300090912203009731F0E0911F03F091200351
:103A4000309711F47894CCCF2181328130932003C8
:103A500020931F03019790932203809321031192D7
:103A60007894D2CFE8E1F3E083E0DF011D928A95FC
:103A7000E9F7E3E9F2E085E8DF011D928A95E9F7CD
:103A80001092920210929102EFE1F3E08AE0DF01DE
:103A90001D928A95E9F7EBE1F3E084E0DF011D92E6
:103AA0008A95E9F790E080E00895CF93DF93C09185
:103AB0002D01D0912E01CF3FDC0759F4C1D3909353
:103AC0002E0180932D0197FF09C0D0932E01C09342
:103AD0002D0184EF9FEFDF91CF91089590E080E07A
:103AE000FACF8230910528F48093290390E080E09A
:103AF00008958FEF9FEF08954F925F926F927F929C
:103B0000AF92BF92CF92DF92EF92FF920F931F93EB
:103B1000CF93DF9300D0CDB7DEB71A82198200971A
:103B200009F478C06115710509F474C020912D0164
:103B300030912E0107EF1FEF2F3F3F4F09F444C094
:103B40006B015C01412C512C3201F12CE12C10E075
:103B500000E09E012F5F3F4FA6014E195F09B5019E
:103B60006E0D7F1D80912D0190912E01C8D3892B60
:103B700009F04AC089819A81009741F4E114F10467
:103B800029F420912903222309F441C0E80EF91EEB
:103B9000EC14FD04C8F480E8481684E858068EE169
:103BA0006806710418F560E070E0CB01F5D62AE0F4
:103BB000420E511C611C711C0A3F4FEF140721F08B
:103BC000043F8FEF1807A1F4C8010F900F90DF9109
:103BD000CF911F910F91FF90EF90DF90CF90BF900A
:103BE000AF907F906F905F904F90089501EF1FEF1F
:103BF00081E090E0013F2FEF120711F090E080E0AC
:103C0000892B09F4A6CFE0CF04EF1FEFDDCF0AEF39
:103C10001FEFDACF0FEF1FEFD7CF4F925F926F9268
:103C20007F92AF92BF92CF92DF92EF92FF920F936B
:103C30001F93CF93DF9300D0CDB7DEB71A821982DE
:103C4000009709F478C06115710509F474C02091DA
:103C50002D0130912E0107EF1FEF2F3F3F4F09F449
:103C600044C06B015C01412C512C3201F12CE12C40
:103C700010E000E09E012F5F3F4FA6014E195F0943
:103C8000B5016E0D7F1D80912D0190912E01EDD219
:103C9000892B09F04AC089819A81009741F4E11487
:103CA000F10429F420912903222309F441C0E80EEC
:103CB000F91EEC14FD04C8F480E8481686E958069D
:103CC00088E96806710418F560E070E0CB0164D6FD
:103CD0002AE0420E511C611C711C0E3F4FEF14076D
:103CE00021F0043F8FEF1807A1F4C8010F900F9047
:103CF000DF91CF911F910F91FF90EF90DF90CF90C8
:103D0000BF90AF907F906F905F904F90089502EFBB
:103D10001FEF81E090E0023F2FEF120711F090E0DB
:103D200080E0892B09F4A6CFE0CF04EF1FEFDDCFB1
:103D30000EEF1FEFDACF0FEF1FEFD7CF80912D01DE
:103D400090912E018F3F980749F072D2892B49F448
:103D50008FEF9FEF90932E0180932D0190E080E0F4
:103D6000089584EF9FEF0895FC01680F791F90E09C
:103D700080E0E617F70709F408952191820F911D5D
:103D8000F8CF20912A03211113C08FDE009791F400
:103D90001092300310922F0310922E0310922D03D5
:103DA00010922C0310922B0321E020932A030895F4
:103DB00084EF9FEF0895AF92BF92CF92DF92EF9280
:103DC000FF920F931F93CF93DF93009709F460C086
:103DD0004630510508F45CC020912A03C7EFDFEF9D
:103DE000222309F449C08C01060F171FF801C08077
:103DF000D180C114D10409F44EC096012A5F3F4F0F
:103E00004217530708F447C07C0180912F0390911B
:103E1000300393838283B6016C5F7F4F5801A60EF7
:103E2000B71EC801A1DFF5019183808364E070E0D3
:103E3000C80162DEEC01892BF9F481E090E051DEEB
:103E4000B601C801049658DEEC01892B91F462E0BA
:103E500070E0C50151DEEC01892B59F4C7019ADCF1
:103E600080912F03909130030196909330038093BB
:103E70002F0390E080E035DECE01DF91CF911F91DE
:103E80000F91FF90EF90DF90CF90BF90AF9008958B
:103E9000CFEFDFEFF1CFC9EFDFEFEECF6F927F9281
:103EA0008F929F92AF92BF92CF92DF92EF92FF924A
:103EB0000F931F93CF93DF9300D000D0CDB7DEB721
:103EC000009709F47AC04115510509F476C0209194
:103ED0002A0307EF1FEF222309F44DC03A017B01AB
:103EE0005C0164E070E0CE01019697DE8C01892BC5
:103EF00009F041C009811A810115110509F45AC060
:103F0000480186E0880E911CB701680D791D8091EB
:103F10002F019091300161DD6C01009709F450C0D0
:103F2000A70170E060E00E94F52789819A81AB814A
:103F3000BC81EC0CFD1CF70181939193A193B1938B
:103F40007F0181E090E0CDDDB801C70166DE892BFD
:103F500031F562E070E0C701800F911F5EDE8C01D9
:103F6000892BE9F490E080E0BCDDF501D182C082CC
:103F7000F30191828082C8010F900F900F900F90F3
:103F8000DF91CF911F910F91FF90EF90DF90CF9035
:103F9000BF90AF909F908F907F906F90089590E02A
:103FA00080E09FDDF50111821082F3011182108201
:103FB000C601F0DB09EF1FEFDECF0FEF1FEFDBCF06
:103FC00006EF1FEFD8CF0097A1F04115510589F0FA
:103FD0002115310571F0F90136966E177F0748F00B
:103FE000DC012D933C93DA01ED93FC9390E080E0AB
:103FF00008958FEF9FEF0895AF92BF92CF92DF9217
:10400000EF92FF920F931F93CF93DF93009709F4E2
:104010005FC04115510509F45BC06530710508F4B6
:1040200057C020912A03C7EFDFEF222391F1DC0173
:10403000CD90DC9011971296ED91FC9196012A5F3C
:104040003F4FC9EFDFEF2617370719F5C0912B0354
:10405000D0912C03209749F521E030E030932C03D8
:1040600020932B037A018C01F0932E03E0932D0310
:104070005601B4E0AB0EB11CB50176DE0A0D1B1D76
:10408000F801208131818217930729F5D701CD925C
:10409000DC92CE01DF91CF911F910F91FF90EF90B5
:1040A000DF90CF90BF90AF90089520912D03309175
:1040B0002E032F5F3F4FCCEFDFEFE217F30790F2B5
:1040C000CBEFDFEF2E173F0768F2D0E0C0E0CACF9A
:1040D000CFEFDFEFDECFC3EFDFEFDBCF84E090E0A9
:1040E000089582E090E008958CEF9FEF089580E2BC
:1040F00090E008951092300310922F0310922E0337
:1041000010922D0310922C0310922B0390E080E06C
:1041100008959093300180932F01089580912A0390
:10412000882391F00BDE009789F4109230031092EF
:104130002F0310922E0310922D0310922C03109235
:104140002B0310922A03089590E080E008950097D1
:1041500049F06115710531F0FC0111821082FB01FB
:10416000118210820895F3CF26E030E040E855E256
:1041700060E070E090E080E000C0892B19F48EE3ED
:1041800093E0D7C508951F920F920FB60F92112496
:104190002F933F934F935F936F937F938F939F934F
:1041A000AF93BF93EF93FF9386E09FEF90938500CB
:1041B00080938400B7D0FF91EF91BF91AF919F9111
:1041C0008F917F916F915F914F913F912F910F90C0
:1041D0000FBE0F901F90189586E09FEF909385007B
:1041E00080938400AFE6B0E08C918E7F8C93E0E802
:1041F000F0E080818C7F8083E1E8F0E08081877E41
:10420000808380818360808380818B7F80838C9199
:1042100081608C930895EFE6F0E0808190819E7F2D
:1042200090838170089581E008951092310308957C
:1042300068EE73E080E090E0AFD390E080E0089516
:1042400026E030E040E052EC61E070E090E080E099
:1042500094DF8EE393E0A3D4892B21F08EE393E0E7
:10426000B8D4F7CF90E080E00895CF92DF92EF923C
:10427000FF920F931F93CF93DF936B017A01E901B4
:10428000198218828EE393E08AD4892B69F1860122
:10429000CC24C39482E0D82E80913103811110C0C8
:1042A0008EE393E096D40297B9F7C0923103F801F8
:1042B000D1928F0188819981019699838883ECCF6F
:1042C000888199818E159F0578F48EE393E081D4DF
:1042D0008F3F9807A9F3F80181938F018881998115
:1042E000019699838883ECCF90E080E0DF91CF91B5
:1042F0001F910F91FF90EF90DF90CF9008950F9353
:104300001F93CF93DF93EA0189018EE393E0F5D504
:10431000F801D183C08390E080E0DF91CF911F91BD
:104320000F910895CF92DF92EF92FF928091320326
:1043300091E0980F90933203882369F021E030E0F8
:10434000309334032093330380933203FF90EF9034
:10435000DF90CF9008957894E0913201F09133018D
:10436000C28CD38CE48CF58C0E946D02B701A6013F
:1043700090E080E00E949101F89480913203815096
:10438000E3CF0F931F93CF93DF93109210071092F8
:104390000F0738D3E9DEC0913201D0913301198281
:1043A00018826FEF7FEFCB010E94130270E060E094
:1043B00090E080E00E949500009709F03AC00E94CA
:1043C0005C03F8947894BE016E5D7F4F8A819B8177
:1043D0000E949800892B59F46FEF7FEFCB010E9468
:1043E00027010E940D02882311F081E08EA3F8942A
:1043F000F3DE0E941002882311F080E008C00E94C2
:104400000D028111FACF81E09EA19111F6CF809328
:104410000F0778940E943D0A8C01789480910F07D1
:1044200081110CC00E9410040E94F301F89490E0E6
:1044300080E0DF91CF911F910F9108950E94F101CB
:104440000E9410028823D9F081E080931007909198
:10445000100781E0911180E080930F078091100791
:104460008111D9DE0130110529F40E943D0A892B02
:1044700009F4DBDE0E943D0A8C01D5DECFCF0E941D
:104480000D028111E1CF81E09EA19111DECF80E08C
:10449000DCCF5058BB27AA270ED057C148D130F0E7
:1044A0004DD120F031F49F3F11F41EF43DC10EF4C4
:1044B000E095E7FB0AC1E92F59D180F3BA176207EB
:1044C00073078407950718F071F49EF588C10EF400
:1044D000E0950B2EBA2FA02D0B01B90190010C0114
:1044E000CA01A0011124FF27591B99F0593F50F42C
:1044F000503E68F11A16F040A22F232F342F442784
:10450000585FF3CF469537952795A795F04053957B
:10451000C9F77EF41F16BA0B620B730B840BBAF04B
:104520009150A1F0FF0FBB1F661F771F881FC2F7B6
:104530000EC0BA0F621F731F841F48F487957795CA
:104540006795B795F7959E3F08F0B3CF9395880F81
:1045500008F09927EE0F97958795089529D180F057
:104560009F3740F491110EF43BC160E070E080E8A9
:104570009FE3089526F01B16611D711D811DABC0C0
:10458000C5C07FD008F481E00895F8D088F09F5727
:1045900090F0B92F9927B751A0F0D1F0660F771F8F
:1045A000881F991F1AF0BA95C9F712C0B13081F06F
:1045B00016D1B1E0089513C1672F782F8827B85F0F
:1045C00039F0B93FCCF3869577956795B395D9F7D0
:1045D0003EF490958095709561957F4F8F4F9F4FDA
:1045E0000895E89409C097FB3EF4909580957095E6
:1045F00061957F4F8F4F9F4F9923A9F0F92F96E92F
:10460000BB279395F695879577956795B795F111A3
:10461000F8CFFAF4BB0F11F460FF1BC06F5F7F4F40
:104620008F4F9F4F16C0882311F096E911C0772352
:1046300021F09EE8872F762F05C0662371F096E85B
:10464000862F70E060E02AF09A95660F771F881F2A
:10465000DAF7880F9695879597F90895A9D080F095
:104660009F3740F491110EF0BBC060E070E080E82D
:104670009FEB089526F41B16611D711D811D2BC033
:1046800045C0990F0008550FAA0BE0E8FEEF16167B
:104690001706E807F907C0F012161306E407F50736
:1046A00098F0621B730B840B950B39F40A2661F0AA
:1046B000232B242B252B21F408950A2609F4A1404D
:1046C000A6958FEF811D811D089597F99F6780E85A
:1046D00070E060E00895882371F4772321F098500A
:1046E000872B762F07C0662311F499270DC09051B0
:1046F000862B70E060E02AF09A95660F771F881F7E
:10470000DAF7880F9695879597F908959F3F31F0CE
:10471000915020F4879577956795B795880F911DEF
:104720009695879597F908959FEF80EC089500245A
:104730000A941616170618060906089500240A9406
:1047400012161306140605060895092E0394000C8C
:1047500011F4882352F0BB0F40F4BF2B11F460FF1B
:1047600004C06F5F7F4F8F4F9F4F089557FD905844
:10477000440F551F59F05F3F71F04795880F97FB25
:10478000991F61F09F3F79F08795089512161306DF
:104790001406551FF2CF4695F1DF08C0161617060E
:1047A0001806991FF1CF8695710561050894089543
:1047B000E5DFA0F0BEE7B91788F4BB279F3860F4A7
:1047C0001616B11D672F782F8827985FF7CF86952B
:1047D00077956795B11D93959639C8F30895E89438
:1047E000BB2766277727CB0197F908954ADF08F49E
:1047F0008FEF08950BD0A9CF9ADF28F09FDF18F034
:10480000952309F062CF90CF1124EACFAFDFA0F358
:10481000959FD1F3950F50E0551F629FF001729F55
:10482000BB27F00DB11D639FAA27F00DB11DAA1F74
:10483000649F6627B00DA11D661F829F2227B00DC1
:10484000A11D621F739FB00DA11D621F839FA00D4C
:10485000611D221F749F3327A00D611D231F849F9C
:10486000600D211D822F762F6A2F11249F575040F3
:104870008AF0E1F088234AF0EE0FFF1FBB1F661F8E
:10488000771F881F91505040A9F79E3F510570F047
:104890001CCFA6CF5F3FECF3983EDCF3869577956F
:1048A0006795B795F795E7959F5FC1F7FE2B880F42
:1048B000911D9695879597F908951F920F920FB6BF
:1048C0000F9211242F933F938F939F93AF93BF9396
:1048D0008091360390913703A0913803B09139034A
:1048E0003091350323E0230F2D3758F50196A11D94
:1048F000B11D209335038093360390933703A09323
:104900003803B093390380913A0390913B03A0910F
:104910003C03B0913D030196A11DB11D80933A0364
:1049200090933B03A0933C03B0933D03BF91AF91A1
:104930009F918F913F912F910F900FBE0F901F90DD
:10494000189526E8230F0296A11DB11DD2CF3FB7BF
:10495000F89480913A0390913B03A0913C03B0916D
:104960003D0326B5A89B05C02F3F19F00196A11D58
:10497000B11D3FBFBA2FA92F982F8827BC01CD01A9
:10498000620F711D811D911D42E0660F771F881F08
:10499000991F4A95D1F708958F929F92AF92BF9237
:1049A000CF92DF92EF92FF926B017C01D0DF4B013F
:1049B0005C01C114D104E104F104D9F0CBD2C7DF0A
:1049C000681979098A099B09683E73408105910538
:1049D00080F321E0C21AD108E108F10888EE880EC0
:1049E00083E0981EA11CB11CC114D104E104F104A0
:1049F00031F7FF90EF90DF90CF90BF90AF909F90F6
:104A00008F900895789484B5826084BD84B5816068
:104A100084BD85B5826085BD85B5816085BDEEE6C6
:104A2000F0E0808181608083E1E8F0E010828081A5
:104A300082608083808181608083E0E8F0E0808113
:104A400081608083E1EBF0E0808184608083E0EB33
:104A5000F0E0808181608083EAE7F0E0808184601B
:104A60008083808182608083808181608083808177
:104A7000806880831092C1000895833081F028F40B
:104A8000813099F08230A9F008958730A9F08830FC
:104A9000C9F08430B1F4809180008F7D03C0809193
:104AA00080008F7780938000089584B58F7784BDD0
:104AB000089584B58F7DFBCF8091B0008F77809370
:104AC000B00008958091B0008F7DF9CFCF93DF9330
:104AD00090E0FC01E458FF4F249180579F4FFC0168
:104AE00084918823C9F090E0880F991FFC01E2555A
:104AF000FF4FA591B491FC01EC55FF4FC591D491A6
:104B000061110DC09FB7F8948C91209582238C93EE
:104B10008881282328839FBFDF91CF910895623039
:104B200051F49FB7F8943C91822F809583238C9306
:104B3000E8812E2BEFCF8FB7F894EC912E2B2C938E
:104B40008FBFEACF1F93CF93DF93282F30E0F90177
:104B5000E859FF4F8491F901E458FF4FD491F901CE
:104B6000E057FF4FC491CC23A1F0162F811185DFB0
:104B7000EC2FF0E0EE0FFF1FEC55FF4FA591B49125
:104B80008FB7F894EC91111108C0D095DE23DC9317
:104B90008FBFDF91CF911F910895DE2BF8CFFC01DD
:104BA000918D228D892F90E0805C9F4F821B91090F
:104BB0008F7399270895FC01918D828D981731F09C
:104BC000828DE80FF11D858D90E008958FEF9FEFA6
:104BD0000895FC01918D828D981761F0A28DAE0F22
:104BE000BF2FB11D5D968C91928D9F5F9F73928FA9
:104BF00090E008958FEF9FEF0895FC01538D448D51
:104C0000252F30E0842F90E0821B930B541710F077
:104C1000CF96089501970895FC01A48DA80FB92F90
:104C2000B11DA35ABF4F2C91848D90E001968F73D4
:104C30009927848FA689B7892C93A089B1898C91F3
:104C4000837080648C93938D848D981306C0028842
:104C5000F389E02D80818F7D80830895CF93DF934A
:104C6000EC01888D8823B1F0AA89BB89E889F9898C
:104C70008C9185FD03C0808186FD0CC00FB607FCBA
:104C8000F7CF8C9185FFF2CF808185FFEDCFCE01EC
:104C9000C3DFEACFDF91CF910895EF92FF920F9398
:104CA0001F93CF93DF93EC0181E0888F9B8D8C8DD8
:104CB00098131AC0E889F989808185FF15C09FB7CC
:104CC000F894EE89FF896083E889F989808183708F
:104CD000806480839FBF81E090E0DF91CF911F913E
:104CE0000F91FF90EF900895F62E0B8D10E00F5F5F
:104CF0001F4F0F731127E02E8C8D8E110BC00FB636
:104D000007FCFACFE889F989808185FFF5CFCE01CC
:104D100083DFF2CFEB8DEC0FFD2FF11DE35AFF4F38
:104D2000F0829FB7F8940B8FEA89FB8980818062BB
:104D3000D0CFCF92DF92EF92FF921F93CF93DF936A
:104D4000EC016A017B01122FE889F98982E08083F6
:104D5000C11481EED806E104F10499F060E079E035
:104D60008DE390E0A7019601F6D021503109410969
:104D700051095695479537952795211580E13807B4
:104D800090F0E889F989108260E874E88EE190E09B
:104D9000A7019601E0D021503109410951095695EA
:104DA000479537952795EC85FD853083EE85FF8502
:104DB0002083188EEC89FD891083EA89FB89808124
:104DC00080618083EA89FB89808188608083EA89A9
:104DD000FB89808180688083EA89FB8980818F7D5F
:104DE0008083DF91CF911F91FF90EF90DF90CF9064
:104DF00008951F920F920FB60F9211242F938F9345
:104E00009F93EF93FF93E0914E03F0914F038081C6
:104E1000E0915403F091550382FD1BC09081809175
:104E200057038F5F8F7320915803821741F0E091F1
:104E30005703F0E0E25CFC4F958F80935703FF919E
:104E4000EF919F918F912F910F900FBE0F901F9018
:104E500018958081F4CF1F920F920FB60F921124F4
:104E60002F933F934F935F936F937F938F939F9372
:104E7000AF93BF93EF93FF938EE393E0CDDEFF916B
:104E8000EF91BF91AF919F918F917F916F915F91C2
:104E90004F913F912F910F900FBE0F901F9018953B
:104EA000EEE3F3E01382128288EE93E0A0E0B0E03C
:104EB00084839583A683B78386EB91E09183808377
:104EC00085EC90E09587848784EC90E097878687CF
:104ED00080EC90E0918B808B81EC90E0938B828BC7
:104EE00082EC90E0958B848B86EC90E0978B868BA0
:104EF000118E128E138E148E0895AF92BF92CF92A0
:104F0000DF92EF92FF920F931F93CF93DF936C0189
:104F10007B018B01040F151FEB015E01AE18BF086A
:104F2000C017D10759F06991D601ED91FC9101901C
:104F3000F081E02DC6010995892B79F7C501DF9134
:104F4000CF911F910F91FF90EF90DF90CF90BF9086
:104F5000AF9008950895A1E21A2EAA1BBB1BFD0174
:104F60000DC0AA1FBB1FEE1FFF1FA217B307E40748
:104F7000F50720F0A21BB30BE40BF50B661F771FA0
:104F8000881F991F1A9469F7609570958095909580
:104F90009B01AC01BD01CF010895EE0FFF1F0590ED
:104FA000F491E02D099409D0A59F900DB49F900D28
:104FB000A49F800D911D11240895A29FB001B39F5D
:104FC000C001A39F700D811D1124911DB29F700D12
:104FD000811D1124911D0895FB01DC0102C0019087
:104FE0000D9241505040D8F70895DC0101C06D93F7
:0C4FF00041505040E0F70895F894FFCFC6
:104FFC00000000000000803F00401C4600409C4523
:10500C0000000000FEFFFFFF01E8030000FFFF00AF
:10501C00000000FFFFFFFFFFFFFFFFFFFFFFFFFF91
:10502C00FF01DA01FF00940CC00CFE007A0CFB09A6
:10503C00FD000C0C660CFC00520CFB09F600430D39
:10504C00FB09F500190C820DF4000C0D990DDE0016
:10505C00C5115E14DD003413FB09DA004D0F550F3A
:10506C00D9007914650FE200350EFB09E100700ED2
:10507C00FB09E000E50EFB09D6004E18FB09D50034
:10508C00F210FB09D4007E10FB09D300EF0FFB09D3
:10509C00C000740FFB09F000B718FB09ED00741881
:1050AC00FB09000000004D267D27FD252E26CF256F
:0450BC00E925DB25E2
:00000001FF
